:100000000C949E020C94BB020C94BB020C94BB0299
:100010000C94BB020C94BB020C94BB020C94BB026C
:100020000C94BB020C94BB020C941C270C94EF277D
:100030000C94DA210C94BB020C94BB020C94BB020E
:100040000C94BB020C94BB020C94BB020C94BB023C
:100050000C94BB020C9461220C94BB020C94BB0266
:100060000C94BB020C94BB020C94BB020C94BB021C
:100070000C94BB020C94BB020C94BB020C94BB020C
:100080000C94BB020C94BB020C94BB020C94BB02FC
:100090000C94BB020C94BB020C94BB020C94BB02EC
:1000A0000C94BB020C94BB020C94BB02C774C974C1
:1000B000CB74CD74D174D674DA74DC74DE74E074ED
:1000C000E274C874CA74CC74CE74D274D774DB74FE
:1000D000DD74DF74E174E97400000000447ECF74C5
:1000E000D074D874D974C2740000000000000000FD
:1000F0000000000000000000000000000000000000
:1001000000000000E100E000E200E3002C00AA0093
:100110005000510052004F00A900000000000100F3
:10012000C17400000000000000000000000000009A
:1001300014001A000800150017001C0018000C001D
:10014000120013002A001D001B0006001900050004
:10015000110010003600370038004C00000000008D
:10016000E000E300E2002C00417E427E000000003F
:1001700000003A003B003C003D003E003F004000D4
:1001800041004200430044000000000000002B003A
:100190002900AC00AA00A900AB00AE004500000099
:1001A0000000E000E300E2002C000100010000007C
:1001B000000000001E001F0020002100220023007C
:1001C00024002500260027002A003500000000003A
:1001D0002B00290046002D002E002F00300031009A
:1001E00000000000E000E300E2002C00010001003C
:1001F00000000000000000000000000000000000FF
:1002000000000000000000000000000000000000EE
:1002100000000000000000000000000000000000DE
:10022000000000000000437E00000000000001000C
:1002300001000000000000004200AB00000041008F
:10024000A90000004000AA0000003F00AC00000030
:1002500044004500000026002F00000025002E006D
:10026000000024002D0000002300460000002A00AA
:10027000310000001E00350000002A004C00000084
:100280001300380000001200370000000C00360098
:1002900000001800100000001C00110000001700F2
:1002A000050000001500190000000800060000000D
:1002B0001A001B00060000001A001B0000001400BA
:1002C0001D00000000D0D0D0D0D0D0010102040821
:1002D0001020414244484800000048485060818254
:1002E000848890A0C1C2C4D0D0D0D0D0D0C80000E3
:1002F00000000000000000000000000000000000FE
:100300000000000000000000000000002A2B280070
:1003100000000000000000000000000000000029B4
:10032000000000002C1E3420212224342627252EF4
:10033000362D3738271E1F2021222324252633332C
:10034000362E37381F0405060708090A0B0C0D0E58
:100350000F101112131415161718191A1B1C1D2F24
:100360003130232D350405060708090A0B0C0D0E44
:100370000F101112131415161718191A1B1C1D2F04
:100380003130354C0000000000000000000000008B
:10039000000000000000000000000000000000005D
:1003A00000000000000000007E0F00D4FFFFFFC728
:1003B000000000781003540068006500200055001C
:1003C0006E00690000001E037300740065006E007B
:1003D0006F006B006500790062006F0061007200C1
:1003E000640073000000040309040902780004019A
:1003F00000A0FA0904000001030101000921110114
:1004000000012244000705810308000109040100DE
:1004100001030000000921110100012284000705E9
:100420008203200001080B020202020100090402FB
:10043000000102020100052400100104240202054B
:1004400024060203070583030800FF0904030002D2
:100450000A000000070505021000050705840210C8
:10046000000512010002EF020108009001000100E6
:100470000102000105010902A10185020901A10093
:100480000509190129081500250195087501810242
:100490000501093009311581257F9502750881060E
:1004A00009381581257F950175088106050C0A38E4
:1004B000021581257F950175088106C0C0050109D7
:1004C00006A1018506050719E029E7150025019514
:1004D00008750181020507190029EF15002501950E
:1004E000F07501810205081901290595057501912D
:1004F00002950175039101C005010906A1010507D7
:1005000019E029E71500250195087501810295017B
:10051000750881010507190029FF150026FF0095C0
:1005200006750881000508190129051500250195A2
:100530000575019102950175039101C011241FBE3B
:10054000CFEFDAE0DEBFCDBF11E0A0E0B1E0EEEC2E
:10055000F8E502C005900D92A03FB107D9F723E05E
:10056000A0EFB1E001C01D92A03CB207E1F70E94EC
:1005700070140C941F2C0C94000080E00E94CC148A
:1005800008959C01FB0122348EE7380709F458C016
:1005900050F420348EE73807D1F021343E4709F477
:1005A0003FC081E0089523348EE73807D9F0243422
:1005B0003E47B9F785818115E9F00E943A22909370
:1005C000F3018093F20181E00E94970909C08581BF
:1005D000811531F082E00E94970982E00E948B0928
:1005E00080E0089585818115D9F380E00E94970904
:1005F00080E0F4CF8091F2019091F3010E945222A9
:10060000883C910548F480E00E94A70982E00E949E
:10061000970982E00E948B0981E00E94A709E0CF40
:100620008581811549F084E00E94970945E063E0E7
:1006300084E00E94EC0AD4CF84E00E94A709F6CFA0
:100640008581811511F083E0EFCF83E0F6CF86300E
:10065000B8F46330A8F44B3098F4E42FF0E09BE05A
:10066000699FE00DF11D112491E2899FE00DF11DBC
:100670001124EE0FFF1FE455FF4F859194910895CB
:1006800081E090E008950E942703089587E190E0BB
:10069000089547E0489F9001499F300D1124C901FA
:1006A00080509F4F08959C019A9581159F4118F5A0
:1006B000F901EE27F270832F8170B90166277470FB
:1006C000A9014427587034FF0CC08295807FEF2B1E
:1006D00009F08062672B09F08064452B69F080681F
:1006E0000895EF2B09F08260672B09F08460452B99
:1006F00019F08860089580E00895CF93DF93EB01AF
:100700000E945303FE010995DF91CF910895CF9385
:10071000DF93EC01805E9109089720F067EE78E0A6
:10072000209711F466EA76E0CE010E947D038C2FBB
:100730000E94C905DF91CF910895CF93DF93EC011B
:100740000E943D06CE01805E9109089720F06EEE72
:1007500078E0209711F46DEA76E0CE010E947D03E7
:10076000DF91CF91089581E008950E94B303089529
:1007700081E008950E94C102089508950E94BD037A
:100780000895A6E0B0E0E7ECF3E00C947B2B4983FE
:100790005A839E833091000289819A8131111AC057
:1007A0003E81311599F0211589F00E945E0A182FBB
:1007B000682F89819A810E943A0A69817A81812F02
:1007C0000E94D4112696E3E00C94972B0E944C0AC9
:1007D000182FF3CF0E945E0A69817A81F1CFFC0164
:1007E000262F87819085009741F440815181628155
:1007F0007381848195810E94C10308950F931F9393
:10080000CF93DF93D82FC92F61E00E94EF038C01B3
:100810006D2F7C2F0E94B503811559F06D2F7C2F11
:10082000C8010E946B198170DF91CF911F910F91C8
:10083000089580E090E0F7CFCF93DF93D82FC92FB2
:1008400060E00E94EF036D2F7C2F0E94BE03DF91BA
:10085000CF91089581E008950E942A040895CF93CE
:10086000C82F0E9403098C2F0E942C042FEF84E3D1
:100870009CE0215080409040E1F700C00000CF9103
:10088000089581E00E942F040E948522089580E04F
:100890000E942F040E94962208950F931F93CF93D6
:1008A000DF938C0161E00E94EF03EC01B8010E942C
:1008B000BA03811509F442C0B801CE010E94DF14C9
:1008C0008115E1F1B801CE010E94DB168115B1F16D
:1008D000B801CE010E94F01F811581F1B801CE014F
:1008E0000E94541B811551F1B801CE010E94291BB1
:1008F000811521F1F8018581811581F0CA35FCE768
:10090000DF0739F178F4C130ECE7DE07F9F0C330E6
:10091000FCE7DF07C9F0C115DC4771F0C8010E9490
:10092000B8030DC0CB35ECE7DE07B1F0CC35DC47C2
:10093000A9F70E94130FF2CF0E94410480E0DF91DB
:10094000CF911F910F9108950E94250F0E94470497
:10095000F5CF0E941D0FE2CF0E94210FDFCF0E9432
:10096000B6210E94600508950E9464050E94BB2183
:1009700008954F925F926F927F92AF92BF92CF9203
:10098000DF92EF92FF920F93CF93DF937C012901C7
:100990003A01615071096B01EC01C60FD71F188233
:1009A000A12CB12CAC14BD0478F0C701DF91CF911C
:1009B0000F91FF90EF90DF90CF90BF90AF907F901E
:1009C0006F905F904F900895C301B2012AE030E02C
:1009D00040E050E00E94442B605D603341F4A1147C
:1009E000B10429F045284628472809F4602F6A9366
:1009F00029013A018FEFA81AB80AD4CF0F939C01AE
:100A0000062F8091A1019091A2018217930721F4F2
:100A10008091FA01861781F03093A2012093A10101
:100A20000093FA0140E050E066E070E084EF91E06E
:100A30000E94B9040F91089584EF91E0FBCF292F14
:100A400030E021153105E9F49C0180E0A90174E052
:100A5000569547957A95E1F74115510511F08C5F50
:100A60009A01A90156954795569547954115510507
:100A700011F08E5F9A0136952795232B09F08F5F31
:100A8000089588E0E3CF089581E008950895CF9315
:100A9000DF93D82F0E944405C82F811519F08D2FA0
:100AA0000E9446058C2FDF91CF9108950895CF9332
:100AB000C82F0E9443058C2F0E944705CF910895AF
:100AC00080E00E94570508950E9436200E94570535
:100AD0000895CF930E943620C82F8091FB018C1778
:100AE00079F0C093FB010E9446226093FC01709351
:100AF000FD018093FE019093FF018C2F0E9457050A
:100B0000CF910895AFE0B0E0E8E8F5E00C947A2BDF
:100B10004A875B876C877D878E879F8791110E94AC
:100B20000F0E1F821886198686E0FE013A96DE01B6
:100B3000119601900D928A95E1F78D8181110FC078
:100B400009811A812B813C814D815E816F8178857D
:100B500089850E944F0D2F96E4E00C94962BCE01D0
:100B600001960E94FE038111EBCFF5CFFC01848139
:100B7000813021F4808191810E94900A089561154D
:100B800029F00E94C11C0E94951D08950E941D1D00
:100B9000FACFCF93C82F8115C9F08238C9F40E94CB
:100BA000432081FD13C089E30E9423210E94B50EDA
:100BB0002FEF87EE93E0215080409040E1F700C096
:100BC000000089E30E943A210E94B50ECF9108955A
:100BD0008338A1F40E94432080FDF8CF83E50E9472
:100BE00023210E94B50E2FEF81EE94E0215080402A
:100BF0009040E1F700C0000083E5E4CF8438A1F421
:100C00000E94432082FDE2CF87E40E9423210E94BC
:100C1000B50E2FEF81EE94E0215080409040E1F737
:100C200000C0000087E4CECF8CEF8C0F813A70F4C7
:100C30008C2F0E949420811529F08C2F0E943A213C
:100C40000E94B50E8C2F0E942321BECF80E28C0F14
:100C5000883048F4C77081E001C0880FCA95EAF770
:100C60000E94F00DB1CF83E38C0F833108F0AECF3B
:100C700061E08C2F0E94BF05A9CF811509F444C003
:100C8000823879F40E94432081FF3EC089E30E94AC
:100C900023210E94B50E89E30E943A210E94B50EDD
:100CA0000895833859F40E94432080FF2DC083E5C6
:100CB0000E9423210E94B50E83E5EECF843859F4BB
:100CC0000E94432082FF20C087E40E9423210E94CB
:100CD000B50E87E4E1CF9CEF980F913AE8F290E2ED
:100CE000980F983050F4877091E001C0990F8A9561
:100CF000EAF7892F0E94F60DD1CF93E3980F933135
:100D000018F460E00E94BF0508951F93CF93DF930E
:100D1000182FEB010E94C905209739F4812F0E94FA
:100D20003D06DF91CF911F9108958FE99FE00197D4
:100D3000F1F700C000002197EFCF60E570E0893344
:100D400011F060E070E00E9485060895811521F0A1
:100D50000E94F00D0E94B50E0895811521F00E94A9
:100D6000F60D0E94B50E0895A0E0B0E0EAEBF6E0C3
:100D70000C94762B6C01D62FC72FFC010581F680D1
:100D8000F2948FE0F8220E94E50DE82E8115F9F02B
:100D9000E02E0115E1F08C2F807F803461F080E23D
:100DA0008D0F8830A0F18C2F807E803221F4D230DC
:100DB00070F1F11461F18091A20382FF28C082E0FA
:100DC0000E94E60E0E94E50D91E0E82EE9268C2FA8
:100DD00082958F70883009F4CFC0B0F58430C8F4A4
:100DE0001C2F1F70823008F440C0C07FC03211F049
:100DF0001295107FD11509F467C0D13009F497C05E
:100E0000011509F4A3C0F11409F47AC041C0E12C22
:100E1000DECF853009F4ABC0E11489F00E94E10D0A
:100E200080FD0DC0F60115820E94DB0D0E9497091E
:100E3000C6010E94C4080E94DB0D0E94A709CDB71D
:100E4000DEB7E8E00C94922B893009F40CC18A5F7C
:100E50008F70823008F7D23F09F016C18C2F8F7146
:100E600001110FC10E949709B6C0C03110F0129550
:100E7000107F011599F0111559F080E28D0F88301F
:100E800010F0D11107C0812F0E94F00D0E94B50E05
:100E90008D2F28C0812F0E94010EF8CF8D2F0E9428
:100EA0003D06111509F4B8CF80E28D0F883010F09F
:100EB000D11104C0812F0E94F60D03C0812F0E9422
:100EC000070E0E94B50EA8CF8091A20382FD14C028
:100ED000011559F0111529F0812F0E94F00D0E9483
:100EE000B50E80E00E94C90597CF80E00E943D06C4
:100EF000111509F491CFDECF011569F0F11004C08E
:100F0000812F0E94A60688CFF1E0FF1285CF812FA6
:100F10000E942A0E81CFF1107FCF812F0E94AD0653
:100F2000812F0E94360E812F0E94190E75CF011558
:100F300029F026E0F21608F06FCFE2CF85E0F81630
:100F400008F06ACF812F0E94AD0666CFF114D1F36D
:100F5000D93349F49FEFE7EEF3E09150E040F040E1
:100F6000E1F700C000008D2F0E943D0655CF602F95
:100F70008D2F0E94BF0550CF8C2F8370811139C0F7
:100F8000011129C04D2F429546954770440F440FDB
:100F90002D2F2F7030E0042E02C0220F331F0A9431
:100FA000E2F780E090E0D4FF09C08FE090E002C05B
:100FB000880F991F4A95E2F780959095C695C6953A
:100FC000C370822B932BC23071F0C33079F0C130E3
:100FD00039F00E9467090E9436200E9457051CCFF5
:100FE0000E945E09F8CF0E947009F5CF0E945B094C
:100FF000F2CF011561F1C0FFEECF4D2F429546951E
:101000004770440F440F2D2F2F7030E0042E02C084
:10101000220F331F0A94E2F780E090E0D4FF09C06A
:101020008FE090E002C0880F991F4A95E2F7809503
:101030009095C695C695C370822B932BC23069F0EC
:10104000C33071F0C13031F00E94D209C4CF823078
:1010500010F2D3CF0E94C909BECF0E94DB09BBCFDB
:101060000E947F09B8CFCF70011539F08C2F0E94F4
:1010700097098D2F0E94A606AECF8D2F0E94AD0638
:101080008C2F0E94A709A7CF70F4D03FC9F0D13FA1
:1010900091F0011509F445C0F11409F43FC08D2FFA
:1010A0000E94C90598CFD33FC9F0D43F91F78091F2
:1010B000A20382FD1DC08C2F8F71011511F3D2CEBA
:1010C000011549F025E0F21608F085CF8C2F8F71BD
:1010D0000E94B90980CF86E0F816F6CF011529F0F5
:1010E0008C2F8F710E948B0976CF0E94860973CF57
:1010F000011549F0CF718C2F0E94970963E08C2F66
:101100000E94C70E68CF81E00E94E60E92E0F916B9
:1011100008F461CF82E00E94E60E5DCF8C2F8F71C4
:10112000A1CEF11479F0D93349F4EFEFF7EE23E0D3
:10113000E150F0402040E1F700C000008D2F0E94F8
:101140003D0649CF8C2F8F719CCF0F931F93CF9368
:10115000DF93EC018F819885009781F00E94D21077
:101160008C010E94E4090E945A09B801CE010E9434
:10117000B406DF91CF911F910F9108956881798115
:101180008D810E949D0AECCFCF93DF93EC018C817F
:10119000811599F0CE010E944D04811111C00E9469
:1011A000E50D811551F08D81811539F08091A203F3
:1011B00082FF03C082E00E94E60EDF91CF91089586
:1011C000CE010E94A508CE010E941C04F6CF811515
:1011D00021F00E94010E0E94B50E0895811521F0A4
:1011E0000E94070E0E94B50E08950E940F0E0E94E5
:1011F000B50E0E94B21D0E94951D08950E945121B6
:101200000E94F50808950E94FE0D0E94FE080895B0
:10121000282F92959F70963099F060F4925F9F709E
:10122000923030F4203F89F038F481E0283E38F0E5
:1012300080E008959A5FF3CF81E0243FC9F70895D5
:1012400081E0283EE0F3213FF9CF81E00895FC01E1
:101250008481811571F087819085009729F00E9423
:10126000D2100E9408090895808191810E94900AFD
:10127000F8CF80E00895A6E0B0E0E1E4F9E00C9456
:101280007C2B2696E2E00C94982BA9E0B0E0EBE4EE
:10129000F9E00C947A2B2996E4E00C94962B0895AF
:1012A0000E944F0908950E9450099093180280935C
:1012B0001702089508950E94530908952091170276
:1012C00030911802822B932B0E945309089520918C
:1012D000170230911802822393230E945309089524
:1012E0002091170230911802822793270E945309F8
:1012F00008950E944F0908950E94790908950E9457
:101300007C099093160280931502089580E090E086
:101310000E947F09089521E030E0A90102C0440F36
:10132000551F8A95E2F7CA010E947F09089521E0BE
:1013300030E002C0220F331F8A95E2F78091150238
:1013400090911602822B932B0E947F09089521E031
:1013500030E002C0220F331F8A95E2F720953095C6
:101360008091150290911602822393230E947F0997
:10137000089521E030E002C0220F331F8A95E2F782
:101380008091150290911602822793270E947F096F
:1013900008952091150230911602822B932B0E9402
:1013A0007F0908952091150230911602822393231C
:1013B0000E947F090895209115023091160282271C
:1013C00093270E947F09089508959B01677091E01B
:1013D00001C0990F6A95EAF763E0369527956A95FB
:1013E000E1F7220F331F220F331FFA01E20FF31F21
:1013F00040E050E0682F70E08191DF0111979B0180
:10140000042E02C0369527950A94E2F721702195A3
:101410002827292328272C934F5F5F4F44305105FD
:1014200059F708959C01982F977083E0369527957A
:101430008A95E1F7220F331F220F331FFB01E20FC2
:10144000F31F40E050E080E0219130E0092E02C01F
:10145000369527950A94E2F721703327042E01C0B0
:10146000220F0A94EAF7822B4F5F5F4F44305105F9
:1014700059F70895282F862F933068F42B3058F4AD
:10148000622F70E02BE0929F600D711D112441E0EE
:1014900052E00E94E5090895292F933068F48B30BB
:1014A00058F490E061E072E03BE0239F800D911DD5
:1014B00011240E94120A089580E00895A0E0B0E08F
:1014C000E4E6FAE00C94752B8C01E0901502F090A4
:1014D00016028091170290911802E82AF92ACFE0AB
:1014E000D0E0CC24C394D12CC6010C2E02C0880FAE
:1014F000991F0A94E2F78E219F21892B49F42197A5
:1015000098F7B12C8B2DCDB7DEB7E9E00C94912B79
:10151000BC2EB8018C2F0E94E011019781F3F2CF0D
:10152000CF93DF93D82FC92F0E945E0A6D2F7C2F97
:101530000E94E011DF91CF9108951F93CF93DF9325
:10154000162FD72F90910002911541F0862F972FDB
:101550000E94900ADF91CF911F910895811581F02B
:10156000862F972F0E945E0AC82F682F812F9D2FEC
:101570000E943A0A612F7D2F8C2F0E94E011EACF42
:10158000862F972F0E944C0AC82FF4CFFC0181E0D0
:1015900090E0DC0102C0AA0FBB1F6A95E2F7BD0113
:1015A000DC0102C0AA0FBB1F4A95E2F7AD016A2B0E
:1015B000752B02C0880F991F2A95E2F79B012E23F5
:1015C0003F232617370719F48E2B9F2B08958095FC
:1015D00090958E239F230895242F462F682F809166
:1015E0001502909116020E94C60A0E947F09089572
:1015F000EF92FF920F931F93CF93E0911902C9E0EE
:1016000080911A028E1306C0CF911F910F91FF9007
:10161000EF900895EE2EF12CCE9FF0011124E55E9F
:10162000FD4F008111812281338144815581668182
:10163000778180850E944509F7013196E770E0CFF8
:101640000F931F9300916302109164022091650231
:101650003091660240916702509168026091690280
:1016600070916A0280916B020E9445091F910F914F
:10167000089580916902803178F480916802811523
:1016800059F0E091190220911A02309164024091C0
:10169000630259E02E1301C008956E2F70E05E9F23
:1016A000F0011124DF01A55EBD4F14968C911497B3
:1016B000811561F111968C911197831327C08C913C
:1016C000841324C015968C91159781111FC0129612
:1016D0008D919C91A0916502B09166028A1B9B0B33
:1016E000883C910598F4809169028F7080618093A5
:1016F0006902EF5DFD4F80818F708061808383E69A
:1017000092E00E94C4080E94F80A0895FB013196F5
:10171000E770C0CFE091190290911A0229E0E91315
:1017200002C080E00895AE2FB0E02E9FF00111249A
:10173000E55EFD4F3181361306C03081381303C09A
:101740003581341304C0FD013196E770E8CF81E0A4
:1017500008958F929F92AF92BF92DF92EF92FF9285
:101760000F931F93CF93DF93CDB7DEB72F970FB6AD
:10177000F894DEBF0FBECDBF8C0186E0F801DE011C
:101780001A9601900D928A95E1F7F801E080F580B4
:10179000A280B380848193E6892E92E0992E909165
:1017A000670291111BC0811509F42AC1F11409F4D3
:1017B00069C1C8010E942709811509F463C189E044
:1017C000F801D40101900D928A95E1F7C4010E94BD
:1017D000B6050E94390B0E94200B12C1D0906802FE
:1017E0002091650230916602A501421B530BD11472
:1017F00009F409C1483C510508F0CAC0811509F433
:10180000FFC090916402918080916902803108F05C
:1018100074C0991231C0909163029E112DC0409105
:101820006A0250916B02278130854217530721F5D8
:10183000F1105DC08F708061809369020E94200B5F
:1018400083E692E00E94C40880916902F8018683D1
:10185000F12C8F2D2F960FB6F894DEBF0FBECDBFA3
:10186000DF91CF911F910F91FF90EF90DF90BF908C
:10187000AF909F908F900895F11039C040E0692D8E
:101880008E2D0E948A0B40E0692D8E2D0E948A0BBE
:10189000F82E8111DDCF8A859B850E94900A292F21
:1018A00022952F70903450F49F70223080F0911563
:1018B00099F0F8019681903178F4CBCF2A5F2F70A0
:1018C000223078F0C8010E94C408FD2CC2CF9115C7
:1018D00019F0811509F4BDCF805E883008F4B9CFC6
:1018E000F1CF803F08F4B5CF815F8330F7CF80918F
:1018F0006902816080936902ABCF99121CC09091FC
:1019000063029E1118C040916A0250916B022781B8
:1019100030854217530779F4F1100DC08683C80152
:101920000E94C40889E0F801A3E6B2E001900D929C
:101930008A95E1F750CFC8010E942709811509F463
:10194000A1C0F11409F49EC0809169028032B8F000
:1019500020916302309164023A832983BC82AB8276
:10196000909167029D831E828F8380916A0290917D
:101970006B0299878887CE0101960E94C40889E08E
:10198000F801A3E6B2E001900D928A95E1F721CF2C
:10199000909169029031A0F44A855B856C857D85C4
:1019A0008E859F850E943B0983E692E00E94C408D1
:1019B00089E0F40111928A95E9F70E94200B48CF43
:1019C0008115F1F02091640281812813B4CF8091B8
:1019D00063028E11B0CF40916A0250916B02278151
:1019E00030854217530709F0A6CFF110A4CF968394
:1019F000C8010E94C40889E0F40111928A95E9F7B0
:101A0000FF24F39426CF483C510508F03FC08115D0
:101A1000B9F3F114B9F1909164028181981328C04F
:101A2000809163028E1124C020916A0230916B0272
:101A30008781908528173907D9F48091690280FD44
:101A40000EC0803160F08683982F907F903F09F41C
:101A500066CF982F907F905F8F70892B5FCF89E042
:101A6000F801A3E6B2E001900D928A95E1F7C8CFA4
:101A7000C8010E942709811182CF8091690281608B
:101A800080936902C8010E94C408BACF4A855B8569
:101A90006C857D858E859F850E943B0989CFA2E15B
:101AA000B0E0E5E5FDE00C94792B0A871B872C87D5
:101AB0003D874E875F87688B798B8A8BCE010A962C
:101AC0000E94A90B8115C9F04E85411551F00A8578
:101AD0001B852C853D855F85688979898A890E9467
:101AE000450989E0F82E8091190290911A02891314
:101AF0003DC06296E5E00C94952B89E0FE013A9694
:101B0000DE01119601900D928A95E1F720911A025B
:101B1000409119028E85811521F330E0C9010196AB
:101B2000877099274817190699F099E0929FD0017C
:101B3000939FB00D1124A55EBD4FFE01319601901B
:101B40000D929A95E1F780931A020E94F80AC9CF84
:101B50000E94030910921A021092190289E0E3E62A
:101B6000F2E0DF011D928A95E9F7BBCFF89EC00134
:101B70001124855E9D4F0E94A90B811509F4B9CFF0
:101B8000E0911902FE9EF0011124E55EFD4F0081F7
:101B900011812281338144815581668177818085DD
:101BA0000E9445098091190290E00196877099275B
:101BB0008093190298CF8091940286958695869598
:101BC000089580919402877008959091940297707F
:101BD00081E0911101C080E008958091C0020895D4
:101BE0009091C002982B9093C0020895982F9095E1
:101BF0008091C00289238093C00208951092C00290
:101C000008959091BF02982B9093BF020895982F4A
:101C100090958091BF0289238093BF02089510920E
:101C2000BF02089580919602089508950E94150EAE
:101C3000089590919502292F2823211531F0809540
:101C40008923809395020E94160E089508950E949C
:101C5000260E089590919602292F2823281729F0FF
:101C6000982B909396020E94270E089590919602C9
:101C7000292F2823211531F08095892380939602FE
:101C80000E94270E08959091A20392FF08C09091A0
:101C90009602981721F0809396020E94270E0895CD
:101CA00080919602811529F01092960280E00E94A0
:101CB000270E0895CF93C091C0028091BF02C82B18
:101CC00080919602811531F0C82B0E946F208111FE
:101CD0000E94500E8C2FCF910895CF93DF93C09127
:101CE000A501D091A6010E945A0E8883C091A5013A
:101CF000D091A60148E050E06CE872E0CE010E946D
:101D0000B72B892B59F088E0FE01ACE8B2E00190D6
:101D10000D928A95E1F7CE010E944620DF91CF9186
:101D20000895CF93DF93C091A301D091A4010E94A5
:101D30005A0E8983C091A301D091A40140E250E0E2
:101D40006CE672E0CE010E94B72B892B59F080E23D
:101D5000FE01ACE6B2E001900D928A95E1F7CE016A
:101D60000E945120DF91CF9108958091D801811573
:101D700039F08091A10387FF03C00E94910E08955E
:101D80000E946D0E089508950E94C30E0895962F27
:101D90002091A20322FF11C0682F660F660F660F05
:101DA000692B609394020E94970980919402869512
:101DB000869586950E94C40E08950E9497090895FD
:101DC0001092940280E00E94C40E089590919402B3
:101DD0008095892380939402282F277021110DC0AC
:101DE000891759F09091A20392FF07C086958695B6
:101DF00086950E94A7090E94E00E08959091A20383
:101E000092FB222720F9281769F080FB92F9909322
:101E1000A2038091A1039091A2030E94460F82E049
:101E20000E94E60E08958091A20382FB882780F924
:101E300091E089270E94FE0E089581E00E94FE0E27
:101E4000089580E00E94FE0E08956FEF7FEF80E01E
:101E500090E00E94092C089580E090E00E94D52B2C
:101E60009C0181E0263E3E4F09F080E0089582E02B
:101E700090E00E94CD2B089583E090E00E94CD2B4E
:101E8000089584E090E00E94D52B0895BC0184E081
:101E900090E00E94092C0895AB01BC018FE090E016
:101EA0000E94FD2B0895AB01BC0183E190E00E94EC
:101EB000FD2B089560E070E0CB010E94530F089560
:101EC00060E070E0CB010E944C0F0E945A0F089511
:101ED000A8E0B0E0EEE6FFE00C947C2B66EE7EEF2F
:101EE00080E090E00E94092C60E082E090E00E9497
:101EF000EB2B81E090E0909318028093170261E051
:101F000083E090E00E94EB2B60E074E184E090E0DD
:101F10000E94092C60E086E090E00E94EB2B6FEFBE
:101F200087E090E00E94EB2B40E050E0BA0188E0AF
:101F300090E00E94FD2B60E084E290E00E94EB2B99
:101F400060E087E190E00E94EB2B60E08CE090E0A5
:101F50000E94EB2B60E08DE090E00E94EB2B198259
:101F60001A821B821C821D821E821F82188648E0F4
:101F700050E068E170E0CE0101960E94DB2B40E06A
:101F800050E0BA0180E290E00E94FD2B0E94600FB9
:101F90002896E2E00C94982B0E94680F0895682F11
:101FA0008EE090E00E94EB2B0895A6E0B0E0EBED10
:101FB000FFE00C947A2B0E943A228C018091C1029E
:101FC0009091C2028017910779F019821A820E94BB
:101FD0003A22BC0149815A8180E090E00E9482054A
:101FE0001093C2020093C1022696E4E00C94962B53
:101FF0000E9446226093CD027093CE028093CF025E
:102000009093D0026093C9027093CA028093CB026E
:102010009093CC020895089508950E940B1008959E
:1020200008950E941010089588ED92E10E947D1499
:102030000E940C100E940D10089581E008950E94E6
:102040001D1008950E941D100895089508950E947E
:1020500025100E94261008950E94F7120E9456052E
:1020600008950E9431220E94CD130E942C100E94DC
:10207000BF14E1EAF3E08081806880838091A1034E
:102080009091A2030E94460F0E94F9230E94111012
:1020900008950E9424190E9498160895A6E0B0E0C1
:1020A000E4E5F0E10C94702B0E941F1081110CC02C
:1020B0000E94D50F0E9449100E94D31D0E946905FD
:1020C0002696EEE00C948C2B0E94E3130091C30241
:1020D0001091C40280E00E941C1308171907A1F494
:1020E0000091C5021091C60281E00E941C130817DE
:1020F000190751F40091C7021091C80282E00E94B2
:102100001C1308171907A1F28091D10281FD0E94CA
:1021100025130E942210782E23EC822E22E0922E8C
:10212000F12C662463948F2D0E941C138C01F40102
:10213000A190B1904F018A159B0569F1A826B1269F
:10214000E12CCC24C394D12CC5018C219D21892B59
:10215000C1F07114B1F0E982FA820E943A229C83A4
:102160008B836D8221E0C8018C219D21892B09F48C
:1021700020E049815A816B817C818D81922F0E9460
:102180008205E394CC0CDD1CFBE0EF12DDCFF40103
:10219000329711830083F39483E0F812C4CF0E9436
:1021A000F80F88CF1F93CF93DF930E94E511EC01C6
:1021B000811522E5920708F04EC0811540E594078D
:1021C00008F0C7C0883E9105E0F4803E910560F4B8
:1021D000853A910570F4049738F481E0219709F06D
:1021E00080E0C82F50E0D52FCE01DF91CF911F9115
:1021F00008958D5C9109D0654397B0F3C0E0D0E0BD
:10220000F3CFC11580E4D807E0F4C11590E2D907F7
:1022100008F0B7C0CE019A9581159F4178F78D2FB0
:102220000E948912182FCE0199270E94E511212FB3
:1022300030E0322F2227E901CC27DF71C82BD92BC0
:10224000D3CFCE0199270E94E511CC27DF70C82B90
:10225000D92BD06AC9CF803842E59407C8F58036BB
:1022600052E5950708F056C0C03482E5D807D0F48F
:10227000C03292E5D90708F046C08C2F8695869526
:1022800020E2829FC0011124C37021E030E0A90147
:1022900002C0440F551FCA95E2F7EA01C82BD92B9B
:1022A000DD68A2CF8C2F86958695877050E2859F3A
:1022B000C0011124C37021E030E0A90102C0440F25
:1022C000551FCA95E2F7EA01C82BD92BDC688CCFE1
:1022D000803C52E5950758F48F71C03AD24578F5A5
:1022E00090E0982F8827EC01C46FD06A7DCF805C86
:1022F0009245809708F082CFDC2FCC27CC27DF7166
:10230000C06FD06A71CFCF71D0E0DC2FCC27C16F06
:10231000D06A6ACF86958695877020E2829FC00139
:102320001124C37021E030E0A90102C0440F551F01
:10233000CA95E2F7EA01C82BD92BDA6855CF0E947B
:102340008912C82FD0E0DC2FCC27CC27DF71D062D8
:102350004BCF8F710E94891265E0D695C7956A951B
:10236000E1F7CF70D0E0DC2FCC2790E084FF05C0F0
:1023700054E0880F991F5A95E1F7C82BD92BD069E3
:1023800033CF8D2F8F710E948912182FCE0199277C
:102390000E94E511212F30E0322F222722273F71A2
:1023A000282B392BE901D3CF462F672F733028F420
:1023B0004B3018F40E944303089580E090E00895A4
:1023C0000E94D4110E94D2100895803E9105D9F147
:1023D000C8F48133910509F482C048F4893291052B
:1023E00009F472C08A32910509F480C008958933D6
:1023F0009105E9F082389105D1F08533910509F412
:102400005EC00895843E9105D9F148F4823E91055D
:1024100039F1833E910549F181EE90E00895863EC1
:102420009105C9F1873E910509F43EC008952091B8
:10243000A1032370211164C02091A20323FF14C0C3
:1024400089E290E008952091A10320FD45C03091DC
:10245000A20330FF09C024FD24C083EE90E008955C
:102460002091A10322FDF7CF08952091A10322FD21
:1024700044C03091A20330FD43C024FFF5CF11C00A
:102480002091A20321FFF0CF8091A10384FD09C018
:1024900087EE90E008952091A10323FFE5CF24FF6C
:1024A000F7CF80E090E008952091A10323FD2BC099
:1024B0003091A20331FFE1CF84EE90E008952091A6
:1024C000A10325FFD1CFBCCF2091A10325FD1EC0C4
:1024D0002091A20323FFC8CF89E390E008952091C3
:1024E000A10326FFC1CF8AE290E008952091A103C5
:1024F00026FFBACF81E390E0089582EE90E0089540
:1025000080EE90E0089586EE90E0089585E390E0F7
:1025100008959091A10392FF10C041E0282F2471EB
:10252000243009F040E031E0282F2871283009F0EC
:1025300030E0431711F02CE0822793FF10C041E0F8
:10254000282F2471243109F040E031E0282F287130
:10255000283109F030E0431711F02CE08227309148
:10256000A20330FF10C051E0282F2171213009F063
:1025700050E041E0282F2871283009F040E054173E
:1025800011F029E0822731FF10C041E0282F21718E
:10259000213109F040E031E0282F2871283109F07D
:1025A00030E0431711F029E0822794FD877E0895DB
:1025B00080E008950E94250F08950E94E3132FEFF5
:1025C00086E791E0215080409040E1F700C0000094
:1025D0000E94E31380E00E941C1380FF04C00E944D
:1025E000DA120E94852208950E94DD1208950E9449
:1025F0002C0F811102C00E94CC0F0E94370F8093D4
:10260000D1020E94410F9093A2038093A1030E94E4
:10261000F4120E943C0F90E00E945B098091150229
:10262000909116020E947C0908950E94BD020895AF
:1026300008950E9418130895E82FF0E0EE0FFF1F91
:10264000E755FC4F808191810895089580EA8A952D
:10265000F1F7089500C008950E9426130895F89494
:10266000E82FE295EF70F0E041A18F7021E030E0BB
:10267000B90102C0660F771F8A95E2F7CB01962F4A
:102680009095942391A392A1892B82A37894089585
:102690000F931F93CF93DF9384EF0E942F1382E356
:1026A0000E942F1386E30E942F13C1EED1E00CEE9F
:1026B00011E089918F3F11F00E942F130C171D0715
:1026C000C1F7DF91CF911F910F910895A0E0B0E085
:1026D000ECE6F3E10C94752BEC01B62E062F10E01E
:1026E000C80184519E4F7C01FC0180818F3F09F419
:1026F0004FC0F894E82FE295EF70F0E091A18F7051
:1027000021E030E001C0220F8A95EAF7892F822B61
:1027100081A382A12095282322A378940E942A13C2
:10272000E1EEF1E041E050E0C12CD12C21912F3FAE
:1027300089F0A22FA295AF70A05EB0E08C9190E0DE
:102740002F7002C0959587952A95E2F781709A01BE
:10275000811511F020E030E0C22AD32A440F551F22
:1027600081E0EC3EF80711F7F70180818F3F11F00F
:102770000E942F1361E0C114D10409F460E08B2D95
:102780000E942C13000F111FC00FD11FD982C882C5
:10279000CDB7DEB7E9E00C94912B0E94481386E098
:1027A000E9EAF3E0DF01982F1D929A95E9F7E3EA51
:1027B000F3E0DF011D928A95E9F783E00E9420147F
:1027C0000E9415130895A6E0B0E0E9EEF3E10C9441
:1027D0007A2B8E010F5F1F4F86E0F80111928A95C8
:1027E000E9F760E0C8010E94661361E0C8010E9439
:1027F000661362E0C8010E94661346E050E0B8012B
:1028000083EA93E00E94B72B21E0892B81F420E03A
:1028100043E069EA73E083EA93E00E942114182FF1
:102820000E941913812F2696E4E00C94962B86E0E3
:10283000F801A3EAB3E001900D928A95E1F7E8CFA1
:102840000895A0E0B0E0E7E2F4E10C94762BD82EF6
:10285000E92EF62ED72F042FC22F211579F081E013
:102860008093D4020E943A229093D3028093D202A2
:1028700080E0CDB7DEB7E8E00C94922BC090D40294
:10288000C114B1F38091D2029091D3020E945222DE
:10289000059770F310E0000F111FA8016D2D7E2D1C
:1028A0008F2D9D2F0E94B72B892B41F0A8016D2DF4
:1028B0007E2D8F2D9D2F0E94C42BCC2D1092D402E3
:1028C0008C2FD7CF0E946E240E9431100E947B244F
:1028D00008950E9480240E944E100E949A24089518
:1028E0000E94D3210E9454240E9414100E9462145A
:1028F0000E9469140E942710FBCF9093F1018093EE
:10290000F0010895E7EDF2E086E0DF011D928A957F
:10291000E9F70895CF93DF938091D7028068809381
:10292000D702C7EDD2E089910E94192482E0CD3D03
:10293000D807C9F7DF91CF910895482F67E00E942B
:10294000242B282F30E0F901E952FD4FC90153E053
:10295000880F991F5A95E1F7281B390B240F311D59
:1029600086E090E0821B930B21E030E001C0220F53
:102970008A95EAF78081822B808380E008950E9407
:102980002C0F811102C00E94CC0F8DE090E00E94BC
:10299000CD2B8093D5020895CF93C82F0E94821427
:1029A000C093D5026C2F8DE090E00E94EB2BCF916D
:1029B000089581E0089581E0089581E00895EF92FF
:1029C000FF920F931F93CF93DF93EC017B018C0158
:1029D000005C14470034110508F08CC0FB018481B1
:1029E000811509F487C0CE010E94DD14811541F0E4
:1029F000C03FF4E7DF0799F048F40A321105B8F058
:102A000080E0CDB7DEB7E6E00C94942BC13FD4470D
:102A1000B9F7F7018581811599F380E005C0F701C9
:102A20008581811569F381E00E94CC14E9CF009182
:102A3000D6021091D502F7018581811529F10F5F2A
:102A40000093D6021115D9F01130D1F6EC2FE05CCD
:102A5000F0E0EC53FD4FE491AE2FA295A695A6951C
:102A6000A370B0E0A952BD4F8C918E2B8C9327EDB3
:102A700032E0412FB701CE010E94DB14C1CF8C2F71
:102A8000805C0E949D14F3CF01500093D60227ED85
:102A900032E0412FB701CE010E94DB14811509F409
:102AA000AFCF8091D60218160CF4AACF1092D6029E
:102AB00067ED72E08091D5020E94D914811103C0A4
:102AC0000E9482149DCF8091D502811581F08130C2
:102AD000B9F7C7EDD2E0899181110E941924F2E083
:102AE000CB3DDF07C1F780E00E941924E9CF0E94A7
:102AF0008A14E6CF81E085CF8091A701877F8093FC
:102B0000A70182E00E94070E8091A70184FF06C002
:102B10008F7E8093A70182E00E94F00D8091A70133
:102B200085FF06C08F7D8093A70180E20E94F00D93
:102B30000E94B50E089580E008958933910588F4C8
:102B40008D32910560F48832910530F4843091051E
:102B500030F40E949B1508958B329105D1F781E0E6
:102B6000089584369105FACFCF93DF93EC01611578
:102B700019F082E00E94010ECE019052811590431F
:102B800008F4DD27CE010E948703DF91CF910895DD
:102B90009C0130522115304308F499270E949D036F
:102BA0000895AC0123E0969587952A95E1F78E71FB
:102BB0009927FC01E352FD4F0190F081E02D4F7009
:102BC000552721E030E002C0220F331F4A95E2F77B
:102BD000611541F0E22BF32B83529D4FDC01ED9305
:102BE000FC93089520953095E223F323F5CF9C01C3
:102BF000FC0183E0F695E7958A95E1F7EE71FF27F2
:102C0000E352FD4F2F70332781E090E0AC0102C00A
:102C1000440F551F2A95E2F79A018081918128235C
:102C2000392381E0232B09F480E00895EF92FF928D
:102C30000F931F93CF93DF93EC017B018A01809167
:102C4000A70182FF5DC020910603309107032C1776
:102C50003D0719F0209709F053C09091A7019B7F81
:102C60009093A70161E091FD10C0809108039091BD
:102C70000903A701481B590B61E08091A8019091BD
:102C8000A9014817590708F460E061708091A70115
:102C900060FB81F98093A701C9010E94D1150E94B0
:102CA000ED0D81FF08C08091A70180618093A7018D
:102CB00082E00E94F60D0E94ED0D85FF08C0809114
:102CC000A70180628093A70180E20E94F60D6091C7
:102CD000A70166956170A801809106039091070392
:102CE0000E94B4156091A70166956170A80180915A
:102CF0000603909107030E94C8150E947C150FC01F
:102D0000CE010E94F715682FA801CE010E94C815B8
:102D10008091060390910703C817D90771F3F092C9
:102D20000903E0920803CDB7DEB7E6E00C94942BDC
:102D30008091A70182FF19C00E943A22BC018091B4
:102D40000803909109039B01281B390B8091A8016E
:102D50009091A9012817390740F04DEF52E080917A
:102D60000603909107030E94161608959091A701FB
:102D7000892F8E7F90FF81608093A7010E947C1530
:102D800008958091A7018E7F8093A7010E947C15F2
:102D9000089560E28091A8019091A9010E94FE042B
:102DA0009C01C9012F5F3F4FFC0140814032C9F3B4
:102DB0000E94861F0895A0E0B0E0E1EEF6E10C94D9
:102DC000772BEC018B010E943A22D82EE92EF801D4
:102DD0008581811509F485C08091A70182FF08C013
:102DE0004DEF52E06D2D792F80E090E00E94161695
:102DF000C331FCE7DF0799F118F5C1318CE7D8073B
:102E000009F462C0C231ECE7DE0709F467C08091C3
:102E1000A8019091A9010597C031FCE7DF0709F4EB
:102E200058C0CE01905281159043A0F41092070330
:102E30001092060381E0CDB7DEB7E7E00C94932B48
:102E4000C4312CE7D207E9F1C5318CE7D80711F47A
:102E50000E94B6168091A70180FFECCF05C080913B
:102E6000A70181608093A701B801CE010E949D1542
:102E7000F8019581811509F47CC0911509F472C09F
:102E80000E94ED0DF82E0E94120E2F2D282B2D7F63
:102E90002115E9F1109207031092060360E0CE01BC
:102EA0000E94D115A80160E0CE010E94B4150E94D5
:102EB000120E8D7F0E94430E82E00E94E60E80E09B
:102EC000BACF0E94C116C6CF8091A8019091A901E6
:102ED00005969093A9018093A801BCCF0E94C916C2
:102EE000B9CF8091A7018F7EC13ED10531F0C53E9B
:102EF000D10531F48091A7018F7D8093A701AACFDE
:102F0000CE0190528115904308F0A4CF93CF89E071
:102F1000F801ADEFB2E001900D928A95E1F71092C1
:102F200000031092FF020E94ED0D182F0E94120E56
:102F3000182B8091A70111FB81F98093A7010E94B2
:102F4000120E8D7F0E94430ED0930703C093060399
:102F5000D0920803E09209038091A70184608093D6
:102F6000A701AACFA8016D2D7E2DCE010E941616B5
:102F7000A6CF91115BCF5ECF0895EF92FF920F9392
:102F80001F93CF93DF9380917D03E0910A03CDE0FF
:102F900081112AC0CDB7DEB7E6E00C94942BD1E0C6
:102FA000DE0FD0930A03EE2EF12CCE9FF0011124F8
:102FB000EB5EFC4F84818115B1F087819085892B70
:102FC000E1F4818592858F3F9807B9F061E00E9416
:102FD000BC17CE9DF001CF9DF00D1124EB5EFC4F90
:102FE00014820E940F0EED2F80917D03E817B8F236
:102FF00010927D0310920A03CDCF008111812281AE
:103000003381448155816681778180850E944F0D8F
:10301000E0CF0895CF93DF9310927F0310927E0349
:10302000C0E0D0E00E944603C817D90718F0DF912E
:10303000CF910895CE010E944903FC018581811141
:1030400002C0148216822196EDCF1F93CF93DF9397
:1030500010911303409114034117D1F0C12FD0E018
:10306000FE01EE0FFF1FE55FFC4F20813181281725
:10307000390791F40E94490321E0FC0124838091E7
:103080001303811305C02196C370DD27C09313037A
:10309000DF91CF911F91089521961C2F1370DCCFE3
:1030A000A0E0B0E0E6E5F8E10C94712BDB011496AA
:1030B0002C91149721115AC090907D03C5E1D3E063
:1030C00040E050E0A12C61E070E0491508F04CC0F0
:1030D000CB84DC84ED90FC90119777247A9488243B
:1030E0008A94B12C2B2D30E0F901EE0FFF1FEE0D6D
:1030F000FF1D05911491C016D10611F0272D382D12
:103100000115110521F0B394722E832EEBCF2F3FC2
:10311000320791F1FB0102C0EE0FFF1F2A95E2F783
:10312000AE2A9B010B2C02C0220F331F0A94E2F738
:1031300021503109A2161306F1F412962D913C91FB
:1031400013976DE0649FF001659FF00D1124EB5E15
:10315000FC4F3087278324E02483108211828187EB
:10316000928721E015962C930E942518CDB7DEB7E3
:10317000EDE00C948D2B1C824F5F5F4F2D96A5CFF9
:103180000F931F93CF93DF93C09113038091140388
:103190008C1309C00E94BD170E940A18DF91CF91BD
:1031A0001F910F910895D0E08E01000F111F055F50
:1031B0001C4FF801808191810E944903BC01F801F4
:1031C000808191810E9450182196C370DFCFEF92C9
:1031D000FF921F93CF93DF93DC01CB012D913C91A4
:1031E000119710E040E050E0E52FF0E0EE0FFF1FF8
:1031F000E20FF31F6591749161157105B9F0FC013F
:10320000C081D18140E005C06E157F0509F411E051
:103210004F5FE42FF0E0EE0FFF1FEC0FFD1FE59076
:10322000F490E114F10481F75F5FDECF111549F0EE
:10323000451708F0CD01DF91CF911F91FF90EF90DE
:10324000089580E090E0F7CF8091AA01811541F1C7
:103250008091800390918103009711F10E94522286
:1032600020917E0330917F0328173907C8F490918D
:10327000130380911403981759F00E94C0181092FC
:103280007F0310927E0310928103109280030895B1
:103290000E94BD1710928103109280030E940A18A9
:1032A000089510928103109280031092AA018091D8
:1032B0001403809313030E940A180E94BD170895F7
:1032C0008091AA01811519F00E945119089581E099
:1032D0008093AA010895AAE0B0E0E1E7F9E10C9437
:1032E0006C2B5C014B0180352CE7920769F4DB0104
:1032F00015968C918115F1F081E08093AA0181E00F
:103300002A96E2E10C94882B8135BCE79B0739F4BF
:10331000FB018581811571F00E945119F0CF823532
:103320009C4741F4DB0115968C91811519F00E94A0
:103330006019E5CF20911502309116028091170295
:1033400090911802822B932B0E941F05182F0E9428
:103350000918181731F0F401608171810E94D411AD
:103360005C01612C712C1A8644244394512C0E94D8
:10337000460368167906E8F1D40115968C918115FB
:1033800009F455C1BA85B11509F451C10E943A2218
:10339000909381038093800380917D03883028F58A
:1033A00091E0980F90937D0399E0F401DE0111966E
:1033B00001900D929A95E1F7EDE08E9FC0011124E6
:1033C0008B5E9C4F29E0FE013196DC0101900D924D
:1033D0002A95E1F72FEF3FEFDC011A963C932E93ED
:1033E00019971C96BC92AE921B9781E0BA858B27E9
:1033F00087CFC3010E9449037C01DC018D919C9120
:103400006FEF3FEF20E0C22ED12CF601EE0FFF1F31
:10341000E80FF91F45915491A416B50611F0C62E78
:10342000D32E452B21F02F5F6C2D3D2DECCF10E0DE
:10343000BFEFCB16DB0609F44CC0F70144811091B5
:10344000AA01812F411180E0182F1170D701159624
:103450003C90159716968C911697F40195819115CD
:1034600009F481C0111509F47EC0311016C041E085
:1034700050E00C2C01C0440F0A94EAF7842B1696F6
:103480008C9380917E0390917F03C29730F482E306
:1034900090E090937F0380937E03B20102C0660F99
:1034A000771F2A95E2F79B0121503109D701169623
:1034B0008C918217130669F48091800390918103A7
:1034C000009771F00E945222C39750F081E0F701FB
:1034D0008483BA85B12BBA87EFEF6E1A7E0A47CF85
:1034E00000911303E0E0F0E080911403081312C090
:1034F000EE16FF0671F3802F90E0FC01EE0FFF1F28
:10350000E55FFC4F718260820196837099278093FA
:103510001403DFCFC02ED12CF601EE0FFF1FE55FA5
:10352000FC4F808191810E9449031C01B7010E94D8
:10353000E718FC01009791F021E02483E816F906D2
:1035400041F280911303081309C02E163F0631F48F
:10355000C60101968370992780931303C6010196D3
:10356000082F0370C1CF90E0311023C0B20102C018
:10357000660F771F2A95E2F79B01215031098217C8
:10358000930789F010E0F20102C0EE0FFF1FCA940A
:10359000E2F76F01C094D70116968C9116978C2193
:1035A00016968C9396CF411571F3C3010E9425188E
:1035B000E9CFAC010C2C02C0559547950A94E2F76F
:1035C0009C012150310982239323892B69F540FF07
:1035D0002BC0D70112968D919C91892B01F187E028
:1035E000FE013196DF011D928A95E9F70E943A2289
:1035F0009C018B839C8384E08D83F701928183817E
:10360000792F9887898709811A8144E05E816F81CB
:103610000E944F0DD70115961C92132DB4CF60E078
:10362000C3010E94BC17F6CF142F1170ACCF90913C
:10363000130380911403981719F00E94C018D5CE77
:103640000E94BD1710928103109280030E940A18F5
:10365000CCCECF93DF93EB0186319C4719F50E94C6
:10366000ED0D9D819115A1F08A7A91E0811101C043
:1036700090E090938203811549F085E30E94232115
:103680000E94B50E80E0DF91CF91089589E2F6CFD8
:1036900080918203811521F085E30E943A21F0CFC9
:1036A00089E2FBCF81E0EFCFCF93DF93EC01FB0109
:1036B0008581811509F4D1C09E013057233231052F
:1036C00008F0B1C00E94410F9093A2038093A10320
:1036D000FE01E150F047E232F10520F4EF5DF34DD9
:1036E0000C94662B8091A10381608093A10392C00A
:1036F0008091A20388608093A2038CC08091A10373
:103700008260F3CF8091A1038460EFCF8091A10309
:103710008860EBCF8091A2038160EDCF8091A203FE
:103720008260E9CF8091A1038061DFCF8091A10306
:103730008062DBCF8091A1038064D7CF0E94030910
:103740008091A1038068D1CF8091A1038C60CDCFFF
:103750008091A2038360CFCF8091A1038E7FC5CFDC
:103760008091A203877FC7CF8091A1038D7FBDCFBA
:103770008091A1038B7FB9CF8091A103877FB5CFC3
:103780008091A2038E7FB7CF8091A2038D7FB3CFAC
:103790008091A1038F7EA9CF8091A1038F7DA5CFBA
:1037A0008091A1038F7BA1CF0E9403098091A10387
:1037B0008F779BCF8091A103837F97CF8091A203C6
:1037C0008C7F99CF8091A10382FB992790F921E00A
:1037D000922790FB82F990FB83F987CF8091A20317
:1037E000982F909590FB80F990FB81F984CF909170
:1037F000A103892F8F7B96FF806477CF0E940309F6
:103800009091A103892F97FB87F980586ECF81E0B3
:103810000E94CF0F8091A1039091A2030E94460FB6
:103820000E94030980E0DF91CF91089580E0F0CFFE
:103830009091A103892F8F7E94FF806156CF909144
:10384000A103892F8E7F90FF81604FCF9091A203BB
:10385000892F877F93FF88604ECF81E0E4CF282FA8
:1038600035EB2303C001112497FF04C08058910950
:10387000892F089580589F4FFBCF8091890380FF47
:103880000DC06091B00170E0660F771F6038710560
:10389000C0F561157105B9F1862F089581FF07C044
:1038A0006091B00184E0689FB0011124EFCF82FFE6
:1038B00004C06091B00188E0F6CF80918803811543
:1038C000E9F09091AF016091B00170E0891730F09C
:1038D00093E0660F771F9A95E1F7D8CF869F900106
:1038E000879F300D112483E0220F331F8A95E1F763
:1038F000692F70E0C9010E94302BC8CF68E070E0EA
:10390000CBCF8FE7089581E008958091890380FFF0
:103910000CC06091AC0170E07595679575956795E1
:103920006115710561F1862F089581FF06C06091D0
:10393000AC0170E075956795F3CF6091AC0170E0D4
:1039400082FD15C0209187032115B1F09091AB0144
:103950006091AC0170E0291750F4269FA001279FC9
:10396000500D1124692F70E0CA010E94302B60387D
:103970007105B0F28FE7089561E070E0D4CF81E087
:10398000089590918C0320918D03922B20918F03A9
:10399000922B20918E03922B911531F098E0909309
:1039A000880391E090938703E3E3E80FE331E0F5C8
:1039B000F0E0ED5BF34D0C94662B0E943D1C81956D
:1039C00080938D0308950E943D1CFACF0E943D1CF8
:1039D000819580938C0308950E943D1CFACF0E942C
:1039E000851C80938E0308950E94851C8195F9CFD4
:1039F0000E94851C819580938F0308950E94851CE9
:103A0000FACF815D990B21E030E001C0220F8A9549
:103A1000EAF780918B03822B80938B03089580912A
:103A2000890381608093890308958091890382606E
:103A3000F9CF809189038460F5CF40918C038D3C50
:103A400059F480918D0387FF0DC010928D034115AD
:103A500059F41092880308C08E3C81F480918D0344
:103A600018169CF3411581F080918E0390918F037D
:103A7000892B811159C01092870308958F3C41F41E
:103A800047FFF0CF10928C0380918D038115E0CF1A
:103A9000803D19F41416B4F3E5CF90918E03893D5F
:103AA00029F41916FCF610928E03DCCF8A3D19F426
:103AB00097FFD8CFF8CF90918F038B3D29F497FFD4
:103AC000D1CF10928F03CECF8C3D19F41916CCF3C1
:103AD000C9CF9FE2980F983090F4815D990B21E057
:103AE00030E0B90102C0660F771F8A95E2F7CB017B
:103AF000809590918B03892380938B03B3CF8D3D69
:103B000031F4809189038E7F80938903ABCF8E3D02
:103B100021F4809189038D7FF7CF8F3D09F0A2CFEB
:103B2000809189038B7FF0CF08950E943A222091E3
:103B30008C0330918D03232B211521F08093850375
:103B40009093860320918E0330918F03232B2115B0
:103B500021F080938303909384038AE893E00E948A
:103B60006020089586E0EAE8F3E0DF011D928A957F
:103B7000E9F7109288031092870310928903089541
:103B8000FC01828181110DC0838181110AC0848171
:103B9000811107C081E09581911101C080E08170A1
:103BA000089581E0FCCFA6E0B0E0E9EDFDE10C94E2
:103BB000792B86E0EAE8F3E09E012F5F3F4FD901C1
:103BC00001900D928A95E1F710928C0310928D036B
:103BD00010928E0310928F038B819C81892B890117
:103BE000811589F080918503909186030E9452226D
:103BF0009C01809188038115B9F19091B1019217D0
:103C0000130608F43EC08D819E81892B811591F0A9
:103C100080918303909184030E9452229C018091A1
:103C20008703811509F466C09091AD0192171306C0
:103C300008F46EC0B8018AE893E00E946B218111FC
:103C400005C08AE893E00E94C01D81110E94951D65
:103C500086E0F801AAE8B3E001900D928A95E1F7B9
:103C60002696E5E00C94952B4091B2019AE0499F8D
:103C7000A00111244217530730F68F5F8093880309
:103C800002C08F3FD1F7FB80F11459F00E943D1C18
:103C900091E01F140CF09FEF899F802D11248093D9
:103CA0008C03FC80F11459F00E943D1C91E01F141C
:103CB0000CF09FEF899F802D112480938D038091BC
:103CC0008C03811509F49FCFF0908D03F11409F452
:103CD0009ACF0E942F1C811101C081E080938C0338
:103CE0008F2D0E942F1C811519F080938D038BCF8F
:103CF00081E0FBCF4091AE019AE0499FA0011124E1
:103D00004217530708F096CF8F5F8093870302C056
:103D10008F3FD1F7FD80F11459F00E94851C91E08E
:103D20001F140CF09FEF899F802D112480938E0328
:103D3000FE80F11459F00E94851C91E01F140CF0D4
:103D40009FEF899F802D112480938F0380918E0394
:103D5000811509F46FCFF0908F03F11409F46ACF45
:103D60000E942F1C811101C081E080938E038F2D52
:103D70000E942F1C811519F080938F035BCF81E087
:103D8000FBCFA0E0B0E0E7ECFEE10C94772BE82F4E
:103D9000F0E0EC5FFC4FD490282F269526952695D1
:103DA00030E0F901EC55FC4F0491877010E0082ECB
:103DB00002C0159507950A94E2F701701127F901E1
:103DC000EC56FC4FE490F12C082E02C0F594E794D9
:103DD0000A94E2F791E0E922FF24F901EC57FC4F45
:103DE000C491D0E002C0D595C7958A95E2F7C1701D
:103DF000DD270115110519F081EE0E94C905E114B6
:103E0000F10419F086EE0E94C9058D2D0E949D06D1
:103E1000E114F10419F086EE0E943D06011511052A
:103E200019F081EE0E943D06CD2B19F08CE20E9424
:103E30009D06CDB7DEB7E7E00C94932BEF92FF928F
:103E40001F93CF93DF93EC01162F8881811509F41E
:103E500057C0813009F051C089818130A1F47E01C1
:103E600082E0E80EF11C8A810E949D06E7012196FE
:103E7000812F811551F3EFE9FFE03197F1F700C091
:103E800000008150F6CF823041F47E01E2E0EE0E78
:103E9000F11C8A810E94C905E9CF833041F47E017B
:103EA000F2E0EF0EF11C8A810E943D06DFCF8430E4
:103EB00011F02196DCCF2A81229680E090E06AE022
:103EC000AE014F5F5F4F2053330B2A30310550F066
:103ED000009769F2EFE9FFE03197F1F700C00000C9
:103EE0000197F6CF689FF001699FF00D1124C90179
:103EF0008E0F9F1F2981EA01E3CF0E94C11EB7CF19
:103F0000DF91CF911F91FF90EF90089560E00E94A4
:103F10001E1F08950F931F93CF93DF93C42FD22FAB
:103F2000FC0185818115C9F0409392030E943A22D9
:103F3000909391038093900380E28C0F883040F43B
:103F4000C77081E001C0880FCA95EAF70E94A606F3
:103F5000DF91CF911F910F91089510919203141347
:103F600033C080919003909191030E945222883C2B
:103F7000910550F5C0E2CD0F1D17C1F080E2810F11
:103F8000883040F4177081E001C0880F1A95EAF775
:103F90000E94AD06C83050F491E08D2F877001C0AB
:103FA000990F8A95EAF7892F0E94A606802F0E9412
:103FB0009D06C83068F6D77081E001C0880FDA9599
:103FC000EAF70E94AD06C4CF80E28C0F883008F07B
:103FD000BFCFC77081E001C0880FCA95EAF7F1CF63
:103FE0000F93FC01CB01E851FC47E730F10590F558
:103FF000EA5AF34D0C94662B06E221EE41EE6AE19B
:104000007CE70E948A1F80E00F91089507E225EE69
:1040100045EE6BE17CE7F5CF06E221EE40EE68E18C
:104020007CE7EFCF07E225EE44EE69E17CE7E9CFDC
:1040300006E221EE42EE6CE17CE7E3CF07E225EEFB
:1040400046EE6DE17CE7DDCF08E221E045EE6EE172
:104050007CE7D7CFFB01858181111092920381E02B
:10406000D3CF90939403809393030895E0919303A7
:10407000F0919403309729F00190F081E02D09959B
:10408000089580E008950E9436200895E0919303FA
:10409000F0919403309721F00280F381E02D09958F
:1040A0000895DC01E0919303F0919403309739F087
:1040B00086E08C930480F581E02DCD01099508956B
:1040C000DC01E0919303F0919403309739F082E0A2
:1040D0008C930680F781E02DCD01099508952091FC
:1040E000A5013091A6012E5F3F4F8091D801811527
:1040F000C9F08091A10387FF15C02091A3013091E1
:10410000A4012E5F3F4F6EE1A90180E0FA0190818A
:104110004F5F5F4F91118F5F962F941B920F9111FC
:10412000F5CF089566E0F0CF811529F19091D8017F
:10413000911519F19091A10397FF1FC0982F9695A3
:1041400096959695803FB8F4E091A301F091A40173
:10415000E90FF11D228130E0877041E050E0BA01A3
:1041600002C0660F771F8A95E2F7CB012623392319
:1041700081E0232B91F480E008952091A5013091F6
:10418000A601F9013296285F3F4F9191981721F0CF
:10419000E217F307D1F7EFCF81E008959C01FC010E
:1041A00032968FEF90E04191461751F08F3F19F40E
:1041B000411101C0892F9F5F9630A9F78F3F09F405
:1041C0000895280F311D87FD3A95F90162830895FE
:1041D0009C01FC013296285F3F4F8191861303C0FA
:1041E000DF0111971C92E217F307B9F70895FC015C
:1041F000862F869586958695603F60F4E80FF11DC1
:10420000677021E030E001C0220F6A95EAF78281F1
:10421000822B82830895FC01862F8695869586954C
:10422000603F80F4E80FF11D677081E090E09C0131
:1042300002C0220F331F6A95E2F7B90160958281AF
:10424000682362830895682F8091D801811559F001
:104250008091A10387FF07C08091A3019091A401E1
:104260000E94F72008958091A5019091A6010E94D7
:10427000CE200895682F8091D801811559F0809142
:10428000A10387FF07C08091A3019091A4010E9420
:104290000B2108958091A5019091A6010E94E8202C
:1042A00008958091D801811579F08091A10387FF4D
:1042B0000BC0E091A301F091A40132968EE1DF01E1
:1042C0001D928A95E9F70895E091A501F091A60164
:1042D000329686E0F4CFDC01FB0111969C91119798
:1042E0008181981322C012968C911297811519F032
:1042F000928189131AC013968C911397811519F026
:104300009381891312C015968C911597811519F018
:10431000958189130AC014969C91911521F081E032
:104320002481291303C080E001C081E081700895D9
:1043300008950E94982108958F5F809395030E94AD
:104340009921089583E0809395030E94992108950F
:104350000E949C21089581E0809395030E949921F9
:1043600008950E94AB210895089508950E94B521F3
:104370000895089508950E94B4210895CF930E944E
:10438000B9210E94E3130E94BA21C0E08C2F0E9441
:104390001C13892B31F4CF5FC330C1F780E0CF917C
:1043A000089581E0FCCF85B7806885BF85B78068B8
:1043B00085BF08951F921FB61F9211248F939F935C
:1043C000AF93BF9380919603811113C08091AF0387
:1043D0009091B003A091B103B091B2034196A11D99
:1043E000B11D8093AF039093B003A093B103B0933A
:1043F000B203BF91AF919F918F911F901FBE1F90ED
:1044000018958091B703843031F10E94AF04109267
:10441000960388E190E020E40FB6F894A895809385
:1044200060000FBE2093600083B7817F846083BFEC
:1044300083B7816083BF7894889583B78E7F83BF6D
:104440000FB6F894A8958091600088618093600011
:10445000109260000FBE08950E9403090E94B404E8
:10446000089582E084BD93E095BD9AEF97BD809357
:104470006E0008952FB7F8948091AF039091B00328
:10448000A091B103B091B2032FBF08952FB7F89454
:104490006091AF037091B0038091B1039091B2032A
:1044A0002FBF08959C014FB7F8948091AF0390916E
:1044B000B003A091B103B091B2034FBF821B930B25
:1044C000089578941F921FB61F9211248F939F9383
:1044D000AF93BF938091AF039091B003A091B103CC
:1044E000B091B2030196A11DB11D8093AF039093CB
:1044F000B003A093B103B093B203BF91AF919F916A
:104500008F911F901FBE1F90189587E797E7909394
:1045100001088093000888E19AE00FB6F894A89506
:10452000809360000FBE90936000FFCF88E19AE017
:104530000FB6F894A895809360000FBE909360002A
:10454000FFCF80919F0308950895282FCB01BA01D2
:104550003091B7033430D9F42F702093E9002FEF56
:104560003091E80035FD06C035ED3A95F1F70000D1
:104570002A95B1F72091E80025FF09C040E050E0FE
:104580000E9419258091E8008E778093E8000895B5
:10459000BC0146E050E082E00E94A5220895BC01E3
:1045A00040E250E082E00E94A5220895CF93DF937D
:1045B000D82FC92F48E050E0682F792F81E00E9462
:1045C000A52288E0ED2FFC2FA7E9B3E001900D9222
:1045D0008A95E1F7DF91CF9108958091B60381111B
:1045E00009C00E94A0260E94FD268091E2008460FE
:1045F0008093E20008951092B60308950E94AB21C3
:1046000008956091B30381E0611101C080E00E94D0
:10461000A22108959091B70381E0943009F080E0E1
:104620006091B3030E94A821089542E061EC81E00B
:104630000E941D2642E261EC82E00E941D2642E0BB
:1046400061EC83E00E941D2642E160E885E00E9463
:104650001D2642E161E884E00E941D269091B70387
:1046600081E0943009F080E06091B3030E949C21C6
:1046700008958091B903893009F44AC068F4823002
:1046800009F4A6C0833009F475C0813011F183EBC1
:1046900091E00E94762A08958A3009F488C08B3010
:1046A000B1F78091B803813291F78091BC0390916A
:1046B000BD03892B61F78091E800877F8093E80034
:1046C0000E9451268091BA038093D8010E94030969
:1046D000DECF8091B803813AD1F68091E800877FE0
:1046E0008093E8008091BC039091BD03892B61F019
:1046F00060E080E090E070E00E9468258091E80032
:104700008B778093E800C3CF68E087E993E0F3CF2D
:104710008091B803813209F0BACF8091BC039091A7
:10472000BD03029708F0B3CF8091E800877F8093A4
:10473000E8008091E80082FF18C09091F30080911A
:10474000F200029731F48091F100813011F086304F
:1047500021F48091F10080939F038091E8008B7792
:104760008093E8000E94512692CF8091B703811177
:10477000E0CF08958091B803813A09F088CF809105
:10478000BC039091BD03892B09F081CF8091E80093
:10479000877F8093E8008091E80080FFFCCF8091C4
:1047A000D8018093F1008091E8008E77D9CF809175
:1047B000B803813209F06BCF8091E800877F809346
:1047C000E8000E9451268091BB038093A0035FCF35
:1047D0008091B803813A09F05ACF8091E800877F31
:1047E0008093E8008091E80080FFFCCF8091A003D7
:1047F000D8CF82E090E09093C6018093C50183EB0F
:1048000091E00E943A2A08950895CF93DF9383EBB5
:1048100091E00E94E229EC01209719F4DF91CF91F9
:10482000089583EB91E00E940A2A0E9404242197B4
:10483000F3CFCF939091E900C091EC002091C30198
:1048400020FF15C0C795CC27C7959F70C92B9091A5
:10485000B4019F709093E9009091EB0090FF04C029
:104860009091EE0097FD05C0CF70C093E900CF9105
:1048700008959FEF2091E80025FD06C025ED2A95BB
:10488000F1F700009A95B1F78093F10083EB91E086
:104890000E949B298091E80080FFE6CF8091E8008C
:1048A0008E778093E800E0CF84B7877F84BF0FB610
:1048B000F894A895809160008861809360001092C0
:1048C00060000FBE80E890E00FB6F894809361001E
:1048D000909361000FBE0E94B12108950E94A0260E
:1048E0000E94FD26E2EEF0E080818460808378946F
:1048F0000E94812908958EEC91E00E943120089554
:104900008091B703853031F48091B703853019F079
:104910000E942C2208950E9401228091B5038115E6
:1049200099F30E94BE21811579F30E9403250E940C
:104930000309EACF0E94052483EB91E00E94C92974
:1049400008959A014091BE035091BF030E94A9248B
:104950000895AC01CB01D901252F33272330310530
:10496000D1F070F42130310509F43EC02230310518
:1049700069F488E790E02AEE33E02D933C930895A4
:1049800021323105E9F02232310521F180E090E059
:1049900020E030E0F2CFCA019927413059F082304F
:1049A000910559F0E6EEF3E0892B81F7849190E0D0
:1049B0009F01E3CFE6ECF3E0F9CFE4EBF3E0F6CFD1
:1049C000892BB9F06130710509F789E090E025E1A4
:1049D00034E0D3CF892B91F061307105B9F684E8CA
:1049E00090E024E734E0C9CF82E190E022E634E0B1
:1049F000C4CF89E090E02CEF33E0BFCF84E490E0B7
:104A000028EF34E0BACF80E189BD82E189BD09B4E5
:104A100000FEFDCF8091D8008F7D8093D8008091DB
:104A2000E00082608093E0008091E00081FDFCCF97
:104A30000895AF92BF92CF92DF92FF920F931F9390
:104A4000CF93DF936C01EB018A010E947026F82E50
:104A5000811123C00115110539F0F8018081918180
:104A6000C81BD90BC80ED91EA12CB12C2097A9F0B8
:104A70008091E80085FD22C08091E8008E778093C8
:104A8000E80001151105A1F0F801808191818A0DDE
:104A90009B1D9183808385E0F82E8F2DDF91CF9130
:104AA0001F910F91FF90DF90CF90BF90AF9008952E
:104AB0000E9470268115D1F2F82EEFCFF601819178
:104AC0006F018093F1002197FFEFAF1ABF0ACECF9D
:104AD000FC019B018091BE039091BF03861797074D
:104AE00018F0672B61F0C90140E0009771F44111A3
:104AF0000CC08091E80082FF35C080E0089580916D
:104B0000E8008E778093E800EECF2091B70321155F
:104B1000A9F12530A9F12091E80023FD2DC02091B5
:104B2000E80022FDE6CF2091E80020FFDECF3091A3
:104B3000F3002091F200009719F02830310558F069
:104B400041E02830310509F040E02091E8002E775F
:104B50002093E800CACF41914093F10001972F5F65
:104B60003F4FE9CF8091B703811541F0853041F087
:104B70008091E80083FFBDCF81E0089582E0089531
:104B800083E00895FC019B018091BE039091BF03D7
:104B90008617970718F0672B61F0C90140E000976E
:104BA00071F441110CC08091E80082FF36C080E0B2
:104BB00008958091E8008E778093E800EECF2091F1
:104BC000B7032115B1F12530B1F12091E80023FDA3
:104BD0002EC02091E80022FDE6CF2091E80020FFC2
:104BE000DECF3091F3002091F200009719F02830C9
:104BF000310558F041E02830310509F040E02091BE
:104C0000E8002E772093E800CACF44914093F1004A
:104C1000319601972F5F3F4FE8CF8091B703811501
:104C200041F0853041F08091E80083FFBCCF81E006
:104C3000089582E0089583E00895982F973028F032
:104C40008F708093E90081E008959093E900242F0C
:104C5000762F50E0981731F07091EC002091ED0024
:104C60005091F00021FD02C09F5FE8CF3091EB0032
:104C70003E7F3093EB003091ED003D7F3093ED00AF
:104C80003091EB0031603093EB007093EC00209397
:104C9000ED005093F0002091EE0027FDE5CF80E07D
:104CA00008958091B80387FF13C08091E80082FFC8
:104CB00006C08091E8008B778093E800089580918A
:104CC000B7038111F2CF08958091B7038115D9F30D
:104CD0008091E80080FFF8CF8091E8008E77ECCFDC
:104CE0002091E4003091E50095E6A9018091EC0067
:104CF0008170811531F08091E80080FF06C080E06E
:104D000008952091E80022FD1AC08091B703811513
:104D100089F0853089F08091EB0085FD0FC02091EE
:104D2000E4003091E5004217530701F39A95E9F644
:104D300084E0089582E0089583E0089581E0089575
:104D40000E940F270E941727E0EEF0E0808181602B
:104D50008083E8EDF0E080818F77808319BCA7ED38
:104D6000B0E08C918E7F8C9380818F7E80831092B7
:104D7000B60308950F931F93CF93DF930E940F27DD
:104D80000E941727C8EDD0E088818F7788838881BB
:104D90008068888388818F7D888319BC1092B703CF
:104DA0001092B3031092B5031092B40300EE10E01A
:104DB000F80180818B7F808388818160888342E0D5
:104DC00060E080E00E941D26E1EEF0E080818E7FB1
:104DD0008083E2EEF0E08081816080838081886062
:104DE0008083F80180818E7F8083888180618883C1
:104DF000DF91CF911F910F910895E8EDF0E0808150
:104E00008F7E8083E7EDF0E080818160808384E0A5
:104E100082BF81E08093B6030E94BA260895E8ED30
:104E2000F0E080818E7F80831092E20008951092DE
:104E3000DA001092E10008951F920F920FB60F92C0
:104E400011242F933F934F935F936F937F938F938F
:104E50009F93AF93BF93EF93FF938091E10082FF05
:104E60000BC08091E20082FF07C08091E1008B7F40
:104E70008093E1000E9480298091DA0080FF19C0B0
:104E80008091D80080FF15C08091DA008E7F8093DA
:104E9000DA008091D90080FF94C080E189BD82E171
:104EA00089BD09B400FEFDCF81E08093B7030E9465
:104EB000ED228091E10080FF19C08091E20080FF27
:104EC00015C08091E2008E7F8093E2008091E20025
:104ED00080618093E2008091D80080628093D80046
:104EE00019BC85E08093B7030E9401238091E10003
:104EF00084FF29C08091E20084FF25C080E189BD44
:104F000082E189BD09B400FEFDCF8091D8008F7D7C
:104F10008093D8008091E1008F7E8093E1008091A2
:104F2000E2008F7E8093E2008091E20081608093B6
:104F3000E2008091B303811509F449C084E08093B5
:104F4000B7030E940A238091E10083FF29C080916A
:104F5000E20083FF25C08091E100877F8093E1001C
:104F600082E08093B7031092B3038091E1008E7FBB
:104F70008093E1008091E2008E7F8093E200809137
:104F8000E20080618093E20042E060E080E00E9405
:104F90001D268091F00088608093F0000E94FE2220
:104FA000FF91EF91BF91AF919F918F917F916F9101
:104FB0005F914F913F912F910F900FBE0F901F90D7
:104FC000189519BC1092B7030E94FB2272CF8091F2
:104FD000E30087FF02C083E0B2CF81E0B0CF1F9231
:104FE0000F920FB60F921124FF920F931F932F93DE
:104FF0003F934F935F936F937F938F939F93AF9361
:10500000BF93CF93DF93EF93FF9309EE10E0F80186
:105010008081C091EC00C795CC27C7958F70FC2E7E
:10502000F82A1082C0EFD0E08881877F8883789447
:105030000E943828F8011082888188608883CF2DEB
:10504000CF70C083FF91EF91DF91CF91BF91AF916E
:105050009F918F917F916F915F914F913F912F9190
:105060001F910F91FF900F900FBE0F901F901895FA
:10507000AAE2B0E0EEE3F8E20C947B2B88EB93E03D
:10508000FC0101962091F100208323E0803C9207EF
:10509000B9F70E9439238091E80083FF39C08091DD
:1050A000B8039091B9039A3098F5E92FF0E0E35AEC
:1050B000F34D0C94662B803889F0823849F5809145
:1050C000BC038F70873020F58093E9008091EB005E
:1050D00085FB882780F91092E90007C09091B503FD
:1050E000919592708091B403892B9091E800977FFD
:1050F0009093E8008093F1001092F1008091E80015
:105100008E7723C0811116C08091BA03813011F1CE
:105110008091E80083FF0AC08091E800877F809338
:10512000E8008091EB0080628093EB00AA96E3E0B8
:105130000C94972B823061F78091BA03811589F026
:105140001092E9008091E800877F8093E8000E9438
:105150005126DECF81E0933009F080E08093B503E3
:10516000EFCF8091BC038F702FEF280F263080F691
:105170008093E9002091EB0020FFE2CF933031F4DF
:105180008091EB0080628093EB00DACF9091EB008E
:1051900090619093EB0021E030E0A90102C0440F40
:1051A000551F8A95E2F74093EA001092EA00809139
:1051B000EB008860E8CF8111ABCF1091BA031F7765
:1051C0008091E3008078812B8093E3008091E80058
:1051D000877F8093E8000E9451268091E80080FF3D
:1051E000FCCF8091E30080688093E30083E011119D
:1051F00001C082E08093B7038BCF8058823008F0E3
:1052000087CF8091BA039091BB038C3D53E0950703
:1052100099F583E08A838AE289834FB7F894DE01A7
:10522000139620E03EE051E2E32FF0E05093570068
:10523000849120FF03C082958F703F5F8F708A300A
:10524000C8F0895C90E08D939D932F5F243161F7C6
:105250004FBF8091E800877F8093E8006AE270E0AA
:10526000CE0101960E9468258091E8008B7780939B
:10527000E8004ECF805DE6CF6091BC037091BD0326
:10528000AE014F5F5F4F0E94A124BC01892B09F43E
:105290003FCF8091E800877F8093E80089819A81E1
:1052A0000E94C225E1CF803809F032CF8091E8001A
:1052B000877F8093E8008091B3038093F1001ECF35
:1052C000811126CF9091BA03923008F021CF8091BE
:1052D000E800877F8093E8009093B3030E945126F3
:1052E0008091B303811531F084E08093B7030E946D
:1052F00015230ECF8091E30087FDF6CF81E0F5CF37
:105300000895CF938091B703811599F08091E900BA
:10531000C091EC00C795CC27C7958F70C82B109211
:10532000E9008091E80083FD0E943828CF70C09387
:10533000E900CF910895FC018091B703843039F5DD
:1053400084899589A689B789892B8A2B8B2BF9F0BB
:1053500081818F708093E9009091F3008091F20039
:10536000892B11F480E008959091E8008091E80085
:105370008E778093E80095FDF5CF0E94702681110D
:1053800007C09091E8009E779093E800089582E02E
:105390000895FC018091B703843099F4848995893C
:1053A000A689B789892B8A2B8B2B59F081818F7025
:1053B0008093E9008091E80080FF03C0CF010E9444
:1053C0009B290895FC018091B7038430D9F4848926
:1053D0009589A689B789892B8A2B8B2B99F0868191
:1053E0008F708093E9008091E80082FF0BC090915C
:1053F000F3008091F200892B41F48091E8008B77D3
:105400008093E80080E090E008959091F30080910F
:10541000F2000895FC018091B703843019F08FEFFA
:105420009FEF089584899589A689B789892B8A2B4E
:105430008B2BA9F386818F708093E9008091E8001F
:1054400082FFEDCF9091F3008091F200892B79F0EB
:105450008091F10090E03091F3002091F200232B35
:1054600029F42091E8002B772093E80008958FEF2E
:105470009FEFF1CFA8E0B0E0E0E4FAE20C947A2BE1
:105480008C018091B703843059F5F801848995899E
:10549000A689B789892B8A2B8B2B11F183858F7075
:1054A0008093E90088E0E9EDF1E0DE0111960190DA
:1054B0000D928A95E1F740E050E068E070E0CE019F
:1054C00001960E94192540E050E062E070E0C801BA
:1054D00042960E9419258091E8008E778093E8001B
:1054E0002896E4E00C94962B08950895CF93DF93CB
:1054F000EC018091E80083FF13C028818091BC03F8
:105500009091BD032817190659F48091B90382328E
:1055100009F484C040F4803209F44DC08132B1F006
:10552000DF91CF9108958332D9F78091B80381320A
:10553000B9F78091E800877F8093E8000E945126A8
:105540006091BA03CE010E94752AEACF8091B80318
:10555000813A31F78091E800877F8093E80080915D
:10556000E80080FFFCCF8C899D89AE89BF8980933C
:10557000F100492F5A2F6B2F77274093F100AD018F
:10558000662777274093F1008B2F9927AA27BB27FF
:105590008093F100888D8093F100898D8093F100D4
:1055A0008A8D8093F1008091E8008E778093E800E7
:1055B0000E945126B5CF8091B803813209F0B0CF57
:1055C0008091E800877F8093E8008091E80082FF67
:1055D00020C03091F1002091F1009091F100809174
:1055E000F1003C8B2D8B9E8B8F8B8091F100888FEF
:1055F0008091F100898F8091F1008A8F8091E8007D
:105600008B778093E8000E945126CE010E94742A75
:1056100087CF8091B7038111D8CF82CF8091B80313
:10562000813209F07DCF8091E800877F8093E80088
:105630000E9451268091BA039091BB03998B888B6D
:10564000CE010E94742A6CCF991B79E004C0991F87
:10565000961708F0961B881F7A95C9F780950895CC
:1056600097FB072E16F4009407D077FD09D00E940F
:10567000A32B07FC05D03EF4909581959F4F08958C
:10568000709561957F4F0895A1E21A2EAA1BBB1B4E
:10569000FD010DC0AA1FBB1FEE1FFF1FA217B307FE
:1056A000E407F50720F0A21BB30BE40BF50B661F14
:1056B000771F881F991F1A9469F7609570958095D8
:1056C00090959B01AC01BD01CF010895EE0FFF1F26
:1056D0000590F491E02D09942F923F924F925F92A2
:1056E0006F927F928F929F92AF92BF92CF92DF92F2
:1056F000EF92FF920F931F93CF93DF93CDB7DEB757
:10570000CA1BDB0B0FB6F894DEBF0FBECDBF0994EA
:105710002A88398848885F846E847D848C849B8441
:10572000AA84B984C884DF80EE80FD800C811B814F
:10573000AA81B981CE0FD11D0FB6F894DEBF0FBE7E
:10574000CDBFED010895AA1BBB1B51E107C0AA1FE5
:10575000BB1FA617B70710F0A61BB70B881F991F12
:105760005A95A9F780959095BC01CD010895FB014C
:10577000DC0104C08D910190801921F4415050400A
:10578000C8F7881B990B0895FB01DC0102C001904A
:105790000D9241505040D8F70895F999FECF92BD2F
:1057A00081BDF89A992780B50895A8E1B0E042E05C
:1057B00050E00C94112CDC01A40FB51F4150504057
:1057C00048F0CB01840F951F2E910E94EC2B415085
:1057D0005040D0F70895262FF999FECF92BD81BD94
:1057E000F89A019700B4021639F01FBA20BD0FB61F
:1057F000F894FA9AF99A0FBE08950396272F0E94FB
:10580000EC2B0E94EB2B252F0E94EC2B242F0C94C9
:10581000EC2B0196272F0E94EC2B0C94EB2BDC0138
:10582000CB01FC01F999FECF06C0F2BDE1BDF89AAB
:10583000319600B40D9241505040B8F70895F89455
:10584000FFCFAC1B1F1CB41B7E1B821BB81B861B0F
:10585000BC1BC81B921B181C961BCC1B9A1BD01B75
:10586000F71B9E1BD41BFE1BA41BDA1BE21B8A1B0F
:10587000C01B8E1BC41BA81BDE1BEE1B071C161CAB
:10588000781BB01B261CDD1CE31CE61CEC1C011D58
:10589000011D011D011D011D011D011D011DEF1C2B
:1058A000F41CF81CFE1C0F1D151D191D0C201220C8
:1058B000FC1F062018201E2024205B288228882810
:0E58C00082288828DB28FD28882853296029A3
:1058CE00BE020400000000B8021600000000B00284
:1058DE00D102000000AA020700000000A402090085
:1058EE000000009E020A0000000098020B0000005B
:1058FE000092020D000000008C020E0000000086D7
:10590E00020F00000000800233000000007A023413
:10591E0000000000740239000000006E0228000032
:10592E0000006802500000000062025100000000FA
:10593E005C02520000000056024F000000005002B0
:10594E0028000000004A02500000000044025100EE
:10595E000000003E02520000000038024F0000001E
:10596E0000FF009702B70201AF0001280850011E88
:10597E000A140102841000000105100000018308C2
:10598E000000010000000000000000000000A12245
:10599E00D622CF22C822A42201A12000000000029C
:1059AE0000F5F6F731333534C6976694F432360087
:00000001FF
