:100000000C947D020C949A020C949A020C949A021D
:100010000C949A020C949A020C949A020C949A02F0
:100020000C949A020C949A020C94DD260C94B0273E
:100030000C949B210C949A020C949A020C949A02B0
:100040000C949A020C949A020C949A020C949A02C0
:100050000C949A020C9422220C949A020C949A0208
:100060000C949A020C949A020C949A020C949A02A0
:100070000C949A020C949A020C949A020C949A0290
:100080000C949A020C949A020C949A020C949A0280
:100090000C949A020C949A020C949A020C949A0270
:1000A0000C949A020C949A020C949A02C774C97424
:1000B000CB74CD74D174D674DA74DC74DE74E074ED
:1000C000E274C874CA74CC74CE74D274D774DB74FE
:1000D000DD74DF74E174E97400000000447ECF74C5
:1000E000D074D874D974C2740000000000001400E9
:1000F0001A000800150017001C0018000C00120060
:1001000013002A001D001B00060019000500110045
:1001100010003600370038004C0000000000E000FE
:10012000E300E2002C00417E427E0000000000005F
:100130003A003B003C003D003E003F0040004100D3
:100140004200430044000000000000002B00290092
:10015000AC00AA00A900AB00AE0045000000000002
:10016000E000E300E2002C000100010000000000BC
:1001700000001E001F002000210022002300240098
:100180002500260027002A003500000000002B0073
:10019000290046002D002E002F0030003100000005
:1001A0000000E000E300E2002C000100010000007C
:1001B000000000000000000000000000000000003F
:1001C000000000000000000000000000000000002F
:1001D000000000000000000000000000000000001F
:1001E00000000000437E000000000000010001004C
:1001F0000000000000004200AB0000004100A90028
:1002000000004000AA0000003F00AC0000004400D5
:100210004500000026002F00000025002E000000F1
:1002200024002D0000002300460000002A003100B9
:1002300000001E00350000002A004C0000001300E2
:10024000380000001200370000000C0036000000EB
:100250001800100000001C0011000000170005002D
:1002600000001500190000000800060000001A0038
:100270001B00060000001A001B00000014001D00F7
:10028000000000D0D0D0D0D0D0010102040810204E
:1002900041424448480000004848506081828488B8
:1002A00090A0C1C2C4D0D0D0D0D0D0C8000000002F
:1002B000000000000000000000000000000000003E
:1002C000000000000000000000002A2B28000000B1
:1002D00000000000000000000000000000290000F5
:1002E00000002C1E3420212224342627252E362DD2
:1002F0003738271E1F202122232425263333362E6C
:1003000037381F0405060708090A0B0C0D0E0F10DD
:100310001112131415161718191A1B1C1D2F313022
:10032000232D350405060708090A0B0C0D0E0F10C6
:100330001112131415161718191A1B1C1D2F313002
:10034000354C00000000000000000000000000002C
:10035000000000000000000000000000000000009D
:100360000000000000007E0F00D4FFFFFFC7000068
:1003700000781003540068006500200055006E00EE
:10038000690000001E037300740065006E006F00BA
:100390006B006500790062006F006100720064000C
:1003A000730000000403090409027800040100A09E
:1003B000FA090400000103010100092111010001F3
:1003C000224400070581030800010904010001031C
:1003D00000000009211101000122840007058203A9
:1003E000200001080B0202020201000904020001C0
:1003F0000202010005240010010424020205240663
:100400000203070583030800FF09040300020A0032
:10041000000007050502100005070584021000050D
:1004200012010002EF020108009001000100010228
:10043000000105010902A10185020901A1000509C8
:10044000190129081500250195087501810205018A
:10045000093009311581257F950275088106093813
:100460001581257F950175088106050C0A3802154E
:1004700081257F950175088106C0C005010906A187
:10048000018506050719E029E7150025019508757E
:100490000181020507190029EF1500250195F07566
:1004A000018102050819012905950575019102953B
:1004B0000175039101C005010906A101050719E0B5
:1004C00029E7150025019508750181029501750838
:1004D00081010507190029FF150026FF0095067503
:1004E00008810005081901290515002501950575E4
:1004F000019102950175039101C011241FBECFEF38
:10050000DAE0DEBFCDBF11E0A0E0B1E0E0E5F8E564
:1005100002C005900D92A03FB107D9F723E0A0EFEC
:10052000B1E001C01D92AE3BB207E1F70E94311469
:100530000C94E02B0C94000080E00E948D14089530
:100540009C01FB0122348EE73807D9F148F42034AE
:100550008EE7380799F021343E4719F181E008957C
:1005600023348EE7380791F024343E47B9F785816C
:100570008115A9F080E00E94680903C0858181157A
:1005800071F081E00E94580981E007C085818115E2
:1005900031F080E00E94580980E00E944C0980E020
:1005A00008958581811549F083E00E94580944E04F
:1005B00062E083E00E94AD0AF2CF83E00E94680906
:1005C000F6CF8581811511F082E0EFCF82E0F6CF82
:1005D0008530B8F46330A8F44B3098F4E42FF0E0A1
:1005E0009BE0699FE00DF11D112491E2899FE00DD0
:1005F000F11D1124EE0FFF1FE455FF4F85919491DB
:10060000089581E090E008950E94E802089587E14E
:1006100090E0089547E0489F9001499F300D1124D4
:10062000C90180509F4F08959C019A9581159F4163
:1006300018F5F901EE27F270832F8170B901662752
:100640007470A9014427587034FF0CC08295807FD4
:10065000EF2B09F08062672B09F08064452B69F06D
:1006600080680895EF2B09F08260672B09F08460A1
:10067000452B19F08860089580E00895CF93DF93AB
:10068000EB010E941403FE010995DF91CF910895BB
:10069000CF93DF93EC01805E9109089720F068EA20
:1006A00078E0209711F467E676E0CE010E943E03E1
:1006B0008C2F0E948A05DF91CF910895CF93DF930D
:1006C000EC010E94FE05CE01805E9109089720F0A2
:1006D0006FEA78E0209711F46EE676E0CE010E9492
:1006E0003E03DF91CF91089581E008950E94740345
:1006F000089581E008950E94A002089508950E943F
:100700007E030895A6E0B0E0E8E8F3E00C943C2B0B
:1007100049835A839E833091FE0189819A813111E8
:100720001AC03E81311599F0211589F00E941F0AE7
:10073000182F682F89819A810E94FB0969817A812B
:10074000812F0E9495112696E3E00C94582B0E946D
:100750000D0A182FF3CF0E941F0A69817A81F1CF09
:10076000FC01262F87819085009741F440815181BB
:1007700062817381848195810E94820308950F9321
:100780001F93CF93DF93D82FC92F61E00E94B0034E
:100790008C016D2F7C2F0E947603811559F06D2FEF
:1007A0007C2FC8010E942C198170DF91CF911F917D
:1007B0000F91089580E090E0F7CFCF93DF93D82F8B
:1007C000C92F60E00E94B0036D2F7C2F0E947F0331
:1007D000DF91CF91089581E008950E94EB03089581
:1007E000CF93C82F0E94C4088C2F0E94ED032FEFD7
:1007F00084E39CE0215080409040E1F700C000007D
:10080000CF91089581E00E94F0030E94462208954E
:1008100080E00E94F0030E94572208950F931F93D7
:10082000CF93DF938C0161E00E94B003EC01B8012B
:100830000E947B03811509F442C0B801CE010E94D9
:10084000A0148115E1F1B801CE010E949C1681151A
:10085000B1F1B801CE010E94B11F811581F1B8013B
:10086000CE010E94151B811551F1B801CE010E94E5
:10087000EA1A811521F1F8018581811581F0CA35C7
:10088000FCE7DF0739F178F4C130ECE7DE07F9F077
:10089000C330FCE7DF07C9F0C115DC4771F0C801C0
:1008A0000E9479030DC0CB35ECE7DE07B1F0CC3503
:1008B000DC47A9F70E94D40EF2CF0E94020480E028
:1008C000DF91CF911F910F9108950E94E60E0E9433
:1008D0000804F5CF0E94DE0EE2CF0E94E20EDFCFC9
:1008E0000E9477210E94210508950E9425050E94FB
:1008F0007C2108954F925F926F927F92AF92BF9248
:10090000CF92DF92EF92FF920F93CF93DF937C0110
:1009100029013A01615071096B01EC01C60FD71F23
:100920001882A12CB12CAC14BD0478F0C701DF9162
:10093000CF910F91FF90EF90DF90CF90BF90AF904D
:100940007F906F905F904F900895C301B2012AE0AD
:1009500030E040E050E00E94052B605D603341F4E0
:10096000A114B10429F045284628472809F4602F2E
:100970006A9329013A018FEFA81AB80AD4CF0F93CE
:100980009C01062F8091A1019091A20182179307EB
:1009900021F48091F801861781F03093A201209311
:1009A000A1010093F80140E050E066E070E082EFC2
:1009B00091E00E947A040F91089582EF91E0FBCFBD
:1009C000292F30E021153105E9F49C0180E0A901CF
:1009D00074E0569547957A95E1F74115510511F068
:1009E0008C5F9A01A90156954795569547954115F3
:1009F000510511F08E5F9A0136952795232B09F04A
:100A00008F5F089588E0E3CF089581E00895089509
:100A1000CF93DF93D82F0E940505C82F811519F0B9
:100A20008D2F0E9407058C2FDF91CF910895089597
:100A3000CF93C82F0E9404058C2F0E940805CF91E8
:100A4000089580E00E94180508950E94F71F0E94F3
:100A500018050895CF930E94F71FC82F8091F901C0
:100A60008C1779F0C093F9010E9407226093FA0174
:100A70007093FB018093FC019093FD018C2F0E94E9
:100A80001805CF910895AFE0B0E0E9E4F5E00C94EB
:100A90003B2B4A875B876C877D878E879F87911169
:100AA0000E94D00D1F821886198686E0FE013A96B4
:100AB000DE01119601900D928A95E1F78D818111E9
:100AC0000FC009811A812B813C814D815E816F812C
:100AD000788589850E94100D2F96E4E00C94572BA1
:100AE000CE0101960E94BF038111EBCFF5CFFC012F
:100AF0008481813021F4808191810E94510A08957E
:100B0000611529F00E94821C0E94561D08950E94C2
:100B1000DE1CFACFCF93C82F8115C9F08238C9F4F3
:100B20000E94042081FD13C089E30E94E4200E94FA
:100B3000760E2FEF87EE93E0215080409040E1F752
:100B400000C0000089E30E94FB200E94760ECF9136
:100B500008958338A1F40E94042080FDF8CF83E536
:100B60000E94E4200E94760E2FEF81EE94E0215047
:100B700080409040E1F700C0000083E5E4CF843876
:100B8000A1F40E94042082FDE2CF87E40E94E420C9
:100B90000E94760E2FEF81EE94E02150804090402D
:100BA000E1F700C0000087E4CECF8CEF8C0F813AD4
:100BB00070F48C2F0E945520811529F08C2F0E94F3
:100BC000FB200E94760E8C2F0E94E420BECF80E294
:100BD0008C0F883048F4C77081E001C0880FCA9537
:100BE000EAF70E94B10DB1CF83E38C0F833108F097
:100BF000AECF61E08C2F0E948005A9CF811509F44A
:100C000044C0823879F40E94042081FF3EC089E309
:100C10000E94E4200E94760E89E30E94FB200E943D
:100C2000760E0895833859F40E94042080FF2DC069
:100C300083E50E94E4200E94760E83E5EECF84389F
:100C400059F40E94042082FF20C087E40E94E4201F
:100C50000E94760E87E4E1CF9CEF980F913AE8F27C
:100C600090E2980F983050F4877091E001C0990F8E
:100C70008A95EAF7892F0E94B70DD1CF93E3980F99
:100C8000933118F460E00E94800508951F93CF937C
:100C9000DF93182FEB010E948A05209739F4812FEA
:100CA0000E94FE05DF91CF911F9108958FE99FE08B
:100CB0000197F1F700C000002197EFCF60E570E0E9
:100CC000893311F060E070E00E94460608958115B6
:100CD00021F00E94B10D0E94760E0895811521F039
:100CE0000E94B70D0E94760E0895A0E0B0E0EBE7F9
:100CF000F6E00C94372B6C01D62FC72FFC01058131
:100D0000F680F2948FE0F8220E94A60DE82E81155D
:100D1000F9F0E02E0115E1F08C2F807F803461F036
:100D200080E28D0F8830A0F18C2F807E803221F4FC
:100D3000D23070F1F11461F18091A00382FF28C0DC
:100D400082E00E94A70E0E94A60D91E0E82EE926FF
:100D50008C2F82958F70883009F4CFC0B0F5843025
:100D6000C8F41C2F1F70823008F440C0C07FC0320E
:100D700011F01295107FD11509F467C0D13009F434
:100D800097C0011509F4A3C0F11409F47AC041C059
:100D9000E12CDECF853009F4ABC0E11489F00E946C
:100DA000A20D80FD0DC0F60115820E949C0D0E94CF
:100DB0005809C6010E9485080E949C0D0E9468097E
:100DC000CDB7DEB7E8E00C94532B893009F40CC1A1
:100DD0008A5F8F70823008F7D23F09F016C18C2FDE
:100DE0008F7101110FC10E945809B6C0C03110F0B7
:100DF0001295107F011599F0111559F080E28D0FB1
:100E0000883010F0D11107C0812F0E94B10D0E94CF
:100E1000760E8D2F28C0812F0E94C20DF8CF8D2F06
:100E20000E94FE05111509F4B8CF80E28D0F8830BD
:100E300010F0D11104C0812F0E94B70D03C0812F83
:100E40000E94C80D0E94760EA8CF8091A00382FD5B
:100E500014C0011559F0111529F0812F0E94B10D10
:100E60000E94760E80E00E948A0597CF80E00E9463
:100E7000FE05111509F491CFDECF011569F0F110CF
:100E800004C0812F0E94670688CFF1E0FF1285CF52
:100E9000812F0E94EB0D81CFF1107FCF812F0E9417
:100EA0006E06812F0E94F70D812F0E94DA0D75CFFB
:100EB000011529F026E0F21608F06FCFE2CF85E0A9
:100EC000F81608F06ACF812F0E946E0666CFF114E3
:100ED000D1F3D93349F49FEFE7EEF3E09150E040CE
:100EE000F040E1F700C000008D2F0E94FE0555CFB5
:100EF000602F8D2F0E94800550CF8C2F8370811121
:100F000039C0011129C04D2F429546954770440FB5
:100F1000440F2D2F2F7030E0042E02C0220F331FFC
:100F20000A94E2F780E090E0D4FF09C08FE090E0FF
:100F300002C0880F991F4A95E2F780959095C69553
:100F4000C695C370822B932BC23071F0C33079F0F9
:100F5000C13039F00E9428090E94F71F0E9418052D
:100F60001CCF0E941F09F8CF0E943109F5CF0E94C3
:100F70001C09F2CF011561F1C0FFEECF4D2F429554
:100F800046954770440F440F2D2F2F7030E0042EEC
:100F900002C0220F331F0A94E2F780E090E0D4FFF2
:100FA00009C08FE090E002C0880F991F4A95E2F7D0
:100FB00080959095C695C695C370822B932BC230B1
:100FC00069F0C33071F0C13031F00E949309C4CF91
:100FD000823010F2D3CF0E948A09BECF0E949C09B2
:100FE000BBCF0E944009B8CFCF70011539F08C2FCC
:100FF0000E9458098D2F0E946706AECF8D2F0E9448
:101000006E068C2F0E946809A7CF70F4D03FC9F0FC
:10101000D13F91F0011509F445C0F11409F43FC026
:101020008D2F0E948A0598CFD33FC9F0D43F91F706
:101030008091A00382FD1DC08C2F8F71011511F3CB
:10104000D2CE011549F025E0F21608F085CF8C2F9D
:101050008F710E947A0980CF86E0F816F6CF0115CD
:1010600029F08C2F8F710E944C0976CF0E9447097E
:1010700073CF011549F0CF718C2F0E94580963E09E
:101080008C2F0E94880E68CF81E00E94A70E92E00C
:10109000F91608F461CF82E00E94A70E5DCF8C2F75
:1010A0008F71A1CEF11479F0D93349F4EFEFF7EE57
:1010B00023E0E150F0402040E1F700C000008D2F18
:1010C0000E94FE0549CF8C2F8F719CCF0F931F93E9
:1010D000CF93DF93EC018F819885009781F00E9478
:1010E00093108C010E94A5090E941B09B801CE0132
:1010F0000E947506DF91CF911F910F91089568812D
:1011000079818D810E945E0AECCFCF93DF93EC0151
:101110008C81811599F0CE010E940E04811111C0BD
:101120000E94A60D811551F08D81811539F08091B5
:10113000A00382FF03C082E00E94A70EDF91CF913F
:101140000895CE010E946608CE010E94DD03F6CF0D
:10115000811521F00E94C20D0E94760E089581151E
:1011600021F00E94C80D0E94760E08950E94D00DB5
:101170000E94760E0E94731D0E94561D08950E94C3
:1011800012210E94B60808950E94BF0D0E94BF0858
:101190000895282F92959F70963099F060F4925F91
:1011A0009F70923030F4203F89F038F481E0283E7F
:1011B00038F080E008959A5FF3CF81E0243FC9F7CB
:1011C000089581E0283EE0F3213FF9CF81E00895C2
:1011D000FC018481811571F087819085009729F049
:1011E0000E9493100E94C9080895808191810E94F5
:1011F000510AF8CF80E00895A6E0B0E0E2E0F9E01F
:101200000C943D2B2696E2E00C94592BA9E0B0E01B
:10121000ECE0F9E00C943B2B2996E4E00C94572B7E
:1012200008950E94100908950E94110990931602D2
:1012300080931502089508950E941409089520913D
:10124000150230911602822B932B0E9414090895E7
:101250002091150230911602822393230E941409D3
:1012600008952091150230911602822793270E943B
:10127000140908950E94100908950E943A090895DA
:101280000E943D099093140280931302089580E018
:1012900090E00E944009089521E030E0A90102C0D9
:1012A000440F551F8A95E2F7CA010E94400908952C
:1012B00021E030E002C0220F331F8A95E2F78091CF
:1012C000130290911402822B932B0E9440090895DF
:1012D00021E030E002C0220F331F8A95E2F720950B
:1012E00030958091130290911402822393230E94DF
:1012F0004009089521E030E002C0220F331F8A9593
:10130000E2F78091130290911402822793270E94A2
:10131000400908952091130230911402822B932BDF
:101320000E944009089520911302309114028223F3
:1013300093230E94400908952091130230911402D2
:10134000822793270E944009089508959B016770A2
:1013500091E001C0990F6A95EAF763E03695279509
:101360006A95E1F7220F331F220F331FFA01E20FB4
:10137000F31F40E050E0682F70E08191DF0111978A
:101380009B01042E02C0369527950A94E2F721703E
:1013900021952827292328272C934F5F5F4F44301E
:1013A000510559F708959C01982F977083E0369561
:1013B00027958A95E1F7220F331F220F331FFB0178
:1013C000E20FF31F40E050E080E0219130E0092E71
:1013D00002C0369527950A94E2F721703327042E30
:1013E00001C0220F0A94EAF7822B4F5F5F4F44300F
:1013F000510559F70895282F862F933068F42B3024
:1014000058F4622F70E02BE0929F600D711D112443
:101410004FEF51E00E94A6090895292F933068F4F8
:101420008B3058F490E06FEF71E03BE0239F800D2C
:10143000911D11240E94D309089580E00895A0E031
:10144000B0E0E5E2FAE00C94362B8C01E090130258
:10145000F09014028091150290911602E82AF92A60
:10146000CFE0D0E0CC24C394D12CC6010C2E02C016
:10147000880F991F0A94E2F78E219F21892B49F446
:10148000219798F7B12C8B2DCDB7DEB7E9E00C94FE
:10149000522BBC2EB8018C2F0E94A111019781F311
:1014A000F2CFCF93DF93D82FC92F0E941F0A6D2F41
:1014B0007C2F0E94A111DF91CF9108951F93CF93AC
:1014C000DF93162FD72F9091FE01911541F0862FB3
:1014D000972F0E94510ADF91CF911F910895811596
:1014E00081F0862F972F0E941F0AC82F682F812F07
:1014F0009D2F0E94FB09612F7D2F8C2F0E94A1112F
:10150000EACF862F972F0E940D0AC82FF4CFFC0137
:1015100081E090E0DC0102C0AA0FBB1F6A95E2F7F0
:10152000BD01DC0102C0AA0FBB1F4A95E2F7AD0165
:101530006A2B752B02C0880F991F2A95E2F79B0131
:101540002E233F232617370719F48E2B9F2B089540
:10155000809590958E239F230895242F462F682FE2
:1015600080911302909114020E94870A0E94400900
:101570000895EF92FF920F931F93CF93E09117027C
:10158000C9E0809118028E1306C0CF911F910F9170
:10159000FF90EF900895EE2EF12CCE9FF0011124D4
:1015A000E75EFD4F008111812281338144815581A5
:1015B0006681778180850E940609F7013196E77080
:1015C000E0CF0F931F93009161021091620220916E
:1015D000630230916402409165025091660260910D
:1015E000670270916802809169020E9406091F914A
:1015F0000F91089580916702803178F4809166029E
:10160000811559F0E0911702209118023091620281
:101610004091610259E02E1301C008956E2F70E0D1
:101620005E9FF0011124DF01A75EBD4F14968C91DF
:101630001497811561F111968C911197831327C02E
:101640008C91841324C015968C91159781111FC01D
:1016500012968D919C91A0916302B09164028A1BB5
:101660009B0B883C910598F4809167028F70806194
:1016700080936702E15EFD4F80818F70806180837F
:1016800081E692E00E9485080E94B90A0895FB0154
:101690003196E770C0CFE09117029091180229E0CF
:1016A000E91302C080E00895AE2FB0E02E9FF00154
:1016B0001124E75EFD4F3181361306C030813813A7
:1016C00003C03581341304C0FD013196E770E8CFC3
:1016D00081E008958F929F92AF92BF92DF92EF9236
:1016E000FF920F931F93CF93DF93CDB7DEB72F9762
:1016F0000FB6F894DEBF0FBECDBF8C0186E0F801B7
:10170000DE011A9601900D928A95E1F7F801E080CA
:10171000F580A280B380848191E6892E92E0992E93
:101720009091650291111BC0811509F42AC1F11431
:1017300009F469C1C8010E94E808811509F463C170
:1017400089E0F801D40101900D928A95E1F7C40176
:101750000E9477050E94FA0A0E94E10A12C1D09005
:1017600066022091630230916402A501421B530B73
:10177000D11409F409C1483C510508F0CAC08115CB
:1017800009F4FFC0909162029180809167028031DC
:1017900008F074C0991231C0909161029E112DC061
:1017A00040916802509169022781308542175307A2
:1017B00021F5F1105DC08F708061809367020E94F7
:1017C000E10A81E692E00E94850880916702F801B3
:1017D0008683F12C8F2D2F960FB6F894DEBF0FBEA7
:1017E000CDBFDF91CF911F910F91FF90EF90DF90D0
:1017F000BF90AF909F908F900895F11039C040E056
:10180000692D8E2D0E944B0B40E0692D8E2D0E947C
:101810004B0BF82E8111DDCF8A859B850E94510AE2
:10182000292F22952F70903450F49F70223080F031
:10183000911599F0F8019681903178F4CBCF2A5F19
:101840002F70223078F0C8010E948508FD2CC2CF8D
:10185000911519F0811509F4BDCF805E883008F428
:10186000B9CFF1CF803F08F4B5CF815F8330F7CF98
:1018700080916702816080936702ABCF99121CC090
:10188000909161029E1118C04091680250916902C6
:10189000278130854217530779F4F1100DC08683F4
:1018A000C8010E94850889E0F801A1E6B2E0019034
:1018B0000D928A95E1F750CFC8010E94E808811582
:1018C00009F4A1C0F11409F49EC08091670280322E
:1018D000B8F020916102309162023A832983BC8280
:1018E000AB82909165029D831E828F8380916802F6
:1018F0009091690299878887CE0101960E94850898
:1019000089E0F801A1E6B2E001900D928A95E1F735
:1019100021CF909167029031A0F44A855B856C8558
:101920007D858E859F850E94FC0881E692E00E945D
:10193000850889E0F40111928A95E9F70E94E10A8D
:1019400048CF8115F1F02091620281812813B4CF34
:10195000809161028E11B0CF40916802509169026E
:10196000278130854217530709F0A6CFF110A4CF85
:101970009683C8010E94850889E0F40111928A9536
:10198000E9F7FF24F39426CF483C510508F03FC007
:101990008115B9F3F114B9F1909162028181981324
:1019A00028C0809161028E1124C02091680230917C
:1019B00069028781908528173907D9F480916702D9
:1019C00080FD0EC0803160F08683982F907F903F1D
:1019D00009F466CF982F907F905F8F70892B5FCF2F
:1019E00089E0F801A1E6B2E001900D928A95E1F755
:1019F000C8CFC8010E94E808811182CF8091670298
:101A0000816080936702C8010E948508BACF4A8529
:101A10005B856C857D858E859F850E94FC0889CFBE
:101A2000A2E1B0E0E6E1FDE00C943A2B0A871B87C7
:101A30002C873D874E875F87688B798B8A8BCE0199
:101A40000A960E946A0B8115C9F04E85411551F026
:101A50000A851B852C853D855F85688979898A89FA
:101A60000E94060989E0F82E8091170290911802D1
:101A700089133DC06296E5E00C94562B89E0FE0187
:101A80003A96DE01119601900D928A95E1F7209128
:101A90001802409117028E85811521F330E0C901AB
:101AA0000196877099274817190699F099E0929F37
:101AB000D001939FB00D1124A75EBD4FFE0131965A
:101AC00001900D929A95E1F7809318020E94B90A4D
:101AD000C9CF0E94C408109218021092170289E020
:101AE000E1E6F2E0DF011D928A95E9F7BBCFF89EAF
:101AF000C0011124875E9D4F0E946A0B811509F475
:101B0000B9CFE0911702FE9EF0011124E75EFD4F70
:101B100000811181228133814481558166817781E1
:101B200080850E9406098091170290E001968770D7
:101B300099278093170298CF809192028695869577
:101B400086950895809192028770089590919202EF
:101B5000977081E0911101C080E008958091BE02EC
:101B600008959091BE02982B9093BE020895982FED
:101B700090958091BE0289238093BE0208951092B1
:101B8000BE0208959091BD02982B9093BD020895D6
:101B9000982F90958091BD0289238093BD0208956E
:101BA0001092BD02089580919402089508950E94B4
:101BB000D60D089590919302292F2823211531F0F5
:101BC00080958923809393020E94D70D08950895EC
:101BD0000E94E70D089590919402292F2823281739
:101BE00029F0982B909394020E94E80D089590910B
:101BF0009402292F2823211531F080958923809381
:101C000094020E94E80D08959091A00392FF08C0ED
:101C100090919402981721F0809394020E94E80D0D
:101C2000089580919402811529F01092940280E029
:101C30000E94E80D0895CF93C091BE028091BD022D
:101C4000C82B80919402811531F0C82B0E9430205E
:101C500081110E94110E8C2FCF910895CF93DF93A5
:101C6000C091A501D091A6010E941B0E8883C0914E
:101C7000A501D091A60148E050E06AE872E0CE01EB
:101C80000E94782B892B59F088E0FE01AAE8B2E087
:101C900001900D928A95E1F7CE010E940720DF9115
:101CA000CF910895CF93DF93C091A301D091A40168
:101CB0000E941B0E8983C091A301D091A40140E230
:101CC00050E06AE672E0CE010E94782B892B59F031
:101CD00080E2FE01AAE6B2E001900D928A95E1F75A
:101CE000CE010E941220DF91CF9108958091D801FA
:101CF000811539F080919F0387FF03C00E94520E27
:101D000008950E942E0E089508950E94840E08954D
:101D1000962F2091A00322FF11C0682F660F660F37
:101D2000660F692B609392020E945809809192027B
:101D30008695869586950E94850E08950E9458097D
:101D400008951092920280E00E94850E089590916D
:101D500092028095892380939202282F2770211167
:101D60000DC0891759F09091A00392FF07C0869586
:101D7000869586950E9468090E94A10E089590910B
:101D8000A00392FB222720F9281769F080FB92F923
:101D90009093A00380919F039091A0030E94070F4E
:101DA00082E00E94A70E08958091A00382FB8827FD
:101DB00080F991E089270E94BF0E089581E00E947A
:101DC000BF0E089580E00E94BF0E08956FEF7FEF71
:101DD00080E090E00E94CA2B089580E090E00E948D
:101DE000962B9C0181E0263E3E4F09F080E008954D
:101DF00082E090E00E948E2B089583E090E00E94A4
:101E00008E2B089584E090E00E94962B0895BC01EB
:101E100084E090E00E94CA2B0895AB01BC018FE0E2
:101E200090E00E94BE2B0895AB01BC0183E190E0DD
:101E30000E94BE2B089560E070E0CB010E94140F59
:101E4000089560E070E0CB010E940D0F0E941B0F0F
:101E50000895A8E0B0E0EFE2FFE00C943D2B66EEC1
:101E60007EEF80E090E00E94CA2B60E082E090E08C
:101E70000E94AC2B81E090E09093160280931502B3
:101E800061E083E090E00E94AC2B60E074E184E0CC
:101E900090E00E94CA2B60E086E090E00E94AC2BAC
:101EA0006FEF87E090E00E94AC2B40E050E0BA0179
:101EB00088E090E00E94BE2B60E084E290E00E9407
:101EC000AC2B60E087E190E00E94AC2B60E08CE0FE
:101ED00090E00E94AC2B60E08DE090E00E94AC2B83
:101EE00019821A821B821C821D821E821F82188602
:101EF00048E050E068E170E0CE0101960E949C2B22
:101F000040E050E0BA0180E290E00E94BE2B0E94C7
:101F1000210F2896E2E00C94592B0E94290F089576
:101F2000682F8EE090E00E94AC2B0895A6E0B0E010
:101F3000ECE9FFE00C943B2B0E94FB218C0180918B
:101F4000BF029091C0028017910779F019821A821E
:101F50000E94FB21BC0149815A8180E090E00E94EF
:101F600043051093C0020093BF022696E4E00C9450
:101F7000572B0E9407226093CB027093CC02809370
:101F8000CD029093CE026093C7027093C8028093F3
:101F9000C9029093CA020895089508950E94CC0F33
:101FA000089508950E94D10F089589E992E10E9451
:101FB0003E140E94CD0F0E94CE0F089581E0089537
:101FC0000E94DE0F08950E94DE0F0895089508957F
:101FD0000E94E60F0E94E70F08950E94B8120E9427
:101FE000170508950E94F2210E948E130E94ED0FA2
:101FF0000E948014EFE9F3E0808180688083809103
:102000009F039091A0030E94070F0E94BA230E9491
:10201000D20F08950E94E5180E9459160895A6E06F
:10202000B0E0E5E1F0E10C94312B0E94E00F81116A
:102030000CC00E94960F0E940A100E94941D0E94DC
:102040002A052696EEE00C944D2B0E94A4130091D5
:10205000C1021091C20280E00E94DD120817190728
:10206000A1F40091C3021091C40281E00E94DD122C
:102070000817190751F40091C5021091C60282E0B9
:102080000E94DD1208171907A1F28091CF0281FD8D
:102090000E94E6120E94E30F782E21EC822E22E0AD
:1020A000922EF12C662463948F2D0E94DD128C01F8
:1020B000F401A190B1904F018A159B0569F1A82602
:1020C000B126E12CCC24C394D12CC5018C219D21B7
:1020D000892BC1F07114B1F0E982FA820E94FB21D0
:1020E0009C838B836D8221E0C8018C219D21892BEB
:1020F00009F420E049815A816B817C818D81922F86
:102100000E944305E394CC0CDD1CFBE0EF12DDCF15
:10211000F401329711830083F39483E0F812C4CF63
:102120000E94B90F88CF1F93CF93DF930E94A6110F
:10213000EC01811522E5920708F04EC0811540E5BB
:10214000940708F0C7C0883E9105E0F4803E9105F1
:1021500060F4853A910570F4049738F481E0219792
:1021600009F080E0C82F50E0D52FCE01DF91CF914C
:102170001F9108958D5C9109D0654397B0F3C0E03D
:10218000D0E0F3CFC11580E4D807E0F4C11590E2A8
:10219000D90708F0B7C0CE019A9581159F4178F70D
:1021A0008D2F0E944A12182FCE0199270E94A61146
:1021B000212F30E0322F2227E901CC27DF71C82BF5
:1021C000D92BD3CFCE0199270E94A611CC27DF703F
:1021D000C82BD92BD06AC9CF803842E59407C8F5FF
:1021E000803652E5950708F056C0C03482E5D8071E
:1021F000D0F4C03292E5D90708F046C08C2F8695FE
:10220000869520E2829FC0011124C37021E030E056
:10221000A90102C0440F551FCA95E2F7EA01C82B75
:10222000D92BDD68A2CF8C2F86958695877050E2DA
:10223000859FC0011124C37021E030E0A90102C0D4
:10224000440F551FCA95E2F7EA01C82BD92BDC6869
:102250008CCF803C52E5950758F48F71C03AD24537
:1022600078F590E0982F8827EC01C46FD06A7DCF75
:10227000805C9245809708F082CFDC2FCC27CC275A
:10228000DF71C06FD06A71CFCF71D0E0DC2FCC2767
:10229000C16FD06A6ACF86958695877020E2829F4B
:1022A000C0011124C37021E030E0A90102C0440F35
:1022B000551FCA95E2F7EA01C82BD92BDA6855CF2A
:1022C0000E944A12C82FD0E0DC2FCC27CC27DF7128
:1022D000D0624BCF8F710E944A1265E0D695C795A8
:1022E0006A95E1F7CF70D0E0DC2FCC2790E084FF37
:1022F00005C054E0880F991F5A95E1F7C82BD92BD8
:10230000D06933CF8D2F8F710E944A12182FCE01C2
:1023100099270E94A611212F30E0322F2227222751
:102320003F71282B392BE901D3CF462F672F73300C
:1023300028F44B3018F40E940403089580E090E0E4
:1023400008950E9495110E9493100895803E910572
:10235000D9F1C8F48133910509F482C048F4893277
:10236000910509F472C08A32910509F480C008957C
:1023700089339105E9F082389105D1F085339105D3
:1023800009F45EC00895843E9105D9F148F4823E77
:10239000910539F1833E910549F181EE90E0089570
:1023A000863E9105C9F1873E910509F43EC0089526
:1023B00020919F032370211164C02091A00323FF6B
:1023C00014C089E290E0089520919F0320FD45C04C
:1023D0003091A00330FF09C024FD24C083EE90E0BB
:1023E000089520919F0322FDF7CF089520919F0328
:1023F00022FD44C03091A00330FD43C024FFF5CF3F
:1024000011C02091A00321FFF0CF80919F0384FD94
:1024100009C087EE90E0089520919F0323FFE5CF48
:1024200024FFF7CF80E090E0089520919F0323FDE3
:102430002BC03091A00331FFE1CF84EE90E00895EE
:1024400020919F0325FFD1CFBCCF20919F0325FD75
:102450001EC02091A00323FFC8CF89E390E0089518
:1024600020919F0326FFC1CF8AE290E0089520913A
:102470009F0326FFBACF81E390E0089582EE90E0BB
:10248000089580EE90E0089586EE90E0089585E34B
:1024900090E0089590919F0392FF10C041E0282F93
:1024A0002471243009F040E031E0282F28712830D1
:1024B00009F030E0431711F02CE0822793FF10C0A1
:1024C00041E0282F2471243109F040E031E0282F29
:1024D0002871283109F030E0431711F02CE08227F1
:1024E0003091A00330FF10C051E0282F217121301E
:1024F00009F050E041E0282F2871283009F040E031
:10250000541711F029E0822731FF10C041E0282F35
:102510002171213109F040E031E0282F2871283164
:1025200009F030E0431711F029E0822794FD877EFF
:10253000089580E008950E94E60E08950E94A41375
:102540002FEF86E791E0215080409040E1F700C0F6
:1025500000000E94A41380E00E94DD1280FF04C0EE
:102560000E949B120E94462208950E949E12089586
:102570000E94ED0E811102C00E948D0F0E94F80E84
:102580008093CF020E94020F9093A00380939F0339
:102590000E94B5120E94FD0E90E00E941C098091DD
:1025A0001302909114020E943D0908950E949C021A
:1025B000089508950E94D9120895E82FF0E0EE0FD3
:1025C000FF1FE955FC4F808191810895089580EAAD
:1025D0008A95F1F7089500C008950E94E7120895C2
:1025E000F894E82FE295EF70F0E041A18F7021E0C0
:1025F00030E0B90102C0660F771F8A95E2F7CB0180
:10260000962F9095942391A392A1892B82A37894DD
:1026100008950F931F93CF93DF9384EF0E94F012DE
:1026200082E30E94F01286E30E94F012C1EED1E034
:102630000CEE11E089918F3F11F00E94F0120C17FF
:102640001D07C1F7DF91CF911F910F910895A0E071
:10265000B0E0EDE2F3E10C94362BEC01B62E062F40
:1026600010E0C80184519E4F7C01FC0180818F3FA6
:1026700009F44FC0F894E82FE295EF70F0E091A1D3
:102680008F7021E030E001C0220F8A95EAF7892F90
:10269000822B81A382A12095282322A378940E94D3
:1026A000EB12E1EEF1E041E050E0C12CD12C2191A0
:1026B0002F3F89F0A22FA295AF70A05EB0E08C9161
:1026C00090E02F7002C0959587952A95E2F781706A
:1026D0009A01811511F020E030E0C22AD32A440F7C
:1026E000551F81E0EC3EF80711F7F70180818F3F1D
:1026F00011F00E94F01261E0C114D10409F460E00D
:102700008B2D0E94ED12000F111FC00FD11FD98217
:10271000C882CDB7DEB7E9E00C94522B0E940913B2
:1027200086E0E7EAF3E0DF01982F1D929A95E9F73A
:10273000E1EAF3E0DF011D928A95E9F783E00E9468
:10274000E1130E94D6120895A6E0B0E0EAEAF3E1B0
:102750000C943B2B8E010F5F1F4F86E0F801119206
:102760008A95E9F760E0C8010E94271361E0C8017B
:102770000E94271362E0C8010E94271346E050E040
:10278000B80181EA93E00E94782B21E0892B81F443
:1027900020E043E067EA73E081EA93E00E94E213FD
:1027A000182F0E94DA12812F2696E4E00C94572B02
:1027B00086E0F801A1EAB3E001900D928A95E1F775
:1027C000E8CF0895A0E0B0E0E8EEF3E10C94372BF9
:1027D000D82EE92EF62ED72F042FC22F211579F0EF
:1027E00081E08093D2020E94FB219093D1028093DA
:1027F000D00280E0CDB7DEB7E8E00C94532BC09058
:10280000D202C114B1F38091D0029091D1020E9402
:102810001322059770F310E0000F111FA8016D2D12
:102820007E2D8F2D9D2F0E94782B892B41F0A801A2
:102830006D2D7E2D8F2D9D2F0E94852BCC2D1092DE
:10284000D2028C2FD7CF0E942F240E94F20F0E9419
:102850003C2408950E9441240E940F100E945B2492
:1028600008950E9494210E9415240E94D50F0E9471
:1028700023140E942A140E94E80FFBCF9093F101C9
:102880008093F0010895E5EDF2E086E0DF011D920E
:102890008A95E9F70895CF93DF938091D5028068F8
:1028A0008093D502C5EDD2E089910E94DA2382E0BF
:1028B000CB3DD807C9F7DF91CF910895482F67E046
:1028C0000E94E52A282F30E0F901EB52FD4FC901A3
:1028D00053E0880F991F5A95E1F7281B390B240FF5
:1028E000311D86E090E0821B930B21E030E001C0B7
:1028F000220F8A95EAF78081822B808380E00895F9
:102900000E94ED0E811102C00E948D0F8DE090E0BB
:102910000E948E2B8093D3020895CF93C82F0E94DC
:102920004314C093D3026C2F8DE090E00E94AC2B37
:10293000CF91089581E0089581E0089581E00895A0
:10294000EF92FF920F931F93CF93DF93EC017B01E4
:102950008C01005C14470034110508F08CC0FB01A9
:102960008481811509F487C0CE010E949E148115CF
:1029700041F0C03FF4E7DF0799F048F40A3211054F
:10298000B8F080E0CDB7DEB7E6E00C94552BC13F40
:10299000D447B9F7F7018581811599F380E005C027
:1029A000F7018581811569F381E00E948D14E9CFDB
:1029B0000091D4021091D302F7018581811529F18C
:1029C0000F5F0093D4021115D9F01130D1F6EC2F1E
:1029D000E05CF0E0EE57FD4FE491AE2FA295A69596
:1029E000A695A370B0E0AB52BD4F8C918E2B8C930B
:1029F00025ED32E0412FB701CE010E949C14C1CFDA
:102A00008C2F805C0E945E14F3CF01500093D4029F
:102A100025ED32E0412FB701CE010E949C148115B3
:102A200009F4AFCF8091D40218160CF4AACF1092FB
:102A3000D40265ED72E08091D3020E949A14811154
:102A400003C00E9443149DCF8091D302811581F071
:102A50008130B9F7C5EDD2E0899181110E94DA2366
:102A6000F2E0C93DDF07C1F780E00E94DA23E9CF39
:102A70000E944B14E6CF81E085CF8091A701877F2C
:102A80008093A70182E00E94C80D8091A70184FF76
:102A900006C08F7E8093A70182E00E94B10D8091D5
:102AA000A70185FF06C08F7D8093A70180E20E9469
:102AB000B10D0E94760E089580E008958933910546
:102AC00088F48D32910560F48832910530F48430B9
:102AD000910530F40E945C1508958B329105D1F771
:102AE00081E0089584369105FACFCF93DF93EC010E
:102AF000611519F082E00E94C20DCE01905281153D
:102B0000904308F4DD27CE010E944803DF91CF9166
:102B100008959C0130522115304308F499270E94F2
:102B20005E030895AC0123E0969587952A95E1F719
:102B30008E719927FC01E552FD4F0190F081E02D47
:102B40004F70552721E030E002C0220F331F4A9515
:102B5000E2F7611541F0E22BF32B85529D4FDC012A
:102B6000ED93FC93089520953095E223F323F5CF60
:102B70009C01FC0183E0F695E7958A95E1F7EE71FB
:102B8000FF27E552FD4F2F70332781E090E0AC0125
:102B900002C0440F551F2A95E2F79A018081918166
:102BA0002823392381E0232B09F480E00895EF9254
:102BB000FF920F931F93CF93DF93EC017B018A0168
:102BC0008091A70182FF5DC020910403309105032D
:102BD0002C173D0719F0209709F053C09091A701D9
:102BE0009B7F9093A70161E091FD10C08091060347
:102BF00090910703A701481B590B61E08091A80140
:102C00009091A9014817590708F460E0617080911C
:102C1000A70160FB81F98093A701C9010E94921569
:102C20000E94AE0D81FF08C08091A7018061809352
:102C3000A70182E00E94B70D0E94AE0D85FF08C07B
:102C40008091A70180628093A70180E20E94B70D66
:102C50006091A70166956170A8018091040390912D
:102C600005030E9475156091A70166956170A80122
:102C700080910403909105030E9489150E943D15DF
:102C80000FC0CE010E94B815682FA801CE010E9486
:102C900089158091040390910503C817D90771F332
:102CA000F0920703E0920603CDB7DEB7E6E00C949E
:102CB000552B8091A70182FF19C00E94FB21BC0106
:102CC00080910603909107039B01281B390B80918B
:102CD000A8019091A9012817390740F04BEF52E065
:102CE00080910403909105030E94D7150895909157
:102CF000A701892F8E7F90FF81608093A7010E949A
:102D00003D1508958091A7018E7F8093A7010E94B1
:102D10003D15089560E28091A8019091A9010E945B
:102D2000BF049C01C9012F5F3F4FFC01408140322D
:102D3000C9F30E94471F0895A0E0B0E0E2EAF6E17F
:102D40000C94382BEC018B010E94FB21D82EE92E2C
:102D5000F8018581811509F485C08091A70182FF62
:102D600008C04BEF52E06D2D792F80E090E00E947B
:102D7000D715C331FCE7DF0799F118F5C1318CE7AE
:102D8000D80709F462C0C231ECE7DE0709F467C076
:102D90008091A8019091A9010597C031FCE7DF0758
:102DA00009F458C0CE01905281159043A0F41092BE
:102DB00005031092040381E0CDB7DEB7E7E00C9481
:102DC000542BC4312CE7D207E9F1C5318CE7D80781
:102DD00011F40E9477168091A70180FFECCF05C007
:102DE0008091A70181608093A701B801CE010E9464
:102DF0005E15F8019581811509F47CC0911509F4DF
:102E000072C00E94AE0DF82E0E94D30D2F2D282BDC
:102E10002D7F2115E9F1109205031092040360E063
:102E2000CE010E949215A80160E0CE010E947515A6
:102E30000E94D30D8D7F0E94040E82E00E94A70E97
:102E400080E0BACF0E948216C6CF8091A8019091EF
:102E5000A90105969093A9018093A801BCCF0E9477
:102E60008A16B9CF8091A7018F7EC13ED10531F07E
:102E7000C53ED10531F48091A7018F7D8093A701D4
:102E8000AACFCE0190528115904308F0A4CF93CFE2
:102E900089E0F801ABEFB2E001900D928A95E1F77D
:102EA0001092FE021092FD020E94AE0D182F0E9499
:102EB000D30D182B8091A70111FB81F98093A701F5
:102EC0000E94D30D8D7F0E94040ED0930503C09302
:102ED0000403D0920603E09207038091A701846067
:102EE0008093A701AACFA8016D2D7E2DCE010E944F
:102EF000D715A6CF91115BCF5ECF0895EF92FF92C9
:102F00000F931F93CF93DF9380917B03E09108038E
:102F1000CDE081112AC0CDB7DEB7E6E00C94552B89
:102F2000D1E0DE0FD0930803EE2EF12CCE9FF001FE
:102F30001124ED5EFC4F84818115B1F0878190856D
:102F4000892BE1F4818592858F3F9807B9F061E084
:102F50000E947D17CE9DF001CF9DF00D1124ED5EF6
:102F6000FC4F14820E94D00DED2F80917B03E81757
:102F7000B8F210927B0310920803CDCF008111812B
:102F800022813381448155816681778180850E94C9
:102F9000100DE0CF0895CF93DF9310927D03109230
:102FA0007C03C0E0D0E00E940703C817D90718F0DF
:102FB000DF91CF910895CE010E940A03FC01858123
:102FC000811102C0148216822196EDCF1F93CF93F8
:102FD000DF9310911103409112034117D1F0C12FDB
:102FE000D0E0FE01EE0FFF1FE75FFC4F2081318133
:102FF0002817390791F40E940A0321E0FC01248379
:1030000080911103811305C02196C370DD27C09301
:103010001103DF91CF911F91089521961C2F1370FA
:10302000DCCFA0E0B0E0E7E1F8E10C94322BDB016B
:1030300014962C91149721115AC090907B03C3E1F0
:10304000D3E040E050E0A12C61E070E0491508F0C9
:103050004CC0CB84DC84ED90FC90119777247A945B
:1030600088248A94B12C2B2D30E0F901EE0FFF1F3C
:10307000EE0DFF1D05911491C016D10611F0272DFC
:10308000382D0115110521F0B394722E832EEBCF4C
:103090002F3F320791F1FB0102C0EE0FFF1F2A956F
:1030A000E2F7AE2A9B010B2C02C0220F331F0A94B9
:1030B000E2F721503109A2161306F1F412962D9170
:1030C0003C9113976DE0649FF001659FF00D112412
:1030D000ED5EFC4F3087278324E024831082118229
:1030E0008187928721E015962C930E94E617CDB731
:1030F000DEB7EDE00C944E2B1C824F5F5F4F2D9698
:10310000A5CF0F931F93CF93DF93C09111038091AD
:1031100012038C1309C00E947E170E94CB17DF9107
:10312000CF911F910F910895D0E08E01000F111FD4
:10313000075F1C4FF801808191810E940A03BC0146
:10314000F801808191810E9411182196C370DFCF10
:10315000EF92FF921F93CF93DF93DC01CB012D9170
:103160003C91119710E040E050E0E52FF0E0EE0FC9
:10317000FF1FE20FF31F6591749161157105B9F09E
:10318000FC01C081D18140E005C06E157F0509F4C6
:1031900011E04F5FE42FF0E0EE0FFF1FEC0FFD1F7B
:1031A000E590F490E114F10481F75F5FDECF111533
:1031B00049F0451708F0CD01DF91CF911F91FF90A5
:1031C000EF90089580E090E0F7CF8091AA018115FB
:1031D00041F180917E0390917F03009711F10E944D
:1031E000132220917C0330917D0328173907C8F4FE
:1031F0009091110380911203981759F00E94811841
:1032000010927D0310927C0310927F0310927E0334
:1032100008950E947E1710927F0310927E030E94F1
:10322000CB17089510927F0310927E031092AA018B
:1032300080911203809311030E94CB170E947E1786
:1032400008958091AA01811519F00E94121908951C
:1032500081E08093AA010895AAE0B0E0E2E3F9E1F9
:103260000C942D2B5C014B0180352CE7920769F4FF
:10327000DB0115968C918115F1F081E08093AA0114
:1032800081E02A96E2E10C94492B8135BCE79B074B
:1032900039F4FB018581811571F00E941219F0CF7C
:1032A00082359C4741F4DB0115968C91811519F00C
:1032B0000E942119E5CF20911302309114028091D0
:1032C000150290911602822B932B0E94E004182F76
:1032D0000E94CA17181731F0F401608171810E94B1
:1032E00095115C01612C712C1A8644244394512C55
:1032F0000E94070368167906E8F1D40115968C91AF
:10330000811509F455C1BA85B11509F451C10E945E
:10331000FB2190937F0380937E0380917B03883011
:1033200028F591E0980F90937B0399E0F401DE017A
:10333000119601900D929A95E1F7EDE08E9FC001F4
:1033400011248D5E9C4F29E0FE013196DC01019035
:103350000D922A95E1F72FEF3FEFDC011A963C938F
:103360002E9319971C96BC92AE921B9781E0BA855A
:103370008B2787CFC3010E940A037C01DC018D915A
:103380009C916FEF3FEF20E0C22ED12CF601EE0FA3
:10339000FF1FE80FF91F45915491A416B50611F0CF
:1033A000C62ED32E452B21F02F5F6C2D3D2DECCF5B
:1033B00010E0BFEFCB16DB0609F44CC0F7014481E7
:1033C0001091AA01812F411180E0182F1170D701AF
:1033D00015963C90159716968C911697F401958149
:1033E000911509F481C0111509F47EC0311016C081
:1033F00041E050E00C2C01C0440F0A94EAF7842B02
:1034000016968C9380917C0390917D03C29730F443
:1034100082E390E090937D0380937C03B20102C02D
:10342000660F771F2A95E2F79B0121503109D701DA
:1034300016968C918217130669F480917E03909101
:103440007F03009771F00E941322C39750F081E030
:10345000F7018483BA85B12BBA87EFEF6E1A7E0A23
:1034600047CF00911103E0E0F0E0809112030813D0
:1034700012C0EE16FF0671F3802F90E0FC01EE0FF4
:10348000FF1FE75FFC4F718260820196837099276E
:1034900080931203DFCFC02ED12CF601EE0FFF1F59
:1034A000E75FFC4F808191810E940A031C01B701F4
:1034B0000E94A818FC01009791F021E02483E816EF
:1034C000F90641F280911103081309C02E163F0638
:1034D00031F4C60101968370992780931103C601C8
:1034E0000196082F0370C1CF90E0311023C0B201C4
:1034F00002C0660F771F2A95E2F79B012150310920
:103500008217930789F010E0F20102C0EE0FFF1F4F
:10351000CA94E2F76F01C094D70116968C91169762
:103520008C2116968C9396CF411571F3C3010E949E
:10353000E617E9CFAC010C2C02C0559547950A94CB
:10354000E2F79C012150310982239323892B69F5ED
:1035500040FF2BC0D70112968D919C91892B01F1D0
:1035600087E0FE013196DF011D928A95E9F70E94FE
:10357000FB219C018B839C8384E08D83F7019281E6
:103580008381792F9887898709811A8144E05E8138
:103590006F810E94100DD70115961C92132DB4CF88
:1035A00060E0C3010E947D17F6CF142F1170ACCFDD
:1035B0009091110380911203981719F00E948118BD
:1035C000D5CE0E947E1710927F0310927E030E9438
:1035D000CB17CCCECF93DF93EB0186319C4719F507
:1035E0000E94AE0D9D819115A1F08A7A91E0811122
:1035F00001C090E090938003811549F085E30E941B
:10360000E4200E94760E80E0DF91CF91089589E258
:10361000F6CF80918003811521F085E30E94FB2085
:10362000F0CF89E2FBCF81E0EFCFCF93DF93EC01C6
:10363000FB018581811509F4D1C09E0130572332E9
:10364000310508F0B1C00E94020F9093A00380934F
:103650009F03FE01E150F047E232F10520F4EE5104
:10366000F44D0C94272B80919F03816080939F03DE
:1036700092C08091A00388608093A0038CC0809149
:103680009F038260F3CF80919F038460EFCF80918E
:103690009F038860EBCF8091A0038160EDCF809184
:1036A000A0038260E9CF80919F038061DFCF80918A
:1036B0009F038062DBCF80919F038064D7CF0E94FD
:1036C000C40880919F038068D1CF80919F038C6054
:1036D000CDCF8091A0038360CFCF80919F038E7F59
:1036E000C5CF8091A003877FC7CF80919F038D7F37
:1036F000BDCF80919F038B7FB9CF80919F03877F40
:10370000B5CF8091A0038E7FB7CF8091A0038D7F2E
:10371000B3CF80919F038F7EA9CF80919F038F7D30
:10372000A5CF80919F038F7BA1CF0E94C408809179
:103730009F038F779BCF80919F03837F97CF80914B
:10374000A0038C7F99CF80919F0382FB992790F9EA
:1037500021E0922790FB82F990FB83F987CF80913B
:10376000A003982F909590FB80F990FB81F984CF6E
:1037700090919F03892F8F7B96FF806477CF0E9463
:10378000C40890919F03892F97FB87F980586ECFCB
:1037900081E00E94900F80919F039091A0030E946E
:1037A000070F0E94C40880E0DF91CF91089580E068
:1037B000F0CF90919F03892F8F7E94FF806156CF29
:1037C00090919F03892F8E7F90FF81604FCF9091C2
:1037D000A003892F877F93FF88604ECF81E0E4CFDD
:1037E000282F35EB2303C001112497FF04C0805814
:1037F0009109892F089580589F4FFBCF80918703AF
:1038000080FF0DC06091B00170E0660F771F6038D7
:103810007105C0F561157105B9F1862F089581FF15
:1038200007C06091B00184E0689FB0011124EFCF20
:1038300082FF04C06091B00188E0F6CF80918603DA
:103840008115E9F09091AF016091B00170E08917A6
:1038500030F093E0660F771F9A95E1F7D8CF869FF7
:103860009001879F300D112483E0220F331F8A952A
:10387000E1F7692F70E0C9010E94F12AC8CF68E022
:1038800070E0CBCF8FE7089581E0089580918703A2
:1038900080FF0CC06091AC0170E0759567957595DF
:1038A00067956115710561F1862F089581FF06C046
:1038B0006091AC0170E075956795F3CF6091AC01B4
:1038C00070E082FD15C0209185032115B1F0909123
:1038D000AB016091AC0170E0291750F4269FA00164
:1038E000279F500D1124692F70E0CA010E94F12A10
:1038F00060387105B0F28FE7089561E070E0D4CFD1
:1039000081E0089590918A0320918B03922B20915E
:103910008D03922B20918C03922B911531F098E01E
:103920009093860391E090938503E3E3E80FE331FE
:10393000E0F5F0E0EC5FF34D0C94272B0E94FE1BAA
:10394000819580938B0308950E94FE1BFACF0E94FD
:10395000FE1B819580938A0308950E94FE1BFACF77
:103960000E94461C80938C0308950E94461C8195FA
:10397000F9CF0E94461C819580938D0308950E9483
:10398000461CFACF815D990B21E030E001C0220F87
:103990008A95EAF780918903822B809389030895A1
:1039A00080918703816080938703089580918703C6
:1039B0008260F9CF809187038460F5CF40918A03BC
:1039C0008D3C59F480918B0387FF0DC010928B03BF
:1039D000411559F41092860308C08E3C81F4809101
:1039E0008B0318169CF3411581F080918C03909104
:1039F0008D03892B811159C01092850308958F3C46
:103A000041F447FFF0CF10928A0380918B03811518
:103A1000E0CF803D19F41416B4F3E5CF90918C03F8
:103A2000893D29F41916FCF610928C03DCCF8A3DEF
:103A300019F497FFD8CFF8CF90918D038B3D29F4DF
:103A400097FFD1CF10928D03CECF8C3D19F419166C
:103A5000CCF3C9CF9FE2980F983090F4815D990B19
:103A600021E030E0B90102C0660F771F8A95E2F7C6
:103A7000CB01809590918903892380938903B3CFEB
:103A80008D3D31F4809187038E7F80938703ABCF88
:103A90008E3D21F4809187038D7FF7CF8F3D09F014
:103AA000A2CF809187038B7FF0CF08950E94FB21E6
:103AB00020918A0330918B03232B211521F08093D1
:103AC00083039093840320918C0330918D03232BE7
:103AD000211521F0809381039093820388E893E07D
:103AE0000E942120089586E0E8E8F3E0DF011D92BE
:103AF0008A95E9F710928603109285031092870346
:103B00000895FC01828181110DC0838181110AC059
:103B10008481811107C081E09581911101C080E00D
:103B20008170089581E0FCCFA6E0B0E0EAE9FDE114
:103B30000C943A2B86E0E8E8F3E09E012F5F3F4FBC
:103B4000D90101900D928A95E1F710928A031092A3
:103B50008B0310928C0310928D038B819C81892B97
:103B60008901811589F080918303909184030E94DB
:103B700013229C01809186038115B9F19091B101C6
:103B80009217130608F43EC08D819E81892B811502
:103B900091F080918103909182030E9413229C01F5
:103BA00080918503811509F466C09091AD0192174B
:103BB000130608F46EC0B80188E893E00E942C2137
:103BC000811105C088E893E00E94811D81110E9447
:103BD000561D86E0F801A8E8B3E001900D928A95A1
:103BE000E1F72696E5E00C94562B4091B2019AE05D
:103BF000499FA00111244217530730F68F5F80932D
:103C0000860302C08F3FD1F7FB80F11459F00E9468
:103C1000FE1B91E01F140CF09FEF899F802D112453
:103C200080938A03FC80F11459F00E94FE1B91E0FE
:103C30001F140CF09FEF899F802D112480938B031C
:103C400080918A03811509F49FCFF0908B03F114C2
:103C500009F49ACF0E94F01B811101C081E080938A
:103C60008A038F2D0E94F01B811519F080938B031E
:103C70008BCF81E0FBCF4091AE019AE0499FA0013C
:103C800011244217530708F096CF8F5F8093850366
:103C900002C08F3FD1F7FD80F11459F00E94461CFD
:103CA00091E01F140CF09FEF899F802D11248093C9
:103CB0008C03FE80F11459F00E94461C91E01F1401
:103CC0000CF09FEF899F802D112480938D038091AC
:103CD0008C03811509F46FCFF0908D03F11409F472
:103CE0006ACF0E94F01B811101C081E080938C0398
:103CF0008F2D0E94F01B811519F080938D035BCFEF
:103D000081E0FBCFA0E0B0E0E8E8FEE10C94382BC6
:103D1000E82FF0E0EE53FD4FD490282F26952695FE
:103D2000269530E0F901EE59FC4F0491877010E0C0
:103D3000082E02C0159507950A94E2F70170112725
:103D4000F901EE5AFC4FE490F12C082E02C0F594D4
:103D5000E7940A94E2F791E0E922FF24F901EE5B8F
:103D6000FC4FC491D0E002C0D595C7958A95E2F783
:103D7000C170DD270115110519F081EE0E948A0539
:103D8000E114F10419F086EE0E948A058D2D0E943F
:103D90005E06E114F10419F086EE0E94FE0501159D
:103DA000110519F081EE0E94FE05CD2B19F08CE271
:103DB0000E945E06CDB7DEB7E7E00C94542BEF927D
:103DC000FF921F93CF93DF93EC01162F888181150B
:103DD00009F457C0813009F051C089818130A1F4C4
:103DE0007E0182E0E80EF11C8A810E945E06E701F6
:103DF0002196812F811551F3EFE9FFE03197F1F71B
:103E000000C000008150F6CF823041F47E01E2E034
:103E1000EE0EF11C8A810E948A05E9CF833041F4BD
:103E20007E01F2E0EF0EF11C8A810E94FE05DFCFD9
:103E3000843011F02196DCCF2A81229680E090E038
:103E40006AE0AE014F5F5F4F2053330B2A303105DC
:103E500050F0009769F2EFE9FFE03197F1F700C009
:103E600000000197F6CF689FF001699FF00D1124C3
:103E7000C9018E0F9F1F2981EA01E3CF0E94821E94
:103E8000B7CFDF91CF911F91FF90EF90089560E041
:103E90000E94DF1E08950F931F93CF93DF93C42FCB
:103EA000D22FFC0185818115C9F0409390030E94B7
:103EB000FB2190938F0380938E0380E28C0F8830D8
:103EC00040F4C77081E001C0880FCA95EAF70E94EC
:103ED0006706DF91CF911F910F9108951091900384
:103EE000141333C080918E0390918F030E9413228C
:103EF000883C910550F5C0E2CD0F1D17C1F080E25E
:103F0000810F883040F4177081E001C0880F1A9546
:103F1000EAF70E946E06C83050F491E08D2F87704A
:103F200001C0990F8A95EAF7892F0E946706802FB2
:103F30000E945E06C83068F6D77081E001C0880F25
:103F4000DA95EAF70E946E06C4CF80E28C0F8830C3
:103F500008F0BFCFC77081E001C0880FCA95EAF7AB
:103F6000F1CF0F93FC01CB01E851FC47E730F1059D
:103F700090F5E95EF34D0C94272B06E221EE41EE1D
:103F80006AE17CE70E944B1F80E00F91089507E2F1
:103F900025EE45EE6BE17CE7F5CF06E221EE40EE43
:103FA00068E17CE7EFCF07E225EE44EE69E17CE7CC
:103FB000E9CF06E221EE42EE6CE17CE7E3CF07E2D7
:103FC00025EE46EE6DE17CE7DDCF08E221E045EE2F
:103FD0006EE17CE7D7CFFB018581811110929003C0
:103FE00081E0D3CF90939203809391030895E09161
:103FF0009103F0919203309729F00190F081E02D28
:104000000995089580E008950E94F71F0895E091B2
:104010009103F0919203309721F00280F381E02D1B
:1040200009950895DC01E0919103F0919203309796
:1040300039F086E08C930480F581E02DCD0109955F
:104040000895DC01E0919103F0919203309739F0EB
:1040500082E08C930680F781E02DCD0109950895CB
:104060002091A5013091A6012E5F3F4F8091D8018C
:104070008115C9F080919F0387FF15C02091A3018E
:104080003091A4012E5F3F4F6EE1A90180E0FA015B
:1040900090814F5F5F4F91118F5F962F941B920F0E
:1040A0009111F5CF089566E0F0CF811529F1909137
:1040B000D801911519F190919F0397FF1FC0982F78
:1040C000969596959695803FB8F4E091A301F0916E
:1040D000A401E90FF11D228130E0877041E050E03A
:1040E000BA0102C0660F771F8A95E2F7CB0126233B
:1040F000392381E0232B91F480E008952091A501DC
:104100003091A601F9013296285F3F4F919198179F
:1041100021F0E217F307D1F7EFCF81E008959C017A
:10412000FC0132968FEF90E04191461751F08F3F9E
:1041300019F4411101C0892F9F5F9630A9F78F3F75
:1041400009F40895280F311D87FD3A95F90162831E
:1041500008959C01FC013296285F3F4F81918613A0
:1041600003C0DF0111971C92E217F307B9F7089516
:10417000FC01862F869586958695603F60F4E80F52
:10418000F11D677021E030E001C0220F6A95EAF767
:104190008281822B82830895FC01862F86958695E5
:1041A0008695603F80F4E80FF11D677081E090E034
:1041B0009C0102C0220F331F6A95E2F7B901609596
:1041C0008281682362830895682F8091D8018115C8
:1041D00059F080919F0387FF07C08091A3019091C0
:1041E000A4010E94B82008958091A5019091A60194
:1041F0000E948F200895682F8091D801811559F071
:1042000080919F0387FF07C08091A3019091A40133
:104210000E94CC2008958091A5019091A6010E9452
:10422000A92008958091D801811579F080919F038C
:1042300087FF0BC0E091A301F091A40132968EE1BB
:10424000DF011D928A95E9F70895E091A501F091AB
:10425000A601329686E0F4CFDC01FB0111969C9119
:1042600011978181981322C012968C911297811513
:1042700019F0928189131AC013968C9113978115A6
:1042800019F09381891312C015968C911597811599
:1042900019F0958189130AC014969C91911521F00B
:1042A00081E02481291303C080E001C081E0817096
:1042B000089508950E94592108958F5F8093930374
:1042C0000E945A21089583E0809393030E945A210B
:1042D00008950E945D21089581E0809393030E94D8
:1042E0005A2108950E946C210895089508950E940E
:1042F00076210895089508950E9475210895CF9319
:104300000E947A210E94A4130E947B21C0E08C2F7E
:104310000E94DD12892B31F4CF5FC330C1F780E0FA
:10432000CF91089581E0FCCF85B7806885BF85B7C0
:10433000806885BF08951F921FB61F9211248F9326
:104340009F93AF93BF9380919403811113C0809189
:10435000AD039091AE03A091AF03B091B00341962D
:10436000A11DB11D8093AD039093AE03A093AF0345
:10437000B093B003BF91AF919F918F911F901FBEDB
:104380001F9018958091B503843031F10E9470041C
:104390001092940388E190E020E40FB6F894A89579
:1043A000809360000FBE2093600083B7817F84609C
:1043B00083BF83B7816083BF7894889583B78E7FEE
:1043C00083BF0FB6F894A8958091600088618093B0
:1043D0006000109260000FBE08950E94C4080E9401
:1043E0007504089582E084BD93E095BD9AEF97BD72
:1043F00080936E0008952FB7F8948091AD0390914B
:10440000AE03A091AF03B091B0032FBF08952FB7B3
:10441000F8946091AD037091AE038091AF039091D9
:10442000B0032FBF08959C014FB7F8948091AD035E
:104430009091AE03A091AF03B091B0034FBF821B28
:10444000930B089578941F921FB61F9211248F9397
:104450009F93AF93BF938091AD039091AE03A091D2
:10446000AF03B091B0030196A11DB11D8093AD03C0
:104470009093AE03A093AF03B093B003BF91AF91FD
:104480009F918F911F901FBE1F90189587E797E708
:10449000909301088093000888E19AE00FB6F894A1
:1044A000A895809360000FBE90936000FFCF88E1D5
:1044B0009AE00FB6F894A895809360000FBE909391
:1044C0006000FFCF80919D0308950895282FCB01B0
:1044D000BA013091B5033430D9F42F702093E9003C
:1044E0002FEF3091E80035FD06C035ED3A95F1F734
:1044F00000002A95B1F72091E80025FF09C040E0AF
:1045000050E00E94DA248091E8008E778093E800E2
:104510000895BC0146E050E082E00E9466220895C2
:10452000BC0140E250E082E00E9466220895CF93F1
:10453000DF93D82FC92F48E050E0682F792F81E012
:104540000E94662288E0ED2FFC2FA5E9B3E00190E0
:104550000D928A95E1F7DF91CF9108958091B40390
:10456000811109C00E9461260E94BE268091E2004E
:1045700084608093E20008951092B40308950E942D
:104580006C2108956091B10381E0611101C080E068
:104590000E94632108959091B50381E0943009F061
:1045A00080E06091B1030E946921089542E061ECCE
:1045B00081E00E94DE2542E261EC82E00E94DE257D
:1045C00042E061EC83E00E94DE2542E160E885E0A4
:1045D0000E94DE2542E161E884E00E94DE259091A0
:1045E000B50381E0943009F080E06091B1030E944E
:1045F0005D2108958091B703893009F44AC068F4B9
:10460000823009F4A6C0833009F475C0813011F1FD
:1046100083EB91E00E94372A08958A3009F488C01C
:104620008B30B1F78091B603813291F78091BA0354
:104630009091BB03892B61F78091E800877F80937D
:10464000E8000E9412268091B8038093D8010E944E
:10465000C408DECF8091B603813AD1F68091E8009C
:10466000877F8093E8008091BA039091BB03892BE8
:1046700061F060E080E090E070E00E942925809188
:10468000E8008B778093E800C3CF68E085E993E08A
:10469000F3CF8091B603813209F0BACF8091BA038B
:1046A0009091BB03029708F0B3CF8091E800877F19
:1046B0008093E8008091E80082FF18C09091F30099
:1046C0008091F200029731F48091F100813011F075
:1046D000863021F48091F10080939D038091E80061
:1046E0008B778093E8000E94122692CF8091B503C9
:1046F0008111E0CF08958091B603813A09F088CF07
:104700008091BA039091BB03892B09F081CF8091EE
:10471000E800877F8093E8008091E80080FFFCCF6D
:104720008091D8018093F1008091E8008E77D9CFF5
:104730008091B603813209F06BCF8091E800877FCA
:104740008093E8000E9412268091B90380939E0313
:104750005FCF8091B603813A09F05ACF8091E8008B
:10476000877F8093E8008091E80080FFFCCF8091F4
:104770009E03D8CF82E090E09093C6018093C5015C
:1047800083EB91E00E94FB2908950895CF93DF9376
:1047900083EB91E00E94A329EC01209719F4DF91AB
:1047A000CF91089583EB91E00E94CB290E94C5230D
:1047B0002197F3CFCF939091E900C091EC00209125
:1047C000C30120FF15C0C795CC27C7959F70C92B83
:1047D0009091B4019F709093E9009091EB0090FF4D
:1047E00004C09091EE0097FD05C0CF70C093E90022
:1047F000CF9108959FEF2091E80025FD06C025ED9B
:104800002A95F1F700009A95B1F78093F10083EBB8
:1048100091E00E945C298091E80080FFE6CF8091C2
:10482000E8008E778093E800E0CF84B7877F84BF6D
:104830000FB6F894A895809160008861809360001D
:10484000109260000FBE80E890E00FB6F89480935D
:104850006100909361000FBE0E94722108950E9432
:1048600061260E94BE26E2EEF0E0808184608083B3
:1048700078940E94422908958EEC91E00E94F21FE4
:1048800008958091B503853031F48091B50385306A
:1048900019F00E94ED2108950E94C2218091B30376
:1048A000811599F30E947F21811579F30E94C42418
:1048B0000E94C408EACF0E94C62383EB91E00E94C5
:1048C0008A2908959A014091BC035091BD030E942A
:1048D0006A240895AC01CB01D901252F3327233059
:1048E0003105D1F070F42130310509F43EC0223099
:1048F000310569F488E790E028EA33E02D933C9392
:10490000089521323105E9F02232310521F180E0AC
:1049100090E020E030E0F2CFCA019927413059F011
:104920008230910559F0E4EAF3E0892B81F7849114
:1049300090E09F01E3CFE4E8F3E0F9CFE2E7F3E0B2
:10494000F6CF892BB9F06130710509F789E090E065
:1049500023ED33E0D3CF892B91F061307105B9F6A7
:1049600084E890E022E334E0C9CF82E190E020E2E5
:1049700034E0C4CF89E090E02AEB33E0BFCF84E499
:1049800090E026EB34E0BACF80E189BD82E189BDB9
:1049900009B400FEFDCF8091D8008F7D8093D800B0
:1049A0008091E00082608093E0008091E00081FDD2
:1049B000FCCF0895AF92BF92CF92DF92FF920F93F8
:1049C0001F93CF93DF936C01EB018A010E94312684
:1049D000F82E811123C00115110539F0F8018081ED
:1049E0009181C81BD90BC80ED91EA12CB12C2097C0
:1049F000A9F08091E80085FD22C08091E8008E77C3
:104A00008093E80001151105A1F0F80180819181E2
:104A10008A0D9B1D9183808385E0F82E8F2DDF9179
:104A2000CF911F910F91FF90DF90CF90BF90AF90EB
:104A300008950E9431268115D1F2F82EEFCFF601AC
:104A400081916F018093F1002197FFEFAF1ABF0AA8
:104A5000CECFFC019B018091BC039091BD038617D2
:104A6000970718F0672B61F0C90140E0009771F4D7
:104A700041110CC08091E80082FF35C080E00895AC
:104A80008091E8008E778093E800EECF2091B50307
:104A90002115A9F12530A9F12091E80023FD2DC0B1
:104AA0002091E80022FDE6CF2091E80020FFDECF34
:104AB0003091F3002091F200009719F02830310571
:104AC00058F041E02830310509F040E02091E8003D
:104AD0002E772093E800CACF41914093F1000197CF
:104AE0002F5F3F4FE9CF8091B503811541F08530AD
:104AF00041F08091E80083FFBDCF81E0089582E01E
:104B0000089583E00895FC019B018091BC0390917E
:104B1000BD038617970718F0672B61F0C90140E0C5
:104B2000009771F441110CC08091E80082FF36C0FB
:104B300080E008958091E8008E778093E800EECFC2
:104B40002091B5032115B1F12530B1F12091E80094
:104B500023FD2EC02091E80022FDE6CF2091E80041
:104B600020FFDECF3091F3002091F200009719F082
:104B70002830310558F041E02830310509F040E097
:104B80002091E8002E772093E800CACF449140930B
:104B9000F100319601972F5F3F4FE8CF8091B50329
:104BA000811541F0853041F08091E80083FFBCCF52
:104BB00081E0089582E0089583E00895982F97306A
:104BC00028F08F708093E90081E008959093E900C8
:104BD000242F762F50E0981731F07091EC0020913F
:104BE000ED005091F00021FD02C09F5FE8CF3091B1
:104BF000EB003E7F3093EB003091ED003D7F309332
:104C0000ED003091EB0031603093EB007093EC00DD
:104C10002093ED005093F0002091EE0027FDE5CFAA
:104C200080E008958091B60387FF13C08091E8006B
:104C300082FF06C08091E8008B778093E80008959A
:104C40008091B5038111F2CF08958091B50381154C
:104C5000D9F38091E80080FFF8CF8091E8008E774B
:104C6000ECCF2091E4003091E50095E6A901809118
:104C7000EC008170811531F08091E80080FF06C062
:104C800080E008952091E80022FD1AC08091B503CC
:104C9000811589F0853089F08091EB0085FD0FC08A
:104CA0002091E4003091E5004217530701F39A95F3
:104CB000E9F684E0089582E0089583E0089581E0B4
:104CC00008950E94D0260E94D826E0EEF0E0808170
:104CD00081608083E8EDF0E080818F77808319BC6C
:104CE000A7EDB0E08C918E7F8C9380818F7E808346
:104CF0001092B40308950F931F93CF93DF930E94F4
:104D0000D0260E94D826C8EDD0E088818F7788838E
:104D100088818068888388818F7D888319BC109200
:104D2000B5031092B1031092B3031092B20300EED8
:104D300010E0F80180818B7F808388818160888387
:104D400042E060E080E00E94DE25E1EEF0E080815C
:104D50008E7F8083E2EEF0E08081816080838081BD
:104D600088608083F80180818E7F80838881806164
:104D70008883DF91CF911F910F910895E8EDF0E0C6
:104D800080818F7E8083E7EDF0E080818160808389
:104D900084E082BF81E08093B4030E947B26089563
:104DA000E8EDF0E080818E7F80831092E20008952C
:104DB0001092DA001092E10008951F920F920FB640
:104DC0000F9211242F933F934F935F936F937F9391
:104DD0008F939F93AF93BF93EF93FF938091E100E5
:104DE00082FF0BC08091E20082FF07C08091E1004A
:104DF0008B7F8093E1000E9441298091DA0080FF3F
:104E000019C08091D80080FF15C08091DA008E7F94
:104E10008093DA008091D90080FF94C080E189BD41
:104E200082E189BD09B400FEFDCF81E08093B50326
:104E30000E94AE228091E10080FF19C08091E200C3
:104E400080FF15C08091E2008E7F8093E200809108
:104E5000E20080618093E2008091D80080628093BC
:104E6000D80019BC85E08093B5030E94C2228091CE
:104E7000E10084FF29C08091E20084FF25C080E129
:104E800089BD82E189BD09B400FEFDCF8091D800C3
:104E90008F7D8093D8008091E1008F7E8093E10028
:104EA0008091E2008F7E8093E2008091E200816039
:104EB0008093E2008091B103811509F449C084E038
:104EC0008093B5030E94CB228091E10083FF29C02B
:104ED0008091E20083FF25C08091E100877F80936D
:104EE000E10082E08093B5031092B1038091E1006C
:104EF0008E7F8093E1008091E2008E7F8093E200BC
:104F00008091E20080618093E20042E060E080E016
:104F10000E94DE258091F00088608093F0000E945E
:104F2000BF22FF91EF91BF91AF919F918F917F91A0
:104F30006F915F914F913F912F910F900FBE0F9006
:104F40001F90189519BC1092B5030E94BC2272CF15
:104F50008091E30087FF02C083E0B2CF81E0B0CF51
:104F60001F920F920FB60F921124FF920F931F936F
:104F70002F933F934F935F936F937F938F939F9361
:104F8000AF93BF93CF93DF93EF93FF9309EE10E0BE
:104F9000F8018081C091EC00C795CC27C7958F7030
:104FA000FC2EF82A1082C0EFD0E08881877F8883AA
:104FB00078940E94F927F80110828881886088839C
:104FC000CF2DCF70C083FF91EF91DF91CF91BF9133
:104FD000AF919F918F917F916F915F914F913F9191
:104FE0002F911F910F91FF900F900FBE0F901F9068
:104FF0001895AAE2B0E0EFEFF7E20C943C2B86EBB9
:1050000093E0FC0101962091F100208323E08E3B88
:105010009207B9F70E94FA228091E80083FF39C015
:105020008091B6039091B7039A3098F5E92FF0E09C
:10503000E25EF34D0C94272B803889F0823849F5D5
:105040008091BA038F70873020F58093E9008091BA
:10505000EB0085FB882780F91092E90007C090914A
:10506000B303919592708091B203892B9091E800DF
:10507000977F9093E8008093F1001092F100809167
:10508000E8008E7723C0811116C08091B80381306B
:1050900011F18091E80083FF0AC08091E800877FCA
:1050A0008093E8008091EB0080628093EB00AA96E9
:1050B000E3E00C94582B823061F78091B80381159E
:1050C00089F01092E9008091E800877F8093E800E2
:1050D0000E941226DECF81E0933009F080E08093B9
:1050E000B303EFCF8091BA038F702FEF280F2630D4
:1050F00080F68093E9002091EB0020FFE2CF93300F
:1051000031F48091EB0080628093EB00DACF9091D4
:10511000EB0090619093EB0021E030E0A90102C028
:10512000440F551F8A95E2F74093EA001092EA0077
:105130008091EB008860E8CF8111ABCF1091B8036C
:105140001F778091E3008078812B8093E30080912A
:10515000E800877F8093E8000E9412268091E80093
:1051600080FFFCCF8091E30080688093E30083E0C0
:10517000111101C082E08093B5038BCF805882303B
:1051800008F087CF8091B8039091B9038C3D53E02C
:10519000950799F583E08A838AE289834FB7F8946B
:1051A000DE01139620E03EE051E2E32FF0E0509361
:1051B0005700849120FF03C082958F703F5F8F70EE
:1051C0008A30C8F0895C90E08D939D932F5F2431E5
:1051D00061F74FBF8091E800877F8093E8006AE223
:1051E00070E0CE0101960E9429258091E8008B771E
:1051F0008093E8004ECF805DE6CF6091BA03709156
:10520000BB03AE014F5F5F4F0E946224BC01892B3C
:1052100009F43FCF8091E800877F8093E80089817F
:105220009A810E948325E1CF803809F032CF8091A6
:10523000E800877F8093E8008091B1038093F100BC
:105240001ECF811126CF9091B803923008F021CF64
:105250008091E800877F8093E8009093B1030E94DB
:1052600012268091B103811531F084E08093B5035B
:105270000E94D6220ECF8091E30087FDF6CF81E019
:10528000F5CF0895CF938091B503811599F0809162
:10529000E900C091EC00C795CC27C7958F70C82B4B
:1052A0001092E9008091E80083FD0E94F927CF70F9
:1052B000C093E900CF910895FC018091B50384303B
:1052C00039F584899589A689B789892B8A2B8B2BF7
:1052D000F9F081818F708093E9009091F3008091C3
:1052E000F200892B11F480E008959091E8008091FC
:1052F000E8008E778093E80095FDF5CF0E94312677
:10530000811107C09091E8009E779093E80008957E
:1053100082E00895FC018091B503843099F484897A
:105320009589A689B789892B8A2B8B2B59F0818186
:105330008F708093E9008091E80080FF03C0CF0167
:105340000E945C290895FC018091B5038430D9F452
:1053500084899589A689B789892B8A2B8B2B99F00B
:1053600086818F708093E9008091E80082FF0BC0F6
:105370009091F3008091F200892B41F48091E80034
:105380008B778093E80080E090E008959091F3009F
:105390008091F2000895FC018091B503843019F0EA
:1053A0008FEF9FEF089584899589A689B789892B06
:1053B0008A2B8B2BA9F386818F708093E9008091D3
:1053C000E80082FFEDCF9091F3008091F200892BED
:1053D00079F08091F10090E03091F3002091F2009B
:1053E000232B29F42091E8002B772093E8000895DF
:1053F0008FEF9FEFF1CFA8E0B0E0E1E0FAE20C948C
:105400003B2B8C018091B503843059F5F8018489D8
:105410009589A689B789892B8A2B8B2B11F18385D6
:105420008F708093E90088E0E9EDF1E0DE011196EC
:1054300001900D928A95E1F740E050E068E070E05D
:10544000CE0101960E94DA2440E050E062E070E074
:10545000C80142960E94DA248091E8008E778093FA
:10546000E8002896E4E00C94572B08950895CF9314
:10547000DF93EC018091E80083FF13C028818091C5
:10548000BA039091BB032817190659F48091B7030A
:10549000823209F484C040F4803209F44DC0813274
:1054A000B1F0DF91CF9108958332D9F78091B6039F
:1054B0008132B9F78091E800877F8093E8000E94ED
:1054C00012266091B803CE010E94362AEACF80915D
:1054D000B603813A31F78091E800877F8093E80036
:1054E0008091E80080FFFCCF8C899D89AE89BF89BF
:1054F0008093F100492F5A2F6B2F77274093F100AB
:10550000AD01662777274093F1008B2F9927AA27B3
:10551000BB278093F100888D8093F100898D809363
:10552000F1008A8D8093F1008091E8008E7780935E
:10553000E8000E941226B5CF8091B603813209F0AF
:10554000B0CF8091E800877F8093E8008091E800E9
:1055500082FF20C03091F1002091F1009091F10084
:105560008091F1003C8B2D8B9E8B8F8B8091F10075
:10557000888F8091F100898F8091F1008A8F8091CE
:10558000E8008B778093E8000E941226CE010E94EB
:10559000352A87CF8091B5038111D8CF82CF8091F2
:1055A000B603813209F07DCF8091E800877F809338
:1055B000E8000E9412268091B8039091B903998B5C
:1055C000888BCE010E94352A6CCF991B79E004C0EC
:1055D000991F961708F0961B881F7A95C9F7809532
:1055E000089597FB072E16F4009407D077FD09D095
:1055F0000E94642B07FC05D03EF4909581959F4F47
:105600000895709561957F4F0895A1E21A2EAA1B07
:10561000BB1BFD010DC0AA1FBB1FEE1FFF1FA21762
:10562000B307E407F50720F0A21BB30BE40BF50B5F
:10563000661F771F881F991F1A9469F760957095E8
:10564000809590959B01AC01BD01CF010895EE0FAF
:10565000FF1F0590F491E02D09942F923F924F92F5
:105660005F926F927F928F929F92AF92BF92CF92F2
:10567000DF92EF92FF920F931F93CF93DF93CDB7FB
:10568000DEB7CA1BDB0B0FB6F894DEBF0FBECDBF73
:1056900009942A88398848885F846E847D848C8444
:1056A0009B84AA84B984C884DF80EE80FD800C814D
:1056B0001B81AA81B981CE0FD11D0FB6F894DEBF30
:1056C0000FBECDBFED010895AA1BBB1B51E107C062
:1056D000AA1FBB1FA617B70710F0A61BB70B881F82
:1056E000991F5A95A9F780959095BC01CD01089511
:1056F000FB01DC0104C08D910190801921F441501F
:105700005040C8F7881B990B0895FB01DC0102C0CB
:1057100001900D9241505040D8F70895F999FECF6D
:1057200092BD81BDF89A992780B50895A8E1B0E0AF
:1057300042E050E00C94D22BDC01A40FB51F415085
:10574000504048F0CB01840F951F2E910E94AD2B45
:1057500041505040D0F70895262FF999FECF92BDC1
:1057600081BDF89A019700B4021639F01FBA20BD26
:105770000FB6F894FA9AF99A0FBE08950396272F58
:105780000E94AD2B0E94AC2B252F0E94AD2B242F05
:105790000C94AD2B0196272F0E94AD2B0C94AC2BB3
:1057A000DC01CB01FC01F999FECF06C0F2BDE1BDE1
:1057B000F89A319600B40D9241505040B8F70895D0
:1057C000F894FFCF6D1BE01B751B3F1B431B791B20
:1057D000471B7D1B891B531BD91B571B8D1B5B1B39
:1057E000911BB81B5F1B951BBF1B651B9B1BA31B42
:1057F0004B1B811B4F1B851B691B9F1BAF1BC81BB2
:10580000D71B391B711BE71B9E1CA41CA71CAD1CBE
:10581000C21CC21CC21CC21CC21CC21CC21CC21C98
:10582000B01CB51CB91CBF1CD01CD61CDA1CCD1F6B
:10583000D31FBD1FC71FD91FDF1FE51F1C2843280B
:105840004928432849289C28BE2849281429212969
:105850007C020400000000760216000000006E02C8
:10586000D102000000680207000000006202090087
:105870000000005C020A0000000056020B0000005D
:105880000050020D000000004A020E00000000441B
:10589000020F000000003E02330000000038023416
:1058A00000000000320239000000002C0228000035
:1058B00000002602500000000020025100000000FD
:1058C0001A02520000000014024F000000000E02F5
:1058D00028000000000802500000000002025100F1
:1058E000000000FC015200000000F6014F00000023
:1058F00000FF009502B50201AF0001280850011E0B
:105900000A14010284100000010510000001830840
:105910000000010000000000000000000000622202
:10592000972290228922652201A120000000000216
:1059300000F5F6F731333534C6976694F432360005
:00000001FF
