:100000000C94BA020C94D7020C94D7020C94D70229
:100010000C94D7020C94D7020C94D7020C94D702FC
:100020000C94D7020C94D7020C9401280C94D42879
:100030000C94B9220C94D7020C94D7020C94D702DA
:100040000C94D7020C94D7020C94D7020C94D702CC
:100050000C94D7020C9440230C94D7020C94D70232
:100060000C94D7020C94D7020C94D7020C94D702AC
:100070000C94D7020C94D7020C94D7020C94D7029C
:100080000C94D7020C94D7020C94D7020C94D7028C
:100090000C94D7020C94D7020C94D7020C94D7027C
:1000A0000C94D7020C94D7020C94D702C774C9746D
:1000B000CB74CD74D174D674DA74DC74DE74E074ED
:1000C000E274C874CA74CC74CE74D274D774DB74FE
:1000D000DD74DF74E174E97400000000447ECF74C5
:1000E000D074D874D974C2740000000000000000FD
:1000F0000000000000000000AC00AA00A900AB0056
:1001000000000000E100E000E300E2002C005000ED
:10011000510052004F0000000000000000000100EC
:10012000C17400002C00000000000000000000006E
:1001300014001A000800150017001C0018000C001D
:10014000120013002A001D001B0006001900050004
:10015000110010003600370038004C00000000008D
:10016000E000E300E2002C00417E427E000000003F
:1001700000003A003B003C003D003E003F004000D4
:1001800041004200430044000000000000002B003A
:100190002900AC00AA00A900AB00AE004500000099
:1001A0000000E000E300E2002C000100010000007C
:1001B000000000001E001F0020002100220023007C
:1001C00024002500260027002A003500000000003A
:1001D0002B00290046002D002E002F00300031009A
:1001E00000000000E000E300E2002C00010001003C
:1001F00000000000000000000000000000000000FF
:1002000000000000000000000000000000000000EE
:1002100000000000000000000000000000000000DE
:10022000000000000000437E00000000000001000C
:1002300001000000000000004200AB00000041008F
:10024000A90000004000AA0000003F00AC00000030
:1002500044004500000026002F00000025002E006D
:10026000000024002D0000002300460000002A00AA
:10027000310000001E0035000000190010000000D1
:100280002A004C0000001300380000001200370064
:1002900000000C00360000001800100000001C00D8
:1002A00011000000170005000000150019000000F3
:1002B0000800060000001A001B00060000001A00DB
:1002C0001B00000014001D00000000D0D0D0D0D0D2
:1002D000D0010102040810204142444848000000B7
:1002E000484850608182848890A0C1C2C4D0D0D0D8
:1002F000D0D0D0C8000000000000000000000000C6
:1003000000000000000000000000000000000000ED
:1003100000002A2B28000000000000000000000060
:10032000000000000029000000002C1E34202122C3
:1003300024342627252E362D3738271E1F2021222C
:10034000232425263333362E37381F0405060708A5
:10035000090A0B0C0D0E0F10111213141516171895
:10036000191A1B1C1D2F3130232D350405060708D3
:10037000090A0B0C0D0E0F10111213141516171875
:10038000191A1B1C1D2F3130354C000000000000D5
:10039000000000000000000000000000000000005D
:1003A00000000000000000000000000000007E0FC0
:1003B00000D4FFFFFFC7000000781003540068005E
:1003C0006500200055006E00690000001E037300E8
:1003D000740065006E006F006B00650079006200BC
:1003E0006F006100720064007300000004030904E0
:1003F00009027800040100A0FA09040000010301C9
:1004000001000921110100012244000705810308B0
:10041000000109040100010300000009211101008D
:100420000122B60007058203200001080B02020228
:10043000020100090402000102020100052400106B
:1004400001042402020524060203070583030800B1
:10045000FF09040300020A0000000705050210005E
:10046000050705840210000512010002EF020108D1
:100470000090010001000102000105010902A10133
:1004800085020901A10005091901290815002501A6
:100490009508750181020501093009311581257F13
:1004A00095027508810609381581257F9501750823
:1004B0008106050C0A38021581257F950175088192
:1004C00006C0C005010980A101850319012AB700F2
:1004D000150126B700950175108100C0050C0901B2
:1004E000A101850419012AA002150126A002950187
:1004F00075108100C005010906A1018506050719CF
:10050000E029E71500250195087501810205071905
:100510000029EF1500250195F075018102050819E4
:10052000012905950575019102950175039101C099
:1005300005010906A101050719E029E715002501B4
:10054000950875018102950175088101050719005B
:1005500029FF150026FF009506750881000508197A
:100560000129051500250195057501910295017573
:10057000039101C011241FBECFEFDAE0DEBFCDBF73
:1005800012E0A0E0B1E0E0EBFAE502C005900D92C8
:10059000A236B107D9F724E0A2E6B2E001C01D926D
:1005A000A933B207E1F70E9403150C94042D0C94B3
:1005B000000080E00E945F1508959C01FB01223439
:1005C0008EE7380709F46DC050F420348EE7380701
:1005D000F9F021343E4709F454C081E008952334F2
:1005E0008EE7380701F124343E47B9F7858181153C
:1005F00011F10E9419239093650280936402809107
:1006000068028F5F8093680281E00E94170A09C028
:100610008581811531F082E00E94170A82E00E94F4
:100620000B0A80E0089585818115D9F380E00E944E
:10063000170A80E0F4CF80916402909165020E94D5
:100640003123843F914068F480916802823048F001
:1006500080E00E94270A82E00E94170A82E00E943E
:100660000B0A81E00E94270A80916602909167023E
:10067000892BB9F60E941923909367028093660232
:10068000D0CF8581811521F084E00E94170A03C034
:1006900084E00E94270A45E063E084E00E946C0B3E
:1006A000C0CF8581811511F083E0EFCF83E0F1CFDA
:1006B0008091660290916702009759F00E94312361
:1006C000853F914030F010926802109267021092BC
:1006D000660208958630B8F46330A8F44B3098F47D
:1006E000E42FF0E09BE0699FE00DF11D112491E201
:1006F000899FE00DF11D1124EE0FFF1FE455FF4F00
:1007000085919491089581E090E008950E946A0394
:10071000089588E190E0089547E0489F9001499F3F
:10072000300D1124C90180509F4F08959C019A9566
:1007300081159F4118F5F901EE27F270832F817022
:10074000B90166277470A9014427587034FF0CC0A2
:100750008295807FEF2B09F08062672B09F080641F
:10076000452B69F080680895EF2B09F08260672BB4
:1007700009F08460452B19F08860089580E00895A1
:10078000CF93DF93EB010E949603FE010995DF9161
:10079000CF910895CF93DF93EC01805E9109089784
:1007A00020F06FE579E0209711F464E177E0CE0165
:1007B0000E94C0038C2F0E940C06DF91CF910895F8
:1007C000CF93DF93EC010E949906CE01805E9109E0
:1007D000089720F066E679E0209711F46BE177E066
:1007E000CE010E94C003DF91CF91089581E008956A
:1007F0000E94F603089581E008950E94DD020895A5
:1008000008950E9400040895A6E0B0E0EAE0F4E054
:100810000C94602C49835A839E83309175028981A0
:100820009A8131111AC03E81311599F0211589F054
:100830000E94DE0A182F682F89819A810E94BA0AC5
:1008400069817A81812F0E9468122696E3E00C94D8
:100850007C2C0E94CC0A182FF3CF0E94DE0A6981FB
:100860007A81F1CFFC01262F87819085009741F492
:100870004081518162817381848195810E94040449
:1008800008950F931F93CF93DF93D82FC92F61E063
:100890000E9432048C016D2F7C2F0E94F803811579
:1008A00059F06D2F7C2FC8010E94FE198170DF91D5
:1008B000CF911F910F91089580E090E0F7CFCF93F3
:1008C000DF93D82FC92F60E00E9432046D2F7C2F58
:1008D0000E940104DF91CF91089581E008950E9464
:1008E0006D040895CF93C82F0E9483098C2F0E9416
:1008F0006F042FEF84E39CE0215080409040E1F7AB
:1009000000C00000CF91089581E00E9472040E940F
:100910006423089580E00E9472040E947523089564
:100920000F931F93CF93DF938C0161E00E943204F9
:10093000EC01B8010E94FD03811509F442C0B80121
:10094000CE010E9472158115E1F1B801CE010E941D
:100950006E178115B1F1B801CE010E948320811577
:1009600081F1B801CE010E94E71B811551F1B80158
:10097000CE010E94BC1B811521F1F80185818115F2
:1009800081F0CA35FCE7DF0739F178F4C130ECE7D4
:10099000DE07F9F0C330FCE7DF07C9F0C115DC471B
:1009A00071F0C8010E94FB030DC0CB35ECE7DE07F8
:1009B000B1F0CC35DC47A9F70E94930FF2CF0E942B
:1009C000840480E0DF91CF911F910F9108950E94E0
:1009D000A50F0E948A04F5CF0E949D0FE2CF0E94CE
:1009E000A10FDFCF0E9495220E94A30508950E94C7
:1009F000A7050E949A2208954F925F926F927F926C
:100A0000AF92BF92CF92DF92EF92FF920F93CF936C
:100A1000DF937C0129013A01615071096B01EC01FE
:100A2000C60FD71F1882A12CB12CAC14BD0478F0CE
:100A3000C701DF91CF910F91FF90EF90DF90CF90A2
:100A4000BF90AF907F906F905F904F900895C301DB
:100A5000B2012AE030E040E050E00E94292C605DC5
:100A6000603341F4A114B10429F0452846284728F1
:100A700009F4602F6A9329013A018FEFA81AB80A86
:100A8000D4CF0F939C01062F8091A8019091A901CA
:100A90008217930721F480916F02861781F03093BB
:100AA000A9012093A80100936F0240E050E066E0A6
:100AB00070E089E692E00E94FC040F91089589E6B7
:100AC00092E0FBCF292F30E021153105E9F49C019C
:100AD00080E0A90174E0569547957A95E1F74115B4
:100AE000510511F08C5F9A01A901569547955695CD
:100AF00047954115510511F08E5F9A01369527955E
:100B0000232B09F08F5F089588E0E3CF089581E0FB
:100B100008950895CF93DF93D82F0E948705C82F9B
:100B2000811519F08D2F0E9489058C2FDF91CF91AF
:100B300008950895CF93C82F0E9486058C2F0E9498
:100B40008A05CF91089580E00E949A0508950E9439
:100B5000C9200E949A050895CF930E94C920C82FEA
:100B6000809170028C1779F0C09370020E94252347
:100B70006093710270937202809373029093740277
:100B80008C2F0E949A05CF910895AFE0B0E0EBEC76
:100B9000F5E00C945F2C4A875B876C877D878E8796
:100BA0009F8791110E948F0E1F821886198686E0FA
:100BB000FE013A96DE01119601900D928A95E1F7B9
:100BC0008D8181110FC009811A812B813C814D815A
:100BD0005E816F81788589850E94CF0D2F96E4E034
:100BE0000C947B2CCE0101960E9441048111EBCF25
:100BF000F5CFFC018481813021F4808191810E94B4
:100C0000100B0895611529F00E94541D0E94281EA2
:100C100008950E94B01DFACFCF93C82F8115C9F057
:100C20008238C9F40E94D62081FD13C089E30E9456
:100C300002220E94350F2FEF37EE83E02150304023
:100C40008040E1F700C0000089E30E9419220E9461
:100C5000350FCF9108958338A1F40E94D62080FDEE
:100C6000F8CF83E50E9402220E94350F9FEF21EE0C
:100C700034E0915020403040E1F700C0000083E5AF
:100C8000E4CF8438A1F40E94D62082FDE2CF87E42D
:100C90000E9402220E94350F8FEF91EE24E08150D6
:100CA00090402040E1F700C0000087E4CECF8CEFF9
:100CB0008C0F813A70F48C2F0E947321811529F0DA
:100CC0008C2F0E9419220E94350F8C2F0E94022225
:100CD000BECF80E28C0F883048F4C77081E001C03D
:100CE000880FCA95EAF70E94700EB1CF8BE58C0F82
:100CF000833038F42C2F2452330BC9010E94022177
:100D0000A8CFE8E5EC0FEB3150F4F0E0EE0FFF1F59
:100D1000E851FE4F808191810E9428219ACF83E380
:100D20008C0F833108F095CF61E08C2F0E94020672
:100D300090CF811509F456C0823879F40E94D620EC
:100D400081FF50C089E30E9402220E94350F89E38F
:100D50000E9419220E94350F0895833859F40E9489
:100D6000D62080FF3FC083E50E9402220E94350FFB
:100D700083E5EECF843859F40E94D62082FF32C03A
:100D800087E40E9402220E94350F87E4E1CF9CEFA6
:100D9000980F913AE8F290E2980F983050F48770EB
:100DA00091E001C0990F8A95EAF7892F0E94760E8B
:100DB000D1CF9BE5980F933028F480E090E00E941B
:100DC0000221089598E5980F9B3128F480E090E087
:100DD0000E942821089593E3980F933118F460E05E
:100DE0000E94020608951F93CF93DF93182FEB0103
:100DF0000E940C06209739F4812F0E949906DF91FA
:100E0000CF911F9108958FE99FE00197F1F700C0FE
:100E100000002197EFCF60E570E0893311F060E0CA
:100E200070E00E94F3060895811521F00E94700E73
:100E30000E94350F0895811521F00E94760E0E94C0
:100E4000350F0895A0E0B0E0E8E2F7E00C945B2CE9
:100E50006C01D62FC72FFC011581068102950F70FA
:100E60000E94650EE82E8115F9F0E12E1115E1F0D2
:100E70008C2F807F803461F080E28D0F8830F0F01D
:100E80008C2F807E803221F4D230C0F00115B1F079
:100E900080911B0482FF12C082E00E94660F0E94B4
:100EA000650E91E0E82EE926EC2FE295EF70C03C4C
:100EB000B0F5F0E0EA5FF24D0C944B2CE12CF4CF4E
:100EC0000C2F0F70C03110F00295007F111599F0B2
:100ED000011559F080E28D0F883010F0D11107C054
:100EE000802F0E94700E0E94350F8D2F51C0802FD1
:100EF0000E94810EF8CF8D2F0E949906011579F07E
:100F000080E28D0F883010F0D11104C0802F0E9434
:100F1000760E03C0802F0E94870E0E94350FE114C9
:100F200089F00E94610E80FD0DC0F60115820E94BD
:100F30005B0E0E94170AC6010E943C090E945B0ECC
:100F40000E94270ACDB7DEB7E8E00C94772CFC2F7F
:100F5000FF70FF2EC07FC03219F0F29480EFF822AC
:100F6000D11541F0D130D1F1111509F444C001156A
:100F7000F1F0BBCF80911B0482FD15C0111559F013
:100F8000F11429F08F2D0E94700E0E94350F80E021
:100F90000E940C06C4CF80E00E949906F11409F467
:100FA000BECF8F2DB4CF111569F0011104C08F2D64
:100FB0000E941407B4CF013009F0B1CF8F2D0E94E9
:100FC000AA0EADCF0111ABCF8F2D0E941B078F2D25
:100FD0000E94B60E8F2D0E94990EA1CF111521F0FF
:100FE000063008F09CCFE3CF053008F098CF8F2D66
:100FF0000E941B0794CF0115D1F3D93349F42FEF89
:1010000087EE93E0215080409040E1F700C000005F
:101010008D2F0E94990683CF8C2F8695869583709D
:10102000811569F0813009F07ACF8D2F9C2F937054
:10103000111102C080E090E00E94282170CF8D2F16
:101040009C2F9370111102C080E090E00E94022159
:1010500066CF612F8D2F0E94020661CF8C2F837087
:10106000811139C0111129C04D2F42954695477005
:10107000440F440F2D2F2F7030E0042E02C0220F9A
:10108000331F0A94E2F780E090E0D4FF09C08FE0BC
:1010900090E002C0880F991F4A95E2F780959095DD
:1010A000C695C695C370822B932BC23071F0C330A6
:1010B00079F0C13039F00E94E7090E94C9200E94EE
:1010C0009A052DCF0E94DE09F8CF0E94F009F5CFD6
:1010D0000E94DB09F2CF111561F1C0FFEECF4D2F59
:1010E000429546954770440F440F2D2F2F7030E0E6
:1010F000042E02C0220F331F0A94E2F780E090E032
:10110000D4FF09C08FE090E002C0880F991F4A9574
:10111000E2F780959095C695C695C370822B932B68
:10112000C23069F0C33071F0C13031F00E94520A10
:10113000C4CF823010F2D3CF0E94490ABECF0E94A2
:101140005B0ABBCF0E94FF09B8CFCF70111539F0F1
:101150008C2F0E94170A8D2F0E941407AECF8D2F5F
:101160000E941B078C2F0E94270AA7CFD23F41F174
:1011700070F4D03FC9F0D13F91F0111509F449C086
:10118000011509F443C08D2F0E940C0696CFD33F62
:10119000F1F0D43F91F780911B0482FD22C08C2F87
:1011A0008F71111501F310C0111541F0053008F0D1
:1011B00084CF8C2F8F710E94390A7FCF0630F7CFF2
:1011C0008C2F8F711111CFCF0E94170A76CF111576
:1011D00029F08C2F8F710E940B0A6FCF0E94060A94
:1011E0006CCF111549F0CF718C2F0E94170A63E064
:1011F0008C2F0E94470F61CF81E00E94660F023062
:1012000008F45BCF82E00E94660F57CF8C2F8F715E
:10121000DBCF011579F0D93349F4EFEFF7EE23E096
:10122000E150F0402040E1F700C000008D2F0E9407
:10123000990643CF8C2F8F7196CF0F931F93CF9327
:10124000DF93EC018F819885009781F00E94521105
:101250008C010E94640A0E94DA09B801CE010E9442
:101260002207DF91CF911F910F91089568817981B5
:101270008D810E941D0BECCFCF93DF93EC018C810D
:10128000811599F0CE010E949004811111C00E9435
:10129000650E811551F08D81811539F080911B0407
:1012A00082FF03C082E00E94660FDF91CF91089514
:1012B000CE010E941D09CE010E945F04F6CF811568
:1012C00021F00E94810E0E94350F0895811521F0B2
:1012D0000E94870E0E94350F089580E090E00E94E2
:1012E000022180E090E00E9428210E948F0E0E943F
:1012F000350F0E94451E0E94281E08950E9430222C
:101300000E946D0908950E947E0E0E947E09089534
:10131000282F92959F70963099F060F4925F9F709D
:10132000923030F4203F89F038F481E0283E38F0E4
:1013300080E008959A5FF3CF81E0243FC9F70895D4
:1013400081E0283EE0F3213FF9CF81E00895FC01E0
:101350008481811571F087819085009729F00E9422
:1013600052110E9488090895808191810E94100B7A
:10137000F8CF80E00895A6E0B0E0E1ECF9E00C944D
:10138000612C2696E2E00C947D2CA9E0B0E0EBEC19
:10139000F9E00C945F2C2996E4E00C947B2C0895E2
:1013A0000E94CF0908950E94D00990938D028093E6
:1013B0008C02089508950E94D309089520918C020B
:1013C00030918D02822B932B0E94D3090895209196
:1013D0008C0230918D02822393230E94D3090895B9
:1013E00020918C0230918D02822793270E94D3098D
:1013F00008950E94CF0908950E94F90908950E9456
:10140000FC0990938B0280938A02089580E090E01B
:101410000E94FF09089521E030E0A90102C0440FB5
:10142000551F8A95E2F7CA010E94FF09089521E03D
:1014300030E002C0220F331F8A95E2F780918A02C2
:1014400090918B02822B932B0E94FF09089521E03B
:1014500030E002C0220F331F8A95E2F720953095C5
:1014600080918A0290918B02822393230E94FF092C
:10147000089521E030E002C0220F331F8A95E2F781
:1014800080918A0290918B02822793270E94FF0904
:10149000089520918A0230918B02822B932B0E9417
:1014A000FF09089520918A0230918B0282239323B1
:1014B0000E94FF09089520918A0230918B028227B1
:1014C00093270E94FF09089508959B01677091E09A
:1014D00001C0990F6A95EAF763E0369527956A95FA
:1014E000E1F7220F331F220F331FFA01E20FF31F20
:1014F00040E050E0682F70E08191DF0111979B017F
:10150000042E02C0369527950A94E2F721702195A2
:101510002827292328272C934F5F5F4F44305105FC
:1015200059F708959C01982F977083E03695279579
:101530008A95E1F7220F331F220F331FFB01E20FC1
:10154000F31F40E050E080E0219130E0092E02C01E
:10155000369527950A94E2F721703327042E01C0AF
:10156000220F0A94EAF7822B4F5F5F4F44305105F8
:1015700059F70895282F862F933068F42B3058F4AC
:10158000622F70E02BE0929F600D711D112446E7E1
:1015900052E00E94650A0895292F933068F48B3039
:1015A00058F490E066E772E03BE0239F800D911DC8
:1015B00011240E94920A089580E00895A0E0B0E00E
:1015C000E4EEFAE00C945A2C8C01E0908A02F09040
:1015D0008B0280918C0290918D02E82AF92ACFE04B
:1015E000D0E0CC24C394D12CC6010C2E02C0880FAD
:1015F000991F0A94E2F78E219F21892B49F42197A4
:1016000098F7B12C8B2DCDB7DEB7E9E00C94762C92
:10161000BC2EB8018C2F0E947412019781F3F2CF77
:10162000CF93DF93D82FC92F0E94DE0A6D2F7C2F16
:101630000E947412DF91CF9108951F93CF93DF938F
:10164000162FD72F90917502911541F0862F972F65
:101650000E94100BDF91CF911F910895811581F0A9
:10166000862F972F0E94DE0AC82F682F812F9D2F6B
:101670000E94BA0A612F7D2F8C2F0E947412EACF2C
:10168000862F972F0E94CC0AC82FF4CFFC0181E04F
:1016900090E0DC0102C0AA0FBB1F6A95E2F7BD0112
:1016A000DC0102C0AA0FBB1F4A95E2F7AD016A2B0D
:1016B000752B02C0880F991F2A95E2F79B012E23F4
:1016C0003F232617370719F48E2B9F2B08958095FB
:1016D00090958E239F230895242F462F682F809165
:1016E0008A0290918B020E94460B0E94FF09089586
:1016F000EF92FF920F931F93CF93E0918E02C9E078
:1017000080918F028E1306C0CF911F910F91FF9091
:10171000EF900895EE2EF12CCE9FF0011124E057AA
:10172000FD4F008111812281338144815581668181
:10173000778180850E94C509F7013196E770E0CF77
:101740000F931F930091D8021091D9022091DA02D1
:101750003091DB024091DC025091DD026091DE02AB
:101760007091DF028091E0020E94C5091F910F91E4
:1017700008958091DE02803178F48091DD02811538
:1017800059F0E0918E0220918F023091D902409160
:10179000D80259E02E1301C008956E2F70E05E9FAD
:1017A000F0011124DF01A057BD4F14968C911497BE
:1017B000811561F111968C911197831327C08C913B
:1017C000841324C015968C91159781111FC0129611
:1017D0008D919C91A091DA02B091DB028A1B9B0B48
:1017E000883C910598F48091DE028F70806180932F
:1017F000DE02EA56FD4F80818F708061808388ED24
:1018000092E00E943C090E94780B0895FB013196FA
:10181000E770C0CFE0918E0290918F0229E0E9132A
:1018200002C080E00895AE2FB0E02E9FF001112499
:10183000E057FD4F3181361306C03081381303C0A5
:101840003581341304C0FD013196E770E8CF81E0A3
:1018500008958F929F92AF92BF92DF92EF92FF9284
:101860000F931F93CF93DF93CDB7DEB72F970FB6AC
:10187000F894DEBF0FBECDBF8C0186E0F801DE011B
:101880001A9601900D928A95E1F7F801E080F580B3
:10189000A280B380848198ED892E92E0992E909158
:1018A000DC0291111BC0811509F42AC1F11409F45D
:1018B00069C1C8010E94A709811509F463C189E0C3
:1018C000F801D40101900D928A95E1F7C4010E94BC
:1018D000F9050E94B90B0E94A00B12C1D090DD0245
:1018E0002091DA023091DB02A501421B530BD11487
:1018F00009F409C1483C510508F0CAC0811509F432
:10190000FFC09091D90291808091DE02803108F071
:1019100074C0991231C09091D8029E112DC040918F
:10192000DF025091E002278130854217530721F5ED
:10193000F1105DC08F7080618093DE020E94A00B69
:1019400088ED92E00E943C098091DE02F8018683D6
:10195000F12C8F2D2F960FB6F894DEBF0FBECDBFA2
:10196000DF91CF911F910F91FF90EF90DF90BF908B
:10197000AF909F908F900895F11039C040E0692D8D
:101980008E2D0E940A0C40E0692D8E2D0E940A0CBB
:10199000F82E8111DDCF8A859B850E94100B292F9F
:1019A00022952F70903450F49F70223080F0911562
:1019B00099F0F8019681903178F4CBCF2A5F2F709F
:1019C000223078F0C8010E943C09FD2CC2CF91154D
:1019D00019F0811509F4BDCF805E883008F4B9CFC5
:1019E000F1CF803F08F4B5CF815F8330F7CF80918E
:1019F000DE0281608093DE02ABCF99121CC0909111
:101A0000D8029E1118C04091DF025091E002278158
:101A100030854217530779F4F1100DC08683C80151
:101A20000E943C0989E0F801A8EDB2E001900D9216
:101A30008A95E1F750CFC8010E94A709811509F4E2
:101A4000A1C0F11409F49EC08091DE028032B8F08A
:101A50002091D8023091D9023A832983BC82AB828B
:101A60009091DC029D831E828F838091DF02909192
:101A7000E00299878887CE0101960E943C0989E09F
:101A8000F801A8EDB2E001900D928A95E1F721CF1F
:101A90009091DE029031A0F44A855B856C857D854E
:101AA0008E859F850E94BB0988ED92E00E943C09CB
:101AB00089E0F40111928A95E9F70E94A00B48CFC2
:101AC0008115F1F02091D90281812813B4CF809142
:101AD000D8028E11B0CF4091DF025091E0022781F1
:101AE00030854217530709F0A6CFF110A4CF968393
:101AF000C8010E943C0989E0F40111928A95E9F736
:101B0000FF24F39426CF483C510508F03FC08115CF
:101B1000B9F3F114B9F19091D9028181981328C0D9
:101B20008091D8028E1124C02091DF023091E00212
:101B30008781908528173907D9F48091DE0280FDCE
:101B40000EC0803160F08683982F907F903F09F41B
:101B500066CF982F907F905F8F70892B5FCF89E041
:101B6000F801A8EDB2E001900D928A95E1F7C8CF97
:101B7000C8010E94A709811182CF8091DE02816095
:101B80008093DE02C8010E943C09BACF4A855B857A
:101B90006C857D858E859F850E94BB0989CFA2E1DA
:101BA000B0E0E5EDFDE00C945E2C0A871B872C87E6
:101BB0003D874E875F87688B798B8A8BCE010A962B
:101BC0000E94290C8115C9F04E85411551F00A85F6
:101BD0001B852C853D855F85688979898A890E9466
:101BE000C50989E0F82E80918E0290918F028913A9
:101BF0003DC06296E5E00C947A2C89E0FE013A96AD
:101C0000DE01119601900D928A95E1F720918F02E5
:101C100040918E028E85811521F330E0C901019635
:101C2000877099274817190699F099E0929FD0017B
:101C3000939FB00D1124A057BD4FFE013196019026
:101C40000D929A95E1F780938F020E94780BC9CF8D
:101C50000E94830910928F0210928E0289E0E8EDB3
:101C6000F2E0DF011D928A95E9F7BBCFF89EC00133
:101C7000112480579D4F0E94290C811509F4B9CF7A
:101C8000E0918E02FE9EF0011124E057FD4F00818D
:101C900011812281338144815581668177818085DC
:101CA0000E94C50980918E0290E001968770992765
:101CB00080938E0298CF80910903869586958695AC
:101CC0000895809109038770089590910903977092
:101CD00081E0911101C080E008958091350308955D
:101CE00090913503982B909335030895982F9095F4
:101CF000809135038923809335030895109235032D
:101D0000089590913403982B909334030895982F5D
:101D10009095809134038923809334030895109221
:101D20003403089580910B03089508950E94950E41
:101D3000089590910A03292F2823211531F08095C9
:101D4000892380930A030E94960E089508950E94A5
:101D5000A60E089590910B03292F2823281729F008
:101D6000982B90930B030E94A70E089590910B035C
:101D7000292F2823211531F08095892380930B0387
:101D80000E94A70E089590911B0492FF08C09091A5
:101D90000B03981721F080930B030E94A70E089560
:101DA00080910B03811529F010920B0380E00E94B3
:101DB000A70E0895CF93C091350380913403C82BAB
:101DC00080910B03811531F0C82B0E944E218111A7
:101DD0000E94D00E8C2FCF910895CF93DF93C091A6
:101DE000AC01D091AD010E94DA0E8883C091AC01A4
:101DF000D091AD0148E050E061E073E0CE010E9477
:101E00009C2C892B59F088E0FE01A1E0B3E0019001
:101E10000D928A95E1F7CE010E94D920DF91CF91F2
:101E20000895CF93DF93C091AA01D091AB010E9496
:101E3000DA0E8983C091AA01D091AB0140E250E053
:101E400061EE72E0CE010E949C2C892B59F080E259
:101E5000FE01A1EEB2E001900D928A95E1F7CE016C
:101E60000E94E420DF91CF9108958091DF018115D8
:101E700039F080911A0487FF03C00E94110F089562
:101E80000E94ED0E089508950E94430F0895962F25
:101E900020911B0422FF11C0682F660F660F660F8A
:101EA000692B609309030E94170A809109038695A4
:101EB000869586950E94440F08950E94170A0895FA
:101EC0001092090380E00E94440F08959091090345
:101ED0008095892380930903282F277021110DC035
:101EE000891759F090911B0492FF07C0869586953B
:101EF00086950E94270A0E94600F089590911B0406
:101F000092FB222720F9281769F080FB92F9909321
:101F10001B0480911A0490911B040E94C60F82E05A
:101F20000E94660F089580911B0482FB882780F928
:101F300091E089270E947E0F089581E00E947E0F24
:101F4000089580E00E947E0F08956FEF7FEF80E09C
:101F500090E00E94EE2C089580E090E00E94BA2C60
:101F60009C0181E0263E3E4F09F080E0089582E02A
:101F700090E00E94B22C089583E090E00E94B22C81
:101F8000089584E090E00E94BA2C0895BC0184E09A
:101F900090E00E94EE2C0895AB01BC018FE090E030
:101FA0000E94E22C0895AB01BC0183E190E00E9405
:101FB000E22C089560E070E0CB010E94D30F0895F9
:101FC00060E070E0CB010E94CC0F0E94DA0F089510
:101FD000A8E0B0E0EEEEFFE00C94612C66EE7EEF40
:101FE00080E090E00E94EE2C60E082E090E00E94B1
:101FF000D02C81E090E090938D0280938C0261E080
:1020000083E090E00E94D02C60E074E184E090E0F6
:102010000E94EE2C60E086E090E00E94D02C6FEFF2
:1020200087E090E00E94D02C40E050E0BA0188E0C8
:1020300090E00E94E22C60E084E290E00E94D02CCC
:1020400060E087E190E00E94D02C60E08CE090E0BE
:102050000E94D02C60E08DE090E00E94D02C19828C
:102060001A821B821C821D821E821F82188648E0F3
:1020700050E068E170E0CE0101960E94C02C40E083
:1020800050E0BA0180E290E00E94E22C0E94E00F52
:102090002896E2E00C947D2C0E94E80F0895682FAA
:1020A0008EE090E00E94D02C0895A6E0B0E0EBE531
:1020B000F0E10C945F2C0E9419238C01809136036F
:1020C000909137038017910779F019821A820E9444
:1020D0001923BC0149815A8180E090E00E94C50526
:1020E00010933703009336032696E4E00C947B2C80
:1020F0000E9425236093420370934303809344031B
:102100009093450360933E0370933F038093400395
:10211000909341030895089508950E948B100895A7
:1021200008950E94901008958CE693E10E94101586
:102130000E948C100E948D10089581E008950E94E5
:102140009D1008950E949D100895089508950E947D
:10215000A5100E94A61008950E948B130E94990555
:1021600008950E9410230E9460140E94AC100E94E7
:102170005215EAE1F4E080818068808380911A043E
:1021800090911B040E94C60F0E94DE240E949110B1
:1021900008950E94B7190E942B170895A6E0B0E099
:1021A000E4EDF0E10C94552C0E949F1081110CC0BD
:1021B0000E9455100E94C9100E94661E0E94AC0524
:1021C0002696EEE00C94712C0E9476140091380350
:1021D0001091390380E00E94AF1308171907A1F48A
:1021E00000913A0310913B0381E00E94AF1308175E
:1021F000190751F400913C0310913D0382E00E94C5
:10220000AF1308171907A1F28091460381FD0E94C0
:10221000B8130E94A210782E28E3822E23E0922E7B
:10222000F12C662463948F2D0E94AF138C01F4016E
:10223000A190B1904F018A159B0569F1A826B1269E
:10224000E12CCC24C394D12CC5018C219D21892B58
:10225000C1F07114B1F0E982FA820E9419239C83C3
:102260008B836D8221E0C8018C219D21892B09F48B
:1022700020E049815A816B817C818D81922F0E945F
:10228000C505E394CC0CDD1CFBE0EF12DDCFF401BF
:10229000329711830083F39483E0F812C4CF0E9435
:1022A000781088CF1F93CF93DF930E947912EC01AF
:1022B000811522E5920708F05DC0811540E594077D
:1022C00008F0DBC0803E910528F58D3C910508F0B3
:1022D000ACC0883A910578F4853A910508F0A2C01F
:1022E0008130910509F441C00497813A9105E8F1E4
:1022F000C0E0D0E03AC0885A91094B97C8F7C85A55
:10230000D0E0CC0FDD1FC25EDD4F0990D881C02D1B
:10231000D4642BC0811550E49507F8F4C11580E210
:10232000D80708F0C2C0C83ED105F8F0CE019A9592
:1023300081159F41E8F68D2F0E941D13182FCE01A5
:1023400099270E947912212F30E0322F2227E901AC
:10235000CC27DF71C82BD92B08C099270E9479128E
:10236000CC27DF70C82BD92BD06ACE01DF91CF915B
:102370001F910895803842E59407C8F5803652E5EC
:10238000950708F05BC0C03482E5D807D0F4C032AE
:1023900092E5D90708F04BC08C2F8695869520E2F0
:1023A000829FC0011124C37021E030E0A90102C066
:1023B000440F551FCA95E2F7EA01C82BD92BDD68F7
:1023C000D4CF8C2F86958695877050E2859FC0016B
:1023D0001124C37021E030E0A90102C0440F551F51
:1023E000CA95E2F7EA01C82BD92BDC68BECF803C46
:1023F00052E5950758F48F71C03AD245A0F590E0A8
:10240000982F8827EC01C46FD06AAFCF805C9245CB
:10241000809708F06DCFDC2FCC27CC27DF71C06F01
:10242000D06AA3CFA497D064A0CFD0659ECFCF7140
:10243000D0E0DC2FCC27C16FD06A97CF86958695E8
:10244000877020E2829FC0011124C37021E030E038
:10245000A90102C0440F551FCA95E2F7EA01C82B33
:10246000D92BDA6882CF0E941D13C82FD0E0DC2F51
:10247000CC27CC27DF71D06278CF8F710E941D13DB
:1024800065E0D695C7956A95E1F7CF70D0E0DC2F6F
:10249000CC2790E084FF05C054E0880F991F5A951F
:1024A000E1F7C82BD92BD06960CF8D2F8F710E9497
:1024B0001D13182FCE0199270E947912212F30E089
:1024C000322F222722273F71282B392BE901D3CF26
:1024D000462F672F733028F44B3018F40E94860380
:1024E000089580E090E008950E9468120E945211C1
:1024F0000895803E9105D9F1C8F48133910509F41E
:1025000082C048F48932910509F472C08A3291057B
:1025100009F480C0089589339105E9F08238910566
:10252000D1F08533910509F45EC00895843E91058C
:10253000D9F148F4823E910539F1833E910549F184
:1025400081EE90E00895863E9105C9F1873E9105A0
:1025500009F43EC0089520911A042370211164C02B
:1025600020911B0423FF14C089E290E0089520917C
:102570001A0420FD45C030911B0430FF09C024FD22
:1025800024C083EE90E0089520911A0422FDF7CF35
:10259000089520911A0422FD44C030911B0430FD9F
:1025A00043C024FFF5CF11C020911B0421FFF0CFC1
:1025B00080911A0484FD09C087EE90E0089520916F
:1025C0001A0423FFE5CF24FFF7CF80E090E00895C1
:1025D00020911A0423FD2BC030911B0431FFE1CF61
:1025E00084EE90E0089520911A0425FFD1CFBCCF4E
:1025F00020911A0425FD1EC020911B0423FFC8CF83
:1026000089E390E0089520911A0426FFC1CF8AE261
:1026100090E0089520911A0426FFBACF81E390E05C
:10262000089582EE90E0089580EE90E0089586EEA1
:1026300090E0089585E390E0089590911A0492FF48
:1026400010C041E0282F2471243009F040E031E02F
:10265000282F2871283009F030E0431711F02CE0C2
:10266000822793FF10C041E0282F2471243109F004
:1026700040E031E0282F2871283109F030E043177D
:1026800011F02CE0822730911B0430FF10C051E084
:10269000282F2171213009F050E041E0282F2871C6
:1026A000283009F040E0541711F029E0822731FF6B
:1026B00010C041E0282F2171213109F040E031E0C4
:1026C000282F2871283109F030E0431711F029E054
:1026D000822794FD877E089580E008950E94A50FCB
:1026E00008950E9476142FEF86E791E021508040F4
:1026F0009040E1F700C000000E94761480E00E9444
:10270000AF1380FF04C00E946E130E9464230895DB
:102710000E94711308950E94AC0F811102C00E94A3
:102720004C100E94B70F809346030E94C10F9093F4
:102730001B0480931A040E9488130E94BC0F90E02F
:102740000E94DB0980918A0290918B020E94FC0911
:1027500008950E94D90208950E9458030895E82F11
:10276000F0E0EE0FFF1FEE5DFB4F80819181089539
:10277000089580EA8A95F1F7089500C008950E94AF
:10278000B9130895F894E82FE295EF70F0E041A1B5
:102790008F7021E030E0B90102C0660F771F8A9583
:1027A000E2F7CB01962F9095942391A392A1892BC8
:1027B00082A3789408950F931F93CF93DF9384EFB0
:1027C0000E94C21382E30E94C21386E30E94C213D6
:1027D000C4E5D2E00FE512E089918F3F11F00E942D
:1027E000C2130C171D07C1F7DF91CF911F910F91F5
:1027F0000895A0E0B0E0EFEFF3E10C945A2CEC0167
:10280000B62E062F10E0C801815A9D4F7C01FC01B5
:1028100080818F3F09F44FC0F894E82FE295EF7064
:10282000F0E091A18F7021E030E001C0220F8A9585
:10283000EAF7892F822B81A382A12095282322A346
:1028400078940E94BD13E4E5F2E041E050E0C12C31
:10285000D12C21912F3F89F0A22FA295AF70A05EBD
:10286000B0E08C9190E02F7002C0959587952A95E5
:10287000E2F781709A01811511F020E030E0C22A60
:10288000D32A440F551F82E0EF35F80711F7F701FF
:1028900080818F3F11F00E94C21361E0C114D10406
:1028A00009F460E08B2D0E94BF13000F111FC00FB1
:1028B000D11FD982C882CDB7DEB7E9E00C94762C5F
:1028C0000E94DB1386E0E2E2F4E0DF01982F1D9224
:1028D0009A95E9F7ECE1F4E0DF011D928A95E9F7BA
:1028E00083E00E94B3140E94A9130895A6E0B0E00B
:1028F000ECE7F4E10C945F2C8E010F5F1F4F86E034
:10290000F80111928A95E9F760E0C8010E94F91375
:1029100061E0C8010E94F91362E0C8010E94F91346
:1029200046E050E0B8018CE194E00E949C2C21E04C
:10293000892B81F420E043E062E274E08CE194E0D2
:102940000E94B414182F0E94AC13812F2696E4E045
:102950000C947B2C86E0F801ACE1B4E001900D9280
:102960008A95E1F7E8CF0895A0E0B0E0EAEBF4E162
:102970000C945B2CD82EE92EF62ED72F042FC22FC5
:10298000211579F081E0809349030E9419239093E7
:1029900048038093470380E0CDB7DEB7E8E00C94AE
:1029A000772CC0904903C114B1F3809147039091F3
:1029B00048030E943123059770F310E0000F111FA8
:1029C000A8016D2D7E2D8F2D9D2F0E949C2C892B73
:1029D00041F0A8016D2D7E2D8F2D9D2F0E94A92CD9
:1029E000CC2D109249038C2FD7CF0E9453250E94E3
:1029F000B1100E94602508950E9465250E94CE10A6
:102A00000E947F2508950E94B2220E9439250E94CB
:102A100094100E94F5140E94FC140E94A710FBCF92
:102A200090936302809362020895ECE4F3E086E001
:102A3000DF011D928A95E9F70895CF93DF93809186
:102A40004C03806880934C03CCE4D3E089910E94CE
:102A5000FE2483E0C235D807C9F7DF91CF910895EE
:102A6000482F67E00E94092C282F30E0F901E45B31
:102A7000FC4FC90153E0880F991F5A95E1F7281BB5
:102A8000390B240F311D86E090E0821B930B21E06F
:102A900030E001C0220F8A95EAF78081822B808383
:102AA00080E008950E94AC0F811102C00E944C107A
:102AB0008DE090E00E94B22C80934A030895CF935A
:102AC000C82F0E941515C0934A036C2F8DE090E02B
:102AD0000E94D02CCF91089581E0089581E008955F
:102AE00081E00895EF92FF920F931F93CF93DF93AE
:102AF000EC017B018C01005C14470034110508F0E7
:102B00008CC0FB018481811509F487C0CE010E942D
:102B10007015811541F0C03FF4E7DF0799F048F4E4
:102B20000A321105B8F080E0CDB7DEB7E6E00C94CC
:102B3000792CC13FD447B9F7F7018581811599F305
:102B400080E005C0F7018581811569F381E00E946D
:102B50005F15E9CF00914B0310914A03F70185817E
:102B6000811529F10F5F00934B031115D9F0113036
:102B7000D1F6EC2FE05CF0E0E653FD4FE491AE2F90
:102B8000A295A695A695A370B0E0A45BBC4F8C91CE
:102B90008E2B8C932CE433E0412FB701CE010E94A1
:102BA0006E15C1CF8C2F805C0E943015F3CF015081
:102BB00000934B032CE433E0412FB701CE010E9478
:102BC0006E15811509F4AFCF80914B0318160CF4E4
:102BD000AACF10924B036CE473E080914A030E94E9
:102BE0006C15811103C00E9415159DCF80914A0379
:102BF000811581F08130B9F7CCE4D3E0899181115E
:102C00000E94FE24F3E0C035DF07C1F780E00E9498
:102C1000FE24E9CF0E941D15E6CF81E085CF80918B
:102C2000AE01877F8093AE0182E00E94870E809183
:102C3000AE0184FF06C08F7E8093AE0182E00E94C9
:102C4000700E8091AE0185FF06C08F7D8093AE012E
:102C500080E20E94700E0E94350F089580E0089572
:102C60008933910588F48D32910560F4883291059D
:102C700030F48430910530F40E942E1608958B3282
:102C80009105D1F781E0089584369105FACFCF936D
:102C9000DF93EC01611519F082E00E94810ECE01F4
:102CA00090528115904308F4DD27CE010E94CA039B
:102CB000DF91CF9108959C0130522115304308F4E3
:102CC00099270E94E0030895AC0123E0969587952B
:102CD0002A95E1F78E719927FC01EE5AFC4F01907D
:102CE000F081E02D4F70552721E030E002C0220F27
:102CF000331F4A95E2F7611541F0E22BF32B8E5A10
:102D00009C4FDC01ED93FC93089520953095E223D0
:102D1000F323F5CF9C01FC0183E0F695E7958A95B6
:102D2000E1F7EE71FF27EE5AFC4F2F70332781E059
:102D300090E0AC0102C0440F551F2A95E2F79A01BA
:102D4000808191812823392381E0232B09F480E0BD
:102D50000895EF92FF920F931F93CF93DF93EC01AF
:102D60007B018A018091AE0182FF5DC020917B03CF
:102D700030917C032C173D0719F0209709F053C0C0
:102D80009091AE019B7F9093AE0161E091FD10C0E8
:102D900080917D0390917E03A701481B590B61E050
:102DA0008091AF019091B0014817590708F460E095
:102DB00061708091AE0160FB81F98093AE01C90121
:102DC0000E9464160E946D0E81FF08C08091AE01C2
:102DD00080618093AE0182E00E94760E0E946D0EAB
:102DE00085FF08C08091AE0180628093AE0180E2D1
:102DF0000E94760E6091AE0166956170A801809187
:102E00007B0390917C030E9447166091AE0166950A
:102E10006170A80180917B0390917C030E945B16F6
:102E20000E940F160FC0CE010E948A16682FA801BB
:102E3000CE010E945B1680917B0390917C03C817A2
:102E4000D90771F3F0927E03E0927D03CDB7DEB730
:102E5000E6E00C94792C8091AE0182FF19C00E94AB
:102E60001923BC0180917D0390917E039B01281B57
:102E7000390B8091AF019091B0012817390740F0CC
:102E800042E753E080917B0390917C030E94A91656
:102E900008959091AE01892F8E7F90FF816080937D
:102EA000AE010E940F1608958091AE018E7F80932F
:102EB000AE010E940F16089560E28091AF019091DB
:102EC000B0010E9441059C01C9012F5F3F4FFC01E9
:102ED00040814032C9F30E9419200895A0E0B0E07B
:102EE000E4E7F7E10C945C2CEC018B010E941923C0
:102EF000D82EE92EF8018581811509F485C08091CD
:102F0000AE0182FF08C042E753E06D2D792F80E0CB
:102F100090E00E94A916C331FCE7DF0799F118F58C
:102F2000C1318CE7D80709F462C0C231ECE7DE0793
:102F300009F467C08091AF019091B0010597C0314D
:102F4000FCE7DF0709F458C0CE0190528115904389
:102F5000A0F410927C0310927B0381E0CDB7DEB722
:102F6000E7E00C94782CC4312CE7D207E9F1C531A5
:102F70008CE7D80711F40E9449178091AE0180FFB9
:102F8000ECCF05C08091AE0181608093AE01B801A5
:102F9000CE010E943016F8019581811509F47CC09C
:102FA000911509F472C00E946D0EF82E0E94920EC7
:102FB0002F2D282B2D7F2115E9F110927C031092E3
:102FC0007B0360E0CE010E946416A80160E0CE01A0
:102FD0000E9447160E94920E8D7F0E94C30E82E0CF
:102FE0000E94660F80E0BACF0E945417C6CF80912E
:102FF000AF019091B00105969093B0018093AF011D
:10300000BCCF0E945C17B9CF8091AE018F7EC13ECC
:10301000D10531F0C53ED10531F48091AE018F7DEF
:103020008093AE01AACFCE0190528115904308F053
:10303000A4CF93CF89E0F801A2E7B3E001900D920D
:103040008A95E1F710927503109274030E946D0E39
:10305000182F0E94920E182B8091AE0111FB81F95E
:103060008093AE010E94920E8D7F0E94C30ED0937A
:103070007C03C0937B03D0927D03E0927E0380911A
:10308000AE0184608093AE01AACFA8016D2D7E2D84
:10309000CE010E94A916A6CF91115BCF5ECF0895F5
:1030A000EF92FF920F931F93CF93DF938091F203E0
:1030B000E0917F03CDE081112AC0CDB7DEB7E6E015
:1030C0000C94792CD1E0DE0FD0937F03EE2EF12CFF
:1030D000CE9FF0011124E657FC4F84818115B1F099
:1030E00087819085892BE1F4818592858F3F9807B0
:1030F000B9F061E00E944F18CE9DF001CF9DF00D18
:103100001124E657FC4F14820E948F0EED2F809100
:10311000F203E817B8F21092F20310927F03CDCFBA
:1031200000811181228133814481558166817781BB
:1031300080850E94CF0DE0CF0895CF93DF9310924A
:10314000F4031092F303C0E0D0E00E948903C81793
:10315000D90718F0DF91CF910895CE010E948C031A
:10316000FC018581811102C0148216822196EDCF67
:103170001F93CF93DF9310918803409189034117E8
:10318000D1F0C12FD0E0FE01EE0FFF1FE058FC4F41
:10319000208131812817390791F40E948C0321E0A6
:1031A000FC01248380918803811305C02196C3709C
:1031B000DD27C0938803DF91CF911F910895219659
:1031C0001C2F1370DCCFA0E0B0E0E9EEF8E10C9426
:1031D000562CDB0114962C91149721115AC0909013
:1031E000F203CAE8D3E040E050E0A12C61E070E0D7
:1031F000491508F04CC0CB84DC84ED90FC9011970D
:1032000077247A9488248A94B12C2B2D30E0F9010C
:10321000EE0FFF1FEE0DFF1D05911491C016D10694
:1032200011F0272D382D0115110521F0B394722EC0
:10323000832EEBCF2F3F320791F1FB0102C0EE0F3F
:10324000FF1F2A95E2F7AE2A9B010B2C02C0220F2A
:10325000331F0A94E2F721503109A2161306F1F444
:1032600012962D913C9113976DE0649FF001659F3C
:10327000F00D1124E657FC4F3087278324E0248388
:10328000108211828187928721E015962C930E94EB
:10329000B818CDB7DEB7EDE00C94722C1C824F5FEE
:1032A0005F4F2D96A5CF0F931F93CF93DF93C091C0
:1032B0008803809189038C1309C00E9450180E94D2
:1032C0009D18DF91CF911F910F910895D0E08E014D
:1032D000000F111F00581C4FF801808191810E943E
:1032E0008C03BC01F801808191810E94E318219632
:1032F000C370DFCFEF92FF921F93CF93DF93DC0178
:10330000CB012D913C91119710E040E050E0E52F6A
:10331000F0E0EE0FFF1FE20FF31F6591749161154E
:103320007105B9F0FC01C081D18140E005C06E1586
:103330007F0509F411E04F5FE42FF0E0EE0FFF1F6F
:10334000EC0FFD1FE590F490E114F10481F75F5F4D
:10335000DECF111549F0451708F0CD01DF91CF916F
:103360001F91FF90EF90089580E090E0F7CF80915B
:10337000B101811541F18091F5039091F603009719
:1033800011F10E9431232091F3033091F4032817A7
:103390003907C8F49091880380918903981759F0F0
:1033A0000E9453191092F4031092F3031092F60343
:1033B0001092F50308950E9450181092F60310928F
:1033C000F5030E949D1808951092F6031092F503DC
:1033D0001092B10180918903809388030E949D1807
:1033E0000E94501808958091B101811519F00E9432
:1033F000E419089581E08093B1010895AAE0B0E056
:10340000E4E0FAE10C94512C5C014B0180352CE78F
:10341000920769F4DB0115968C918115F1F081E03A
:103420008093B10181E02A96E2E10C946D2C813504
:10343000BCE79B0739F4FB018581811571F00E947F
:10344000E419F0CF82359C4741F4DB0115968C914D
:10345000811519F00E94F319E5CF20918A0230916D
:103460008B0280918C0290918D02822B932B0E9473
:103470006205182F0E949C18181731F0F401608122
:1034800071810E9468125C01612C712C1A8644249F
:103490004394512C0E94890368167906E8F1D401FF
:1034A00015968C91811509F455C1BA85B11509F4A9
:1034B00051C10E9419239093F6038093F5038091E4
:1034C000F203883028F591E0980F9093F20399E089
:1034D000F401DE01119601900D929A95E1F7EDE06D
:1034E0008E9FC001112486579C4F29E0FE01319622
:1034F000DC0101900D922A95E1F72FEF3FEFDC01FF
:103500001A963C932E9319971C96BC92AE921B97D9
:1035100081E0BA858B2787CFC3010E948C037C0191
:10352000DC018D919C916FEF3FEF20E0C22ED12CFA
:10353000F601EE0FFF1FE80FF91F45915491A416F5
:10354000B50611F0C62ED32E452B21F02F5F6C2D22
:103550003D2DECCF10E0BFEFCB16DB0609F44CC0DD
:10356000F70144811091B101812F411180E0182FA2
:103570001170D70115963C90159716968C91169759
:10358000F4019581911509F481C0111509F47EC0EB
:10359000311016C041E050E00C2C01C0440F0A94D9
:1035A000EAF7842B16968C938091F3039091F403A1
:1035B000C29730F482E390E09093F4038093F30396
:1035C000B20102C0660F771F2A95E2F79B012150D6
:1035D0003109D70116968C918217130669F48091F0
:1035E000F5039091F603009771F00E943123C39781
:1035F00050F081E0F7018483BA85B12BBA87EFEFF1
:103600006E1A7E0A47CF00918803E0E0F0E08091D7
:103610008903081312C0EE16FF0671F3802F90E0A5
:10362000FC01EE0FFF1FE058FC4F71826082019693
:103630008370992780938903DFCFC02ED12CF601A8
:10364000EE0FFF1FE058FC4F808191810E948C0398
:103650001C01B7010E947A19FC01009791F021E04A
:103660002483E816F90641F280918803081309C003
:103670002E163F0631F4C601019683709927809378
:103680008803C6010196082F0370C1CF90E0311066
:1036900023C0B20102C0660F771F2A95E2F79B0193
:1036A000215031098217930789F010E0F20102C01E
:1036B000EE0FFF1FCA94E2F76F01C094D701169670
:1036C0008C9116978C2116968C9396CF411571F399
:1036D000C3010E94B818E9CFAC010C2C02C055956B
:1036E00047950A94E2F79C012150310982239323E4
:1036F000892B69F540FF2BC0D70112968D919C91C3
:10370000892B01F187E0FE013196DF011D928A9538
:10371000E9F70E9419239C018B839C8384E08D83AD
:10372000F70192818381792F9887898709811A818E
:1037300044E05E816F810E94CF0DD70115961C92E7
:10374000132DB4CF60E0C3010E944F18F6CF142FA1
:103750001170ACCF9091880380918903981719F06C
:103760000E945319D5CE0E9450181092F603109261
:10377000F5030E949D18CCCECF93DF93EB018631E9
:103780009C4719F50E946D0E9D819115A1F08A7AD2
:1037900091E0811101C090E09093F703811549F009
:1037A00085E30E9402220E94350F80E0DF91CF91D5
:1037B000089589E2F6CF8091F703811521F085E322
:1037C0000E941922F0CF89E2FBCF81E0EFCFCF93A7
:1037D000DF93EC01FB018581811509F4D1C09E01C5
:1037E00030572332310508F0B1C00E94C10F9093C9
:1037F0001B0480931A04FE01E150F047E232F10508
:1038000020F4EE5EF24D0C944B2C80911A048160F2
:1038100080931A0492C080911B04886080931B04DB
:103820008CC080911A048260F3CF80911A04846066
:10383000EFCF80911A048860EBCF80911B048160E8
:10384000EDCF80911B048260E9CF80911A048061E2
:10385000DFCF80911A048062DBCF80911A048064EC
:10386000D7CF0E94830980911A048068D1CF8091BC
:103870001A048C60CDCF80911B048360CFCF8091E0
:103880001A048E7FC5CF80911B04877FC7CF80919C
:103890001A048D7FBDCF80911A048B7FB9CF8091A0
:1038A0001A04877FB5CF80911B048E7FB7CF80919C
:1038B0001B048D7FB3CF80911A048F7EA9CF809196
:1038C0001A048F7DA5CF80911A048F7BA1CF0E940F
:1038D000830980911A048F779BCF80911A04837F8C
:1038E00097CF80911B048C7F99CF80911A0482FB23
:1038F000992790F921E0922790FB82F990FB83F9B8
:1039000087CF80911B04982F909590FB80F990FBB6
:1039100081F984CF90911A04892F8F7B96FF806460
:1039200077CF0E94830990911A04892F97FB87F91A
:1039300080586ECF81E00E944F1080911A049091C0
:103940001B040E94C60F0E94830980E0DF91CF9183
:10395000089580E0F0CF90911A04892F8F7E94FF14
:10396000806156CF90911A04892F8E7F90FF8160DD
:103970004FCF90911B04892F877F93FF88604ECF94
:1039800081E0E4CF282F35EB2303C001112497FFFA
:1039900004C080589109892F089580589F4FFBCF0C
:1039A0008091FE0380FF0DC06091B70170E0660F4B
:1039B000771F60387105C0F561157105B9F1862F63
:1039C000089581FF07C06091B70184E0689FB0014E
:1039D0001124EFCF82FF04C06091B70188E0F6CFD9
:1039E0008091FD038115E9F09091B6016091B701D6
:1039F00070E0891730F093E0660F771F9A95E1F732
:103A0000D8CF869F9001879F300D112483E0220F2D
:103A1000331F8A95E1F7692F70E0C9010E94152CC8
:103A2000C8CF68E070E0CBCF8FE7089581E00895BC
:103A30008091FE0380FF0CC06091B30170E075952A
:103A40006795759567956115710561F1862F0895E4
:103A500081FF06C06091B30170E075956795F3CF63
:103A60006091B30170E082FD15C02091FC03211527
:103A7000B1F09091B2016091B30170E0291750F458
:103A8000269FA001279F500D1124692F70E0CA01C5
:103A90000E94152C60387105B0F28FE7089561E03F
:103AA00070E0D4CF81E00895909101042091020448
:103AB000922B20910404922B20910304922B9115B8
:103AC00031F098E09093FD0391E09093FC03E3E3E1
:103AD000E80FE331E0F5F0E0EC5CF24D0C944B2C98
:103AE0000E94D01C81958093020408950E94D01CEE
:103AF000FACF0E94D01C81958093010408950E9402
:103B0000D01CFACF0E94181D8093030408950E94D0
:103B1000181D8195F9CF0E94181D8195809304048A
:103B200008950E94181DFACF815D990B21E030E0C5
:103B300001C0220F8A95EAF780910004822B8093BE
:103B4000000408958091FE0381608093FE03089530
:103B50008091FE038260F9CF8091FE038460F5CFEF
:103B6000409101048D3C59F48091020487FF0DC0FF
:103B700010920204411559F41092FD0308C08E3CC6
:103B800081F48091020418169CF3411581F0809114
:103B9000030490910404892B811159C01092FC03F5
:103BA00008958F3C41F447FFF0CF109201048091BB
:103BB00002048115E0CF803D19F41416B4F3E5CF6B
:103BC00090910304893D29F41916FCF61092030420
:103BD000DCCF8A3D19F497FFD8CFF8CF9091040439
:103BE0008B3D29F497FFD1CF10920404CECF8C3DAA
:103BF00019F41916CCF3C9CF9FE2980F983090F4BE
:103C0000815D990B21E030E0B90102C0660F771F9A
:103C10008A95E2F7CB0180959091000489238093E7
:103C20000004B3CF8D3D31F48091FE038E7F8093ED
:103C3000FE03ABCF8E3D21F48091FE038D7FF7CF45
:103C40008F3D09F0A2CF8091FE038B7FF0CF0895C6
:103C50000E9419232091010430910204232B211585
:103C600021F08093FA039093FB0320910304309199
:103C70000404232B211521F08093F8039093F9037A
:103C80008FEF93E00E94F320089586E0EFEFF3E0DA
:103C9000DF011D928A95E9F71092FD031092FC0353
:103CA0001092FE030895FC01828181110DC0838171
:103CB00081110AC08481811107C081E09581911131
:103CC00001C080E08170089581E0FCCFA6E0B0E003
:103CD000ECE6FEE10C945E2C86E0EFEFF3E09E0153
:103CE0002F5F3F4FD90101900D928A95E1F7109215
:103CF00001041092020410920304109204048B81B8
:103D00009C81892B8901811589F08091FA0390911A
:103D1000FB030E9431239C018091FD038115B9F1C1
:103D20009091B8019217130608F43EC08D819E81D0
:103D3000892B811591F08091F8039091F9030E94ED
:103D400031239C018091FC03811509F466C0909198
:103D5000B4019217130608F46EC0B8018FEF93E018
:103D60000E944A22811105C08FEF93E00E94531EEA
:103D700081110E94281E86E0F801AFEFB3E00190A8
:103D80000D928A95E1F72696E5E00C947A2C409105
:103D9000B9019AE0499FA00111244217530730F658
:103DA0008F5F8093FD0302C08F3FD1F7FB80F1143A
:103DB00059F00E94D01C91E01F140CF09FEF899FD6
:103DC000802D112480930104FC80F11459F00E948D
:103DD000D01C91E01F140CF09FEF899F802D1124BF
:103DE0008093020480910104811509F49FCFF09023
:103DF0000204F11409F49ACF0E94C21C811101C07F
:103E000081E0809301048F2D0E94C21C811519F05E
:103E1000809302048BCF81E0FBCF4091B5019AE003
:103E2000499FA00111244217530708F096CF8F5FD6
:103E30008093FC0302C08F3FD1F7FD80F11459F04D
:103E40000E94181D91E01F140CF09FEF899F802D98
:103E5000112480930304FE80F11459F00E94181D70
:103E600091E01F140CF09FEF899F802D1124809307
:103E7000040480910304811509F46FCFF0900404C9
:103E8000F11409F46ACF0E94C21C811101C081E0C3
:103E9000809303048F2D0E94C21C811519F080931A
:103EA00004045BCF81E0FBCFA0E0B0E0EAE5FFE1F6
:103EB0000C945C2CE82FF0E0E65FFC4FD490282FA8
:103EC00026952695269530E0F901E655FC4F04919C
:103ED000877010E0082E02C0159507950A94E2F746
:103EE00001701127F901E656FC4FE490F12C082EE1
:103EF00002C0F594E7940A94E2F791E0E922FF24E6
:103F0000F901E657FC4FC491D0E002C0D595C795A2
:103F10008A95E2F7C170DD270115110519F081EED0
:103F20000E940C06E114F10419F086EE0E940C06C2
:103F30008D2D0E940B07E114F10419F086EE0E940A
:103F400099060115110519F081EE0E949906CD2BF5
:103F500019F08CE20E940B07CDB7DEB7E7E00C94B6
:103F6000782CEF92FF921F93CF93DF93EC01162FE3
:103F70008881811509F457C0813009F051C08981C9
:103F80008130A1F47E0182E0E80EF11C8A810E945A
:103F90000B07E7012196812F811551F3EFE9FFE02F
:103FA0003197F1F700C000008150F6CF823041F424
:103FB0007E01E2E0EE0EF11C8A810E940C06E9CF40
:103FC000833041F47E01F2E0EF0EF11C8A810E9401
:103FD0009906DFCF843011F02196DCCF2A8122961A
:103FE00080E090E06AE0AE014F5F5F4F2053330BFB
:103FF0002A30310550F0009769F2EFE9FFE0319780
:10400000F1F700C000000197F6CF689FF001699FAB
:10401000F00D1124C9018E0F9F1F2981EA01E3CF02
:104020000E94541FB7CFDF91CF911F91FF90EF9067
:10403000089560E00E94B11F08950F931F93CF93DE
:10404000DF93C42FD22FFC0185818115C9F04093E5
:1040500007040E941923909306048093050480E2CC
:104060008C0F883040F4C77081E001C0880FCA957A
:10407000EAF70E941407DF91CF911F910F910895E5
:1040800010910704141333C0809105049091060425
:104090000E943123883C910550F5C0E2CD0F1D17D9
:1040A000C1F080E2810F883040F4177081E001C0D8
:1040B000880F1A95EAF70E941B07C83050F491E068
:1040C0008D2F877001C0990F8A95EAF7892F0E947A
:1040D0001407802F0E940B07C83068F6D77081E064
:1040E00001C0880FDA95EAF70E941B07C4CF80E26F
:1040F0008C0F883008F0BFCFC77081E001C0880FF7
:10410000CA95EAF7F1CF0F93FC01CB01E851FC47C8
:10411000E730F10590F5E95BF24D0C944B2C06E28B
:1041200021EE41EE6AE17CE70E941D2080E00F91C4
:10413000089507E225EE45EE6BE17CE7F5CF06E258
:1041400021EE40EE68E17CE7EFCF07E225EE44EE9A
:1041500069E17CE7E9CF06E221EE42EE6CE17CE723
:10416000E3CF07E225EE46EE6DE17CE7DDCF08E226
:1041700021E045EE6EE17CE7D7CFFB01858181111F
:104180001092070481E0D3CF90930D0480930C0428
:104190000895E0910C04F0910D04309729F00190FE
:1041A000F081E02D0995089580E008950E94C920CE
:1041B0000895E0910C04F0910D04309721F00280F5
:1041C000F381E02D09950895DC01E0910C04F09154
:1041D0000D04309739F086E08C930480F581E02D52
:1041E000CD0109950895DC01E0910C04F0910D04D6
:1041F000309739F082E08C930680F781E02DCD0175
:1042000009950895A3E0B0E0E8E0F1E20C94612C98
:104210009C0180910A0490910B0482179307A1F0EE
:1042200030930B0420930A04E0910C04F0910D04E8
:10423000309751F083E089833B832A830084F185A2
:10424000E02DCE01019609952396E2E00C947D2C99
:10425000A3E0B0E0EEE2F1E20C94612C9C018091CD
:1042600008049091090482179307A1F03093090480
:1042700020930804E0910C04F0910D04309751F064
:1042800084E089833B832A830084F185E02DCE017D
:10429000019609952396E2E00C947D2C2091AC01C7
:1042A0003091AD012E5F3F4F8091DF018115C9F044
:1042B00080911A0487FF15C02091AA013091AB01AB
:1042C0002E5F3F4F6EE1A90180E0FA0190814F5FC0
:1042D0005F4F91118F5F962F941B920F9111F5CF25
:1042E000089566E0F0CF811529F19091DF019115D5
:1042F00019F190911A0497FF1FC0982F96959695E3
:104300009695803FB8F4E091AA01F091AB01E90FD6
:10431000F11D228130E0877041E050E0BA0102C017
:10432000660F771F8A95E2F7CB012623392381E0B8
:10433000232B91F480E008952091AC013091AD01E0
:10434000F9013296285F3F4F9191981721F0E217BB
:10435000F307D1F7EFCF81E008959C01FC0132967D
:104360008FEF90E04191461751F08F3F19F44111C2
:1043700001C0892F9F5F9630A9F78F3F09F40895F8
:10438000280F311D87FD3A95F901628308959C013C
:10439000FC013296285F3F4F8191861303C0DF01F5
:1043A00011971C92E217F307B9F70895FC01862FC5
:1043B000869586958695603F60F4E80FF11D6770DD
:1043C00021E030E001C0220F6A95EAF78281822B5A
:1043D00082830895FC01862F869586958695603F99
:1043E00080F4E80FF11D677081E090E09C0102C04D
:1043F000220F331F6A95E2F7B90160958281682325
:1044000062830895682F8091DF01811559F08091B2
:104410001A0487FF07C08091AA019091AB010E9406
:10442000D62108958091AC019091AD010E94AD21FB
:104430000895682F8091DF01811559F080911A0449
:1044400087FF07C08091AA019091AB010E94EA21E9
:1044500008958091AC019091AD010E94C72108950B
:104460008091DF01811579F080911A0487FF0BC0DC
:10447000E091AA01F091AB0132968EE1DF011D922D
:104480008A95E9F70895E091AC01F091AD0132967B
:1044900086E0F4CFDC01FB0111969C91119781819C
:1044A000981322C012968C911297811519F092815F
:1044B00089131AC013968C911397811519F0938163
:1044C000891312C015968C911597811519F0958155
:1044D00089130AC014969C91911521F081E02481E2
:1044E000291303C080E001C081E081700895089520
:1044F0000E94772208958F5F80930E040E94782295
:10450000089583E080930E040E94782208950E940B
:104510007B22089581E080930E040E947822089502
:104520000E948A220895089508950E949422089571
:10453000089508950E9493220895CF930E9498228F
:104540000E9476140E949922C0E08C2F0E94AF1323
:10455000892B31F4CF5FC330C1F780E0CF9108954C
:1045600081E0FCCF85B7806885BF85B7806885BF4F
:1045700008951F921FB61F9211248F939F93AF939C
:10458000BF9380910F04811113C0809128049091F2
:104590002904A0912A04B0912B044196A11DB11DBC
:1045A0008093280490932904A0932A04B0932B04A9
:1045B000BF91AF919F918F911F901FBE1F90189533
:1045C00080913004843031F10E94F20410920F0483
:1045D00088E190E020E40FB6F894A89580936000FD
:1045E0000FBE2093600083B7817F846083BF83B751
:1045F000816083BF7894889583B78E7F83BF0FB621
:10460000F894A89580916000886180936000109272
:1046100060000FBE08950E9483090E94F704089568
:1046200082E084BD93E095BD9AEF97BD80936E00C4
:1046300008952FB7F8948091280490912904A091AF
:104640002A04B0912B042FBF08952FB7F8946091DE
:1046500028047091290480912A0490912B042FBF83
:1046600008959C014FB7F8948091280490912904F3
:10467000A0912A04B0912B044FBF821B930B089585
:1046800078941F921FB61F9211248F939F93AF931C
:10469000BF938091280490912904A0912A04B0919D
:1046A0002B040196A11DB11D809328049093290429
:1046B000A0932A04B0932B04BF91AF919F918F9147
:1046C0001F901FBE1F90189587E797E790930108EA
:1046D0008093000888E19AE00FB6F894A89580933B
:1046E00060000FBE90936000FFCF88E19AE00FB6A4
:1046F000F894A895809360000FBE90936000FFCF60
:10470000809118040895282FCB01BA01309130040C
:104710003430D9F42F702093E9002FEF3091E80066
:1047200035FD06C035ED3A95F1F700002A95B1F751
:104730002091E80025FF09C040E050E00E94FE25DE
:104740008091E8008E778093E8000895BC0143E0F3
:1047500050E082E00E9483230895BC0146E050E0CF
:1047600082E00E9483230895BC0140E250E082E091
:104770000E9483230895CF93DF93D82FC92F48E059
:1047800050E0682F792F81E00E94832388E0ED2F8D
:10479000FC2FA0E1B4E001900D928A95E1F7DF9142
:1047A000CF91089580912F04811109C00E9485271F
:1047B0000E94E2278091E20084608093E2000895E5
:1047C00010922F0408950E948A22089560912C046B
:1047D00081E0611101C080E00E94812208959091E2
:1047E000300481E0943009F080E060912C040E9454
:1047F0008722089542E061EC81E00E94022742E2B4
:1048000061EC82E00E94022742E061EC83E00E94BA
:10481000022742E160E885E00E94022742E161E868
:1048200084E00E9402279091300481E0943009F0E6
:1048300080E060912C040E947B22089580913204D4
:10484000893009F44AC068F4823009F4A6C0833084
:1048500009F475C0813011F18AEB91E00E945B2B65
:1048600008958A3009F488C08B30B1F78091310403
:10487000813291F78091350490913604892B61F74C
:104880008091E800877F8093E8000E94362780911E
:1048900033048093DF010E948309DECF80913104CD
:1048A000813AD1F68091E800877F8093E80080917B
:1048B000350490913604892B61F060E080E090E04F
:1048C00070E00E944D268091E8008B778093E8008D
:1048D000C3CF68E080E194E0F3CF8091310481326E
:1048E00009F0BACF8091350490913604029708F010
:1048F000B3CF8091E800877F8093E8008091E80043
:1049000082FF18C09091F3008091F200029731F479
:104910008091F100813011F0863021F48091F10016
:10492000809318048091E8008B778093E8000E94C0
:10493000362792CF809130048111E0CF0895809185
:104940003104813A09F088CF809135049091360482
:10495000892B09F081CF8091E800877F8093E80060
:104960008091E80080FFFCCF8091DF018093F1000F
:104970008091E8008E77D9CF80913104813209F09F
:104980006BCF8091E800877F8093E8000E943627F4
:1049900080913404809319045FCF80913104813A6F
:1049A00009F05ACF8091E800877F8093E8008091DA
:1049B000E80080FFFCCF80911904D8CF82E090E01E
:1049C0009093CD018093CC018AEB91E00E941F2B44
:1049D00008950895CF93DF938AEB91E00E94C72A50
:1049E000EC01209719F4DF91CF9108958AEB91E0C3
:1049F0000E94EF2A0E94E9242197F3CFCF93909150
:104A0000E900C091EC002091CA0120FF15C0C795B4
:104A1000CC27C7959F70C92B9091BB019F70909335
:104A2000E9009091EB0090FF04C09091EE0097FD9B
:104A300005C0CF70C093E900CF9108959FEF2091FA
:104A4000E80025FD06C025ED2A95F1F700009A95AE
:104A5000B1F78093F1008AEB91E00E94802A809167
:104A6000E80080FFE6CF8091E8008E778093E80031
:104A7000E0CF84B7877F84BF0FB6F894A895809164
:104A80006000886180936000109260000FBE80E833
:104A900090E00FB6F89480936100909361000FBE90
:104AA0000E94902208950E9485270E94E227E2EE4C
:104AB000F0E080818460808378940E94662A089563
:104AC00085ED91E00E94C4200895809130048530E6
:104AD00031F480913004853019F00E940B23089541
:104AE0000E94E02280912E04811599F30E949D225C
:104AF000811579F30E94E8250E948309EACF0E947C
:104B0000EA248AEB91E00E94AE2A08959A0140912E
:104B10003704509138040E948E250895AC01CB01D2
:104B2000D901252F332723303105D1F070F42130FE
:104B3000310509F43EC02230310569F488E790E080
:104B400020EF33E02D933C93089521323105E9F0B5
:104B50002232310521F180E090E020E030E0F2CF18
:104B6000CA019927413059F08230910559F0ECEE95
:104B7000F3E0892B81F7849190E09F01E3CFECEC87
:104B8000F3E0F9CFEAEBF3E0F6CF892BB9F061302F
:104B9000710509F789E090E02BE134E0D3CF892B50
:104BA00091F061307105B9F686EB90E02AE734E0C8
:104BB000C9CF82E190E028E634E0C4CF89E090E0FC
:104BC00022E034E0BFCF84E490E020E335E0BACFC8
:104BD00080E189BD82E189BD09B400FEFDCF8091ED
:104BE000D8008F7D8093D8008091E0008260809310
:104BF000E0008091E00081FDFCCF0895AF92BF926C
:104C0000CF92DF92FF920F931F93CF93DF936C01AC
:104C1000EB018A010E945527F82E811123C001154E
:104C2000110539F0F80180819181C81BD90BC80E9C
:104C3000D91EA12CB12C2097A9F08091E80085FD08
:104C400022C08091E8008E778093E800011511055D
:104C5000A1F0F801808191818A0D9B1D9183808351
:104C600085E0F82E8F2DDF91CF911F910F91FF904E
:104C7000DF90CF90BF90AF9008950E945527811587
:104C8000D1F2F82EEFCFF60181916F018093F10000
:104C90002197FFEFAF1ABF0ACECFFC019B01809195
:104CA0003704909138048617970718F0672B61F046
:104CB000C90140E0009771F441110CC08091E800F7
:104CC00082FF35C080E008958091E8008E77809360
:104CD000E800EECF209130042115A9F12530A9F18B
:104CE0002091E80023FD2DC02091E80022FDE6CFB1
:104CF0002091E80020FFDECF3091F3002091F200F8
:104D0000009719F02830310558F041E0283031057E
:104D100009F040E02091E8002E772093E800CACF08
:104D200041914093F10001972F5F3F4FE9CF809170
:104D30003004811541F0853041F08091E80083FF17
:104D4000BDCF81E0089582E0089583E00895FC01DD
:104D50009B0180913704909138048617970718F0CB
:104D6000672B61F0C90140E0009771F441110CC05C
:104D70008091E80082FF36C080E008958091E800CD
:104D80008E778093E800EECF209130042115B1F1A9
:104D90002530B1F12091E80023FD2EC02091E800DC
:104DA00022FDE6CF2091E80020FFDECF3091F30016
:104DB0002091F200009719F02830310558F041E0B9
:104DC0002830310509F040E02091E8002E7720934B
:104DD000E800CACF44914093F100319601972F5FCC
:104DE0003F4FE8CF80913004811541F0853041F08C
:104DF0008091E80083FFBCCF81E0089582E00895B0
:104E000083E00895982F973028F08F708093E90001
:104E100081E008959093E900242F762F50E09817B1
:104E200031F07091EC002091ED005091F00021FDE7
:104E300002C09F5FE8CF3091EB003E7F3093EB00E4
:104E40003091ED003D7F3093ED003091EB0031600B
:104E50003093EB007093EC002093ED005093F00042
:104E60002091EE0027FDE5CF80E008958091310488
:104E700087FF13C08091E80082FF06C08091E800A0
:104E80008B778093E8000895809130048111F2CFF0
:104E90000895809130048115D9F38091E80080FF56
:104EA000F8CF8091E8008E77ECCF2091E40030912C
:104EB000E50095E6A9018091EC008170811531F043
:104EC0008091E80080FF06C080E008952091E8000E
:104ED00022FD1AC080913004811589F0853089F057
:104EE0008091EB0085FD0FC02091E4003091E5003A
:104EF0004217530701F39A95E9F684E0089582E09A
:104F0000089583E0089581E008950E94F4270E94A7
:104F1000FC27E0EEF0E0808181608083E8EDF0E046
:104F200080818F77808319BCA7EDB0E08C918E7F54
:104F30008C9380818F7E808310922F0408950F932D
:104F40001F93CF93DF930E94F4270E94FC27C8EDA4
:104F5000D0E088818F778883888180688883888182
:104F60008F7D888319BC1092300410922C0410920B
:104F70002E0410922D0400EE10E0F80180818B7F4A
:104F8000808388818160888342E060E080E00E94C5
:104F90000227E1EEF0E080818E7F8083E2EEF0E098
:104FA000808181608083808188608083F801808136
:104FB0008E7F8083888180618883DF91CF911F916C
:104FC0000F910895E8EDF0E080818F7E8083E7ED1A
:104FD000F0E080818160808384E082BF81E0809303
:104FE0002F040E949F270895E8EDF0E080818E7FD6
:104FF00080831092E20008951092DA001092E1008E
:1050000008951F920F920FB60F9211242F933F9382
:105010004F935F936F937F938F939F93AF93BF93C0
:10502000EF93FF938091E10082FF0BC08091E2003B
:1050300082FF07C08091E1008B7F8093E1000E9496
:10504000652A8091DA0080FF19C08091D80080FF26
:1050500015C08091DA008E7F8093DA008091D900AC
:1050600080FF94C080E189BD82E189BD09B400FE62
:10507000FDCF81E0809330040E94D2238091E10033
:1050800080FF19C08091E20080FF15C08091E2008E
:105090008E7F8093E2008091E20080618093E20045
:1050A0008091D80080628093D80019BC85E08093FD
:1050B00030040E94E6238091E10084FF29C08091A2
:1050C000E20084FF25C080E189BD82E189BD09B489
:1050D00000FEFDCF8091D8008F7D8093D800809115
:1050E000E1008F7E8093E1008091E2008F7E8093CB
:1050F000E2008091E20081608093E20080912C04C4
:10510000811509F449C084E0809330040E94EF23A4
:105110008091E10083FF29C08091E20083FF25C0D8
:105120008091E100877F8093E10082E080933004EA
:1051300010922C048091E1008E7F8093E100809199
:10514000E2008E7F8093E2008091E2008061809394
:10515000E20042E060E080E00E9402278091F000DF
:1051600088608093F0000E94E323FF91EF91BF914C
:10517000AF919F918F917F916F915F914F913F91EF
:105180002F910F900FBE0F901F90189519BC109281
:1051900030040E94E02372CF8091E30087FF02C0B9
:1051A00083E0B2CF81E0B0CF1F920F920FB60F9283
:1051B0001124FF920F931F932F933F934F935F936D
:1051C0006F937F938F939F93AF93BF93CF93DF930F
:1051D000EF93FF9309EE10E0F8018081C091EC009D
:1051E000C795CC27C7958F70FC2EF82A1082C0EF88
:1051F000D0E08881877F888378940E941D29F801F8
:105200001082888188608883CF2DCF70C083FF9102
:10521000EF91DF91CF91BF91AF919F918F917F914E
:105220006F915F914F913F912F911F910F91FF903F
:105230000F900FBE0F901F901895AAE2B0E0E3E226
:10524000F9E20C94602C81E394E0FC01019620913A
:10525000F100208324E089339207B9F70E941E24CD
:105260008091E80083FF39C080913104909132042D
:105270009A3098F5E92FF0E0E25BF24D0C944B2C5C
:10528000803889F0823849F5809135048F708730F5
:1052900020F58093E9008091EB0085FB882780F959
:1052A0001092E90007C090912E0491959270809120
:1052B0002D04892B9091E800977F9093E8008093CC
:1052C000F1001092F1008091E8008E7723C08111E7
:1052D00016C080913304813011F18091E80083FF82
:1052E0000AC08091E800877F8093E8008091EB00FE
:1052F00080628093EB00AA96E3E00C947C2C8230D1
:1053000061F780913304811589F01092E900809152
:10531000E800877F8093E8000E943627DECF81E097
:10532000933009F080E080932E04EFCF8091350414
:105330008F702FEF280F263080F68093E9002091A0
:10534000EB0020FFE2CF933031F48091EB008062DC
:105350008093EB00DACF9091EB0090619093EB009B
:1053600021E030E0A90102C0440F551F8A95E2F701
:105370004093EA001092EA008091EB008860E8CF49
:105380008111ABCF109133041F778091E3008078B7
:10539000812B8093E3008091E800877F8093E80071
:1053A0000E9436278091E80080FFFCCF8091E300C7
:1053B00080688093E30083E0111101C082E0809354
:1053C00030048BCF8058823008F087CF809133042F
:1053D000909134048C3D53E0950799F583E08A83DE
:1053E0008AE289834FB7F894DE01139620E03EE00D
:1053F00051E2E32FF0E050935700849120FF03C067
:1054000082958F703F5F8F708A30C8F0895C90E022
:105410008D939D932F5F243161F74FBF8091E800FA
:10542000877F8093E8006AE270E0CE0101960E94D7
:105430004D268091E8008B778093E8004ECF805D09
:10544000E6CF6091350470913604AE014F5F5F4F37
:105450000E948625BC01892B09F43FCF8091E8008A
:10546000877F8093E80089819A810E94A726E1CFF7
:10547000803809F032CF8091E800877F8093E80080
:1054800080912C048093F1001ECF811126CF909142
:105490003304923008F021CF8091E800877F809319
:1054A000E80090932C040E94362780912C048115EB
:1054B00031F084E0809330040E94FA230ECF809173
:1054C000E30087FDF6CF81E0F5CF0895CF9380917B
:1054D0003004811599F08091E900C091EC00C795E6
:1054E000CC27C7958F70C82B1092E9008091E800F7
:1054F00083FD0E941D29CF70C093E900CF910895CC
:10550000FC0180913004843039F584899589A6891D
:10551000B789892B8A2B8B2BF9F081818F7080932F
:10552000E9009091F3008091F200892B11F480E062
:1055300008959091E8008091E8008E778093E800CC
:1055400095FDF5CF0E945527811107C09091E80085
:105550009E779093E800089582E00895FC01809181
:105560003004843099F484899589A689B789892B78
:105570008A2B8B2B59F081818F708093E900809169
:10558000E80080FF03C0CF010E94802A0895FC013B
:10559000809130048430D9F484899589A689B789AB
:1055A000892B8A2B8B2B99F086818F708093E90051
:1055B0008091E80082FF0BC09091F3008091F2008F
:1055C000892B41F48091E8008B778093E80080E09C
:1055D00090E008959091F3008091F2000895FC010D
:1055E00080913004843019F08FEF9FEF0895848903
:1055F0009589A689B789892B8A2B8B2BA9F386815C
:105600008F708093E9008091E80082FFEDCF909148
:10561000F3008091F200892B79F08091F10090E005
:105620003091F3002091F200232B29F42091E8001F
:105630002B772093E80008958FEF9FEFF1CFA8E03C
:10564000B0E0E5E2FBE20C945F2C8C018091300429
:10565000843059F5F80184899589A689B789892B01
:105660008A2B8B2B11F183858F708093E90088E062
:10567000E0EEF1E0DE01119601900D928A95E1F7DE
:1056800040E050E068E070E0CE0101960E94FE2507
:1056900040E050E062E070E0C80142960E94FE25C2
:1056A0008091E8008E778093E8002896E4E00C94DF
:1056B0007B2C08950895CF93DF93EC018091E8004F
:1056C00083FF13C0288180913504909136042817F8
:1056D000190659F480913204823209F484C040F4EE
:1056E000803209F44DC08132B1F0DF91CF9108953D
:1056F0008332D9F7809131048132B9F78091E80083
:10570000877F8093E8000E94362760913304CE01A2
:105710000E945A2BEACF80913104813A31F780916F
:10572000E800877F8093E8008091E80080FFFCCF4D
:105730008C899D89AE89BF898093F100492F5A2FAA
:105740006B2F77274093F100AD01662777274093B1
:10575000F1008B2F9927AA27BB278093F100888D12
:105760008093F100898D8093F1008A8D8093F10000
:105770008091E8008E778093E8000E943627B5CFAD
:1057800080913104813209F0B0CF8091E800877FA9
:105790008093E8008091E80082FF20C03091F10002
:1057A0002091F1009091F1008091F1003C8B2D8BC4
:1057B0009E8B8F8B8091F100888F8091F100898F73
:1057C0008091F1008A8F8091E8008B778093E800C8
:1057D0000E943627CE010E94592B87CF809130043A
:1057E0008111D8CF82CF80913104813209F07DCFF1
:1057F0008091E800877F8093E8000E94362780919F
:10580000330490913404998B888BCE010E94592BDC
:105810006CCF991B79E004C0991F961708F0961B6E
:10582000881F7A95C9F78095089597FB072E16F47F
:10583000009407D077FD09D00E94882C07FC05D082
:105840003EF4909581959F4F0895709561957F4F97
:105850000895A1E21A2EAA1BBB1BFD010DC0AA1FB1
:10586000BB1FEE1FFF1FA217B307E407F50720F0C9
:10587000A21BB30BE40BF50B661F771F881F991F44
:105880001A9469F760957095809590959B01AC018D
:10589000BD01CF010895EE0FFF1F0590F491E02D9B
:1058A00009942F923F924F925F926F927F928F92C4
:1058B0009F92AF92BF92CF92DF92EF92FF920F939F
:1058C0001F93CF93DF93CDB7DEB7CA1BDB0B0FB6A9
:1058D000F894DEBF0FBECDBF09942A883988488866
:1058E0005F846E847D848C849B84AA84B984C884FC
:1058F000DF80EE80FD800C811B81AA81B981CE0FF3
:10590000D11D0FB6F894DEBF0FBECDBFED010895D7
:10591000AA1BBB1B51E107C0AA1FBB1FA617B707D5
:1059200010F0A61BB70B881F991F5A95A9F78095F1
:105930009095BC01CD010895FB01DC0104C08D915F
:105940000190801921F441505040C8F7881B990BF1
:105950000895FB01DC0102C001900D9241505040BE
:10596000D8F70895F999FECF92BD81BDF89A99278D
:1059700080B50895A8E1B0E042E050E00C94F62C28
:10598000DC01A40FB51F4150504048F0CB01840FFB
:10599000951F2E910E94D12C41505040D0F7089570
:1059A000262FF999FECF92BD81BDF89A019700B4D8
:1059B000021639F01FBA20BD0FB6F894FA9AF99A78
:1059C0000FBE08950396272F0E94D12C0E94D02C41
:1059D000252F0E94D12C242F0C94D12C0196272FF7
:1059E0000E94D12C0C94D02CDC01CB01FC01F99944
:1059F000FECF06C0F2BDE1BDF89A319600B40D921B
:105A000041505040B8F70895F894FFCF6007600701
:105A1000A707A7070C0829088F078F072E08A508D6
:105A2000B608B6083F1CB21C471C111C151C4B1CA9
:105A3000191C4F1C5B1C251CAB1C291C5F1C2D1C3E
:105A4000631C8A1C311C671C911C371C6D1C751C47
:105A50001D1C531C211C571C3B1C711C811C9A1CB7
:105A6000A91C0B1C431CB91C701D761D791D7F1DC4
:105A7000941D941D941D941D941D941D941D941D9E
:105A8000821D871D8B1D911DA21DA81DAC1D9F2071
:105A9000A5208F209920AB20B120B720402967296D
:105AA0006D2967296D29C029E2296D29382A452ADF
:105AB000C4020400000000BE021600000000B6028E
:105AC000D102000000B0020700000000AA02090095
:105AD000000000A4020A000000009E020B0000006B
