:100000000C94BA020C94D7020C94D7020C94D70229
:100010000C94D7020C94D7020C94D7020C94D702FC
:100020000C94D7020C94D7020C94F0270C94C3289C
:100030000C94A8220C94D7020C94D7020C94D702EB
:100040000C94D7020C94D7020C94D7020C94D702CC
:100050000C94D7020C942F230C94D7020C94D70243
:100060000C94D7020C94D7020C94D7020C94D702AC
:100070000C94D7020C94D7020C94D7020C94D7029C
:100080000C94D7020C94D7020C94D7020C94D7028C
:100090000C94D7020C94D7020C94D7020C94D7027C
:1000A0000C94D7020C94D7020C94D702C774C9746D
:1000B000CB74CD74D174D674DA74DC74DE74E074ED
:1000C000E274C874CA74CC74CE74D274D774DB74FE
:1000D000DD74DF74E174E97400000000447ECF74C5
:1000E000D074D874D974C2740000000000000000FD
:1000F0000000000000000000AC00AA00A900AB0056
:1001000000000000E100E000E300E2002C005000ED
:10011000510052004F0000000000000000000100EC
:10012000C17400002C22000000000000000000004C
:1001300014001A000800150017001C0018000C001D
:10014000120013002A001D001B0006001900050004
:10015000110010003600370038004C00000000008D
:10016000E000E300E2002C22417E427E000000001D
:1001700000003A003B003C003D003E003F004000D4
:1001800041004200430044000000000000002B003A
:100190002900AC00AA00A900AB00AE004500000099
:1001A0000000E000E300E2002C220100010000005A
:1001B000000000001E001F0020002100220023007C
:1001C00024002500260027002A003500000000003A
:1001D0002B00290046002D002E002F00300031009A
:1001E00000000000E000E300E2002C22010001001A
:1001F00000000000000000000000000000000000FF
:1002000000000000000000000000000000000000EE
:1002100000000000000000000000000000000000DE
:10022000000000000000437E00000000000001000C
:1002300001000000000000004200AB00000041008F
:10024000A90000004000AA0000003F00AC00000030
:1002500044004500000026002F00000025002E006D
:10026000000024002D0000002300460000002A00AA
:10027000310000001E0035000000190010000000D1
:100280002A004C0000001300380000001200370064
:1002900000000C00360000001800100000001C00D8
:1002A00011000000170005000000150019000000F3
:1002B0000800060000001A001B00060000001A00DB
:1002C0001B00000014001D00000000D0D0D0D0D0D2
:1002D000D0010102040810204142444848000000B7
:1002E000484850608182848890A0C1C2C4D0D0D0D8
:1002F000D0D0D0C8000000000000000000000000C6
:1003000000000000000000000000000000000000ED
:1003100000002A2B28000000000000000000000060
:10032000000000000029000000002C1E34202122C3
:1003300024342627252E362D3738271E1F2021222C
:10034000232425263333362E37381F0405060708A5
:10035000090A0B0C0D0E0F10111213141516171895
:10036000191A1B1C1D2F3130232D350405060708D3
:10037000090A0B0C0D0E0F10111213141516171875
:10038000191A1B1C1D2F3130354C000000000000D5
:10039000000000000000000000000000000000005D
:1003A00000000000000000000000000000007E0FC0
:1003B00000D4FFFFFFC7000000781003540068005E
:1003C0006500200055006E00690000001E037300E8
:1003D000740065006E006F006B00650079006200BC
:1003E0006F006100720064007300000004030904E0
:1003F00009027800040100A0FA09040000010301C9
:1004000001000921110100012244000705810308B0
:10041000000109040100010300000009211101008D
:100420000122B60007058203200001080B02020228
:10043000020100090402000102020100052400106B
:1004400001042402020524060203070583030800B1
:10045000FF09040300020A0000000705050210005E
:10046000050705840210000512010002EF020108D1
:100470000090010001000102000105010902A10133
:1004800085020901A10005091901290815002501A6
:100490009508750181020501093009311581257F13
:1004A00095027508810609381581257F9501750823
:1004B0008106050C0A38021581257F950175088192
:1004C00006C0C005010980A101850319012AB700F2
:1004D000150126B700950175108100C0050C0901B2
:1004E000A101850419012AA002150126A002950187
:1004F00075108100C005010906A1018506050719CF
:10050000E029E71500250195087501810205071905
:100510000029EF1500250195F075018102050819E4
:10052000012905950575019102950175039101C099
:1005300005010906A101050719E029E715002501B4
:10054000950875018102950175088101050719005B
:1005500029FF150026FF009506750881000508197A
:100560000129051500250195057501910295017573
:10057000039101C011241FBECFEFDAE0DEBFCDBF73
:1005800012E0A0E0B1E0E2E5FBE502C005900D92CB
:10059000AE37B107D9F724E0AEE7B2E001C01D9253
:1005A000A535B207E1F70E9419150C94552D0C944E
:1005B000000080E00E9473150895FB0182342EE74D
:1005C000920709F46DC050F480342EE79207F9F0D9
:1005D00081349E4709F454C081E0089583342EE7A6
:1005E000920701F184349E47B9F78581811511F195
:1005F0000E9408238093800290938102809184025C
:100600008F5F8093840281E00E94290A09C085815E
:10061000811531F082E00E94290A82E00E941D0AC1
:1006200080E0089585818115D9F380E00E94290A30
:1006300080E0F4CF80918002909181020E9420237B
:10064000843F914068F480918402823048F080E0D9
:100650000E94390A82E00E94290A82E00E941D0A53
:1006600081E00E94390A8091820290918302892B55
:10067000B9F60E9408238093820290938302D0CF20
:100680008581811521F084E00E94290A03C084E05D
:100690000E94390A45E063E084E00E94870BC0CFE6
:1006A0008581811511F083E0EFCF83E0F1CF809158
:1006B000820290918302009759F00E942023853F87
:1006C000914030F0109284021092820210928302C4
:1006D00008958630B8F46330A8F44B3098F450E0B5
:1006E0009BE0699F400D511D1124FA0191E2899F01
:1006F000E00DF11D1124EE0FFF1FE455FF4F859112
:100700009591089581E090E008950E94690308950D
:1007100088E190E0089547E0489F9001499F300D9F
:100720001124C90180509F4F08959C0191509F3121
:10073000B0F4832F817034FF0AC08295807F31FD31
:10074000806232FD806433FF0BC08068089531FD04
:10075000826032FD846033FF03C08860089580E0CA
:100760000895A2E0B0E0E7EBF3E00C94B22C6983CB
:100770007A830E949503E981FA8109952296E2E045
:100780000C94CE2CCF93DF93EC01805E91090897F7
:1007900020F06EE679E0209711F464E277E0CE0174
:1007A0000E94B1038C2F0E941006DF91CF91089513
:1007B000CF93DF93EC010E949E06CE01805E9109EB
:1007C000089720F065E779E0209711F46BE277E075
:1007D000CE010E94B103DF91CF91089581E0089589
:1007E0000E94EE03089581E008950E94DD020895BD
:1007F00008950E94F8030895A7E0B0E0E2E0F4E075
:100800000C94B22C49835A839E8330919102898142
:100810009A8131111AC03E81311599F0211589F064
:100820000E94EE0A8F83682F89819A810E94CA0AEA
:1008300069817A818F810E947F122796E2E00C9471
:10084000CE2C0E94DC0A8F83F3CF0E94EE0A6981CE
:100850007A81F1CFFC01262F87819085009741F4A2
:100860004081518162817381848195810E94FC0362
:100870000895A4E0B0E0EFE3F4E00C94B22C8B8395
:100880009C8361E00E942A0489839A836B817C8126
:100890000E94F003811531F06B817C8189819A81FE
:1008A0000E940F1A2496E2E00C94CE2CA2E0B0E055
:1008B000ECE5F4E00C94B22C89839A8360E00E940A
:1008C0002A0469817A810E94F9032296E2E00C945D
:1008D000CE2C81E008950E9469040895A1E0B0E063
:1008E000E4E7F4E00C94B22C89830E949209898198
:1008F0000E946B042FEF84E39CE0215080409040E5
:10090000E1F700C000002196E2E00C94CE2C81E0DB
:100910000E946E040E945323089580E00E946E049A
:100920000E94642308950F931F93CF93DF938C014C
:1009300061E00E942A04EC01B8010E94F5038115D0
:1009400009F442C0B801CE010E948E158115E1F173
:10095000B801CE010E947D178115B1F1B801CE0119
:100960000E948220811581F1B801CE010E94F31B03
:10097000811551F1B801CE010E94C01B811521F1F2
:10098000F8018581811581F0CA35FCE7DF0739F16F
:1009900078F4C130ECE7DE07F9F0C330FCE7DF079D
:1009A000C9F0C115DC4771F0C8010E94F3030DC006
:1009B000CB35ECE7DE07B1F0CC35DC47A9F70E9478
:1009C000A50FF2CF0E94870480E0DF91CF911F91A5
:1009D0000F9108950E94B60F0E948D04F5CF0E94DA
:1009E000AE0FE2CF0E94B20FDFCF0E9484220E949E
:1009F000A70508950E94AB050E9489220895A3E0EF
:100A0000B0E0E5E0F5E00C94A82C7C0149015A0126
:100A100009836B0181E0C81AD108F701EC0DFD1DB7
:100A200010826E0D7F1DFB013197EA83FB8300E08E
:100A300010E00C151D0528F0C7012396ECE00C947E
:100A4000C42CB401C5012AE030E040E050E00E942F
:100A50007A2C605D603341F40115110529F0892875
:100A60008A288B2809F46981EA81FB816293EA83F1
:100A7000FB8349015A010F5F1F4FDBCF0F9320917A
:100A8000A8013091A9012817390721F420918B0280
:100A9000261791F08093A8019093A90160938B028F
:100AA0009C0140E050E0062F66E070E085E892E0AF
:100AB0000E94FF040F91089585E892E0FBCF292F53
:100AC00030E048E0911102C09C0140E0C90164E0BF
:100AD000969587956A95E1F7009711F04C5F9C0118
:100AE000C9019695879596958795009711F04E5F69
:100AF0009C01C90196958795840F0895089581E01A
:100B000008950895A2E0B0E0E8E8F5E00C94B22C76
:100B10008A830E947F058983811519F08A810E944A
:100B2000810589812296E2E00C94CE2C0895A1E003
:100B3000B0E0EDE9F5E00C94B22C89830E947E05CB
:100B400089810E9482052196E2E00C94CE2C80E0FF
:100B50000E94970508950E94C8200E949705089555
:100B6000CF930E94C820C82F80918C028C1779F0F7
:100B7000C0938C020E94142360938D0270938E02A6
:100B800080938F02909390028C2F0E949705CF91B3
:100B90000895AFE0B0E0EFECF5E00C94B02C4A879C
:100BA0005B876C877D878E879F8791110E94A50E3A
:100BB0001F821886198686E0FE013A96DE0111969C
:100BC00001900D928A95E1F78D8181110FC0098105
:100BD0001A812B813C814D815E816F817885898569
:100BE0000E94E80D2F96E4E00C94CC2CCE010196E7
:100BF0000E9439048111EBCFF5CFFC012481213013
:100C000021F4808191810E94250B0895611529F0BE
:100C10000E94561D0E94271E08950E94B01DFACF03
:100C2000CF93C82F8115C9F08238C9F40E94D5200E
:100C300081FD13C089E30E94F1210E94490F2FEF2B
:100C400037EE83E0215030408040E1F700C00000E3
:100C500089E30E9408220E94490FCF9108958338AA
:100C6000A1F40E94D52080FDF8CF83E50E94F121F8
:100C70000E94490F9FEF21EE34E091502040304018
:100C8000E1F700C0000083E5E4CF8438A1F40E94BE
:100C9000D52082FDE2CF87E40E94F1210E94490F16
:100CA0008FEF91EE24E0815090402040E1F700C0AA
:100CB000000087E4CECF8CEF8C0F813A70F48C2F3C
:100CC0000E946B21811529F08C2F0E9408220E941E
:100CD000490F8C2F0E94F121BECF80E28C0F88300B
:100CE00050F481E0C1FD84E0C0FD880FC2FD829513
:100CF0000E94860EB0CF8BE58C0F833038F42C2FFA
:100D00002452330BC9010E94FF20A7CFE8E5EC0F66
:100D1000EB3150F4F0E0EE0FFF1FEC5FFD4F8081F0
:100D200091810E94242199CF83E38C0F833108F0B5
:100D300094CF61E08C2F0E9406068FCF811509F4B5
:100D400057C0823879F40E94D52081FF51C089E3D1
:100D50000E94F1210E94490F89E30E9408220E940B
:100D6000490F0895833859F40E94D52080FF40C070
:100D700083E50E94F1210E94490F83E5EECF84387C
:100D800059F40E94D52082FF33C087E40E94F121EC
:100D90000E94490F87E4E1CF9CEF980F913AE8F267
:100DA00090E2980F983058F4982F81E091FD84E0FC
:100DB00090FD880F92FD82950E948C0ED0CF9BE50E
:100DC000980F933028F480E090E00E94FF2008956F
:100DD00098E5980F9B3128F480E090E00E94242150
:100DE000089593E3980F933118F460E00E9406068B
:100DF0000895A3E0B0E0EFEFF6E00C94B22C898305
:100E00006A837B830E9410068A819B81892B39F437
:100E100089810E949E062396E2E00C94CE2C8FE9F5
:100E20009FE00197F1F700C000008A819B81019744
:100E30008A839B83E9CF60E570E0893311F060E03D
:100E400070E00E94F9060895811521F00E94860E37
:100E50000E94490F0895811521F00E948C0E0E9476
:100E6000490F0895A0E0B0E0E8E3F7E00C94AC2C63
:100E70006C01D62FC72FFC011581068102950F70DA
:100E80000E947B0EE82E8115F9F0E12E1115E1F09C
:100E90008C2F807F803461F080E28D0F8830F0F0FD
:100EA0008C2F807E803221F4D230C0F00115B1F059
:100EB0008091370482FF12C082E00E94790F0E9465
:100EC0007B0E91E0E82EE926EC2FE295EF70C03C16
:100ED000B0F5F0E0E95AF24D0C949C2CE12CF4CFE3
:100EE0000C2F0F70C03110F00295007F111599F092
:100EF000011559F080E28D0F883010F0D11107C034
:100F0000802F0E94860E0E94490F8D2F50C0802F87
:100F10000E94970EF8CF8D2F0E949E06011579F042
:100F200080E28D0F883010F0D11104C0802F0E9414
:100F30008C0E03C0802F0E949D0E0E94490FE11469
:100F400089F00E94770E80FD0DC0F60115820E9487
:100F5000710E0E94290AC6010E944B090E94710E5F
:100F60000E94390ACDB7DEB7E8E00C94C82CFC2FFC
:100F7000FF70FF2EC07FC03219F0F29480EFF8228C
:100F8000D13038F0C9F1111509F443C00115F1F061
:100F9000BCCF8091370482FD15C0111559F0F114B2
:100FA00029F08F2D0E94860E0E94490F80E00E943A
:100FB0001006C5CF80E00E949E06F11409F4BFCF51
:100FC0008F2DB5CF111561F0013020F48F2D0E94C7
:100FD0002407B5CF09F0B3CF8F2D0E94BF0EAFCF3E
:100FE0000111ADCF8F2D0E942B078F2D0E94CB0EAC
:100FF0008F2D0E94AF0EA3CF111521F0063008F0FF
:101000009ECFE4CF053008F09ACF8F2D0E942B079A
:1010100096CF0115D1F3D93349F42FEF87EE93E042
:10102000215080409040E1F700C000008D2F0E94C9
:101030009E0685CF8C2F869586958370813060F0D3
:1010400009F07DCF8D2F9C2F9370111102C080E08D
:1010500090E00E94242173CF8D2F9C2F937011114B
:1010600002C080E090E00E94FF2069CF612F8D2FA9
:101070000E94060664CF8C2F8370C9F5111129C018
:101080004D2F429546954770440F440F2D2F2F70DA
:1010900030E0042E02C0220F331F0A94E2F780E0F2
:1010A00090E0D4FF09C08FE090E002C0880F991F44
:1010B0004A95E2F780959095C695C695C370822BA8
:1010C000932BC23071F0C33079F0C13039F00E94F7
:1010D000F9090E94C8200E94970531CF0E94F009AB
:1010E000F8CF0E94020AF5CF0E94ED09F2CF111548
:1010F00061F1C0FFEECF4D2F429546954770440FEA
:10110000440F2D2F2F7030E0042E02C0220F331F0A
:101110000A94E2F780E090E0D4FF09C08FE090E00D
:1011200002C0880F991F4A95E2F780959095C69561
:10113000C695C370822B932BC23069F0C33071F017
:10114000C13031F00E94640AC4CF823010F2D3CF94
:101150000E945B0ABECF0E946D0ABBCF0E94110A9B
:10116000B8CFCF70111539F08C2F0E94290A8D2F1E
:101170000E942407AECF8D2F0E942B078C2F0E9438
:10118000390AA7CFD23F41F170F4D03FC9F0D13F27
:1011900091F0111509F449C0011509F443C08D2FD0
:1011A0000E94100696CFD33FF1F0D43F91F7809183
:1011B000370482FD22C08C2F8F71111501F310C0EE
:1011C000111541F0053008F084CF8C2F8F710E94EB
:1011D0004B0A7FCF0630F7CF8C2F8F711111CFCFF5
:1011E0000E94290A76CF111529F08C2F8F710E9449
:1011F0001D0A6FCF0E94180A6CCF111549F0CF71EC
:101200008C2F0E94290A63E08C2F0E945B0F61CF14
:1012100081E00E94790F023008F45BCF82E00E94E7
:10122000790F57CF8C2F8F71DBCF011579F0D93320
:1012300049F4EFEFF7EE23E0E150F0402040E1F712
:1012400000C000008D2F0E949E0643CF8C2F8F710F
:1012500096CF0F931F93CF93DF938C01FC0187816F
:101260009085009791F00E945611D82FC92F0E94A7
:10127000760A0E94EC096D2F7C2FC8010E9432076C
:10128000DF91CF911F910F910895608171818581C8
:101290000E94370BEACFCF93DF93EC018C8181154D
:1012A00099F0CE010E949304811111C00E947B0E1F
:1012B000811551F08D81811539F08091370482FFBD
:1012C00003C082E00E94790FDF91CF910895CE0193
:1012D0000E942909CE010E945604F6CF811521F003
:1012E0000E94970E0E94490F0895811521F00E94D7
:1012F0009D0E0E94490F089580E090E00E94FF201B
:1013000080E090E00E9424210E94A50E0E94490FD7
:101310000E94431E0E94271E08950E941F220E94C1
:101320007C0908950E94940E0E948D090895282F2B
:1013300092959F70963099F060F4925F9F70923012
:1013400030F4203FB1F038F481E0283E38F080E0FE
:1013500008959A5FF3CF81E0243FC9F7089591E0A3
:10136000813F09F090E081E0283E08F080E0892B81
:10137000089581E00895FC018481811541F0878101
:101380009085009729F00E9456110E9497090895B0
:10139000808191810E94250BF8CFA6E0B0E0E3EDBB
:1013A000F9E00C94B22C2696E2E00C94CE2CA9E045
:1013B000B0E0EDEDF9E00C94B02C2996E4E00C944B
:1013C000CC2C08950E94E10908950E94E2098093BF
:1013D000A8029093A902089508950E94E50908952E
:1013E0002091A8023091A902822B932B0E94E5093B
:1013F00008952091A8023091A902822393230E948C
:10140000E50908952091A8023091A9028227932727
:101410000E94E50908950E94E10908950E940B0ABF
:1014200008950E940E0A8093A6029093A702089541
:1014300080E090E00E94110A089521E030E0A901C7
:1014400002C0440F551F8A95E2F7CA010E94110A93
:10145000089521E030E002C0220F331F8A95E2F7A1
:101460008091A6029091A702822B932B0E94110AD1
:10147000089521E030E002C0220F331F8A95E2F781
:10148000209530958091A6029091A7028223932304
:101490000E94110A089521E030E002C0220F331F9C
:1014A0008A95E2F78091A6029091A702822793275E
:1014B0000E94110A08952091A6023091A702822B62
:1014C000932B0E94110A08952091A6023091A70241
:1014D000822393230E94110A08952091A60230913D
:1014E000A702822793270E94110A08950895CF9397
:1014F000C1E061FDC4E060FDCC0F62FDC29593E0E8
:10150000769567959A95E1F7660F771F660F771FB7
:10151000FA01E60FF71F40E050E090E06191DF0133
:101520009C01042E02C0369527950A94E2F7269571
:10153000220B26272C2326272E934F5F5F4F443004
:10154000510561F7CF910895A82FA77023E09695D4
:1015500087952A95E1F7880F991F880F991FFB013E
:10156000E80FF91F40E050E080E0219130E00A2EC2
:1015700002C0369527950A94E2F72170042E01C027
:10158000220F0A94EAF7822B4F5F5F4F44305105D8
:1015900061F70895262F933070F48B3060F4682F34
:1015A00070E08BE0989F600D711D112442E952E0BC
:1015B000822F0E94770A0895292F933068F48B3088
:1015C00058F490E062E972E03BE0239F800D911DAA
:1015D00011240E94A40A089580E00895A4E0B0E0D8
:1015E000E4EFFAE00C94AF2C89839A830091A60271
:1015F0001091A7028091A8029091A902082B192BA3
:101600008FE08B831C8281E090E00B8002C0880F0A
:10161000991F0A94E2F780239123892B69F48B8127
:101620009C8101978B839C83019669F7F12C8F2D08
:101630002496E5E00C94CB2CFB8069817A818F2D78
:101640000E948B12019759F3F2CFA2E0B0E0EBE2D7
:10165000FBE00C94B22C89839A830E94EE0A698184
:101660007A810E948B122296E2E00C94CE2CA3E0A9
:10167000B0E0EDE3FBE00C94B22C6A837B839091A5
:101680009102911539F0CB010E94250B2396E2E0DF
:101690000C94CE2C811581F08A819B810E94EE0AE8
:1016A0008983682F8A819B810E94CA0A6A817B8113
:1016B00089810E948B12EACF8A819B810E94DC0A79
:1016C0008983F4CFE1E0F0E0DF0102C0AA0FBB1F85
:1016D0006A95E2F7BD01DF0102C0AA0FBB1F4A9560
:1016E000E2F7AD016A2B752B02C0EE0FFF1F2A95A2
:1016F000E2F79B01282339232617370719F48E2B8D
:101700009F2B0895E095F0958E239F230895242F15
:10171000462F682F8091A6029091A7020E94620B2B
:101720000E94110A0895EF92FF920F931F93E09089
:10173000AA028091AB028E1105C01F910F91FF90FC
:10174000EF90089529E0E29EF0011124E455FD4F49
:1017500000811181228133814481558166817781A5
:1017600080850E94D709C7018395282F2770E22E14
:10177000E0CF0F931F930091F4021091F502209196
:10178000F6023091F7024091F8025091F90260910F
:10179000FA027091FB028091FC020E94D7091F910E
:1017A0000F9108958091FA02803170F48091F902CE
:1017B000811551F0E091AA022091AB023091F5021F
:1017C0004091F4022E1301C008956E2F70E089E05D
:1017D000E89FF0011124DF01A455BD4F14968C91B0
:1017E0001497811561F111968C911197831327C07D
:1017F0008C91841324C015968C91159781111FC06C
:1018000012968D919D91A091F602B091F7028A1BDC
:101810009B0B883C910598F48091FA028F7080614F
:101820008093FA02EE54FD4F80818F708061808337
:1018300084EF92E00E944B090E94930B0895FB01F4
:10184000E395E770BFCFE091AA029091AB02E91354
:1018500002C080E008952E2F30E059E0E59FF001AE
:101860001124E455FD4F5181561306C05081581381
:1018700003C05581541304C0F901E395E770E7CF25
:1018800081E008958F929F92AF92BF92DF92EF9284
:10189000FF920F931F93CF93DF93CDB7DEB72F97B0
:1018A0000FB6F894DEBF0FBECDBF8C0186E0F80105
:1018B000DE011A9601900D928A95E1F7F801F58004
:1018C000848194EF892E92E0992E9091F8029111E3
:1018D0001BC0811509F42DC1F11409F46CC1C801B4
:1018E0000E94BB09811509F466C189E0F801D401A1
:1018F00001900D928A95E1F7C4010E94FD050E94B6
:10190000D20B0E94B90B15C1E080A280B380D090A9
:10191000F9022091F6023091F702A501421B530B08
:10192000D11409F409C1483C510508F0CAC0811519
:1019300009F4FFC09091F50291808091FA02803104
:1019400008F074C0991231C09091F4029E112DC01C
:101950004091FB025091FC022781308542175307CA
:1019600021F5F1105DC08F7080618093FA020E94B2
:10197000B90B84EF92E00E944B098091FA02F801C2
:101980008683F12C8F2D2F960FB6F894DEBF0FBEF5
:10199000CDBFDF91CF911F910F91FF90EF90DF901E
:1019A000BF90AF909F908F900895F11039C040E0A4
:1019B000692D8E2D0E94230C40E0692D8E2D0E94F2
:1019C000230CF82E8111DDCF8A859B850E94250B83
:1019D000292F22952F70903450F49F70223080F080
:1019E000911599F0F8019681903178F4CBCF2A5F68
:1019F0002F70223078F0C8010E944B09FD2CC2CF15
:101A0000911519F0811509F4BDCF805E883008F476
:101A1000B9CFF1CF803F08F4B5CF815F8330F7CFE6
:101A20008091FA0281608093FA02ABCF99121CC0B8
:101A30009091F4029E1118C04091FB025091FC025B
:101A4000278130854217530779F4F1100DC0868342
:101A5000C8010E944B0989E0F801A4EFB2E00190AF
:101A60000D928A95E1F74DCFC8010E94BB098115FF
:101A700009F4A1C0F11409F49EC08091FA028032E9
:101A8000B8F02091F4023091F50229833A83AB82B9
:101A9000BC829091F8029D831E828F838091FB020D
:101AA0009091FC0288879987CE0101960E944B098C
:101AB00089E0F801A4EFB2E001900D928A95E1F778
:101AC0001ECF9091FA029031A0F44A855B856C8517
:101AD0007D858E859F850E94CD0984EF92E00E94CE
:101AE0004B0989E0F40111928A95E9F70E94B90B3C
:101AF00048CF8115F1F02091F50281812813B4CFF0
:101B00008091F4028E11B0CF4091FB025091FC0203
:101B1000278130854217530709F0A6CFF110A4CFD3
:101B20009683C8010E944B0989E0F40111928A95BD
:101B3000E9F7FF24F39426CF483C510508F03FC055
:101B40008115B9F3F114B9F19091F50281819813DF
:101B500028C08091F4028E1124C02091FB023091A4
:101B6000FC028781908528173907D9F49091FA02F1
:101B700090FD0EC0903160F0892F9683907F903F4A
:101B800009F466CF982F907F905F8F70892B5FCF7D
:101B900089E0F801A4EFB2E001900D928A95E1F797
:101BA000C8CFC8010E94BB09811182CF8091FA027F
:101BB00081608093FA02C8010E944B09BACF4A851E
:101BC0005B856C857D858E859F850E94CD0989CF3B
:101BD000A2E1B0E0EEEEFDE00C94AF2C0A871B878B
:101BE0002C873D874E875F87688B798B8A8BCE01E8
:101BF0000A960E94420C4E858115C1F0411551F0A4
:101C00000A851B852C853D855F85688979898A8948
:101C10000E94D70989E0F82E8091AA029091AB0228
:101C200089133AC06296E5E00C94CB2C89E0FE0162
:101C30003A96DE01119601900D928A95E1F74115D1
:101C400049F3A091AB028A2F90E08395877090E0D2
:101C50002091AA022817190689F099E09A9FD001CD
:101C60001124A455BD4FFE01319601900D929A9515
:101C7000E1F78093AB020E94930BCCCF0E949209B4
:101C80001092AB021092AA0289E0E4EFF2E0DF01C9
:101C90001D928A95E9F7BECFF89EC00111248455A4
:101CA0009D4F0E94420C811509F4BCCFE091AA021D
:101CB000FE9EF0011124E455FD4F00811181228127
:101CC0003381448155816681778180850E94D7095F
:101CD0002091AA022F5F3F4FC90187708093AA020B
:101CE0009BCF809125038695869586950895809152
:101CF00025038770089590912503977081E09111D5
:101D000001C080E00895809151030895909151039E
:101D1000982B909351030895982F9095809151039B
:101D2000892380935103089510925103089590914F
:101D30005003982B909350030895982F909580917D
:101D400050038923809350030895109250030895FF
:101D500080912703089508950E94AB0E08959091F5
:101D60002603292F282331F0809589238093260389
:101D70000E94AC0E089508950E94BB0E08959091A4
:101D80002703292F2823281729F0982B909327031E
:101D90000E94BC0E089590912703292F282331F02B
:101DA00080958923809327030E94BC0E089590910B
:101DB000370492FF08C090912703981721F0809371
:101DC00027030E94BC0E089580912703811529F0F6
:101DD0001092270380E00E94BC0E0895CF93C0911B
:101DE000510380915003C82B80912703811531F056
:101DF000C82B0E94492181110E94E40E8C2FCF91A3
:101E00000895CF93DF93C091AC01D091AD010E94B2
:101E1000EE0E8883C091AC01D091AD0148E050E056
:101E20006DE173E0CE010E94ED2C892B59F088E022
:101E3000FE01ADE1B3E001900D928A95E1F7CE018C
:101E40000E94D820DF91CF910895CF93DF93C09166
:101E5000AA01D091AB010E94EE0E8983C091AA0124
:101E6000D091AB0140E250E06DEF72E0CE010E94F4
:101E7000ED2C892B59F080E2FE01ADEFB2E001902C
:101E80000D928A95E1F7CE010E94E320DF91CF9178
:101E900008958091DF01811539F08091360487FF24
:101EA00003C00E94250F08950E94010F0895089510
:101EB0000E94570F08959091370492FF11C0982FF8
:101EC000990F990F990F962B909325030E94290A39
:101ED000809125038695869586950E94580F0895D2
:101EE0000E94290A08951092250380E00E94580F4D
:101EF0000895909125038095892380932503282FA9
:101F0000277069F4891759F09091370492FF07C040
:101F10008695869586950E94390A0E94730F0895CA
:101F20009091370492FB222720F9281769F080FB53
:101F300092F99093370480913604909137040E946F
:101F4000D70F82E00E94790F089580913704002412
:101F500082FF0394802D0E94900F089581E00E94DB
:101F6000900F089580E00E94900F08956FEF7FEF2B
:101F700080E090E00E943F2D089580E090E00E9474
:101F80000B2D9C0181E0263E3E4F09F080E0089534
:101F900082E090E00E94032D089583E090E00E948B
:101FA000032D089584E090E00E940B2D0895BC015C
:101FB00084E090E00E943F2D0895AB01BC018FE0CA
:101FC00090E00E94332D0895AB01BC0183E190E0C5
:101FD0000E94332D089580E090E0BC010E94E40F40
:101FE000089580E090E0BC010E94DD0F0E94EB0F9D
:101FF0000895A8E0B0E0EFEFFFE00C94B22C66EE9D
:102000007EEF80E090E00E943F2D60E082E090E073
:102010000E94212D81E090E08093A8021092A902F5
:1020200061E083E00E94212D60E074E184E090E0B3
:102030000E943F2D60E086E090E00E94212D6FEF2E
:1020400087E090E00E94212D60E070E0AB0188E025
:1020500090E00E94332D60E084E290E00E94212D08
:1020600060E087E190E00E94212D60E08CE090E04C
:102070000E94212D60E08DE090E00E94212D1982C8
:102080001A821B821C821D821E821F82188648E0D3
:1020900050E068E170E0CE0101960E94112D60E0F1
:1020A00070E0AB0180E290E00E94332D0E94F10FBE
:1020B0002896E2E00C94CE2C0E94F90F0895682F28
:1020C0008EE090E00E94212D0895A6E0B0E0EBE6BE
:1020D000F0E10C94B02C0E9408238C0180915203F3
:1020E000909153038017910779F019821A820E9408
:1020F0000823BC0149815A8180E090E00E94C90513
:1021000000935203109353032696E4E00C94CC2CD6
:102110000E94142360935E0370935F0380936003B7
:102120009093610360935A0370935B0380935C0305
:1021300090935D030895089508950E949B1008955B
:1021400008950E94A010089582E893E10E94261548
:102150000E949C100E949D10089581E0089581E0E6
:1021600008950E94AD100895089508950E94B41036
:102170000E94B51008950E94A1130E94960508952B
:102180000E94FF220E9475140E94BB100E946615D7
:102190008091360480688093360480913604909153
:1021A00037040E94D70F0E94CB240E94A1100895EB
:1021B0000E94C8190E943C170895A7E0B0E0E3EE22
:1021C000F0E10C94A82C0E94AF1081110CC00E9469
:1021D00065100E94D8100E94651E0E94B0052796C7
:1021E000ECE00C94C42C0E948B1424E5822E23E096
:1021F000922E740110E0F701C080D180812F0E94DF
:10220000C5131F5F133009F44CC0F2E0EF0EF11C50
:10221000C816D90681F38091620381FD0E94CE1316
:102220000E94B1108F8310E0812F0E94C5137C01A2
:10223000F401A190B1904F018A159B0561F1A82688
:10224000BF2400E091E0C92ED12CC5018C219D2135
:10225000892BC9F0FF81F115B1F009831A830E941F
:1022600008238B839C8321E02D83C7018C219D2132
:10227000892B09F420E049815A816B817C818D8111
:10228000922F0E94C9050F5FCC0CDD1C0B30E9F6C4
:10229000F401F292E2921F5F133031F60E9488102F
:1022A00098CFC816D90609F0B6CF91CFA3E0B0E019
:1022B000ECE5F1E10C94B22C0E9490128A839B838E
:1022C000923508F05AC0903508F0EAC0803E91057A
:1022D00058F58D3C910508F0BCC0883A910580F412
:1022E000853A910508F0AFC08130910509F498C096
:1022F0000497813A910508F493C01A821B8290C01A
:102300008A819B81885A91094B97B8F73A81385A4C
:10231000432F50E0440F551F465C5D4FFA0101907A
:10232000F081E02DF4647AC04A815B815034C8F4B6
:10233000503208F0D1C0483E510508F471C0CA01BE
:1023400091509F31D0F68B810E94331389838A810B
:1023500090E00E9490124981F42FFF71E82FF92B31
:102360005DC08A8190E00E9490123B813F70282FCF
:10237000392B306A2A833B8353C04A815B814038C2
:1023800082E55807E0F5403692E5590708F06BC042
:102390004034E2E55E07E8F44032F2E55F0708F01A
:1023A0005CC0842F8695869520E2829FC00111240F
:1023B0004370498321E030E0A901098002C0440F45
:1023C000551F0A94E2F7482B592B5D684A835B83BB
:1023D00027C08A8186958695877050E2859FC001C7
:1023E0001124EA81E37021E030E0A90102C0440F2A
:1023F000551FEA95E2F7482B592B5C68E7CF8A8195
:102400009B81803C924590F48A818F712A813B8127
:10241000203A3245F0F5F82FE4EFF06AEA83FB83C7
:102420008A819B812396E2E00C94CE2C8A819B8149
:10243000805C9245809708F060CF4A81542F5F718D
:1024400040EF506AC3CF2A813B8124523109306466
:1024500091CF2A813B8130658DCFFA81FF715F2F4B
:1024600041EF506AB3CF8A8186958695877050E296
:10247000859FC0011124EA81E37021E030E0A901C9
:1024800002C0440F551FEA95E2F7482B592B5A68B2
:102490009DCF0E943313382F20E03F7130626ACF06
:1024A0008A818F710E943313EA81FB8153E0EE0F22
:1024B000FF1F5A95E1F7FF701A82FB83282F30E047
:1024C00084FF04C0F0E18F9F900111244A815B8159
:1024D000422B532B50697ACF8B818F710E9433131B
:1024E00089838A8190E00E9490125981352F3F7133
:1024F000282F392BC90190628A839B8391CF462F65
:10250000733030F46B3020F4672F0E9485030895F8
:1025100080E090E008950E947F120E945611089575
:10252000803E9105D1F1C8F48133910509F481C051
:1025300048F48932910509F471C08A32910509F491
:102540007FC0089589339105E1F082389105C9F083
:102550008533910509F45DC00895843E9105D1F15C
:1025600048F4823E910531F1833E910541F181EEBF
:1025700090E00895863E9105C1F1873E9105F1F105
:10258000089520913604237009F064C02091370427
:1025900023FF14C089E290E008952091360420FDC5
:1025A00045C03091370430FF09C024FD24C083EEBC
:1025B00090E008952091360422FDF7CF08952091F0
:1025C000360422FD44C03091370430FD43C024FF5F
:1025D000F5CF11C02091370421FFF0CF8091360450
:1025E00084FD09C087EE90E008952091360423FF12
:1025F000E5CF24FFF7CF80E090E0089520913604E6
:1026000023FD2BC03091370431FFE1CF84EE90E001
:1026100008952091360425FFD1CFBCCF20913604F8
:1026200025FD1EC02091370423FFC8CF89E390E029
:1026300008952091360426FFC1CF8AE290E00895E4
:102640002091360426FFBACF81E390E0089582EE10
:1026500090E0089580EE90E0089586EE90E0089571
:1026600085E390E008959091360492FF10C041E018
:10267000282F2471243009F040E031E0282F287100
:10268000283009F030E0431711F02CE0822793FF47
:1026900010C041E0282F2471243109F040E031E0DE
:1026A000282F2871283109F030E0431711F02CE071
:1026B00082273091370430FF10C051E0282F21715C
:1026C000213009F050E041E0282F2871283009F02E
:1026D00040E0541711F029E0822731FF10C041E09B
:1026E000282F2171213109F040E031E0282F287195
:1026F000283109F030E0431711F029E0822794FDDA
:10270000877E089580E008950E94B60F08950E9484
:102710008B142FEF86E791E0215080409040E1F745
:1027200000C000000E948B1480E00E94C51380FF4F
:1027300004C00E9484130E94532308950E948713AB
:1027400008950E94BD0F811102C00E945C100E947A
:10275000C80F809362030E94D20F80933604909337
:1027600037040E949E130E94CD0F90E00E94ED0955
:102770008091A6029091A7020E940E0A08950E94DD
:10278000D90208950E9457030895E82FF0E0EE0F54
:10279000FF1FE25CFB4F808191810895089580EADC
:1027A0008A95F1F7089500C008950E94CF13089507
:1027B000F894E82FE295EF70F0E041A18F7021E0EE
:1027C00030E0B90101C0660F8A95EAF7862F962F8F
:1027D0009095942391A392A1892B82A37894089534
:1027E000CF93DF9384EF0E94D81382E30E94D81323
:1027F00086E30E94D813C0E7D2E089918F3F11F0A1
:102800000E94D81382E0CB37D807B9F7DF91CF9178
:102810000895A5E0B0E0EFE0F4E10C94AE2C8A83DB
:102820009B836983262F30E06C831D8289010558C4
:102830001D4FF80180818F3F09F451C0F894E82FB3
:10284000E295EF70F0E091A18F7021E001C0220FBE
:102850008A95EAF7892F822B81A382A120952823CC
:1028600022A378940E94D313E0E7F2E021E030E065
:10287000E12CF12C41914F3F79F0A42FA295AF703C
:10288000A05EB0E08C9190E04F7002C09595879566
:102890004A95E2F780FF27C080E090E0E82AF92A15
:1028A000220F331F82E0EB37F80721F7F801808110
:1028B0008F3F11F00E94D81361E0E114F10409F494
:1028C00060E089810E94D5132C813D81220F331F46
:1028D0008A819B81280F391FF901E082F1822596B8
:1028E000E6E00C94CA2CC901D9CF0E94F01386E00F
:1028F000EEE3F4E0DF01982F1D929A95E9F7E8E303
:10290000F4E0DF011D928A95E9F783E00E94C81484
:102910000E94BF130895A8E0B0E0E1E9F4E10C944F
:10292000B12CFE01319686E0DF011D928A95E9F710
:1029300010E0EF83F887612F8F8198850E9409143A
:102940001F5F1330C1F746E050E06F81788588E360
:1029500094E00E94ED2C21E0892B81F420E043E0FB
:102960006EE374E088E394E00E94C9148F830E94B0
:10297000C2138F812896E3E00C94CD2C86E0EF8182
:10298000F885A8E3B4E001900D928A95E1F7E7CFCE
:102990000895A6E0B0E0EFECF4E10C94B02C89834C
:1029A0009A836B837C83042F2D83211571F081E042
:1029B000809365030E9408238093630390936403CC
:1029C00080E02696E4E00C94CC2C809165038E8305
:1029D0008115B1F380916303909164030E942023D9
:1029E000059770F310E0000F111FA80169817A812B
:1029F0008B819C810E94ED2C892B49F0A801698173
:102A00007A818B819C810E94FA2C8E818D83109219
:102A100065038D81D6CF0E9441250E94C0100E947F
:102A20004E2508950E9453250E94DD100E946D25B9
:102A300008950E94A1220E9427250E94A4100E94AE
:102A40000B150E9412150E94B610FBCF80937E02D8
:102A500090937F020895E8E6F3E086E0DF011D929F
:102A60008A95E9F70895CF93DF9380916803806892
:102A700080936803C8E6D3E089910E94EA2483E04A
:102A8000CE36D807C9F7DF91CF910895282F67E098
:102A90000E945A2C90E0FC01E859FC4FAC0133E055
:102AA000440F551F3A95E1F7841B950B820F911D3A
:102AB00026E030E0A901481B21E001C0220F4A9521
:102AC000EAF78081822B808380E008950E94BD0F09
:102AD000811102C00E945C108DE090E00E94032DE5
:102AE000809366030895A1E0B0E0E9E7F5E10C9476
:102AF000B22C89830E942B15898180936603682FED
:102B00008DE090E00E94212D2196E2E00C94CE2CE5
:102B100081E0089581E0089581E00895EF92FF92A9
:102B20000F931F93CF93DF93EC017B018C01005C2B
:102B300014470034110508F089C0FB018481811518
:102B400009F484C0CE010E948C15811541F0C03F6C
:102B5000F4E7DF0799F048F40A321105B8F080E095
:102B6000CDB7DEB7E6E00C94CA2CC13FD447B9F725
:102B7000F7018581811599F380E005C0F701858112
:102B8000811569F381E00E947315E9CF0091670315
:102B900010916603F7018581811519F10F5F00938C
:102BA00067031130C8F0D9F6EC2FE05CF0E0E65393
:102BB000FD4FE491A4E0AE9FA12D1124B0E0A859EF
:102BC000BC4F8C918E2B8C9328E633E0412FB701BC
:102BD000CE010E948A15C3CF8C2F805C0E944615BF
:102BE000F3CF01500093670328E633E0412FB7018C
:102BF000CE010E948A15811509F4B1CF8091670337
:102C000018160CF4ACCF1092670368E673E080915D
:102C100066030E948815811103C00E942B159FCF67
:102C200080916603813078F0C1F7C8E6D3E08991DE
:102C300081110E94EA24F3E0CC36DF07C1F780E07F
:102C40000E94EA24EACF0E943315E7CF81E088CFC3
:102C50008091AE01877F8093AE0182E00E949D0E3D
:102C60008091AE0184FF06C08F7E8093AE0182E02A
:102C70000E94860E8091AE0185FF06C08F7D8093F5
:102C8000AE0180E20E94860E0E94490F089580E006
:102C900008958933910588F48D32910560F4883266
:102CA000910530F48430910530F40E944716089560
:102CB0008B329105D1F781E0089584369105FACFE2
:102CC000CF93DF93EC01611519F082E00E94970E1B
:102CD000CE019052903308F4D0E0CE010E94C2039E
:102CE000DF91CF9108959C013052303308F490E089
:102CF0000E94D80308959C0143E0369527954A9594
:102D0000E1F72E7130E0F901E259FC4F4081518129
:102D1000FC01EF7081E090E002C0880F991FEA95F6
:102D2000E2F7611541F0482B592B22593C4FF9012C
:102D30004083518308958095909548235923F5CF7A
:102D4000FC0123E0F695E7952A95E1F7EE71F0E0B6
:102D5000E259FC4F8F7021E030E002C0220F331F98
:102D60008A95E2F7808191812823392381E0232B02
:102D700009F480E00895EF92FF920F931F93CF9391
:102D8000DF93EC017B018A018091AE0182FF5CC080
:102D900020919703309198032C173D0719F0209745
:102DA00009F052C09091AE019B7F9093AE0161E01B
:102DB00091FD10C08091990390919A03A701481B3F
:102DC000590B61E08091AF019091B001481759070C
:102DD00008F460E08091AE0160FB81F98093AE0160
:102DE000C9010E947B160E94830E81FF08C080915A
:102DF000AE0180618093AE0182E00E948C0E0E9441
:102E0000830E85FF08C08091AE0180628093AE0181
:102E100080E20E948C0E6091AE0166956170A801FF
:102E200080919703909198030E9460166091AE0183
:102E300066956170A80180919703909198030E9414
:102E400073160E9428160FC0CE010E94A016A8017A
:102E5000682FCE010E94731680919703909198037A
:102E6000C817D90771F3E0929903F0929A03CDB78E
:102E7000DEB7E6E00C94CA2C8091AE0182FF19C047
:102E80000E9408232091990330919A03AC01421BC0
:102E9000530B2091AF013091B0014217530748F016
:102EA0004EE853E0BC0180919703909198030E94F3
:102EB000BB1608959091AE01892F8E7F90FF81609F
:102EC0008093AE010E94281608958091AE018E7FF6
:102ED0008093AE010E942816089560E28091AF01B0
:102EE0009091B0010E943E05FC01019620812032A4
:102EF000D9F3CF010E9415200895A3E0B0E0E3E8E4
:102F0000F7E10C94AE2C8A839B838B010E940823EB
:102F10007C01F8018581811509F48AC08091AE0198
:102F200082FF07C04EE853E0B70180E090E00E94C6
:102F3000BB168A819B818331ECE79E0771F1E0F437
:102F400081312CE7920709F460C08231ECE79E07DB
:102F500009F46BC080319C4709F461C08A819B8170
:102F600090529033A8F4109297031092980381E046
:102F70002396E6E00C94CA2C8A819B818431ECE78D
:102F80009E0709F43FC085319C4711F40E945A17EF
:102F90008091AE0180FFEBCF05C08091AE018160D2
:102FA0008093AE01B8018A819B810E944916F80185
:102FB0009581811509F48BC0911509F481C00E9497
:102FC000830E89830E94A80EF9818F2B8D7F09F4CF
:102FD0004AC0109297031092980360E08A819B8107
:102FE0000E947B16A80160E08A819B810E94601686
:102FF0000E94A80E8D7F0E94D70E82E00E94790F5A
:1030000080E0B6CF0E946517C3CF8091AF01909149
:10301000B00105968093AF019093B001B9CF809134
:10302000AF019091B0010597F5CF0E946D17B0CF19
:103030008A819B81813E910531F48091AE018F7E22
:103040008093AE01A5CFEA81FB81E53EF10521F435
:103050008091AE018F7DF4CF8A819B819052903315
:1030600008F096CF84CF89E0F801AEE8B3E0019094
:103070000D928A95E1F710929003109291030E94AD
:10308000830E182F0E94A80E182B8091AE0111FB01
:1030900081F98093AE010E94A80E8D7F0E94D70E09
:1030A0008A819B818093970390939803E092990380
:1030B000F0929A038091AE0184608093AE019DCF1F
:1030C000A801B7018A819B810E94BB1699CF9111FB
:1030D0004ACF4DCF0895EF92FF920F931F93CF9356
:1030E000DF9380910E04E0919B03CDE081112AC013
:1030F000CDB7DEB7E6E00C94CA2CD1E0DE0FD0935A
:103100009B03EE2EF12CCE9FF0011124EA55FC4FCB
:1031100084818115B1F087819085892BE1F48185C7
:1031200092858F3F9807B9F061E00E946A18CE9DA2
:10313000F001CF9DF00D1124EA55FC4F14820E943E
:10314000A50EED2F80910E04E817B8F210920E0430
:1031500010929B03CDCF0081118122813381448164
:1031600055816681778180850E94E80DE0CF0895C2
:10317000CF93DF9310920F0410921004C0E0D0E0C0
:103180000E948803C817D90718F0DF91CF910895DE
:10319000CE010E948B03FC018581811102C0148243
:1031A00016822196EDCF1F93CF93DF931091A40346
:1031B0004091A5034117C9F0C12FD0E0FE01EE0FE9
:1031C000FF1FE456FC4F208131812817390789F40D
:1031D0000E948B0321E0FC0124838091A4038113CE
:1031E00004C02196C370C093A403DF91CF911F91B7
:1031F0000895C3951C2F1370DDCFA0E0B0E0E3E08D
:10320000F9E10C94A72CFB012481211155C0809079
:103210000E04C6EAD3E0912C01E010E0A81508F0F6
:1032200049C0AB84BC84FB01C080D18077247A94F0
:1032300020E03FEF422F50E0F601E20FF11DE20FD8
:10324000F11DE590F590AE14BF0411F0472D532FFA
:10325000E114F10421F02F5F742E352FEBCF4F3F97
:10326000540781F1F80101C0EE0F4A95EAF79E2A52
:10327000A80102C0440F551F2A95E2F79A01215078
:10328000310992161306E9F4FB01228133814DE0E6
:103290004A9FF0014B9FF00D1124EA55FC4F278304
:1032A000308724E02483108211828187928721E075
:1032B000FB0125830E94D318CDB7DEB7EDE00C9457
:1032C000C32C1C8211962D96A9CF0F931F93CF93D9
:1032D000DF93C091A4038091A5038C1309C00E94C1
:1032E0006B180E94B818DF91CF911F910F9108952C
:1032F000D0E08E01000F111F04561C4FF801808191
:1033000091810E948B03BC01F801808191810E9410
:10331000FD18C395C370DFCFEF92FF920F931F93F9
:10332000CF93DF93DC014D915D91129730E090E0F7
:1033300020E0FA01E20FF11DE20FF11DC591D591D8
:103340002097C1F0FB010081118190E007C081E06E
:10335000CE15DF0509F080E0382B9F5FF801E90FFB
:10336000F11DE90FF11DE590F590E114F10479F7F5
:103370002F5FDFCF311549F0921708F0BD01CB0167
:10338000CDB7DEB7E6E00C94CA2C60E070E0F7CF72
:103390008091B101811541F1809111049091120445
:1033A000009711F10E94202320910F043091100406
:1033B00028173907C8F49091A4038091A5039817A2
:1033C00059F00E94651910920F0410921004109287
:1033D00011041092120408950E946B1810921104A7
:1033E000109212040E94B8180895109211041092BD
:1033F00012041092B1018091A5038093A4030E944E
:10340000B8180E946B1808958091B101811519F0C8
:103410000E94F519089581E08093B1010895AAE012
:10342000B0E0E5E1FAE10C94A22C6C015B0180357F
:103430002CE7920769F4DB0115968C918115F1F068
:1034400081E08093B10181E02A96E2E10C94BE2CE8
:103450008135BCE79B0739F4FB018581811571F04B
:103460000E94F519F0CF82359C4741F4DB01159697
:103470008C91811519F00E94041AE5CF2091A602C3
:103480003091A7028091A8029091A902822B932BE0
:103490000E945F05182F0E94B718181731F0F50128
:1034A000608171810E947F126C01812C912C1A869F
:1034B000140123940E94880388169906D0F1D5013F
:1034C00015968C91811509F449C1BA85B11509F495
:1034D00045C10E94082380931104909312048091A7
:1034E0000E04883010F591E0980F90930E0499E047
:1034F000F501DE01119601900D929A95E1F7EDE04C
:103500008E9FC00111248A559C4F29E0FE013196FF
:10351000DC0101900D922A95E1F72FEF3FEFDC01DE
:1035200019962D933D93CD92DD9281E0BA858B273C
:103530008BCFC4010E948B037C01DC012D913D9156
:103540006FEF80E09FEF682E712CF901E80FF11DFD
:10355000E80FF11D45915591C416D50611F0662E60
:10356000792E452B21F08F5F662D972DECCF512CB6
:10357000BFEF6B16760409F445C0F7014481509003
:10358000B1014111512CD70115964D909C91169780
:10359000F5012581211509F480C0511409F47DC07D
:1035A000411015C021E0062C01C0220F0A94EAF751
:1035B000922B16969C9320910F0430911004223385
:1035C000310528F422E320930F0410921004910196
:1035D00002C0220F331F8A95E2F7C9010197D70174
:1035E00016962C912817190669F480911104909170
:1035F0001204009771F00E942023C39750F081E0DD
:10360000F7018483BA85B529BA87EFEF8E1A9E0A2F
:1036100051CF4090A40380E090E02091A503421296
:1036200011C0E816F90671F3842D90E0FC01EE0F4D
:10363000FF1FE456FC4F8082918201968370809335
:10364000A503E0CF042D10E0F801EE0FFF1FE456B4
:10365000FC4F808191810E948B033C01B7010E9445
:103660008C190097A1F0E1E0DC011496EC93E816C8
:10367000F90641F22091A403421209C068167906A6
:1036800031F498012F5F3F4F23702093A4030F5F05
:103690001F4FF02FF3704F2EC0CF292F30E0411075
:1036A00020C0B10102C0660F771F8A95E2F7CB01F7
:1036B00001978217930779F0512CF10102C0EE0FA8
:1036C000FF1F6A94E2F73F016094D70116968C9130
:1036D00086218C9397CF411581F3C4010E94D318A2
:1036E000EBCFA901062C02C0559547950A94E2F745
:1036F000C901019782239323892B69F540FF2BC0D1
:10370000D70112968D919D91892B01F1FE01319681
:1037100087E0DF011D928A95E9F70E9408239C014A
:103720008B839C8384E08D83F70192818381792F41
:103730009887898709811A8144E05E816F810E94A0
:10374000E80DD70115961C92542CB7CF60E0C40148
:103750000E946A18F6CF4170542EAFCF9091A40307
:103760008091A503981719F00E946519DECE0E947A
:103770006B1810921104109212040E94B818D5CE42
:10378000A2E0B0E0E6ECFBE10C94B22C69837A8312
:1037900086319C4731F50E94830EE981FA8195813B
:1037A0009115A9F08A7A91E0811101C090E090937F
:1037B0001304811551F085E30E94F1210E94490F05
:1037C00080E02296E2E00C94CE2C89E2F5CF809145
:1037D0001304811521F085E30E940822EFCF89E2CE
:1037E000FBCF81E0EECFCF93DF93EC01FB0185812E
:1037F000811509F4CFC09E0130572332310508F0FE
:10380000AFC00E94D20F8093360490933704FE011C
:10381000E150F047E232F10520F4ED59F24D0C94FD
:103820009C2C8091360481608093360490C08091F6
:1038300037048860809337048AC0809136048260A0
:10384000F3CF809136048460EFCF80913604886096
:10385000EBCF809137048160EDCF80913704826097
:10386000E9CF809136048061DFCF80913604806299
:10387000DBCF809136048064D7CF0E94920980917B
:1038800036048068D1CF809136048C60CDCF809192
:1038900037048360CFCF809136048E7FC5CF80916F
:1038A0003704877FC7CF809136048D7FBDCF80914D
:1038B00036048B7FB9CF80913604877FB5CF809156
:1038C00037048E7FB7CF809137048D7FB3CF80913F
:1038D00036048F7EA9CF809136048F7DA5CF80914D
:1038E00036048F7BA1CF0E949209809136048F7796
:1038F0009BCF80913604837F97CF809137048C7F54
:1039000099CF90913604892F8B7F92FF8460877FB7
:1039100092FF886089CF80913704982F909590FB13
:1039200080F990FB81F986CF90913604892F8F7BA7
:1039300096FF806479CF0E94920990913604892F76
:1039400097FB87F9805870CF81E00E945F108091CB
:103950003604909137040E94D70F0E94920980E0AC
:10396000DF91CF91089580E0F0CF90913604892FB8
:103970008F7E94FF806158CF90913604892F8E7F7F
:1039800090FF816051CF90913704892F877F93FFFB
:10399000886050CF81E0E4CF282F35EB2303C001AE
:1039A000112497FF04C080589109892F08958058E9
:1039B0009F4FFBCF80911A0480FF0DC06091B7012B
:1039C00070E0660F771F60387105A0F5611571050D
:1039D00099F1862F089581FF07C06091B70184E0B7
:1039E000689FB0011124EFCF82FF07C06091B7013B
:1039F00098E0699FB0011124E6CF909119049115C8
:103A0000B9F06091B6018091B701961728F098E05F
:103A1000899FB0011124D7CF899FC001112423E0D1
:103A2000880F991F2A95E1F770E00E94662CCBCF92
:103A300068E0CFCF8FE7089581E0089580911A0460
:103A400080FF0CC06091B30170E075956795759526
:103A500067956115710541F1862F089581FF06C0B4
:103A60006091B30170E075956795F3CF6091B301F4
:103A700082FD0BC0909118049115A1F06091B201E4
:103A80008091B301961738F0682F70E060387105A7
:103A900000F38FE70895899FC001112470E00E9410
:103AA000662CF4CF61E0D8CF81E0089590911D0499
:103AB00020911E04922B20912004922B20911F0410
:103AC000922B31F098E09093190491E090931804B0
:103AD000E3E3E80FE331D8F5F0E0EB57F24D0C9457
:103AE0009C2C0E94DA1C819580931E0408950E94EC
:103AF000DA1CFACF0E94DA1C819580931D04089588
:103B00000E94DA1CFACF0E941E1D80931F040895A4
:103B10000E941E1D8195F9CF0E941E1D81958093E4
:103B2000200408950E941E1DFACF815D990B21E0AB
:103B300001C0220F8A95EAF780911C04822B8093A2
:103B40001C04089580911A04816080931A040895DA
:103B500080911A048260F9CF80911A048460F5CFB5
:103B600040911D048D3C59F480911E0487FF0DC0C7
:103B700010921E04411559F41092190408C08E3C8D
:103B800081F480911E0418169CF3411581F08091F8
:103B90001F0490912004892B09F058C0109218043A
:103BA00008958F3C41F447FFF0CF10921D0480919F
:103BB0001E048115E0CF803D19F41416B4F3E5CF4F
:103BC00090911F04893D29F41916FCF610921F04E8
:103BD000DCCF8A3D19F497FFD8CFF8CF909120041D
:103BE0008B3D29F497FFD1CF10922004CECF8C3D8E
:103BF00019F41916CCF3C9CF9FE2980F983088F4C6
:103C0000815D990B21E030E0B90101C0660F8A9512
:103C1000EAF7862F809590911C04892380931C04D9
:103C2000B4CF8D3D31F480911A048E7F80931A04B5
:103C3000ACCF8E3D21F480911A048D7FF7CF8F3D5C
:103C400009F0A3CF80911A048B7FF0CF08950E94D2
:103C500008239C0190911D0480911E04982B21F053
:103C6000209316043093170490911F048091200430
:103C7000982B21F020931404309315048BE194E0E9
:103C80000E94F120089586E0EBE1F4E0DF011D924F
:103C90008A95E9F7109219041092180410921A04E8
:103CA0000895FC01828181110EC0838181110BC0B6
:103CB0008481811108C091E08581811101C090E06B
:103CC000892F8170089581E0FCCFA8E0B0E0EBE699
:103CD000FEE10C94B12C86E0EBE1F4E09E012F5F55
:103CE0003F4FD90101900D928A95E1F710921D0482
:103CF00010921E0410921F04109220048B819C814C
:103D0000892B2F833887811589F080911604909133
:103D100017040E942023AC01909119049115C1F160
:103D20008091B8018417150608F43FC08D819E81EB
:103D3000892B91F080911404909115040E94202306
:103D4000AC0190911804911509F461C08091B401FF
:103D50008417150608F469C06F8178858BE194E0BB
:103D60000E943922811105C08BE194E00E94511E0E
:103D700081110E94271E86E0EF81F885ABE1B4E057
:103D800001900D928A95E1F72896E3E00C94CD2CF2
:103D90002091B9018AE0289F90011124241735074A
:103DA00028F69F5F9093190402C09F3FD1F71B81B3
:103DB000111559F00E94DA1C91E011160CF09FEFDA
:103DC000899F802D112480931D041C81111559F0A9
:103DD0000E94DA1C91E011160CF09FEF899F802D54
:103DE000112480931E0480911D04811509F49ECF37
:103DF00010911E04111509F499CF0E94CC1C8093D8
:103E00001D04812F0E94CC1C80931E048FCF209113
:103E1000B5018AE0289F900111242417350708F086
:103E20009BCF9F5F9093180402C09F3FD1F71D81E5
:103E3000111559F00E941E1D91E011160CF09FEF14
:103E4000899F802D112480931F041E81111559F024
:103E50000E941E1D91E011160CF09FEF899F802D8E
:103E600011248093200480911F04811509F474CFDC
:103E700010912004111509F46FCF0E94CC1C80937F
:103E80001F04812F0E94CC1C8093200465CFA4E0E6
:103E9000B0E0EDE4FFE10C94AE2CE82FF0E0E65F3B
:103EA000FC4F24912983282F26952695269530E0CE
:103EB000F901E655FC4F0491877010E0082E02C00E
:103EC000159507950A94E2F7F901E656FC4FE49040
:103ED000F12C082E02C0F594E7940A94E2F7F90158
:103EE000E657FC4F3491232F30E002C035952795DB
:103EF0008A95E2F72B833C8300FF03C081EE0E948A
:103F00001006E0FE03C086EE0E94100689810E9422
:103F10001B07E0FE03C086EE0E949E0600FF03C062
:103F200081EE0E949E068B819C8180FF03C08CE203
:103F30000E941B072496E6E00C94CA2CA3E0B0E094
:103F4000E4EAFFE10C94B22C8A839B836983EA81C3
:103F5000FB818081813008F464C009F05FC08181F9
:103F60008130D1F482810E941B076A817B816E5F60
:103F70007F4F6A837B836A817B816F5F7F4F6A8318
:103F80007B838981811519F38150EFE9FFE0319737
:103F9000F1F700C00000F6CF823031F4EA81FB81F6
:103FA00082810E941006E1CF833031F4EA81FB81E7
:103FB00082810E949E06D9CF843031F08A819B8114
:103FC00001968A839B83D7CFEA81FB812281329637
:103FD000EA83FB8380E090E04AE02053330B2A30F1
:103FE000310550F0009739F20197EFE9FFE0319782
:103FF000F1F700C00000F6CF6A817B816F5F7F4FD1
:104000006A837B83489FB001499F700D1124C901C9
:10401000860F971FEA81FB812081DFCF0E94471F17
:10402000AACF2396E2E00C94CE2C60E00E949E1F63
:1040300008950F931F93CF93DF93C42FD22FFC01CA
:1040400085818115D1F0409323040E940823809339
:1040500021049093220480E28C0F883048F481E0A0
:10406000C1FD84E0C0FD880FC2FD82950E94240737
:10407000DF91CF911F910F91089510912304141394
:1040800034C080912104909122040E942023883C16
:10409000910558F5C0E2CD0F1D17C1F080E2810FE8
:1040A000883048F481E011FD84E010FD880F12FD96
:1040B00082950E942B07C83048F481E0D1FD84E04E
:1040C000D0FD880FD2FD82950E942407802F0E9488
:1040D0001B0781E0D1FD84E0D0FD880FD2FD8295E1
:1040E000C83030F60E942B07C3CF80E28C0F883097
:1040F00008F0BECF81E0C1FD84E0C0FD880FC2FDA5
:104100008295F0CF0F93FC01CB01E851FC47E730DB
:10411000F10590F5E856F24D0C949C2C06E221EE48
:1041200041EE6AE17CE70E94192080E00F9108953A
:1041300007E225EE45EE6BE17CE7F5CF06E221EEE6
:1041400040EE68E17CE7EFCF07E225EE44EE69E15F
:104150007CE7E9CF06E221EE42EE6CE17CE7E3CFBB
:1041600007E225EE46EE6DE17CE7DDCF08E221E0D7
:1041700045EE6EE17CE7D7CFFB018581811110927E
:10418000230481E0D3CF80932804909329040895D9
:10419000E0912804F0912904309729F00190F081F2
:1041A000E02D0995089580E008950E94C8200895A3
:1041B000E0912804F0912904309721F00280F381E6
:1041C000E02D09950895E0912804F0912904309795
:1041D00039F026E0DC012C930480F581E02D09956F
:1041E0000895E0912804F0912904309739F022E0F5
:1041F000DC012C930680F781E02D09950895A3E05A
:10420000B0E0E5E0F1E20C94B22C2091260430916C
:10421000270428173907A1F08093260490932704D8
:10422000E0912804F0912904309751F023E029838C
:104230008A839B830084F185E02DCE010196099548
:104240002396E2E00C94CE2CA3E0B0E0EAE2F1E2A7
:104250000C94B22C2091240430912504281739079E
:10426000A1F08093240490932504E0912804F09118
:104270002904309751F024E029838A839B830084AA
:10428000F185E02DCE01019609952396E2E00C948C
:10429000CE2C8091DF01811521F08091360487FDBD
:1042A00012C02091AC013091AD012E5F3F4F96E0DE
:1042B00080E09150F90140812F5F3F4F41118F5FA6
:1042C0009111F7CF08952091AA013091AB012E5F93
:1042D0003F4F9EE1EDCF8115A9F19091DF0191153E
:1042E00021F09091360497FD10C02091AC013091DF
:1042F000AD01F9013296285F3F4F9081981709F17F
:104300003196E217F307C9F71AC0982F969596953C
:104310009695803FA0F4E091AA01F091AB01E90FDE
:10432000F11D228130E0877041E050E0BA0101C008
:10433000660F8A95EAF7262381E0232B19F480E0A3
:10434000089581E008959C01FC01329680E09FEF82
:104350004081461759F031969F3F19F4411101C031
:10436000982F8F5F8630A1F79F3F09F40895290F9A
:10437000311D97FD3A95F90162830895FC0132964B
:1043800008962191261302C0DF011E92E817F90753
:10439000C1F70895262F269526952695603F60F44F
:1043A000FC01E20FF11D677021E001C0220F6A9548
:1043B000EAF78281822B82830895262F26952695FF
:1043C0002695603F68F4FC01E20FF11D9DEF61FD51
:1043D00097EF60FF959562FD929582818923828394
:1043E0000895682F8091DF01811559F0809136047E
:1043F00087FF07C08091AA019091AB010E94CA215A
:1044000008958091AC019091AD010E94A32108957F
:10441000682F8091DF01811559F08091360487FF64
:1044200007C08091AA019091AB010E94DD210895FF
:104430008091AC019091AD010E94BE2108958091C0
:10444000DF01811579F08091360487FF0BC0E09180
:10445000AA01F091AB0132968EE1DF011D928A959F
:10446000E9F70895E091AC01F091AD01329686E054
:10447000F4CFDC01FB0111969C9111978181981377
:1044800022C012968C911297811519F0928189138E
:104490001AC013968C911397811519F09381891383
:1044A00012C015968C911597811519F09581891375
:1044B0000AC014969C91911521F081E02481291362
:1044C00003C080E001C081E08170089508950E94DA
:1044D000662208958F5F80932A040E9467220895C0
:1044E00083E080932A040E94672208950E946A2232
:1044F000089581E080932A040E94672208950E9413
:1045000079220895089508950E94832208950895B8
:1045100008950E9482220895CF930E9487220E94CC
:104520008B140E948822C0E08C2F0E94C513892B17
:1045300031F4CF5FC330C1F780E0CF91089581E0BF
:10454000FCCF85B7806885BF85B7806885BF089533
:104550001F921FB61F9211248F939F93AF93BF9307
:1045600080912B04811113C08091440490914504E3
:10457000A0914604B09147044196A11DB11D8093BE
:10458000440490934504A0934604B0934704BF911C
:10459000AF919F918F911F901FBE1F901895809192
:1045A0004C04843031F10E94F50410922B0488E110
:1045B00090E020E40FB6F894A895809360000FBEB9
:1045C0002093600083B7817F846083BF83B781605D
:1045D00083BF7894889583B78E7F83BF0FB6F89496
:1045E000A8958091600088618093600010926000BF
:1045F0000FBE08950E9492090E94FA04089582E075
:1046000084BD93E095BD9AEF97BD80936E000895A9
:104610002FB7F8948091440490914504A0914604EA
:10462000B09147042FBF08952FB7F89460914404C8
:104630007091450480914604909147042FBF0895DE
:104640009C014FB7F8948091440490914504A09147
:104650004604B09147044FBF821B930B0895789492
:104660001F921FB61F9211248F939F93AF93BF93F6
:104670008091440490914504A0914604B091470470
:104680000196A11DB11D8093440490934504A0930D
:104690004604B0934704BF91AF919F918F911F90B3
:1046A0001FBE1F90189587E797E7809300089093A7
:1046B000010888E19AE00FB6F894A895809360000D
:1046C0000FBE90936000FFCF88E19AE00FB6F89498
:1046D000A895809360000FBE90936000FFCF8091FB
:1046E000340408959B01BA0190914C049430E1F494
:1046F0008F708093E9009FEF8091E80085FD06C0F0
:1047000085ED8A95F1F700009150B1F78091E800AE
:1047100085FF0AC040E050E0C9010E94E725809172
:10472000E8008E778093E800089543E050E0BC01F4
:1047300082E00E947223089546E050E0BC0182E0CE
:104740000E947223089540E250E0BC0182E00E9482
:1047500072230895CF93DF93EC0148E050E0BC0151
:1047600081E00E94722388E0FE01ACE2B4E0019097
:104770000D928A95E1F7DF91CF91089580914B04D6
:10478000811109C00E9477270E94D2278091E20000
:1047900084608093E200089510924B0408950E9473
:1047A000792208956091480481E0611101C080E0A0
:1047B0000E947022089590914C0481E0943009F099
:1047C00080E0609148040E947622089542E061EC06
:1047D00081E00E94F32642E261EC82E00E94F3262F
:1047E00042E061EC83E00E94F32642E160E885E06C
:1047F0000E94F32642E161E884E00E94F326909152
:104800004C0481E0943009F080E0609148040E94FB
:104810006A22089580914E04893009F44AC068F4F0
:10482000823009F4A7C0833009F476C0813011F1D9
:104830008AEB91E00E94B72B08958A3009F489C071
:104840008B30B1F780914D04813291F78091510402
:1048500090915204892B61F78091E800877F8093C3
:10486000E8000E94272780914F048093DF010E9477
:104870009209DECF80914D04813AD1F68091E80013
:10488000877F8093E8008091510490915204892B96
:1048900061F060E080E090E070E00E943626809158
:1048A000E8008B778093E800C3CF68E08CE294E067
:1048B000F3CF80914D04813209F0BACF8091510439
:1048C00090915204029708F0B3CF8091E800877F5F
:1048D0008093E8008091E80082FF19C02091F300E6
:1048E0008091F200922F029731F48091F100813093
:1048F00011F0863021F48091F1008093340480918E
:10490000E8008B778093E8000E94272791CF809161
:104910004C048111DFCF089580914D04813A09F054
:1049200087CF8091510490915204892B09F080CF58
:104930008091E800877F8093E8008091E80080FF05
:10494000FCCF8091DF018093F1008091E8008E77A9
:10495000D9CF80914D04813209F06ACF8091E8006F
:10496000877F8093E8000E942727809150048093DE
:1049700035045ECF80914D04813A09F059CF809182
:10498000E800877F8093E8008091E80080FFFCCFFB
:1049900080913504D8CF82E08093CC011092CD0174
:1049A0008AEB91E00E947B2B08950895CF93DF93CB
:1049B0008AEB91E00E94F92AEC01209719F4DF912B
:1049C000CF9108958AEB91E00E94232B0E94D52479
:1049D0002197F3CFCF939091E900C091EC00209103
:1049E000CA013091CB0120FF15C09F70C0FBCC27BE
:1049F000C7F9C92B9091BB019F709093E9009091EA
:104A0000EB0090FF04C09091EE0097FD05C0CF70C1
:104A1000C093E900CF9108959FEF2091E80025FD14
:104A200006C025ED2A95F1F700009150B1F780936B
:104A3000F1008AEB91E00E94B32A8091E80080FFA8
:104A4000E6CF8091E8008E778093E800E0CF84B7CE
:104A5000877F84BF0FB6F894A89580916000886125
:104A600080936000109260000FBE80E890E00FB667
:104A7000F89480936100909361000FBE0E947F22A2
:104A800008950E9477270E94D227E2EEF0E080810D
:104A90008460808378940E94502A089585ED91E087
:104AA0000E94C320089580914C04853031F4809198
:104AB0004C04853019F00E94FA2208950E94CF22FA
:104AC00080914A04811599F30E948C22811579F313
:104AD0000E94D1250E949209EACF0E94D6248AEB37
:104AE00091E00E94E22A08959A0140915304509166
:104AF00054040E947C250895492F50E0433051050D
:104B0000C9F070F441305105E9F14230510571F4BA
:104B100088E790E040EF53E0F90140835183089526
:104B200041325105E9F04232510519F180E090E03F
:104B300040E0F2CF482F50E0813061F04230510523
:104B400061F0ECEEF3E04115510581F7849190E0BE
:104B5000AF01E2CFECECF3E0F9CFEAEBF3E0F6CF14
:104B600061307105A0F011F789E090E04BE154E06D
:104B7000D3CF6130710580F0C9F686EB90E04AE74B
:104B800054E0CACF82E190E048E654E0C5CF89E026
:104B900090E042E054E0C0CF84E490E040E355E090
:104BA000BBCF80E189BD82E189BD09B400FEFDCFA4
:104BB0008091D8008F7D8093D8008091E000826042
:104BC0008093E0008091E00081FDFCCF0895AF92DA
:104BD000BF92CF92DF92FF920F931F93CF93DF93F9
:104BE0006C01EB018A010E944627F82E811123C037
:104BF0000115110539F0F80180819181C81BD90B8D
:104C0000C80ED91EA12CB12C2097A9F08091E800E4
:104C100085FD22C08091E8008E778093E800011521
:104C20001105A1F0F801808191818A0D9B1D80837F
:104C3000918385E0F82E8F2DDF91CF911F910F91F9
:104C4000FF90DF90CF90BF90AF9008950E944627CD
:104C50008115E1F2F82EEFCFF60181916F0180937B
:104C6000F1002197FFEFAF1ABF0ACECFFC012091D0
:104C70005304309154042617370720F0611571054D
:104C800069F09B0190E02115310571F491110CC080
:104C90008091E80082FF38C080E008959091E8009C
:104CA0009E779093E800EDCF80914C048115C1F17F
:104CB0008530C1F18091E80083FD30C08091E8002B
:104CC00082FDE6CF8091E80080FFDDCF8091F30088
:104CD0004091F200582F2115310519F04830510547
:104CE00058F091E04830510509F090E04091E8001B
:104CF0004E774093E800C7CF81918093F100215017
:104D000031094F5F5F4FE7CF80914C04811541F02F
:104D1000853041F08091E80083FFBACF81E00895AB
:104D200082E0089583E00895FC01209153043091BE
:104D300054042617370720F06115710569F09B01AF
:104D400090E02115310571F491110CC08091E800BB
:104D500082FF39C080E008958091E8008E778093CB
:104D6000E800EDCF80914C048115C9F18530C9F17F
:104D70008091E80083FD31C08091E80082FDE6CF9C
:104D80008091E80080FFDDCF8091F3004091F20038
:104D9000582F2115310519F04830510558F091E090
:104DA0004830510509F090E08091E8008E778093BB
:104DB000E800C7CF84918093F100319621503109EA
:104DC0004F5F5F4FE6CF80914C04811541F08530F5
:104DD00041F08091E80083FFB9CF81E0089582E03F
:104DE000089583E00895982F973028F08F7080936E
:104DF000E90081E008959093E900242F762F50E098
:104E0000981731F07091EC002091ED005091F00076
:104E100021FD02C09F5FE8CF3091EB003E7F3093D1
:104E2000EB003091ED003D7F3093ED003091EB00D1
:104E300031603093EB007093EC002093ED005093C1
:104E4000F0002091EE0027FDE5CF80E008958091ED
:104E50004D0487FF13C08091E80082FF06C0809157
:104E6000E8008B778093E800089580914C048111CD
:104E7000F2CF089580914C048115D9F38091E80018
:104E800080FFF8CF8091E8008E77ECCF2091E4008E
:104E90003091E50095E6A9012091EC00822F817008
:104EA00020FF06C08091E80080FF06C080E00895E2
:104EB0002091E80022FD1AC080914C04811589F0F0
:104EC000853089F08091EB0085FD0FC02091E400D2
:104ED0003091E50042175307F9F29150E1F684E072
:104EE000089582E0089583E0089581E008950E9486
:104EF000E3270E94EB27E0EEF0E080818160808371
:104F0000E8ED80818F77808319BCA7EDB0E08C91AC
:104F10008E7F8C9380818F7E808310924B040895C6
:104F20000F931F93CF93DF930E94E3270E94EB27F9
:104F3000C8EDD0E088818F778883888180688883F6
:104F400088818F7D888319BC10924C04109248048C
:104F500010924A041092490400EE10E0F80180819A
:104F60008B7F808388818160888342E060E080E07D
:104F70000E94F326E1EEF0E080818E7F8083E2EEF6
:104F8000808181608083808188608083E0EE808181
:104F90008E7F8083888180618883DF91CF911F918C
:104FA0000F910895E8EDF0E080818F7E8083E7ED3A
:104FB00080818160808384E082BF81E080934B04A4
:104FC0000E9490270895E8EDF0E080818E7F808335
:104FD0001092E20008951092DA001092E100089514
:104FE0001F920F920FB60F9211242F933F934F935E
:104FF0005F936F937F938F939F93AF93BF93EF9341
:10500000FF938091E10082FF0BC08091E20082FF5C
:1050100007C08091E1008B7F8093E1000E944F2ABE
:105020008091DA0080FF19C08091D80080FF15C000
:105030008091DA008E7F8093DA008091D90080FF22
:1050400094C080E189BD82E189BD09B400FEFDCF35
:1050500081E080934C040E94BE238091E10080FF98
:1050600019C08091E20080FF15C08091E2008E7F20
:105070008093E2008091E20080618093E200809161
:10508000D80080628093D80019BC85E080934C04DE
:105090000E94D2238091E10084FF29C08091E20028
:1050A00084FF25C080E189BD82E189BD09B400FE8D
:1050B000FDCF8091D8008F7D8093D8008091E10052
:1050C0008F7E8093E1008091E2008F7E8093E200EA
:1050D0008091E20081608093E20080914804811514
:1050E00009F449C084E080934C040E94DB23809142
:1050F000E10083FF29C08091E20083FF25C08091F9
:10510000E100877F8093E10082E080934C0410925D
:1051100048048091E1008E7F8093E1008091E2005D
:105120008E7F8093E2008091E20080618093E200B4
:1051300042E060E080E00E94F3268091F000886009
:105140008093F0000E94CF23FF91EF91BF91AF9128
:105150009F918F917F916F915F914F913F912F918F
:105160000F900FBE0F901F90189519BC10924C0411
:105170000E94CC2372CF8091E30087FF02C083E0BE
:10518000B2CF81E0B0CF1F920F920FB60F921124D1
:10519000EF92FF920F931F932F933F934F935F9341
:1051A0006F937F938F939F93AF93BF93CF93EF931F
:1051B000FF9309EE10E0F8018081C091EC008F7040
:1051C000C0FBCC27C7F9C82B1082E0EF8081877F16
:1051D000808378940E940B29F8011082E0EF80818F
:1051E00088608083CF70E9EEC083FF91EF91CF910B
:1051F000BF91AF919F918F917F916F915F914F91EF
:105200003F912F911F910F91FF90EF900F900FBE44
:105210000F901F901895AAE2B0E0E1E1F9E20C943A
:10522000B12C8DE494E0FC0101962091F1002083E3
:1052300024E085359207B9F70E940A248091E8009E
:1052400083FF38C080914D0490914E049A3090F5C0
:10525000E92FF0E0E156F24D0C949C2C803889F057
:10526000823841F5809151048F70873018F5809312
:10527000E9008091EB0085FB882780F91092E90016
:1052800006C080914A04880F90914904892B90911F
:10529000E800977F9093E8008093F1001092F1006E
:1052A0008091E8008E7723C0811116C080914F0451
:1052B000813011F18091E80083FF0AC08091E800FD
:1052C000877F8093E8008091EB0080628093EB0001
:1052D000AA96E3E00C94CD2C823061F780914F04C4
:1052E000811581F01092E9008091E800877F80931A
:1052F000E8000E942727DECF933009F080E08093FA
:105300004A04F0CF809151048F702FEF280F263080
:1053100088F68093E9002091EB0020FFE3CF9330E3
:1053200031F48091EB0080628093EB00DBCF9091B1
:10533000EB0090619093EB0021E030E0A90101C007
:10534000440F8A95EAF74093EA001092EA008091B0
:10535000EB008860E9CF8111ADCF10914F041F772A
:105360008091E3008078812B8093E3008091E800B6
:10537000877F8093E8000E9427278091E80080FFC4
:10538000FCCF8091E30080688093E30083E01111FB
:1053900001C082E080934C048DCF8058823008F0A9
:1053A00089CF80914F04909150048C3D53E0950734
:1053B00091F583E08A838AE289834FB7F894DE010E
:1053C000139620E03EE051E2E32FF0E050935700C7
:1053D000849120FF03C082958F703F5F8F708A3069
:1053E000C0F0895C8D931D922F5F243169F74FBF08
:1053F0008091E800877F8093E8006AE270E0CE0148
:1054000001960E9436268091E8008B778093E80011
:1054100051CF805DE7CF6091510470915204AE018D
:105420004F5F5F4F0E947425BC01892B09F442CF66
:105430009091E800977F9093E80089819A810E947B
:105440009426E1CF803809F035CF8091E800877F3E
:105450008093E800809148048093F10021CF81116E
:1054600029CF90914F04923008F024CF8091E8002A
:10547000877F8093E800909348040E9427278091BB
:105480004804811531F084E080934C040E94E623A7
:1054900011CF8091E30087FDF6CF81E0F5CF08952D
:1054A000CF9380914C04811599F08091E900C091CF
:1054B000EC008F70C0FBCC27C7F9C82B1092E90015
:1054C0008091E80083FD0E940B29CF70C093E90012
:1054D000CF910895A1E0B0E0E0E7FAE20C94B22C9D
:1054E000698320914C04243019F5FC0144895589C5
:1054F00066897789452B462B472BD1F081818F70A8
:105500008093E9008091E80085FF08C0F981F0935D
:10551000F10080E02196E2E00C94CE2C8091E8002E
:105520008E778093E8000E944627811579F3F2CFA9
:1055300082E0F0CFA1E0B0E0E0EAFAE20C94B22C15
:105540008983FB01682F848595850E946A2A8111D1
:1055500007C02981822F90E02196E2E00C94CE2CA6
:105560008FEF9FEFF9CF20914C04243049F5FC01D7
:105570004489558966897789452B462B472B01F14C
:1055800081818F708093E9002091F3008091F20077
:10559000922F892B11F480E008959091E80080917A
:1055A000E8008E778093E80095FDF5CF0E944627AE
:1055B000811107C09091E8009E779093E8000895CC
:1055C00082E0089520914C04243091F4FC01448938
:1055D000558966897789452B462B472B49F02181D0
:1055E0002F702093E9002091E80020FD0E94B32A4B
:1055F000089520914C042430E9F4FC014489558934
:1056000066897789452B462B472BA1F086818F70C1
:105610008093E9008091E80082FF0CC02091F300A4
:105620008091F200922F892B41F48091E8008B77D2
:105630008093E80080E090E008952091F30080914D
:10564000F200922F089520914C04243019F08FEF2E
:105650009FEF0895FC014489558966897789452B18
:10566000462B472BA1F386818F708093E9008091B0
:10567000E80082FFECCF2091F3008091F200922F9E
:10568000892B81F08091F10090E04091F30020910E
:10569000F200342F232B29F42091E8002B7720935C
:1056A000E80008958FEF9FEFF0CFFC01848595858A
:1056B0000E94232B8F3F980711F48EEF9FEF0895E0
:1056C000CF93DF93EC018C859D850E94232B8F3F28
:1056D000980719F0DF91CF91089580914C048115BE
:1056E00039F08C859D850E94E22A0E94502AEBCFDA
:1056F0008EEF9FEFEFCFA8E0B0E0E1E8FBE20C9483
:10570000B02C8C0180914C04843059F5F8018489C7
:105710009589A689B789892B8A2B8B2B11F18385D3
:105720008F708093E90088E0E0EEF1E0DE011196F1
:1057300001900D928A95E1F740E050E068E070E05A
:10574000CE0101960E94E72540E050E062E070E063
:10575000C80142960E94E7258091E8008E778093E9
:10576000E8002896E4E00C94CC2C08950895CF939B
:10577000DF93EC018091E80083FF13C028818091C2
:105780005104909152042817190659F480914E043F
:10579000823209F479C040F4803209F442C0813287
:1057A000B1F0DF91CF9108958332D9F780914D0404
:1057B0008132B9F78091E800877F8093E8000E94EA
:1057C000272760914F04CE010E94B62BEACF80912B
:1057D0004D04813A31F78091E800877F8093E8009B
:1057E0008091E80080FFFCCF8C899D89AE89BF89BC
:1057F0008093F1009093F100A093F100B093F10039
:10580000888D8093F100898D8093F1008A8D80933B
:10581000F1008091E8008E778093E8000E942727AE
:10582000C0CF80914D04813209F0BBCF8091E80058
:10583000877F8093E8008091E80082FF20C030914C
:10584000F1002091F1009091F1008091F1003C8BEA
:105850002D8B9E8B8F8B8091F100888F8091F10032
:10586000898F8091F1008A8F8091E8008B778093F7
:10587000E8000E942727CE010E94B52B92CF80918D
:105880004C048111D8CF8DCF80914D04813209F025
:1058900088CF8091E800877F8093E8000E942727C7
:1058A00080914F0490915004888B998BCE010E9477
:1058B000B52B77CF992778E0880F991F961708F0B6
:1058C000961B881F7A95C9F78095089597FB072E38
:1058D00016F4009407D077FD09D00E94D92C07FC5C
:1058E00005D03EF4909581959F4F089570956195F0
:1058F0007F4F0895A1E21A2EAA1BBB1BFD010DC00C
:10590000AA1FBB1FEE1FFF1FA217B307E407F5076F
:1059100020F0A21BB30BE40BF50B661F771F881F4B
:10592000991F1A9469F760957095809590959B01E1
:10593000AC01BD01CF010895EE0FFF1F0590F4915A
:10594000E02D09942F923F924F925F926F927F9237
:105950008F929F92AF92BF92CF92DF92EF92FF927F
:105960000F931F93CF93DF93CDB7DEB7CA1BDB0B2B
:105970000FB6F894DEBF0FBECDBF09942A883988D0
:1059800048885F846E847D848C849B84AA84B984D7
:10599000C884DF80EE80FD800C811B81AA81B981E3
:1059A000CE0FD11D0FB6F894DEBF0FBECDBFED01F7
:1059B0000895AA1BBB1B51E107C0AA1FBB1FA61756
:1059C000B70710F0A61BB70B881F991F5A95A9F7A8
:1059D00080959095BC01CD010895FB01DC0104C0C8
:1059E0008D910190801921F441505040C8F7881BD7
:1059F000990B0895FB01DC0102C001900D9241500A
:105A00005040D8F70895F999FECF92BD81BDF89A1C
:105A1000992780B50895A8E1B0E042E050E00C94E9
:105A2000472DDC01A40FB51F4150504048F0CB0179
:105A3000840F951F2E910E94222D41505040D0F787
:105A40000895262FF999FECF92BD81BDF89A01974E
:105A500000B4021639F01FBA20BD0FB6F894FA9AB6
:105A6000F99A0FBE08950396272F0E94222D0E94B7
:105A7000212D252F0E94222D242F0C94222D0196BA
:105A8000272F0E94222D0C94212DDC01CB01FC013B
:105A9000F999FECF06C0F2BDE1BDF89A319600B487
:105AA0000D9241505040B8F70895F894FFCF700719
:105AB0007007B707B7071A0836089F079F073B0804
:105AC000B108C208C2084B1CBC1C531C1D1C211C65
:105AD000571C251C5B1C671C311CB51C351C6B1C22
