:100000000C94B7020C94EF020C94EF020C94EF02E4
:100010000C94EF020C94EF020C94EF020C94EF029C
:100020000C94EF020C94EF020C942C280C94FF28F3
:100030000C94D1220C94EF020C94EF020C94EF027A
:100040000C94EF020C94EF020C94EF020C94EF026C
:100050000C94EF020C9458230C94EF020C94EF02D2
:100060000C94EF020C94EF020C94EF020C94EF024C
:100070000C94EF020C94EF020C94EF020C94EF023C
:100080000C94EF020C94EF020C94EF020C94EF022C
:100090000C94EF020C94EF020C94EF020C94EF021C
:1000A0000C94EF020C94EF020C94EF02C774C97425
:1000B000CB74CD74D174D674DA74DC74DE74E074ED
:1000C000E274C874CA74CC74CE74D274D774DB74FE
:1000D000DD74DF74E174E97400000000447ECF74C5
:1000E000D074D874D974C2740000000000000000FD
:1000F0000000000000000000AC00AA00A900AB0056
:1001000000000000E100E000E300E2002C005000ED
:10011000510052004F0000000000000000000100EC
:10012000C17400002C00000000000000000000006E
:1001300014001A000800150017001C0018000C001D
:10014000120013002A001D001B0006001900050004
:10015000110010003600370038004C00000000008D
:10016000E000E300E2002C00417E427E000000003F
:1001700000003A003B003C003D003E003F004000D4
:1001800041004200430044000000000000002B003A
:100190002900AC00AA00A900AB00AE004500000099
:1001A0000000E000E300E2002C000100010000007C
:1001B000000000001E001F0020002100220023007C
:1001C00024002500260027002A003500000000003A
:1001D0002B00290046002D002E002F00300031009A
:1001E00000000000E000E300E2002C00010001003C
:1001F00000000000000000000000000000000000FF
:1002000000000000000000000000000000000000EE
:1002100000000000000000000000000000000000DE
:10022000000000000000437E00000000000001000C
:1002300001000000000000004200AB00000041008F
:10024000A90000004000AA0000003F00AC00000030
:1002500044004500000026002F00000025002E006D
:10026000000024002D0000002300460000002A00AA
:10027000310000001E00350000002A004C00000084
:100280001300380000001200370000000C00360098
:1002900000001800100000001C00110000001700F2
:1002A000050000001500190000000800060000000D
:1002B0001A001B00060000001A001B0000001400BA
:1002C0001D00000000D0D0D0D0D0D0010102040821
:1002D0001020414244484800000048485060818254
:1002E000848890A0C1C2C4D0D0D0D0D0D0C80000E3
:1002F00000000000000000000000000000000000FE
:100300000000000000000000000000002A2B280070
:1003100000000000000000000000000000000029B4
:10032000000000002C1E3420212224342627252EF4
:10033000362D3738271E1F2021222324252633332C
:10034000362E37381F0405060708090A0B0C0D0E58
:100350000F101112131415161718191A1B1C1D2F24
:100360003130232D350405060708090A0B0C0D0E44
:100370000F101112131415161718191A1B1C1D2F04
:100380003130354C0000000000000000000000008B
:10039000000000000000000000000000000000005D
:1003A00000000000000000007E0F00D4FFFFFFC728
:1003B000000000781003540068006500200055001C
:1003C0006E00690000001E037300740065006E007B
:1003D0006F006B006500790062006F0061007200C1
:1003E000640073000000040309040902780004019A
:1003F00000A0FA0904000001030101000921110114
:1004000000012244000705810308000109040100DE
:10041000010300000009211101000122B6000705B7
:100420008203200001080B020202020100090402FB
:10043000000102020100052400100104240202054B
:1004400024060203070583030800FF0904030002D2
:100450000A000000070505021000050705840210C8
:10046000000512010002EF020108009001000300E4
:100470000102000105010902A10185020901A10093
:100480000509190129081500250195087501810242
:100490000501093009311581257F9502750881060E
:1004A00009381581257F950175088106050C0A38E4
:1004B000021581257F950175088106C0C0050109D7
:1004C00080A101850319012AB700150126B70095FF
:1004D0000175108100C0050C0901A10185041901F5
:1004E0002AA002150126A002950175108100C00501
:1004F000010906A1018506050719E029E715002570
:10050000019508750181020507190029EF150025DD
:100510000195F075018102050819012905950575F8
:10052000019102950175039101C005010906A10120
:10053000050719E029E715002501950875018102D5
:100540009501750881010507190029FF150026FF8F
:100550000095067508810005081901290515002573
:1005600001950575019102950175039101C0112452
:100570001FBECFEFDAE0DEBFCDBF04B603FE18C06A
:100580008091330490913404A0913504B0913604E5
:100590008730904BA740B04B59F41092330410921F
:1005A00034041092350410923604E0E0F8E3099523
:1005B00012E0A0E0B1E0E6E0FBE502C005900D929C
:1005C000AC35B107D9F724E0ACE5B2E001C01D922B
:1005D000A333B207E1F70E941B150C942F2D0C9446
:1005E000000080E00E94771508959C01FB012234F1
:1005F0008EE7380709F46DC050F420348EE73807D1
:10060000F9F021343E4709F454C081E008952334C1
:100610008EE7380701F124343E47B9F7858181150B
:1006200011F10E94312390935F0280935E028091CA
:1006300062028F5F8093620281E00E942F0A09C0EC
:100640008581811531F082E00E942F0A82E00E94AC
:10065000230A80E0089585818115D9F380E00E9406
:100660002F0A80E0F4CF80915E0290915F020E9499
:100670004923843F914068F480916202823048F0BF
:1006800080E00E943F0A82E00E942F0A82E00E94DE
:10069000230A81E00E943F0A8091600290916102EA
:1006A000892BB9F60E9431239093610280936002F6
:1006B000D0CF8581811521F084E00E942F0A03C0EC
:1006C00084E00E943F0A45E063E084E00E94840BDE
:1006D000C0CF8581811511F083E0EFCF83E0F1CFAA
:1006E0008091600290916102009759F00E94492325
:1006F000853F914030F01092620210926102109298
:10070000600208958630B8F46330A8F44B3098F452
:10071000E42FF0E09BE0699FE00DF11D112491E2D0
:10072000899FE00DF11D1124EE0FFF1FE455FF4FCF
:1007300085919491089581E090E008950E9482034C
:10074000089587E190E0089547E0489F9001499F10
:10075000300D1124C90180509F4F08959C019A9536
:1007600081159F4118F5F901EE27F270832F8170F2
:10077000B90166277470A9014427587034FF0CC072
:100780008295807FEF2B09F08062672B09F08064EF
:10079000452B69F080680895EF2B09F08260672B84
:1007A00009F08460452B19F08860089580E0089571
:1007B000CF93DF93EB010E94AE03FE010995DF9119
:1007C000CF910895CF93DF93EC01805E9109089754
:1007D00020F067E779E0209711F46CE277E0CE0132
:1007E0000E94D8038C2F0E942406DF91CF91089598
:1007F000CF93DF93EC010E94B106CE01805E910998
:10080000089720F06EE779E0209711F463E377E032
:10081000CE010E94D803DF91CF91089581E0089521
:100820000E940E04089581E008950E94F502089543
:1008300008950E9418040895A6E0B0E0E2E2F4E012
:100840000C948B2C49835A839E8330916F0289814B
:100850009A8131111AC03E81311599F0211589F024
:100860000E94F60A182F682F89819A810E94D20A65
:1008700069817A81812F0E9480122696E3E00C9490
:10088000A72C0E94E40A182FF3CF0E94F60A698170
:100890007A81F1CFFC01262F87819085009741F462
:1008A0004081518162817381848195810E941C0401
:1008B00008950F931F93CF93DF93D82FC92F61E033
:1008C0000E944A048C016D2F7C2F0E941004811518
:1008D00059F06D2F7C2FC8010E94161A8170DF918C
:1008E000CF911F910F91089580E090E0F7CFCF93C3
:1008F000DF93D82FC92F60E00E944A046D2F7C2F10
:100900000E941904DF91CF91089581E008950E941B
:1009100085040895CF93C82F0E949B098C2F0E94B5
:1009200087042FEF84E39CE0215080409040E1F762
:1009300000C00000CF91089581E00E948A040E94C7
:100940007C23089580E00E948A040E94A0230895D9
:100950000F931F93CF93DF938C0161E00E944A04B1
:10096000EC01B8010E941504811509F442C0B801D8
:10097000CE010E948A158115E1F1B801CE010E94D5
:1009800086178115B1F1B801CE010E949B20811517
:1009900081F1B801CE010E94FF1B811551F1B80110
:1009A000CE010E94D41B811521F1F80185818115AA
:1009B00081F0CA35FCE7DF0739F178F4C130ECE7A4
:1009C000DE07F9F0C330FCE7DF07C9F0C115DC47EB
:1009D00071F0C8010E9413040DC0CB35ECE7DE07AF
:1009E000B1F0CC35DC47A9F70E94AB0FF2CF0E94E3
:1009F0009C0480E0DF91CF911F910F9108950E9498
:100A0000BD0F0E94A204F5CF0E94B50FE2CF0E9455
:100A1000B90FDFCF0E94AD220E94BB0508950E944E
:100A2000BF050E94B22208954F925F926F927F920B
:100A3000AF92BF92CF92DF92EF92FF920F93CF933C
:100A4000DF937C0129013A01615071096B01EC01CE
:100A5000C60FD71F1882A12CB12CAC14BD0478F09E
:100A6000C701DF91CF910F91FF90EF90DF90CF9072
:100A7000BF90AF907F906F905F904F900895C301AB
:100A8000B2012AE030E040E050E00E94542C605D6A
:100A9000603341F4A114B10429F0452846284728C1
:100AA00009F4602F6A9329013A018FEFA81AB80A56
:100AB000D4CF0F939C01062F8091A1019091A201A8
:100AC0008217930721F480916902861781F0309391
:100AD000A2012093A1010093690240E050E066E08A
:100AE00070E083E692E00E9414050F91089583E67A
:100AF00092E0FBCF292F30E021153105E9F49C016C
:100B000080E0A90174E0569547957A95E1F7411583
:100B1000510511F08C5F9A01A9015695479556959C
:100B200047954115510511F08E5F9A01369527952D
:100B3000232B09F08F5F089588E0E3CF089581E0CB
:100B400008950895CF93DF93D82F0E949F05C82F53
:100B5000811519F08D2F0E94A1058C2FDF91CF9167
:100B600008950895CF93C82F0E949E058C2F0E9450
:100B7000A205CF91089580E00E94B20508950E94D9
:100B8000E1200E94B2050895CF930E94E120C82F72
:100B900080916A028C1779F0C0936A020E943D230B
:100BA00060936B0270936C0280936D0290936E025F
:100BB0008C2F0E94B205CF910895AFE0B0E0E3EE34
:100BC000F5E00C948A2C4A875B876C877D878E873B
:100BD0009F8791110E94A70E1F821886198686E0B2
:100BE000FE013A96DE01119601900D928A95E1F789
:100BF0008D8181110FC009811A812B813C814D812A
:100C00005E816F81788589850E94E70D2F96E4E0EB
:100C10000C94A62CCE0101960E9459048111EBCFB1
:100C2000F5CFFC018481813021F4808191810E9483
:100C3000280B0895611529F00E946C1D0E94401E2A
:100C400008950E94C81DFACFCF93C82F8115C9F00F
:100C50008238C9F40E94EE2081FD13C089E30E940E
:100C60001A220E944D0F2FEF37EE83E021503040C3
:100C70008040E1F700C0000089E30E9431220E9419
:100C80004D0FCF9108958338A1F40E94EE2080FD8E
:100C9000F8CF83E50E941A220E944D0F9FEF21EEAC
:100CA00034E0915020403040E1F700C0000083E57F
:100CB000E4CF8438A1F40E94EE2082FDE2CF87E4E5
:100CC0000E941A220E944D0F8FEF91EE24E0815076
:100CD00090402040E1F700C0000087E4CECF8CEFC9
:100CE0008C0F813A70F48C2F0E948B21811529F092
:100CF0008C2F0E9431220E944D0F8C2F0E941A22AD
:100D0000BECF80E28C0F883048F4C77081E001C00C
:100D1000880FCA95EAF70E94880EB1CF8BE58C0F39
:100D2000833038F42C2F2452330BC9010E941A212E
:100D3000A8CFE8E5EC0FEB3150F4F0E0EE0FFF1F29
:100D4000EF51FE4F808191810E9440219ACF83E331
:100D50008C0F833108F095CF61E08C2F0E941A062A
:100D600090CF811509F456C0823879F40E94EE20A4
:100D700081FF50C089E30E941A220E944D0F89E32F
:100D80000E9431220E944D0F0895833859F40E9429
:100D9000EE2080FF3FC083E50E941A220E944D0F83
:100DA00083E5EECF843859F40E94EE2082FF32C0F2
:100DB00087E40E941A220E944D0F87E4E1CF9CEF46
:100DC000980F913AE8F290E2980F983050F48770BB
:100DD00091E001C0990F8A95EAF7892F0E948E0E43
:100DE000D1CF9BE5980F933028F480E090E00E94EB
:100DF0001A21089598E5980F9B3128F480E090E03F
:100E00000E944021089593E3980F933118F460E015
:100E10000E941A0608951F93CF93DF93182FEB01BA
:100E20000E942406209739F4812F0E94B106DF9199
:100E3000CF911F9108958FE99FE00197F1F700C0CE
:100E400000002197EFCF60E570E0893311F060E09A
:100E500070E00E940B070895811521F00E94880E12
:100E60000E944D0F0895811521F00E948E0E0E9460
:100E70004D0F0895A0E0B0E0E0E4F7E00C94862C7C
:100E80006C01D62FC72FFC011581068102950F70CA
:100E90000E947D0EE82E8115F9F0E12E1115E1F08A
:100EA0008C2F807F803461F080E28D0F8830F0F0ED
:100EB0008C2F807E803221F4D230C0F00115B1F049
:100EC0008091150482FF12C082E00E947E0F0E9472
:100ED0007D0E91E0E82EE926EC2FE295EF70C03C04
:100EE000B0F5F0E0EF5CF24D0C94762CE12CF4CFF1
:100EF0000C2F0F70C03110F00295007F111599F082
:100F0000011559F080E28D0F883010F0D11107C023
:100F1000802F0E94880E0E944D0F8D2F51C0802F70
:100F20000E94990EF8CF8D2F0E94B106011579F01D
:100F300080E28D0F883010F0D11104C0802F0E9404
:100F40008E0E03C0802F0E949F0E0E944D0FE11451
:100F500089F00E94790E80FD0DC0F60115820E9475
:100F6000730E0E942F0AC6010E9454090E94730E3C
:100F70000E943F0ACDB7DEB7E8E00C94A22CFC2F0C
:100F8000FF70FF2EC07FC03219F0F29480EFF8227C
:100F9000D11541F0D130D1F1111509F444C001153A
:100FA000F1F0BBCF8091150482FD15C0111559F0E9
:100FB000F11429F08F2D0E94880E0E944D0F80E0C1
:100FC0000E942406C4CF80E00E94B106F11409F407
:100FD000BECF8F2DB4CF111569F0011104C08F2D34
:100FE0000E942C07B4CF013009F0B1CF8F2D0E94A1
:100FF000C20EADCF0111ABCF8F2D0E9433078F2DC5
:101000000E94CE0E8F2D0E94B10EA1CF111521F09E
:10101000063008F09CCFE3CF053008F098CF8F2D35
:101020000E94330794CF0115D1F3D93349F42FEF40
:1010300087EE93E0215080409040E1F700C000002F
:101040008D2F0E94B10683CF8C2F86958695837055
:10105000811569F0813009F07ACF8D2F9C2F937024
:10106000111102C080E090E00E94402170CF8D2FCE
:101070009C2F9370111102C080E090E00E941A2111
:1010800066CF612F8D2F0E941A0661CF8C2F83703F
:10109000811139C0111129C04D2F429546954770D5
:1010A000440F440F2D2F2F7030E0042E02C0220F6A
:1010B000331F0A94E2F780E090E0D4FF09C08FE08C
:1010C00090E002C0880F991F4A95E2F780959095AD
:1010D000C695C695C370822B932BC23071F0C33076
:1010E00079F0C13039F00E94FF090E94E1200E948E
:1010F000B2052DCF0E94F609F8CF0E94080AF5CF5D
:101100000E94F309F2CF111561F1C0FFEECF4D2F10
:10111000429546954770440F440F2D2F2F7030E0B5
:10112000042E02C0220F331F0A94E2F780E090E001
:10113000D4FF09C08FE090E002C0880F991F4A9544
:10114000E2F780959095C695C695C370822B932B38
:10115000C23069F0C33071F0C13031F00E946A0AC8
:10116000C4CF823010F2D3CF0E94610ABECF0E945A
:10117000730ABBCF0E94170AB8CFCF70111539F090
:101180008C2F0E942F0A8D2F0E942C07AECF8D2FFF
:101190000E9433078C2F0E943F0AA7CFD23F41F114
:1011A00070F4D03FC9F0D13F91F0111509F449C056
:1011B000011509F443C08D2F0E94240696CFD33F1A
:1011C000F1F0D43F91F78091150482FD22C08C2F5D
:1011D0008F71111501F310C0111541F0053008F0A1
:1011E00084CF8C2F8F710E94510A7FCF0630F7CFAA
:1011F0008C2F8F711111CFCF0E942F0A76CF11152E
:1012000029F08C2F8F710E94230A6FCF0E941E0A33
:101210006CCF111549F0CF718C2F0E942F0A63E01B
:101220008C2F0E945F0F61CF81E00E947E0F023001
:1012300008F45BCF82E00E947E0F57CF8C2F8F7116
:10124000DBCF011579F0D93349F4EFEFF7EE23E066
:10125000E150F0402040E1F700C000008D2F0E94D7
:10126000B10643CF8C2F8F7196CF0F931F93CF93DF
:10127000DF93EC018F819885009781F00E946A11BD
:101280008C010E947C0A0E94F209B801CE010E94E2
:101290003A07DF91CF911F910F910895688179816D
:1012A0008D810E94350BECCFCF93DF93EC018C81C5
:1012B000811599F0CE010E94A804811111C00E94ED
:1012C0007D0E811551F08D81811539F080911504C5
:1012D00082FF03C082E00E947E0FDF91CF910895CC
:1012E000CE010E943509CE010E947704F6CF811508
:1012F00021F00E94990E0E944D0F0895811521F052
:101300000E949F0E0E944D0F089580E090E00E9481
:101310001A2180E090E00E9440210E94A70E0E94C6
:101320004D0F0E945D1E0E94401E08950E9448229B
:101330000E94850908950E94960E0E9496090895BC
:10134000282F92959F70963099F060F4925F9F706D
:10135000923030F4203F89F038F481E0283E38F0B4
:1013600080E008959A5FF3CF81E0243FC9F70895A4
:1013700081E0283EE0F3213FF9CF81E00895FC01B0
:101380008481811571F087819085009729F00E94F2
:101390006A110E94A0090895808191810E94280B02
:1013A000F8CF80E00895A6E0B0E0E9EDF9E00C9414
:1013B0008C2C2696E2E00C94A82CA9E0B0E0E3EE99
:1013C000F9E00C948A2C2996E4E00C94A62C08955C
:1013D0000E94E70908950E94E8099093870280938C
:1013E0008602089508950E94EB09089520918602CF
:1013F00030918702822B932B0E94EB090895209154
:10140000860230918702822393230E94EB0908957C
:101410002091860230918702822793270E94EB0950
:1014200008950E94E70908950E94110A08950E94F4
:10143000140A9093850280938402089580E090E0DE
:101440000E94170A089521E030E0A90102C0440F6C
:10145000551F8A95E2F7CA010E94170A089521E0F4
:1014600030E002C0220F331F8A95E2F78091840298
:1014700090918502822B932B0E94170A089521E0F8
:1014800030E002C0220F331F8A95E2F72095309595
:101490008091840290918502822393230E94170AEF
:1014A000089521E030E002C0220F331F8A95E2F751
:1014B0008091840290918502822793270E94170AC7
:1014C00008952091840230918502822B932B0E94F3
:1014D000170A089520918402309185028223932374
:1014E0000E94170A08952091840230918502822774
:1014F00093270E94170A089508959B01677091E051
:1015000001C0990F6A95EAF763E0369527956A95C9
:10151000E1F7220F331F220F331FFA01E20FF31FEF
:1015200040E050E0682F70E08191DF0111979B014E
:10153000042E02C0369527950A94E2F72170219572
:101540002827292328272C934F5F5F4F44305105CC
:1015500059F708959C01982F977083E03695279549
:101560008A95E1F7220F331F220F331FFB01E20F91
:10157000F31F40E050E080E0219130E0092E02C0EE
:10158000369527950A94E2F721703327042E01C07F
:10159000220F0A94EAF7822B4F5F5F4F44305105C8
:1015A00059F70895282F862F933068F42B3058F47C
:1015B000622F70E02BE0929F600D711D112440E7B7
:1015C00052E00E947D0A0895292F933068F48B30F1
:1015D00058F490E060E772E03BE0239F800D911D9E
:1015E00011240E94AA0A089580E00895A0E0B0E0C6
:1015F000ECEFFAE00C94852C8C01E0908402F090E2
:1016000085028091860290918702E82AF92ACFE02C
:10161000D0E0CC24C394D12CC6010C2E02C0880F7C
:10162000991F0A94E2F78E219F21892B49F4219773
:1016300098F7B12C8B2DCDB7DEB7E9E00C94A12C37
:10164000BC2EB8018C2F0E948C12019781F3F2CF2F
:10165000CF93DF93D82FC92F0E94F60A6D2F7C2FCE
:101660000E948C12DF91CF9108951F93CF93DF9347
:10167000162FD72F90916F02911541F0862F972F3B
:101680000E94280BDF91CF911F910895811581F061
:10169000862F972F0E94F60AC82F682F812F9D2F23
:1016A0000E94D20A612F7D2F8C2F0E948C12EACFCC
:1016B000862F972F0E94E40AC82FF4CFFC0181E007
:1016C00090E0DC0102C0AA0FBB1F6A95E2F7BD01E2
:1016D000DC0102C0AA0FBB1F4A95E2F7AD016A2BDD
:1016E000752B02C0880F991F2A95E2F79B012E23C4
:1016F0003F232617370719F48E2B9F2B08958095CB
:1017000090958E239F230895242F462F682F809134
:101710008402909185020E945E0B0E94170A089530
:10172000EF92FF920F931F93CF93E0918802C9E04D
:10173000809189028E1306C0CF911F910F91FF9067
:10174000EF900895EE2EF12CCE9FF0011124E65774
:10175000FD4F008111812281338144815581668151
:10176000778180850E94DD09F7013196E770E0CF2F
:101770000F931F930091D2021091D3022091D402B3
:101780003091D5024091D6025091D7026091D80293
:101790007091D9028091DA020E94DD091F910F91A8
:1017A00008958091D802803178F48091D702811514
:1017B00059F0E0918802209189023091D302409142
:1017C000D20259E02E1301C008956E2F70E05E9F83
:1017D000F0011124DF01A657BD4F14968C91149788
:1017E000811561F111968C911197831327C08C910B
:1017F000841324C015968C91159781111FC01296E1
:101800008D919C91A091D402B091D5028A1B9B0B23
:10181000883C910598F48091D8028F708061809304
:10182000D802E057FD4F80818F708061808382ED08
:1018300092E00E9454090E94900B0895FB0131969A
:10184000E770C0CFE09188029091890229E0E91306
:1018500002C080E00895AE2FB0E02E9FF001112469
:10186000E657FD4F3181361306C03081381303C06F
:101870003581341304C0FD013196E770E8CF81E073
:1018800008958F929F92AF92BF92DF92EF92FF9254
:101890000F931F93CF93DF93CDB7DEB72F970FB67C
:1018A000F894DEBF0FBECDBF8C0186E0F801DE01EB
:1018B0001A9601900D928A95E1F7F801E080F58083
:1018C000A280B380848192ED892E92E0992E90912E
:1018D000D60291111BC0811509F42AC1F11409F433
:1018E00069C1C8010E94BF09811509F463C189E07B
:1018F000F801D40101900D928A95E1F7C4010E948C
:1019000011060E94D10B0E94B80B12C1D090D702D1
:101910002091D4023091D502A501421B530BD11462
:1019200009F409C1483C510508F0CAC0811509F401
:10193000FFC09091D30291808091D802803108F04D
:1019400074C0991231C09091D2029E112DC0409165
:10195000D9025091DA02278130854217530721F5C9
:10196000F1105DC08F7080618093D8020E94B80B27
:1019700082ED92E00E9454098091D802F80186839A
:10198000F12C8F2D2F960FB6F894DEBF0FBECDBF72
:10199000DF91CF911F910F91FF90EF90DF90BF905B
:1019A000AF909F908F900895F11039C040E0692D5D
:1019B0008E2D0E94220C40E0692D8E2D0E94220C5B
:1019C000F82E8111DDCF8A859B850E94280B292F57
:1019D00022952F70903450F49F70223080F0911532
:1019E00099F0F8019681903178F4CBCF2A5F2F706F
:1019F000223078F0C8010E945409FD2CC2CF911505
:101A000019F0811509F4BDCF805E883008F4B9CF94
:101A1000F1CF803F08F4B5CF815F8330F7CF80915D
:101A2000D80281608093D802ABCF99121CC09091EC
:101A3000D2029E1118C04091D9025091DA0227813A
:101A400030854217530779F4F1100DC08683C80121
:101A50000E94540989E0F801A2EDB2E001900D92D4
:101A60008A95E1F750CFC8010E94BF09811509F49A
:101A7000A1C0F11409F49EC08091D8028032B8F060
:101A80002091D2023091D3023A832983BC82AB8267
:101A90009091D6029D831E828F838091D90290916E
:101AA000DA0299878887CE0101960E94540989E05D
:101AB000F801A2EDB2E001900D928A95E1F721CFF5
:101AC0009091D8029031A0F44A855B856C857D8524
:101AD0008E859F850E94D30982ED92E00E94540971
:101AE00089E0F40111928A95E9F70E94B80B48CF7A
:101AF0008115F1F02091D30281812813B4CF809118
:101B0000D2028E11B0CF4091D9025091DA022781D2
:101B100030854217530709F0A6CFF110A4CF968362
:101B2000C8010E94540989E0F40111928A95E9F7ED
:101B3000FF24F39426CF483C510508F03FC081159F
:101B4000B9F3F114B9F19091D3028181981328C0AF
:101B50008091D2028E1124C02091D9023091DA02F4
:101B60008781908528173907D9F48091D80280FDA4
:101B70000EC0803160F08683982F907F903F09F4EB
:101B800066CF982F907F905F8F70892B5FCF89E011
:101B9000F801A2EDB2E001900D928A95E1F7C8CF6D
:101BA000C8010E94BF09811182CF8091D802816053
:101BB0008093D802C8010E945409BACF4A855B8538
:101BC0006C857D858E859F850E94D30989CFA2E192
:101BD000B0E0EDEEFDE00C94892C0A871B872C8782
:101BE0003D874E875F87688B798B8A8BCE010A96FB
:101BF0000E94410C8115C9F04E85411551F00A85AE
:101C00001B852C853D855F85688979898A890E9435
:101C1000DD0989E0F82E809188029091890289136C
:101C20003DC06296E5E00C94A52C89E0FE013A9651
:101C3000DE01119601900D928A95E1F720918902BB
:101C4000409188028E85811521F330E0C90101960B
:101C5000877099274817190699F099E0929FD0014B
:101C6000939FB00D1124A657BD4FFE0131960190F0
:101C70000D929A95E1F7809389020E94900BC9CF4B
:101C80000E949B09109289021092880289E0E2ED7D
:101C9000F2E0DF011D928A95E9F7BBCFF89EC00103
:101CA000112486579D4F0E94410C811509F4B9CF2C
:101CB000E0918802FE9EF0011124E657FD4F00815D
:101CC00011812281338144815581668177818085AC
:101CD0000E94DD098091880290E001968770992723
:101CE0008093880298CF8091030386958695869588
:101CF000089580910303877008959091030397706E
:101D000081E0911101C080E0089580912F03089532
:101D100090912F03982B90932F030895982F9095CF
:101D200080912F03892380932F03089510922F030E
:101D3000089590912E03982B90932E030895982F39
:101D4000909580912E03892380932E0308951092FD
:101D50002E03089580910503089508950E94AD0E05
:101D6000089590910403292F2823211531F080959F
:101D70008923809304030E94AE0E089508950E9463
:101D8000BE0E089590910503292F2823281729F0C6
:101D9000982B909305030E94BF0E08959091050320
:101DA000292F2823211531F080958923809305035D
:101DB0000E94BF0E08959091150492FF08C0909163
:101DC0000503981721F0809305030E94BF0E089524
:101DD00080910503811529F01092050380E00E948F
:101DE000BF0E0895CF93C0912F0380912E03C82B6F
:101DF00080910503811531F0C82B0E946621811165
:101E00000E94E80E8C2FCF910895CF93DF93C0915D
:101E1000A501D091A6010E94F20E8883C091A50170
:101E2000D091A60148E050E06BEF72E0CE010E9435
:101E3000C72C892B59F088E0FE01ABEFB2E001908E
:101E40000D928A95E1F7CE010E94F120DF91CF91AA
:101E50000895CF93DF93C091A301D091A4010E9474
:101E6000F20E8983C091A301D091A40140E250E019
:101E70006BED72E0CE010E94C72C892B59F080E2F5
:101E8000FE01ABEDB2E001900D928A95E1F7CE0133
:101E90000E94FC20DF91CF9108958091D801811597
:101EA00039F08091140487FF03C00E94290F089520
:101EB0000E94050F089508950E945B0F0895962FC4
:101EC0002091150422FF11C0682F660F660F660F60
:101ED000692B609303030E942F0A80910303869568
:101EE000869586950E945C0F08950E942F0A08959A
:101EF0001092030380E00E945C0F08959091030309
:101F00008095892380930303282F277021110DC00A
:101F1000891759F09091150492FF07C08695869510
:101F200086950E943F0A0E94780F089590911504AB
:101F300092FB222720F9281769F080FB92F99093F1
:101F4000150480911404909115040E94DE0F82E024
:101F50000E947E0F08958091150482FB882780F9E6
:101F600091E089270E94960F089581E00E94960FC4
:101F7000089580E00E94960F08956FEF7FEF80E054
:101F800090E00E94192D089580E090E00E94E52CD9
:101F90009C0181E0263E3E4F09F080E0089582E0FA
:101FA00090E00E94DD2C089583E090E00E94DD2CFB
:101FB000089584E090E00E94E52C0895BC0184E03F
:101FC00090E00E94192D0895AB01BC018FE090E0D4
:101FD0000E940D2D0895AB01BC0183E190E00E94A9
:101FE0000D2D089560E070E0CB010E94EB0F089585
:101FF00060E070E0CB010E94E40F0E94F20F0895B0
:10200000A8E0B0E0E6E0F0E10C948C2C66EE7EEF08
:1020100080E090E00E94192D60E082E090E00E9454
:10202000FB2C81E090E0909387028093860261E030
:1020300083E090E00E94FB2C60E074E184E090E09B
:102040000E94192D60E086E090E00E94FB2C6FEF6B
:1020500087E090E00E94FB2C40E050E0BA0188E06D
:1020600090E00E940D2D60E084E290E00E94FB2C45
:1020700060E087E190E00E94FB2C60E08CE090E063
:102080000E94FB2C60E08DE090E00E94FB2C198206
:102090001A821B821C821D821E821F82188648E0C3
:1020A00050E068E170E0CE0101960E94EB2C40E028
:1020B00050E0BA0180E290E00E940D2D0E94F80FDE
:1020C0002896E2E00C94A82C0E9400100895682F36
:1020D0008EE090E00E94FB2C0895A6E0B0E0E3E7DC
:1020E000F0E10C948A2C0E9431238C018091300302
:1020F000909131038017910779F019821A820E941A
:102100003123BC0149815A8180E090E00E94DD05C5
:1021100010933103009330032696E4E00C94A62C30
:102120000E943D2360933C0370933D0380933E03E4
:1021300090933F03609338037093390380933A037D
:1021400090933B030895089508950E94A310089565
:1021500008950E94A810089584E893E10E9428152C
:102160000E94A4100E94A510089581E008950E9485
:10217000B51008950E94B5100895089508950E941D
:10218000BD100E94BE1008950E94A3130E94B105C5
:1021900008950E9428230E9478140E94C4100E946F
:1021A0006A15E4E1F4E08081806880838091140402
:1021B000909115040E94DE0F0E9409250E94A9102B
:1021C00008950E94CF190E9443170895A6E0B0E039
:1021D000ECEEF0E10C94802C0E94B71081110CC041
:1021E0000E946D100E94E1100E947E1E0E94C40594
:1021F0002696EEE00C949C2C0E948E1400913203E3
:102200001091330380E00E94C71308171907A1F447
:10221000009134031091350381E00E94C713081721
:10222000190751F4009136031091370382E00E94A0
:10223000C71308171907A1F28091400381FD0E947E
:10224000D0130E94BA10782E22E3822E23E0922E21
:10225000F12C662463948F2D0E94C7138C01F40126
:10226000A190B1904F018A159B0569F1A826B1266E
:10227000E12CCC24C394D12CC5018C219D21892B28
:10228000C1F07114B1F0E982FA820E9431239C837B
:102290008B836D8221E0C8018C219D21892B09F45B
:1022A00020E049815A816B817C818D81922F0E942F
:1022B000DD05E394CC0CDD1CFBE0EF12DDCFF40177
:1022C000329711830083F39483E0F812C4CF0E9405
:1022D000901088CF1F93CF93DF930E949112EC014F
:1022E000811522E5920708F05DC0811540E594074D
:1022F00008F0DBC0803E910528F58D3C910508F083
:10230000ACC0883A910578F4853A910508F0A2C0EE
:102310008130910509F441C00497813A9105E8F1B3
:10232000C0E0D0E03AC0885A91094B97C8F7C85A24
:10233000D0E0CC0FDD1FC95EDD4F0990D881C02DE4
:10234000D4642BC0811550E49507F8F4C11580E2E0
:10235000D80708F0C2C0C83ED105F8F0CE019A9562
:1023600081159F41E8F68D2F0E943513182FCE015D
:1023700099270E949112212F30E0322F2227E90164
:10238000CC27DF71C82BD92B08C099270E94911246
:10239000CC27DF70C82BD92BD06ACE01DF91CF912B
:1023A0001F910895803842E59407C8F5803652E5BC
:1023B000950708F05BC0C03482E5D807D0F4C0327E
:1023C00092E5D90708F04BC08C2F8695869520E2C0
:1023D000829FC0011124C37021E030E0A90102C036
:1023E000440F551FCA95E2F7EA01C82BD92BDD68C7
:1023F000D4CF8C2F86958695877050E2859FC0013B
:102400001124C37021E030E0A90102C0440F551F20
:10241000CA95E2F7EA01C82BD92BDC68BECF803C15
:1024200052E5950758F48F71C03AD245A0F590E077
:10243000982F8827EC01C46FD06AAFCF805C92459B
:10244000809708F06DCFDC2FCC27CC27DF71C06FD1
:10245000D06AA3CFA497D064A0CFD0659ECFCF7110
:10246000D0E0DC2FCC27C16FD06A97CF86958695B8
:10247000877020E2829FC0011124C37021E030E008
:10248000A90102C0440F551FCA95E2F7EA01C82B03
:10249000D92BDA6882CF0E943513C82FD0E0DC2F09
:1024A000CC27CC27DF71D06278CF8F710E94351393
:1024B00065E0D695C7956A95E1F7CF70D0E0DC2F3F
:1024C000CC2790E084FF05C054E0880F991F5A95EF
:1024D000E1F7C82BD92BD06960CF8D2F8F710E9467
:1024E0003513182FCE0199270E949112212F30E029
:1024F000322F222722273F71282B392BE901D3CFF6
:10250000462F672F733028F44B3018F40E949E0337
:10251000089580E090E008950E9480120E946A1160
:102520000895803E9105D9F1C8F48133910509F4ED
:1025300082C048F48932910509F472C08A3291054B
:1025400009F480C0089589339105E9F08238910536
:10255000D1F08533910509F45EC00895843E91055C
:10256000D9F148F4823E910539F1833E910549F154
:1025700081EE90E00895863E9105C9F1873E910570
:1025800009F43EC00895209114042370211164C001
:102590002091150423FF14C089E290E00895209152
:1025A000140420FD45C03091150430FF09C024FDFE
:1025B00024C083EE90E008952091140422FDF7CF0B
:1025C00008952091140422FD44C03091150430FD7B
:1025D00043C024FFF5CF11C02091150421FFF0CF97
:1025E0008091140484FD09C087EE90E00895209145
:1025F000140423FFE5CF24FFF7CF80E090E0089597
:102600002091140423FD2BC03091150431FFE1CF3C
:1026100084EE90E008952091140425FFD1CFBCCF23
:102620002091140425FD1EC02091150423FFC8CF5E
:1026300089E390E008952091140426FFC1CF8AE237
:1026400090E008952091140426FFBACF81E390E032
:10265000089582EE90E0089580EE90E0089586EE71
:1026600090E0089585E390E008959091140492FF1E
:1026700010C041E0282F2471243009F040E031E0FF
:10268000282F2871283009F030E0431711F02CE092
:10269000822793FF10C041E0282F2471243109F0D4
:1026A00040E031E0282F2871283109F030E043174D
:1026B00011F02CE082273091150430FF10C051E05A
:1026C000282F2171213009F050E041E0282F287196
:1026D000283009F040E0541711F029E0822731FF3B
:1026E00010C041E0282F2171213109F040E031E094
:1026F000282F2871283109F030E0431711F029E024
:10270000822794FD877E089580E008950E94BD0F82
:1027100008950E948E142FEF86E791E021508040AB
:102720009040E1F700C000000E948E1480E00E94FB
:10273000C71380FF04C00E9486130E947C23089563
:102740000E94891308950E94C40F811102C00E9443
:1027500064100E94CF0F809340030E94D90F909382
:102760001504809314040E94A0130E94D40F90E0DB
:102770000E94F30980918402909185020E94140ABC
:1027800008950E94F10208950E9470030895E82FB1
:10279000F0E0EE0FFF1FE45EFB4F80819181089512
:1027A000089580EA8A95F1F7089500C008950E947F
:1027B000D1130895F894E82FE295EF70F0E041A16D
:1027C0008F7021E030E0B90102C0660F771F8A9553
:1027D000E2F7CB01962F9095942391A392A1892B98
:1027E00082A3789408950F931F93CF93DF9387E389
:1027F0000E94DA1386E90E94DA1387E60E94DA1350
:10280000CDE4D2E008E512E089918F3F11F00E94FB
:10281000DA130C171D07C1F7DF91CF911F910F91AC
:102820000895A0E0B0E0E7E1F4E10C94852CEC0120
:10283000B62E062F10E0C801885A9D4F7C01FC017E
:1028400080818F3F09F44FC0F894E82FE295EF7034
:10285000F0E091A18F7021E030E001C0220F8A9555
:10286000EAF7892F822B81A382A12095282322A316
:1028700078940E94D513EDE4F2E041E050E0C12CE1
:10288000D12C21912F3F89F0A22FA295AF70A05E8D
:10289000B0E08C9190E02F7002C0959587952A95B5
:1028A000E2F781709A01811511F020E030E0C22A30
:1028B000D32A440F551F82E0E835F80711F7F701D6
:1028C00080818F3F11F00E94DA1361E0C114D104BE
:1028D00009F460E08B2D0E94D713000F111FC00F69
:1028E000D11FD982C882CDB7DEB7E9E00C94A12C04
:1028F0000E94F31386E0ECE1F4E0DF01982F1D92D3
:102900009A95E9F7E6E1F4E0DF011D928A95E9F78F
:1029100083E00E94CB140E94C1130895A6E0B0E0AA
:10292000E4E9F4E10C948A2C8E010F5F1F4F86E0DE
:10293000F80111928A95E9F760E0C8010E9411142C
:1029400061E0C8010E94111462E0C8010E941114E4
:1029500046E050E0B80186E194E00E94C72C21E0F7
:10296000892B81F420E043E06CE174E086E194E09F
:102970000E94CC14182F0E94C413812F2696E4E0E5
:102980000C94A62C86E0F801A6E1B4E001900D922B
:102990008A95E1F7E8CF0895A0E0B0E0E2EDF4E138
:1029A0000C94862CD82EE92EF62ED72F042FC22F6A
:1029B000211579F081E0809343030E9431239093A5
:1029C00042038093410380E0CDB7DEB7E8E00C948A
:1029D000A22CC0904303C114B1F3809141039091A4
:1029E00042030E944923059770F310E0000F111F66
:1029F000A8016D2D7E2D8F2D9D2F0E94C72C892B18
:102A000041F0A8016D2D7E2D8F2D9D2F0E94D42C7D
:102A1000CC2D109243038C2FD7CF0E947E250E948D
:102A2000C9100E948B2508950E9490250E94E610EF
:102A30000E94AA2508950E94CA220E9464250E942D
:102A4000AC100E940D150E9414150E94BF10FBCF00
:102A500090935D0280935C020895E6E4F3E086E0E3
:102A6000DF011D928A95E9F70895CF93DF93809156
:102A70004603806880934603C6E4D3E089910E94B0
:102A8000292583E0CC34D807C9F7DF91CF91089589
:102A9000482F67E00E94342C282F30E0F901EA5BD0
:102AA000FC4FC90153E0880F991F5A95E1F7281B85
:102AB000390B240F311D86E090E0821B930B21E03F
:102AC00030E001C0220F8A95EAF78081822B808353
:102AD00080E008950E94C40F811102C00E9464101A
:102AE0008DE090E00E94DD2C809344030895CF9305
:102AF000C82F0E942D15C09344036C2F8DE090E0E9
:102B00000E94FB2CCF91089581E0089581E0089503
:102B100081E00895EF92FF920F931F93CF93DF937D
:102B2000EC017B018C01005C14470034110508F0B6
:102B30008CC0FB018481811509F487C0CE010E94FD
:102B40008815811541F0C03FF4E7DF0799F048F49C
:102B50000A321105B8F080E0CDB7DEB7E6E00C949C
:102B6000A42CC13FD447B9F7F7018581811599F3AA
:102B700080E005C0F7018581811569F381E00E943D
:102B80007715E9CF0091450310914403F701858142
:102B9000811529F10F5F009345031115D9F011300C
:102BA000D1F6EC2FE05CF0E0EC53FD4FE491AE2F5A
:102BB000A295A695A695A370B0E0AA5BBC4F8C9198
:102BC0008E2B8C9326E433E0412FB701CE010E9477
:102BD0008615C1CF8C2F805C0E944815F3CF015021
:102BE0000093450326E433E0412FB701CE010E9454
:102BF0008615811509F4AFCF8091450318160CF4A2
:102C0000AACF1092450366E473E0809144030E94CA
:102C10008415811103C00E942D159DCF809144031E
:102C2000811581F08130B9F7C6E4D3E08991811133
:102C30000E942925F3E0CA34DF07C1F780E00E9433
:102C40002925E9CF0E943515E6CF81E085CF809117
:102C5000A701877F8093A70182E00E949F0E809149
:102C6000A70184FF06C08F7E8093A70182E00E94A7
:102C7000880E8091A70185FF06C08F7D8093A701F4
:102C800080E20E94880E0E944D0F089580E0089512
:102C90008933910588F48D32910560F4883291056D
:102CA00030F48430910530F40E94461608958B323A
:102CB0009105D1F781E0089584369105FACFCF933D
:102CC000DF93EC01611519F082E00E94990ECE01AC
:102CD00090528115904308F4DD27CE010E94E20353
:102CE000DF91CF9108959C0130522115304308F4B3
:102CF00099270E94F8030895AC0123E096958795E3
:102D00002A95E1F78E719927FC01E45BFC4F019055
:102D1000F081E02D4F70552721E030E002C0220FF6
:102D2000331F4A95E2F7611541F0E22BF32B845BE8
:102D30009C4FDC01ED93FC93089520953095E223A0
:102D4000F323F5CF9C01FC0183E0F695E7958A9586
:102D5000E1F7EE71FF27E45BFC4F2F70332781E032
:102D600090E0AC0102C0440F551F2A95E2F79A018A
:102D7000808191812823392381E0232B09F480E08D
:102D80000895EF92FF920F931F93CF93DF93EC017F
:102D90007B018A018091A70182FF5DC020917503AC
:102DA000309176032C173D0719F0209709F053C096
:102DB0009091A7019B7F9093A70161E091FD10C0C6
:102DC0008091770390917803A701481B590B61E02C
:102DD0008091A8019091A9014817590708F460E073
:102DE00061708091A70160FB81F98093A701C901FF
:102DF0000E947C160E94850E81FF08C08091A70169
:102E000080618093A70182E00E948E0E0E94850E51
:102E100085FF08C08091A70180628093A70180E2AE
:102E20000E948E0E6091A70166956170A801809145
:102E30007503909176030E945F166091A7016695D5
:102E40006170A80180917503909176030E947316BA
:102E50000E9427160FC0CE010E94A216682FA8015B
:102E6000CE010E9473168091750390917603C81766
:102E7000D90771F3F0927803E0927703CDB7DEB70C
:102E8000E6E00C94A42C8091A70182FF19C00E9457
:102E90003123BC0180917703909178039B01281B1B
:102EA000390B8091A8019091A9012817390740F0AA
:102EB0004CE653E080917503909176030E94C11611
:102EC00008959091A701892F8E7F90FF8160809354
:102ED000A7010E94271608958091A7018E7F8093F5
:102EE000A7010E942716089560E28091A8019091A1
:102EF000A9010E9459059C01C9012F5F3F4FFC01A8
:102F000040814032C9F30E9431200895A0E0B0E032
:102F1000ECE8F7E10C94872CEC018B010E94312343
:102F2000D82EE92EF8018581811509F485C080919C
:102F3000A70182FF08C04CE653E06D2D792F80E099
:102F400090E00E94C116C331FCE7DF0799F118F544
:102F5000C1318CE7D80709F462C0C231ECE7DE0763
:102F600009F467C08091A8019091A9010597C0312B
:102F7000FCE7DF0709F458C0CE0190528115904359
:102F8000A0F4109276031092750381E0CDB7DEB7FE
:102F9000E7E00C94A32CC4312CE7D207E9F1C5314A
:102FA0008CE7D80711F40E9461178091A70180FF78
:102FB000ECCF05C08091A70181608093A701B80183
:102FC000CE010E944816F8019581811509F47CC054
:102FD000911509F472C00E94850EF82E0E94AA0E67
:102FE0002F2D282B2D7F2115E9F1109276031092B9
:102FF000750360E0CE010E947C16A80160E0CE015E
:103000000E945F160E94AA0E8D7F0E94DB0E82E056
:103010000E947E0F80E0BACF0E946C17C6CF8091CD
:10302000A8019091A90105969093A9018093A80108
:10303000BCCF0E947417B9CF8091A7018F7EC13E8B
:10304000D10531F0C53ED10531F48091A7018F7DC6
:103050008093A701AACFCE0190528115904308F02A
:10306000A4CF93CF89E0F801ACE6B3E001900D92D4
:103070008A95E1F710926F0310926E030E94850EFD
:10308000182F0E94AA0E182B8091A70111FB81F91D
:103090008093A7010E94AA0E8D7F0E94DB0ED09321
:1030A0007603C0937503D0927703E0927803809102
:1030B000A70184608093A701AACFA8016D2D7E2D62
:1030C000CE010E94C116A6CF91115BCF5ECF0895AD
:1030D000EF92FF920F931F93CF93DF938091EC03B6
:1030E000E0917903CDE081112AC0CDB7DEB7E6E0EB
:1030F0000C94A42CD1E0DE0FD0937903EE2EF12CAA
:10310000CE9FF0011124EC57FC4F84818115B1F062
:1031100087819085892BE1F4818592858F3F98077F
:10312000B9F061E00E946718CE9DF001CF9DF00DCF
:103130001124EC57FC4F14820E94A70EED2F8091B2
:10314000EC03E817B8F21092EC0310927903CDCF9C
:10315000008111812281338144815581668177818B
:1031600080850E94E70DE0CF0895CF93DF93109202
:10317000EE031092ED03C0E0D0E00E94A103C81757
:10318000D90718F0DF91CF910895CE010E94A403D2
:10319000FC018581811102C0148216822196EDCF37
:1031A0001F93CF93DF9310918203409183034117C4
:1031B000D1F0C12FD0E0FE01EE0FFF1FE658FC4F0B
:1031C000208131812817390791F40E94A40321E05E
:1031D000FC01248380918203811305C02196C37072
:1031E000DD27C0938203DF91CF911F91089521962F
:1031F0001C2F1370DCCFA0E0B0E0E1E0F9E10C940B
:10320000812CDB0114962C91149721115AC09090B7
:10321000EC03C4E8D3E040E050E0A12C61E070E0B2
:10322000491508F04CC0CB84DC84ED90FC901197DC
:1032300077247A9488248A94B12C2B2D30E0F901DC
:10324000EE0FFF1FEE0DFF1D05911491C016D10664
:1032500011F0272D382D0115110521F0B394722E90
:10326000832EEBCF2F3F320791F1FB0102C0EE0F0F
:10327000FF1F2A95E2F7AE2A9B010B2C02C0220FFA
:10328000331F0A94E2F721503109A2161306F1F414
:1032900012962D913C9113976DE0649FF001659F0C
:1032A000F00D1124EC57FC4F3087278324E0248352
:1032B000108211828187928721E015962C930E94BB
:1032C000D018CDB7DEB7EDE00C949D2C1C824F5F7B
:1032D0005F4F2D96A5CF0F931F93CF93DF93C09190
:1032E0008203809183038C1309C00E9468180E9496
:1032F000B518DF91CF911F910F910895D0E08E0105
:10330000000F111F06581C4FF801808191810E9407
:10331000A403BC01F801808191810E94FB182196D1
:10332000C370DFCFEF92FF921F93CF93DF93DC0147
:10333000CB012D913C91119710E040E050E0E52F3A
:10334000F0E0EE0FFF1FE20FF31F6591749161151E
:103350007105B9F0FC01C081D18140E005C06E1556
:103360007F0509F411E04F5FE42FF0E0EE0FFF1F3F
:10337000EC0FFD1FE590F490E114F10481F75F5F1D
:10338000DECF111549F0451708F0CD01DF91CF913F
:103390001F91FF90EF90089580E090E0F7CF80912B
:1033A000AA01811541F18091EF039091F0030097FC
:1033B00011F10E9449232091ED033091EE0328176B
:1033C0003907C8F49091820380918303981759F0CC
:1033D0000E946B191092EE031092ED031092F0030D
:1033E0001092EF0308950E9468181092F003109253
:1033F000EF030E94B51808951092F0031092EF03A6
:103400001092AA0180918303809382030E94B518D1
:103410000E94681808958091AA01811519F00E94F0
:10342000FC19089581E08093AA010895AAE0B0E014
:10343000ECE1FAE10C947C2C5C014B0180352CE72B
:10344000920769F4DB0115968C918115F1F081E00A
:103450008093AA0181E02A96E2E10C94982C8135B0
:10346000BCE79B0739F4FB018581811571F00E944F
:10347000FC19F0CF82359C4741F4DB0115968C9105
:10348000811519F00E940B1AE5CF2091840230912A
:1034900085028091860290918702822B932B0E9455
:1034A0007A05182F0E94B418181731F0F4016081C2
:1034B00071810E9480125C01612C712C1A86442457
:1034C0004394512C0E94A10368167906E8F1D401B7
:1034D00015968C91811509F455C1BA85B11509F479
:1034E00051C10E9431239093F0038093EF038091A8
:1034F000EC03883028F591E0980F9093EC0399E065
:10350000F401DE01119601900D929A95E1F7EDE03C
:103510008E9FC00111248C579C4F29E0FE013196EB
:10352000DC0101900D922A95E1F72FEF3FEFDC01CE
:103530001A963C932E9319971C96BC92AE921B97A9
:1035400081E0BA858B2787CFC3010E94A4037C0149
:10355000DC018D919C916FEF3FEF20E0C22ED12CCA
:10356000F601EE0FFF1FE80FF91F45915491A416C5
:10357000B50611F0C62ED32E452B21F02F5F6C2DF2
:103580003D2DECCF10E0BFEFCB16DB0609F44CC0AD
:10359000F70144811091AA01812F411180E0182F79
:1035A0001170D70115963C90159716968C91169729
:1035B000F4019581911509F481C0111509F47EC0BB
:1035C000311016C041E050E00C2C01C0440F0A94A9
:1035D000EAF7842B16968C938091ED039091EE037D
:1035E000C29730F482E390E09093EE038093ED0372
:1035F000B20102C0660F771F2A95E2F79B012150A6
:103600003109D70116968C918217130669F48091BF
:10361000EF039091F003009771F00E944923C39744
:1036200050F081E0F7018483BA85B12BBA87EFEFC0
:103630006E1A7E0A47CF00918203E0E0F0E08091AD
:103640008303081312C0EE16FF0671F3802F90E07B
:10365000FC01EE0FFF1FE658FC4F7182608201965D
:103660008370992780938303DFCFC02ED12CF6017E
:10367000EE0FFF1FE658FC4F808191810E94A4034A
:103680001C01B7010E949219FC01009791F021E002
:103690002483E816F90641F280918203081309C0D9
:1036A0002E163F0631F4C601019683709927809348
:1036B0008203C6010196082F0370C1CF90E031103C
:1036C00023C0B20102C0660F771F2A95E2F79B0163
:1036D000215031098217930789F010E0F20102C0EE
:1036E000EE0FFF1FCA94E2F76F01C094D701169640
:1036F0008C9116978C2116968C9396CF411571F369
:10370000C3010E94D018E9CFAC010C2C02C0559522
:1037100047950A94E2F79C012150310982239323B3
:10372000892B69F540FF2BC0D70112968D919C9192
:10373000892B01F187E0FE013196DF011D928A9508
:10374000E9F70E9431239C018B839C8384E08D8365
:10375000F70192818381792F9887898709811A815E
:1037600044E05E816F810E94E70DD70115961C929F
:10377000132DB4CF60E0C3010E946718F6CF142F59
:103780001170ACCF9091820380918303981719F048
:103790000E946B19D5CE0E9468181092F003109207
:1037A000EF030E94B518CCCECF93DF93EB018631A7
:1037B0009C4719F50E94850E9D819115A1F08A7A8A
:1037C00091E0811101C090E09093F103811549F0DF
:1037D00085E30E941A220E944D0F80E0DF91CF9175
:1037E000089589E2F6CF8091F103811521F085E3F8
:1037F0000E943122F0CF89E2FBCF81E0EFCFCF935F
:10380000DF93EC01FB018581811509F4D1C09E0194
:1038100030572332310508F0B1C00E94D90F909380
:10382000150480931404FE01E150F047E232F105E3
:1038300020F4E35CF24D0C94762C809114048160AA
:103840008093140492C080911504886080931504BD
:103850008CC0809114048260F3CF80911404846042
:10386000EFCF809114048860EBCF809115048160C4
:10387000EDCF809115048260E9CF809114048061BE
:10388000DFCF809114048062DBCF809114048064C8
:10389000D7CF0E949B09809114048068D1CF80917A
:1038A00014048C60CDCF809115048360CFCF8091BC
:1038B00014048E7FC5CF80911504877FC7CF809178
:1038C00014048D7FBDCF809114048B7FB9CF80917C
:1038D0001404877FB5CF809115048E7FB7CF809178
:1038E00015048D7FB3CF809114048F7EA9CF809172
:1038F00014048F7DA5CF809114048F7BA1CF0E94EB
:103900009B09809114048F779BCF80911404837F4F
:1039100097CF809115048C7F99CF8091140482FBFE
:10392000992790F921E0922790FB82F990FB83F987
:1039300087CF80911504982F909590FB80F990FB8C
:1039400081F984CF90911404892F8F7B96FF806436
:1039500077CF0E949B0990911404892F97FB87F9D8
:1039600080586ECF81E00E9467108091140490917E
:1039700015040E94DE0F0E949B0980E0DF91CF9129
:10398000089580E0F0CF90911404892F8F7E94FFEA
:10399000806156CF90911404892F8E7F90FF8160B3
:1039A0004FCF90911504892F877F93FF88604ECF6A
:1039B00081E0E4CF282F35EB2303C001112497FFCA
:1039C00004C080589109892F089580589F4FFBCFDC
:1039D0008091F80380FF0DC06091B00170E0660F28
:1039E000771F60387105C0F561157105B9F1862F33
:1039F000089581FF07C06091B00184E0689FB00125
:103A00001124EFCF82FF04C06091B00188E0F6CFAF
:103A10008091F7038115E9F09091AF016091B001B9
:103A200070E0891730F093E0660F771F9A95E1F701
:103A3000D8CF869F9001879F300D112483E0220FFD
:103A4000331F8A95E1F7692F70E0C9010E94402C6D
:103A5000C8CF68E070E0CBCF8FE7089581E008958C
:103A60008091F80380FF0CC06091AC0170E0759507
:103A70006795759567956115710561F1862F0895B4
:103A800081FF06C06091AC0170E075956795F3CF3A
:103A90006091AC0170E082FD15C02091F603211504
:103AA000B1F09091AB016091AC0170E0291750F436
:103AB000269FA001279F500D1124692F70E0CA0195
:103AC0000E94402C60387105B0F28FE7089561E0E4
:103AD00070E0D4CF81E008959091FB032091FC0326
:103AE000922B2091FE03922B2091FD03922B911596
:103AF00031F098E09093F70391E09093F603E3E3BD
:103B0000E80FE331E0F5F0E0E15AF24D0C94762C49
:103B10000E94E81C81958093FC0308950E94E81C94
:103B2000FACF0E94E81C81958093FB0308950E94C0
:103B3000E81CFACF0E94301D8093FD0308950E9477
:103B4000301D8195F9CF0E94301D81958093FE0331
:103B500008950E94301DFACF815D990B21E030E07D
:103B600001C0220F8A95EAF78091FA03822B809395
:103B7000FA0308958091F80381608093F803089513
:103B80008091F8038260F9CF8091F8038460F5CFCB
:103B90004091FB038D3C59F48091FC0387FF0DC0DD
:103BA0001092FC03411559F41092F70308C08E3CA3
:103BB00081F48091FC0318169CF3411581F08091EB
:103BC000FD039091FE03892B811159C01092F603D9
:103BD00008958F3C41F447FFF0CF1092FB03809192
:103BE000FC038115E0CF803D19F41416B4F3E5CF42
:103BF0009091FD03893D29F41916FCF61092FD03FE
:103C0000DCCF8A3D19F497FFD8CFF8CF9091FE030F
:103C10008B3D29F497FFD1CF1092FE03CECF8C3D80
:103C200019F41916CCF3C9CF9FE2980F983090F48D
:103C3000815D990B21E030E0B90102C0660F771F6A
:103C40008A95E2F7CB0180959091FA0389238093BE
:103C5000FA03B3CF8D3D31F48091F8038E7F8093CA
:103C6000F803ABCF8E3D21F48091F8038D7FF7CF21
:103C70008F3D09F0A2CF8091F8038B7FF0CF08959C
:103C80000E9431232091FB033091FC03232B21154B
:103C900021F08093F4039093F5032091FD0330917C
:103CA000FE03232B211521F08093F2039093F3035D
:103CB00089EF93E00E940B21089586E0E9EFF3E09D
:103CC000DF011D928A95E9F71092F7031092F6032F
:103CD0001092F8030895FC01828181110DC0838147
:103CE00081110AC08481811107C081E09581911101
:103CF00001C080E08170089581E0FCCFA6E0B0E0D3
:103D0000E4E8FEE10C94892C86E0E9EFF3E09E0103
:103D10002F5F3F4FD90101900D928A95E1F71092E4
:103D2000FB031092FC031092FD031092FE038B81A3
:103D30009C81892B8901811589F08091F4039091F0
:103D4000F5030E9449239C018091F7038115B9F185
:103D50009091B1019217130608F43EC08D819E81A7
:103D6000892B811591F08091F2039091F3030E94C9
:103D700049239C018091F603811509F466C0909156
:103D8000AD019217130608F46EC0B80189EF93E0F5
:103D90000E946222811105C089EF93E00E946B1E90
:103DA00081110E94401E86E0F801A9EFB3E0019066
:103DB0000D928A95E1F72696E5E00C94A52C4091AA
:103DC000B2019AE0499FA00111244217530730F62F
:103DD0008F5F8093F70302C08F3FD1F7FB80F11410
:103DE00059F00E94E81C91E01F140CF09FEF899F8E
:103DF000802D11248093FB03FC80F11459F00E9464
:103E0000E81C91E01F140CF09FEF899F802D112476
:103E10008093FC038091FB03811509F49FCFF09000
:103E2000FC03F11409F49ACF0E94DA1C811101C03D
:103E300081E08093FB038F2D0E94DA1C811519F01D
:103E40008093FC038BCF81E0FBCF4091AE019AE0E1
:103E5000499FA00111244217530708F096CF8F5FA6
:103E60008093F60302C08F3FD1F7FD80F11459F023
:103E70000E94301D91E01F140CF09FEF899F802D50
:103E800011248093FD03FE80F11459F00E94301D2F
:103E900091E01F140CF09FEF899F802D11248093D7
:103EA000FE038091FD03811509F46FCFF090FE03AE
:103EB000F11409F46ACF0E94DA1C811101C081E07B
:103EC0008093FD038F2D0E94DA1C811519F08093D9
:103ED000FE035BCF81E0FBCFA0E0B0E0E2E7FFE1D3
:103EE0000C94872CE82FF0E0EC5FFC4FD490282F47
:103EF00026952695269530E0F901EC55FC4F049166
:103F0000877010E0082E02C0159507950A94E2F715
:103F100001701127F901EC56FC4FE490F12C082EAA
:103F200002C0F594E7940A94E2F791E0E922FF24B5
:103F3000F901EC57FC4FC491D0E002C0D595C7956C
:103F40008A95E2F7C170DD270115110519F081EEA0
:103F50000E942406E114F10419F086EE0E94240662
:103F60008D2D0E942307E114F10419F086EE0E94C2
:103F7000B1060115110519F081EE0E94B106CD2B95
:103F800019F08CE20E942307CDB7DEB7E7E00C946E
:103F9000A32CEF92FF921F93CF93DF93EC01162F88
:103FA0008881811509F457C0813009F051C0898199
:103FB0008130A1F47E0182E0E80EF11C8A810E942A
:103FC0002307E7012196812F811551F3EFE9FFE0E7
:103FD0003197F1F700C000008150F6CF823041F4F4
:103FE0007E01E2E0EE0EF11C8A810E942406E9CFF8
:103FF000833041F47E01F2E0EF0EF11C8A810E94D1
:10400000B106DFCF843011F02196DCCF2A812296D1
:1040100080E090E06AE0AE014F5F5F4F2053330BCA
:104020002A30310550F0009769F2EFE9FFE031974F
:10403000F1F700C000000197F6CF689FF001699F7B
:10404000F00D1124C9018E0F9F1F2981EA01E3CFD2
:104050000E946C1FB7CFDF91CF911F91FF90EF901F
:10406000089560E00E94C91F08950F931F93CF9396
:10407000DF93C42FD22FFC0185818115C9F04093B5
:1040800001040E943123909300048093FF0380E297
:104090008C0F883040F4C77081E001C0880FCA954A
:1040A000EAF70E942C07DF91CF911F910F9108959D
:1040B00010910104141333C08091FF039091000408
:1040C0000E944923883C910550F5C0E2CD0F1D1791
:1040D000C1F080E2810F883040F4177081E001C0A8
:1040E000880F1A95EAF70E943307C83050F491E020
:1040F0008D2F877001C0990F8A95EAF7892F0E944A
:104100002C07802F0E942307C83068F6D77081E003
:1041100001C0880FDA95EAF70E943307C4CF80E226
:104120008C0F883008F0BFCFC77081E001C0880FC6
:10413000CA95EAF7F1CF0F93FC01CB01E851FC4798
:10414000E730F10590F5EE58F24D0C94762C06E22E
:1041500021EE41EE6AE17CE70E94352080E00F917C
:10416000089507E225EE45EE6BE17CE7F5CF06E228
:1041700021EE40EE68E17CE7EFCF07E225EE44EE6A
:1041800069E17CE7E9CF06E221EE42EE6CE17CE7F3
:10419000E3CF07E225EE46EE6DE17CE7DDCF08E2F6
:1041A00021E045EE6EE17CE7D7CFFB0185818111EF
:1041B0001092010481E0D3CF90930704809306040A
:1041C0000895E0910604F0910704309729F00190DA
:1041D000F081E02D0995089580E008950E94E12086
:1041E0000895E0910604F0910704309721F00280D1
:1041F000F381E02D09950895DC01E0910604F0912A
:104200000704309739F086E08C930480F581E02D27
:10421000CD0109950895DC01E0910604F0910704B1
:10422000309739F082E08C930680F781E02DCD0144
:1042300009950895A3E0B0E0E0E2F1E20C948C2C43
:104240009C01809104049091050482179307A1F0CA
:104250003093050420930404E0910604F0910704D0
:10426000309751F083E089833B832A830084F18572
:10427000E02DCE01019609952396E2E00C94A82C3E
:10428000A3E0B0E0E6E4F1E20C948C2C9C01809178
:1042900002049091030482179307A1F03093030462
:1042A00020930204E0910604F0910704309751F046
:1042B00084E089833B832A830084F185E02DCE014D
:1042C000019609952396E2E00C94A82C2091A50173
:1042D0003091A6012E5F3F4F8091D8018115C9F022
:1042E0008091140487FF15C02091A3013091A4018F
:1042F0002E5F3F4F6EE1A90180E0FA0190814F5F90
:104300005F4F91118F5F962F941B920F9111F5CFF4
:10431000089566E0F0CF811529F19091D8019115AB
:1043200019F19091140497FF1FC0982F96959695B8
:104330009695803FB8F4E091A301F091A401E90FB4
:10434000F11D228130E0877041E050E0BA0102C0E7
:10435000660F771F8A95E2F7CB012623392381E088
:10436000232B91F480E008952091A5013091A601BE
:10437000F9013296285F3F4F9191981721F0E2178B
:10438000F307D1F7EFCF81E008959C01FC0132964D
:104390008FEF90E04191461751F08F3F19F4411192
:1043A00001C0892F9F5F9630A9F78F3F09F40895C8
:1043B000280F311D87FD3A95F901628308959C010C
:1043C000FC013296285F3F4F8191861303C0DF01C5
:1043D00011971C92E217F307B9F70895FC01862F95
:1043E000869586958695603F60F4E80FF11D6770AD
:1043F00021E030E001C0220F6A95EAF78281822B2A
:1044000082830895FC01862F869586958695603F68
:1044100080F4E80FF11D677081E090E09C0102C01C
:10442000220F331F6A95E2F7B901609582816823F4
:1044300062830895682F8091D801811559F0809189
:10444000140487FF07C08091A3019091A4010E94EA
:10445000EE2108958091A5019091A6010E94C521A9
:104460000895682F8091D801811559F08091140426
:1044700087FF07C08091A3019091A4010E940222AE
:1044800008958091A5019091A6010E94DF210895D1
:104490008091D801811579F08091140487FF0BC0B9
:1044A000E091A301F091A40132968EE1DF011D920B
:1044B0008A95E9F70895E091A501F091A601329659
:1044C00086E0F4CFDC01FB0111969C91119781816C
:1044D000981322C012968C911297811519F092812F
:1044E00089131AC013968C911397811519F0938133
:1044F000891312C015968C911597811519F0958125
:1045000089130AC014969C91911521F081E02481B1
:10451000291303C080E001C081E0817008950895EF
:104520000E948F2208958F5F809308040E9490223A
:10453000089583E0809308040E94902208950E94C9
:104540009322089581E0809308040E9490220895A8
:104550000E94A2220895089508950E94AC22089511
:10456000089508950E94AB220895CF930E94B0222F
:104570000E948E140E94B122C0E08C2F0E94C713AB
:10458000892B31F4CF5FC330C1F780E0CF9108951C
:1045900081E0FCCF85B7806885BF85B7806885BF1F
:1045A00008951F921FB61F9211248F939F93AF936C
:1045B000BF9380910904811113C0809122049091CE
:1045C0002304A0912404B09125044196A11DB11D9E
:1045D0008093220490932304A0932404B093250491
:1045E000BF91AF919F918F911F901FBE1F90189503
:1045F00080912A04843031F10E940A051092090446
:1046000088E190E020E40FB6F894A89580936000CC
:104610000FBE2093600083B7817F846083BF83B720
:10462000816083BF7894889583B78E7F83BF0FB6F0
:10463000F894A89580916000886180936000109242
:1046400060000FBE08950E949B090E940F05089507
:1046500082E084BD93E095BD9AEF97BD80936E0094
:1046600008952FB7F8948091220490912304A0918B
:104670002404B09125042FBF08952FB7F8946091BA
:1046800022047091230480912404909125042FBF6B
:1046900008959C014FB7F8948091220490912304CF
:1046A000A0912404B09125044FBF821B930B089561
:1046B00078941F921FB61F9211248F939F93AF93EC
:1046C000BF938091220490912304A0912404B0917F
:1046D00025040196A11DB11D80932204909323040B
:1046E000A0932404B0932504BF91AF919F918F9123
:1046F0001F901FBE1F90189581E08093E00080E21C
:104700008093D8001092C9008FE19EE40197F1F7E1
:1047100000C0000087E090EBDC01809333049093AD
:104720003404A0933504B093360488E19CE00FB6BE
:10473000F894A895809360000FBE90936000FFCF1F
:1047400088E19CE00FB6F894A895809360000FBEB6
:1047500090936000FFCF809112040895282FCB0121
:10476000BA0130912A043430D9F42F702093E90033
:104770002FEF3091E80035FD06C035ED3A95F1F7A1
:1047800000002A95B1F72091E80025FF09C040E01C
:1047900050E00E9429268091E8008E778093E800FF
:1047A0000895BC0143E050E082E00E94AE230895EA
:1047B000BC0146E050E082E00E94AE230895BC01B7
:1047C00040E250E082E00E94AE230895CF93DF9351
:1047D000D82FC92F48E050E0682F792F81E00E9440
:1047E000AE2388E0ED2FFC2FAAE0B4E001900D92FB
:1047F0008A95E1F7DF91CF91089580912904811185
:1048000009C00E94B0270E940D288091E2008460B8
:104810008093E20008951092290408950E94A22234
:1048200008956091260481E0611101C080E00E943A
:104830009922089590912A0481E0943009F080E053
:10484000609126040E949F22089542E061EC81E07D
:104850000E942D2742E261EC82E00E942D2742E077
:1048600061EC83E00E942D2742E160E885E00E9430
:104870002D2742E161E884E00E942D2790912A04CF
:1048800081E0943009F080E0609126040E94932238
:10489000089580912C04893009F44AC068F482306C
:1048A00009F4A6C0833009F475C0813011F183EB9F
:1048B00091E00E94862B08958A3009F488C08B30DD
:1048C000B1F780912B04813291F780912F04909160
:1048D0003004892B61F78091E800877F8093E8009E
:1048E0000E94612780912D048093D8010E949B092A
:1048F000DECF80912B04813AD1F68091E800877F4A
:104900008093E80080912F0490913004892B61F00E
:1049100060E080E090E070E00E9478268091E800FE
:104920008B778093E800C3CF68E08AE094E0F3CF10
:1049300080912B04813209F0BACF80912F0490919D
:104940003004029708F0B3CF8091E800877F80930E
:10495000E8008091E80082FF18C09091F3008091F8
:10496000F200029731F48091F100813011F086302D
:1049700021F48091F100809312048091E8008B77FC
:104980008093E8000E94612792CF80912A048111D0
:10499000E0CF089580912B04813A09F088CF80916F
:1049A0002F0490913004892B09F081CF8091E80089
:1049B000877F8093E8008091E80080FFFCCF8091A2
:1049C000D8018093F1008091E8008E77D9CF809153
:1049D0002B04813209F06BCF8091E800877F8093B0
:1049E000E8000E94612780912E04809313045FCF1A
:1049F00080912B04813A09F05ACF8091E800877F9B
:104A00008093E8008091E80080FFFCCF8091130440
:104A1000D8CF82E090E09093C6018093C50183EBEC
:104A200091E00E944A2B08950895CF93DF9383EB82
:104A300091E00E94F22AEC01209719F4DF91CF91C6
:104A4000089583EB91E00E941A2B0E941425219770
:104A5000F3CFCF939091E900C091EC002091C30176
:104A600020FF15C0C795CC27C7959F70C92B909183
:104A7000B4019F709093E9009091EB0090FF04C007
:104A80009091EE0097FD05C0CF70C093E900CF91E3
:104A900008959FEF2091E80025FD06C025ED2A9599
:104AA000F1F700009A95B1F78093F10083EB91E064
:104AB0000E94AB2A8091E80080FFE6CF8091E80059
:104AC0008E778093E800E0CF84B7877F84BF0FB6EE
:104AD000F894A8958091600088618093600010929E
:104AE00060000FBE80E890E00FB6F89480936100FC
:104AF000909361000FBE0E94A82208950E94B027E3
:104B00000E940D28E2EEF0E080818460808378943A
:104B10000E94912A08958EEC91E00E94DC20089575
:104B200080912A04853031F480912A04853019F06F
:104B30000E94232308950E94F82280912804811561
:104B400099F30E94B522811579F30E9413260E94E1
:104B50009B09EACF0E94152583EB91E00E94D92A98
:104B600008959A0140913104509132040E94B92570
:104B70000895AC01CB01D901252F3327233031050E
:104B8000D1F070F42130310509F43EC022303105F6
:104B900069F488E790E02AEE33E02D933C93089582
:104BA00021323105E9F02232310521F180E090E037
:104BB00020E030E0F2CFCA019927413059F082302D
:104BC000910559F0E6EEF3E0892B81F7849190E0AE
:104BD0009F01E3CFE6ECF3E0F9CFE4EBF3E0F6CFAF
:104BE000892BB9F06130710509F789E090E025E182
:104BF00034E0D3CF892B91F061307105B9F686EBA3
:104C000090E024E734E0C9CF82E190E022E634E08E
:104C1000C4CF89E090E02CEF33E0BFCF84E490E094
:104C20002AE235E0BACF80E189BD82E189BD09B4CD
:104C300000FEFDCF8091D8008F7D8093D8008091B9
:104C4000E00082608093E0008091E00081FDFCCF75
:104C50000895AF92BF92CF92DF92FF920F931F936E
:104C6000CF93DF936C01EB018A010E948027F82E1D
:104C7000811123C00115110539F0F801808191815E
:104C8000C81BD90BC80ED91EA12CB12C2097A9F096
:104C90008091E80085FD22C08091E8008E778093A6
:104CA000E80001151105A1F0F801808191818A0DBC
:104CB0009B1D9183808385E0F82E8F2DDF91CF910E
:104CC0001F910F91FF90DF90CF90BF90AF9008950C
:104CD0000E9480278115D1F2F82EEFCFF601819145
:104CE0006F018093F1002197FFEFAF1ABF0ACECF7B
:104CF000FC019B0180913104909132048617970743
:104D000018F0672B61F0C90140E0009771F4411180
:104D10000CC08091E80082FF35C080E0089580914A
:104D2000E8008E778093E800EECF20912A042115C9
:104D3000A9F12530A9F12091E80023FD2DC0209193
:104D4000E80022FDE6CF2091E80020FFDECF309181
:104D5000F3002091F200009719F02830310558F047
:104D600041E02830310509F040E02091E8002E773D
:104D70002093E800CACF41914093F10001972F5F43
:104D80003F4FE9CF80912A04811541F0853041F0F1
:104D90008091E80083FFBDCF81E0089582E008950F
:104DA00083E00895FC019B018091310490913204CD
:104DB0008617970718F0672B61F0C90140E000974C
:104DC00071F441110CC08091E80082FF36C080E090
:104DD00008958091E8008E778093E800EECF2091CF
:104DE0002A042115B1F12530B1F12091E80023FD0D
:104DF0002EC02091E80022FDE6CF2091E80020FFA0
:104E0000DECF3091F3002091F200009719F02830A6
:104E1000310558F041E02830310509F040E020919B
:104E2000E8002E772093E800CACF44914093F10028
:104E3000319601972F5F3F4FE8CF80912A0481156B
:104E400041F0853041F08091E80083FFBCCF81E0E4
:104E5000089582E0089583E00895982F973028F010
:104E60008F708093E90081E008959093E900242FEA
:104E7000762F50E0981731F07091EC002091ED0002
:104E80005091F00021FD02C09F5FE8CF3091EB0010
:104E90003E7F3093EB003091ED003D7F3093ED008D
:104EA0003091EB0031603093EB007093EC00209375
:104EB000ED005093F0002091EE0027FDE5CF80E05B
:104EC000089580912B0487FF13C08091E80082FF32
:104ED00006C08091E8008B778093E8000895809168
:104EE0002A048111F2CF089580912A048115D9F303
:104EF0008091E80080FFF8CF8091E8008E77ECCFBA
:104F00002091E4003091E50095E6A9018091EC0044
:104F10008170811531F08091E80080FF06C080E04B
:104F200008952091E80022FD1AC080912A0481157D
:104F300089F0853089F08091EB0085FD0FC02091CC
:104F4000E4003091E5004217530701F39A95E9F622
:104F500084E0089582E0089583E0089581E0089553
:104F60000E941F280E942728E0EEF0E080818160E7
:104F70008083E8EDF0E080818F77808319BCA7ED16
:104F8000B0E08C918E7F8C9380818F7E8083109295
:104F9000290408950F931F93CF93DF930E941F2836
:104FA0000E942728C8EDD0E088818F778883888188
:104FB0008068888388818F7D888319BC10922A0439
:104FC00010922604109228041092270400EE10E09C
:104FD000F80180818B7F808388818160888342E0B3
:104FE00060E080E00E942D27E1EEF0E080818E7F7E
:104FF0008083E2EEF0E08081816080838081886040
:105000008083F80180818E7F80838881806188839E
:10501000DF91CF911F910F910895E8EDF0E080812D
:105020008F7E8083E7EDF0E080818160808384E083
:1050300082BF81E0809329040E94CA270895E8ED89
:10504000F0E080818E7F80831092E20008951092BC
:10505000DA001092E10008951F920F920FB60F929E
:1050600011242F933F934F935F936F937F938F936D
:105070009F93AF93BF93EF93FF938091E10082FFE3
:105080000BC08091E20082FF07C08091E1008B7F1E
:105090008093E1000E94902A8091DA0080FF19C07D
:1050A0008091D80080FF15C08091DA008E7F8093B8
:1050B000DA008091D90080FF94C080E189BD82E14F
:1050C00089BD09B400FEFDCF81E080932A040E94CF
:1050D000FD238091E10080FF19C08091E20080FFF4
:1050E00015C08091E2008E7F8093E2008091E20003
:1050F00080618093E2008091D80080628093D80024
:1051000019BC85E080932A040E9411248091E1005B
:1051100084FF29C08091E20084FF25C080E189BD21
:1051200082E189BD09B400FEFDCF8091D8008F7D5A
:105130008093D8008091E1008F7E8093E100809180
:10514000E2008F7E8093E2008091E2008160809394
:10515000E20080912604811509F449C084E080931F
:105160002A040E941A248091E10083FF29C08091C3
:10517000E20083FF25C08091E100877F8093E100FA
:1051800082E080932A04109226048091E1008E7FB1
:105190008093E1008091E2008E7F8093E200809115
:1051A000E20080618093E20042E060E080E00E94E3
:1051B0002D278091F00088608093F0000E940E24DB
:1051C000FF91EF91BF91AF919F918F917F916F91DF
:1051D0005F914F913F912F910F900FBE0F901F90B5
:1051E000189519BC10922A040E940B2472CF80914A
:1051F000E30087FF02C083E0B2CF81E0B0CF1F920F
:105200000F920FB60F921124FF920F931F932F93BB
:105210003F934F935F936F937F938F939F93AF933E
:10522000BF93CF93DF93EF93FF9309EE10E0F80164
:105230008081C091EC00C795CC27C7958F70FC2E5C
:10524000F82A1082C0EFD0E08881877F8883789425
:105250000E944829F8011082888188608883CF2DB8
:10526000CF70C083FF91EF91DF91CF91BF91AF914C
:105270009F918F917F916F915F914F913F912F916E
:105280001F910F91FF900F900FBE0F901F901895D8
:10529000AAE2B0E0EEE4F9E20C948B2C8BE294E00D
:1052A000FC0101962091F100208324E083339207D2
:1052B000B9F70E9449248091E80083FF39C08091AA
:1052C0002B0490912C049A3098F5E92FF0E0E758E0
:1052D000F24D0C94762C803889F0823849F5809113
:1052E0002F048F70873020F58093E9008091EB00C8
:1052F00085FB882780F91092E90007C09091280467
:105300009195927080912704892B9091E800977F66
:105310009093E8008093F1001092F1008091E800F2
:105320008E7723C0811116C080912D04813011F138
:105330008091E80083FF0AC08091E800877F809316
:10534000E8008091EB0080628093EB00AA96E3E096
:105350000C94A72C823061F780912D04811589F07F
:105360001092E9008091E800877F8093E8000E9416
:105370006127DECF81E0933009F080E0809328043C
:10538000EFCF80912F048F702FEF280F263080F6FB
:105390008093E9002091EB0020FFE2CF933031F4BD
:1053A0008091EB0080628093EB00DACF9091EB006C
:1053B00090619093EB0021E030E0A90102C0440F1E
:1053C000551F8A95E2F74093EA001092EA00809117
:1053D000EB008860E8CF8111ABCF10912D041F77CF
:1053E0008091E3008078812B8093E3008091E80036
:1053F000877F8093E8000E9461278091E80080FF0A
:10540000FCCF8091E30080688093E30083E011117A
:1054100001C082E080932A048BCF8058823008F04C
:1054200087CF80912D0490912E048C3D53E09507F9
:1054300099F583E08A838AE289834FB7F894DE0185
:10544000139620E03EE051E2E32FF0E05093570046
:10545000849120FF03C082958F703F5F8F708A30E8
:10546000C8F0895C90E08D939D932F5F243161F7A4
:105470004FBF8091E800877F8093E8006AE270E088
:10548000CE0101960E9478268091E8008B77809368
:10549000E8004ECF805DE6CF60912F04709130041C
:1054A000AE014F5F5F4F0E94B125BC01892B09F40B
:1054B0003FCF8091E800877F8093E80089819A81BF
:1054C0000E94D226E1CF803809F032CF8091E800E7
:1054D000877F8093E800809126048093F1001ECF9F
:1054E000811126CF90912D04923008F021CF809128
:1054F000E800877F8093E800909326040E9461274C
:1055000080912604811531F084E080932A040E9462
:1055100025240ECF8091E30087FDF6CF81E0F5CF03
:105520000895CF9380912A04811599F08091E90024
:10553000C091EC00C795CC27C7958F70C82B1092EF
:10554000E9008091E80083FD0E944829CF70C09354
:10555000E900CF910895FC0180912A04843039F547
:1055600084899589A689B789892B8A2B8B2BF9F099
:1055700081818F708093E9009091F3008091F20017
:10558000892B11F480E008959091E8008091E80063
:105590008E778093E80095FDF5CF0E9480278111DA
:1055A00007C09091E8009E779093E800089582E00C
:1055B0000895FC0180912A04843099F484899589A6
:1055C000A689B789892B8A2B8B2B59F081818F7003
:1055D0008093E9008091E80080FF03C0CF010E9422
:1055E000AB2A0895FC0180912A048430D9F484897F
:1055F0009589A689B789892B8A2B8B2B99F086816F
:105600008F708093E9008091E80082FF0BC0909139
:10561000F3008091F200892B41F48091E8008B77B0
:105620008093E80080E090E008959091F3008091ED
:10563000F2000895FC0180912A04843019F08FEF64
:105640009FEF089584899589A689B789892B8A2B2C
:105650008B2BA9F386818F708093E9008091E800FD
:1056600082FFEDCF9091F3008091F200892B79F0C9
:105670008091F10090E03091F3002091F200232B13
:1056800029F42091E8002B772093E80008958FEF0C
:105690009FEFF1CFA8E0B0E0E0E5FBE20C948A2CAC
:1056A0008C0180912A04843059F5F8018489958908
:1056B000A689B789892B8A2B8B2B11F183858F7053
:1056C0008093E90088E0E9EDF1E0DE0111960190B8
:1056D0000D928A95E1F740E050E068E070E0CE017D
:1056E00001960E94292640E050E062E070E0C80187
:1056F00042960E9429268091E8008E778093E800E8
:105700002896E4E00C94A62C08950895CF93DF9397
:10571000EC018091E80083FF13C0288180912F0461
:10572000909130042817190659F480912C04823284
:1057300009F484C040F4803209F44DC08132B1F0E4
:10574000DF91CF9108958332D9F780912B04813274
:10575000B9F78091E800877F8093E8000E94612775
:1057600060912D04CE010E94852BEACF80912B04FD
:10577000813A31F78091E800877F8093E80080913B
:10578000E80080FFFCCF8C899D89AE89BF8980931A
:10579000F100492F5A2F6B2F77274093F100AD016D
:1057A000662777274093F1008B2F9927AA27BB27DD
:1057B0008093F100888D8093F100898D8093F100B2
:1057C0008A8D8093F1008091E8008E778093E800C5
:1057D0000E946127B5CF80912B04813209F0B0CFB0
:1057E0008091E800877F8093E8008091E80082FF45
:1057F00020C03091F1002091F1009091F100809152
:10580000F1003C8B2D8B9E8B8F8B8091F100888FCC
:105810008091F100898F8091F1008A8F8091E8005A
:105820008B778093E8000E946127CE010E94842B31
:1058300087CF80912A048111D8CF82CF80912B0409
:10584000813209F07DCF8091E800877F8093E80066
:105850000E94612780912D0490912E04998B888B52
:10586000CE010E94842B6CCF991B79E004C0991F54
:10587000961708F0961B881F7A95C9F780950895AA
:1058800097FB072E16F4009407D077FD09D00E94ED
:10589000B32C07FC05D03EF4909581959F4F089559
:1058A000709561957F4F0895A1E21A2EAA1BBB1B2C
:1058B000FD010DC0AA1FBB1FEE1FFF1FA217B307DC
:1058C000E407F50720F0A21BB30BE40BF50B661FF2
:1058D000771F881F991F1A9469F7609570958095B6
:1058E00090959B01AC01BD01CF010895EE0FFF1F04
:1058F0000590F491E02D09942F923F924F925F9280
:105900006F927F928F929F92AF92BF92CF92DF92CF
:10591000EF92FF920F931F93CF93DF93CDB7DEB734
:10592000CA1BDB0B0FB6F894DEBF0FBECDBF0994C8
:105930002A88398848885F846E847D848C849B841F
:10594000AA84B984C884DF80EE80FD800C811B812D
:10595000AA81B981CE0FD11D0FB6F894DEBF0FBE5C
:10596000CDBFED010895AA1BBB1B51E107C0AA1FC3
:10597000BB1FA617B70710F0A61BB70B881F991FF0
:105980005A95A9F780959095BC01CD010895FB012A
:10599000DC0104C08D910190801921F441505040E8
:1059A000C8F7881B990B0895FB01DC0102C0019028
:1059B0000D9241505040D8F70895F999FECF92BD0D
:1059C00081BDF89A992780B50895A8E1B0E042E03A
:1059D00050E00C94212DDC01A40FB51F4150504024
:1059E00048F0CB01840F951F2E910E94FC2C415052
:1059F0005040D0F70895262FF999FECF92BD81BD72
:105A0000F89A019700B4021639F01FBA20BD0FB6FC
:105A1000F894FA9AF99A0FBE08950396272F0E94D8
:105A2000FC2C0E94FB2C252F0E94FC2C242F0C9474
:105A3000FC2C0196272F0E94FC2C0C94FB2CDC01E3
:105A4000CB01FC01F999FECF06C0F2BDE1BDF89A89
:105A5000319600B40D9241505040B8F70895F89433
:105A6000FFCF78077807BF07BF0724084108A707BB
:105A7000A7074608BD08CE08CE08571CCA1C5F1CE5
:105A8000291C2D1C631C311C671C731C3D1CC31C72
:105A9000411C771C451C7B1CA21C491C7F1CA91C9B
:105AA0004F1C851C8D1C351C6B1C391C6F1C531C1A
:105AB000891C991CB21CC11C231C5B1CD11C881D99
:105AC0008E1D911D971DAC1DAC1DAC1DAC1DAC1DDC
:105AD000AC1DAC1DAC1D9A1D9F1DA31DA91DBA1D9B
